{
  "_format": "hh-sol-artifact-1",
  "contractName": "CarDetails",
  "sourceName": "contracts/cardetails.sol",
  "abi": [
    {
      "anonymous": false,
      "inputs": [
        {
          "components": [
            {
              "internalType": "uint32",
              "name": "id",
              "type": "uint32"
            },
            {
              "internalType": "uint32",
              "name": "chassisNumber",
              "type": "uint32"
            },
            {
              "internalType": "uint32",
              "name": "mileage",
              "type": "uint32"
            },
            {
              "internalType": "uint32",
              "name": "price",
              "type": "uint32"
            },
            {
              "internalType": "string",
              "name": "licensePlate",
              "type": "string"
            },
            {
              "internalType": "string",
              "name": "brand",
              "type": "string"
            },
            {
              "internalType": "string",
              "name": "carType",
              "type": "string"
            },
            {
              "internalType": "string",
              "name": "colour",
              "type": "string"
            },
            {
              "internalType": "string[]",
              "name": "pictures",
              "type": "string[]"
            },
            {
              "internalType": "bool",
              "name": "isForSale",
              "type": "bool"
            }
          ],
          "indexed": false,
          "internalType": "struct CarDetails.Car",
          "name": "car",
          "type": "tuple"
        }
      ],
      "name": "NewCar",
      "type": "event"
    },
    {
      "anonymous": false,
      "inputs": [
        {
          "indexed": true,
          "internalType": "address",
          "name": "previousOwner",
          "type": "address"
        },
        {
          "indexed": true,
          "internalType": "address",
          "name": "newOwner",
          "type": "address"
        }
      ],
      "name": "OwnershipTransferred",
      "type": "event"
    },
    {
      "inputs": [
        {
          "internalType": "uint32",
          "name": "",
          "type": "uint32"
        }
      ],
      "name": "carToOwner",
      "outputs": [
        {
          "internalType": "address",
          "name": "",
          "type": "address"
        }
      ],
      "stateMutability": "view",
      "type": "function"
    },
    {
      "inputs": [
        {
          "internalType": "uint256",
          "name": "",
          "type": "uint256"
        }
      ],
      "name": "cars",
      "outputs": [
        {
          "internalType": "uint32",
          "name": "id",
          "type": "uint32"
        },
        {
          "internalType": "uint32",
          "name": "chassisNumber",
          "type": "uint32"
        },
        {
          "internalType": "uint32",
          "name": "mileage",
          "type": "uint32"
        },
        {
          "internalType": "uint32",
          "name": "price",
          "type": "uint32"
        },
        {
          "internalType": "string",
          "name": "licensePlate",
          "type": "string"
        },
        {
          "internalType": "string",
          "name": "brand",
          "type": "string"
        },
        {
          "internalType": "string",
          "name": "carType",
          "type": "string"
        },
        {
          "internalType": "string",
          "name": "colour",
          "type": "string"
        },
        {
          "internalType": "bool",
          "name": "isForSale",
          "type": "bool"
        }
      ],
      "stateMutability": "view",
      "type": "function"
    },
    {
      "inputs": [
        {
          "internalType": "uint32",
          "name": "_chassisNumber",
          "type": "uint32"
        },
        {
          "internalType": "uint32",
          "name": "_mileage",
          "type": "uint32"
        },
        {
          "internalType": "uint32",
          "name": "_price",
          "type": "uint32"
        },
        {
          "internalType": "string",
          "name": "_licensePlate",
          "type": "string"
        },
        {
          "internalType": "string",
          "name": "_brand",
          "type": "string"
        },
        {
          "internalType": "string",
          "name": "_carType",
          "type": "string"
        },
        {
          "internalType": "string",
          "name": "_colour",
          "type": "string"
        },
        {
          "internalType": "string[]",
          "name": "_pictures",
          "type": "string[]"
        },
        {
          "internalType": "bool",
          "name": "_isForSale",
          "type": "bool"
        }
      ],
      "name": "createCar",
      "outputs": [],
      "stateMutability": "nonpayable",
      "type": "function"
    },
    {
      "inputs": [
        {
          "internalType": "uint32",
          "name": "_carId",
          "type": "uint32"
        }
      ],
      "name": "deleteCar",
      "outputs": [],
      "stateMutability": "nonpayable",
      "type": "function"
    },
    {
      "inputs": [
        {
          "internalType": "address",
          "name": "_owner",
          "type": "address"
        }
      ],
      "name": "getAllCarsForOwner",
      "outputs": [
        {
          "components": [
            {
              "internalType": "uint32",
              "name": "id",
              "type": "uint32"
            },
            {
              "internalType": "uint32",
              "name": "chassisNumber",
              "type": "uint32"
            },
            {
              "internalType": "uint32",
              "name": "mileage",
              "type": "uint32"
            },
            {
              "internalType": "uint32",
              "name": "price",
              "type": "uint32"
            },
            {
              "internalType": "string",
              "name": "licensePlate",
              "type": "string"
            },
            {
              "internalType": "string",
              "name": "brand",
              "type": "string"
            },
            {
              "internalType": "string",
              "name": "carType",
              "type": "string"
            },
            {
              "internalType": "string",
              "name": "colour",
              "type": "string"
            },
            {
              "internalType": "string[]",
              "name": "pictures",
              "type": "string[]"
            },
            {
              "internalType": "bool",
              "name": "isForSale",
              "type": "bool"
            }
          ],
          "internalType": "struct CarDetails.Car[]",
          "name": "",
          "type": "tuple[]"
        }
      ],
      "stateMutability": "view",
      "type": "function"
    },
    {
      "inputs": [
        {
          "internalType": "uint256",
          "name": "_carId",
          "type": "uint256"
        }
      ],
      "name": "getCar",
      "outputs": [
        {
          "components": [
            {
              "internalType": "uint32",
              "name": "id",
              "type": "uint32"
            },
            {
              "internalType": "uint32",
              "name": "chassisNumber",
              "type": "uint32"
            },
            {
              "internalType": "uint32",
              "name": "mileage",
              "type": "uint32"
            },
            {
              "internalType": "uint32",
              "name": "price",
              "type": "uint32"
            },
            {
              "internalType": "string",
              "name": "licensePlate",
              "type": "string"
            },
            {
              "internalType": "string",
              "name": "brand",
              "type": "string"
            },
            {
              "internalType": "string",
              "name": "carType",
              "type": "string"
            },
            {
              "internalType": "string",
              "name": "colour",
              "type": "string"
            },
            {
              "internalType": "string[]",
              "name": "pictures",
              "type": "string[]"
            },
            {
              "internalType": "bool",
              "name": "isForSale",
              "type": "bool"
            }
          ],
          "internalType": "struct CarDetails.Car",
          "name": "",
          "type": "tuple"
        }
      ],
      "stateMutability": "view",
      "type": "function"
    },
    {
      "inputs": [
        {
          "internalType": "uint32",
          "name": "_carId",
          "type": "uint32"
        }
      ],
      "name": "getCarOwner",
      "outputs": [
        {
          "internalType": "address",
          "name": "ownerAddress",
          "type": "address"
        }
      ],
      "stateMutability": "view",
      "type": "function"
    },
    {
      "inputs": [],
      "name": "getCarsForSale",
      "outputs": [
        {
          "components": [
            {
              "internalType": "uint32",
              "name": "id",
              "type": "uint32"
            },
            {
              "internalType": "uint32",
              "name": "chassisNumber",
              "type": "uint32"
            },
            {
              "internalType": "uint32",
              "name": "mileage",
              "type": "uint32"
            },
            {
              "internalType": "uint32",
              "name": "price",
              "type": "uint32"
            },
            {
              "internalType": "string",
              "name": "licensePlate",
              "type": "string"
            },
            {
              "internalType": "string",
              "name": "brand",
              "type": "string"
            },
            {
              "internalType": "string",
              "name": "carType",
              "type": "string"
            },
            {
              "internalType": "string",
              "name": "colour",
              "type": "string"
            },
            {
              "internalType": "string[]",
              "name": "pictures",
              "type": "string[]"
            },
            {
              "internalType": "bool",
              "name": "isForSale",
              "type": "bool"
            }
          ],
          "internalType": "struct CarDetails.Car[]",
          "name": "",
          "type": "tuple[]"
        }
      ],
      "stateMutability": "view",
      "type": "function"
    },
    {
      "inputs": [],
      "name": "isOwner",
      "outputs": [
        {
          "internalType": "bool",
          "name": "",
          "type": "bool"
        }
      ],
      "stateMutability": "view",
      "type": "function"
    },
    {
      "inputs": [],
      "name": "owner",
      "outputs": [
        {
          "internalType": "address",
          "name": "",
          "type": "address"
        }
      ],
      "stateMutability": "view",
      "type": "function"
    },
    {
      "inputs": [],
      "name": "renounceOwnership",
      "outputs": [],
      "stateMutability": "nonpayable",
      "type": "function"
    },
    {
      "inputs": [
        {
          "internalType": "uint256",
          "name": "_carId",
          "type": "uint256"
        }
      ],
      "name": "toggleSaleState",
      "outputs": [],
      "stateMutability": "nonpayable",
      "type": "function"
    },
    {
      "inputs": [
        {
          "internalType": "address",
          "name": "newOwner",
          "type": "address"
        }
      ],
      "name": "transferOwnership",
      "outputs": [],
      "stateMutability": "nonpayable",
      "type": "function"
    },
    {
      "inputs": [
        {
          "internalType": "uint256",
          "name": "_carId",
          "type": "uint256"
        },
        {
          "internalType": "uint32",
          "name": "_newMileage",
          "type": "uint32"
        }
      ],
      "name": "updateMileage",
      "outputs": [],
      "stateMutability": "nonpayable",
      "type": "function"
    },
    {
      "inputs": [
        {
          "internalType": "uint256",
          "name": "_carId",
          "type": "uint256"
        },
        {
          "internalType": "uint32",
          "name": "_newPrice",
          "type": "uint32"
        }
      ],
      "name": "updatePrice",
      "outputs": [],
      "stateMutability": "nonpayable",
      "type": "function"
    }
  ],
  "bytecode": "0x608060405234801561001057600080fd5b50336000806101000a81548173ffffffffffffffffffffffffffffffffffffffff021916908373ffffffffffffffffffffffffffffffffffffffff16021790555060008054906101000a900473ffffffffffffffffffffffffffffffffffffffff1673ffffffffffffffffffffffffffffffffffffffff16600073ffffffffffffffffffffffffffffffffffffffff167f8be0079c531659141344cd1fd0a4f28419497f9722a3daafe3b4186f6b6457e060405160405180910390a36132e7806100db6000396000f3fe608060405234801561001057600080fd5b50600436106100f55760003560e01c80638da5cb5b11610097578063d4d942ec11610066578063d4d942ec14610272578063f2fde38b1461028e578063f7746e36146102aa578063f95fe25b146102e2576100f5565b80638da5cb5b146101ea5780638f32d59b1461020857806391a2077614610226578063b275decc14610256576100f5565b8063628dd13e116100d3578063628dd13e1461018a578063715018a6146101a657806376b4646d146101b05780637edffa53146101ce576100f5565b80632286c0c1146100fa57806339c98a1b1461012a5780635e8be1901461015a575b600080fd5b610114600480360381019061010f91906122a0565b6102fe565b6040516101219190612611565b60405180910390f35b610144600480360381019061013f919061265f565b610830565b604051610151919061269b565b60405180910390f35b610174600480360381019061016f91906126ec565b610879565b604051610181919061280f565b60405180910390f35b6101a4600480360381019061019f91906126ec565b610c8a565b005b6101ae610d0e565b005b6101b8610ddd565b6040516101c59190612611565b60405180910390f35b6101e860048036038101906101e39190612831565b611349565b005b6101f2611425565b6040516101ff919061269b565b60405180910390f35b61021061144e565b60405161021d9190612880565b60405180910390f35b610240600480360381019061023b919061265f565b6114a5565b60405161024d919061269b565b60405180910390f35b610270600480360381019061026b919061265f565b6114d8565b005b61028c60048036038101906102879190612ae2565b6116dc565b005b6102a860048036038101906102a391906122a0565b611a89565b005b6102c460048036038101906102bf91906126ec565b611aa6565b6040516102d999989796959493929190612c91565b60405180910390f35b6102fc60048036038101906102f79190612831565b611d71565b005b6060600061030b83611dca565b67ffffffffffffffff811115610324576103236128a5565b5b60405190808252806020026020018201604052801561035d57816020015b61034a6120c6565b8152602001906001900390816103425790505b5090506000805b600180549050811015610825578473ffffffffffffffffffffffffffffffffffffffff16600260008363ffffffff1663ffffffff16815260200190815260200160002060009054906101000a900473ffffffffffffffffffffffffffffffffffffffff1673ffffffffffffffffffffffffffffffffffffffff160361081257600181815481106103f7576103f6612d3a565b5b9060005260206000209060070201604051806101400160405290816000820160009054906101000a900463ffffffff1663ffffffff1663ffffffff1681526020016000820160049054906101000a900463ffffffff1663ffffffff1663ffffffff1681526020016000820160089054906101000a900463ffffffff1663ffffffff1663ffffffff16815260200160008201600c9054906101000a900463ffffffff1663ffffffff1663ffffffff1681526020016001820180546104b990612d98565b80601f01602080910402602001604051908101604052809291908181526020018280546104e590612d98565b80156105325780601f1061050757610100808354040283529160200191610532565b820191906000526020600020905b81548152906001019060200180831161051557829003601f168201915b5050505050815260200160028201805461054b90612d98565b80601f016020809104026020016040519081016040528092919081815260200182805461057790612d98565b80156105c45780601f10610599576101008083540402835291602001916105c4565b820191906000526020600020905b8154815290600101906020018083116105a757829003601f168201915b505050505081526020016003820180546105dd90612d98565b80601f016020809104026020016040519081016040528092919081815260200182805461060990612d98565b80156106565780601f1061062b57610100808354040283529160200191610656565b820191906000526020600020905b81548152906001019060200180831161063957829003601f168201915b5050505050815260200160048201805461066f90612d98565b80601f016020809104026020016040519081016040528092919081815260200182805461069b90612d98565b80156106e85780601f106106bd576101008083540402835291602001916106e8565b820191906000526020600020905b8154815290600101906020018083116106cb57829003601f168201915b5050505050815260200160058201805480602002602001604051908101604052809291908181526020016000905b828210156107c257838290600052602060002001805461073590612d98565b80601f016020809104026020016040519081016040528092919081815260200182805461076190612d98565b80156107ae5780601f10610783576101008083540402835291602001916107ae565b820191906000526020600020905b81548152906001019060200180831161079157829003601f168201915b505050505081526020019060010190610716565b5050505081526020016006820160009054906101000a900460ff1615151515815250508383815181106107f8576107f7612d3a565b5b6020026020010181905250818061080e90612df8565b9250505b808061081d90612df8565b915050610364565b508192505050919050565b6000600260008363ffffffff1663ffffffff16815260200190815260200160002060009054906101000a900473ffffffffffffffffffffffffffffffffffffffff169050919050565b6108816120c6565b6001828154811061089557610894612d3a565b5b9060005260206000209060070201604051806101400160405290816000820160009054906101000a900463ffffffff1663ffffffff1663ffffffff1681526020016000820160049054906101000a900463ffffffff1663ffffffff1663ffffffff1681526020016000820160089054906101000a900463ffffffff1663ffffffff1663ffffffff16815260200160008201600c9054906101000a900463ffffffff1663ffffffff1663ffffffff16815260200160018201805461095790612d98565b80601f016020809104026020016040519081016040528092919081815260200182805461098390612d98565b80156109d05780601f106109a5576101008083540402835291602001916109d0565b820191906000526020600020905b8154815290600101906020018083116109b357829003601f168201915b505050505081526020016002820180546109e990612d98565b80601f0160208091040260200160405190810160405280929190818152602001828054610a1590612d98565b8015610a625780601f10610a3757610100808354040283529160200191610a62565b820191906000526020600020905b815481529060010190602001808311610a4557829003601f168201915b50505050508152602001600382018054610a7b90612d98565b80601f0160208091040260200160405190810160405280929190818152602001828054610aa790612d98565b8015610af45780601f10610ac957610100808354040283529160200191610af4565b820191906000526020600020905b815481529060010190602001808311610ad757829003601f168201915b50505050508152602001600482018054610b0d90612d98565b80601f0160208091040260200160405190810160405280929190818152602001828054610b3990612d98565b8015610b865780601f10610b5b57610100808354040283529160200191610b86565b820191906000526020600020905b815481529060010190602001808311610b6957829003601f168201915b5050505050815260200160058201805480602002602001604051908101604052809291908181526020016000905b82821015610c60578382906000526020600020018054610bd390612d98565b80601f0160208091040260200160405190810160405280929190818152602001828054610bff90612d98565b8015610c4c5780601f10610c2157610100808354040283529160200191610c4c565b820191906000526020600020905b815481529060010190602001808311610c2f57829003601f168201915b505050505081526020019060010190610bb4565b5050505081526020016006820160009054906101000a900460ff1615151515815250509050919050565b610c9261144e565b610c9b57600080fd5b60018181548110610caf57610cae612d3a565b5b906000526020600020906007020160060160009054906101000a900460ff161560018281548110610ce357610ce2612d3a565b5b906000526020600020906007020160060160006101000a81548160ff02191690831515021790555050565b610d1661144e565b610d1f57600080fd5b600073ffffffffffffffffffffffffffffffffffffffff1660008054906101000a900473ffffffffffffffffffffffffffffffffffffffff1673ffffffffffffffffffffffffffffffffffffffff167f8be0079c531659141344cd1fd0a4f28419497f9722a3daafe3b4186f6b6457e060405160405180910390a360008060006101000a81548173ffffffffffffffffffffffffffffffffffffffff021916908373ffffffffffffffffffffffffffffffffffffffff160217905550565b60606000610de9611eb4565b67ffffffffffffffff811115610e0257610e016128a5565b5b604051908082528060200260200182016040528015610e3b57816020015b610e286120c6565b815260200190600190039081610e205790505b5090506000805b600180549050811015611340573373ffffffffffffffffffffffffffffffffffffffff16600260008363ffffffff1663ffffffff16815260200190815260200160002060009054906101000a900473ffffffffffffffffffffffffffffffffffffffff1673ffffffffffffffffffffffffffffffffffffffff1614158015610ef9575060018181548110610ed957610ed8612d3a565b5b906000526020600020906007020160060160009054906101000a900460ff165b1561132d5760018181548110610f1257610f11612d3a565b5b9060005260206000209060070201604051806101400160405290816000820160009054906101000a900463ffffffff1663ffffffff1663ffffffff1681526020016000820160049054906101000a900463ffffffff1663ffffffff1663ffffffff1681526020016000820160089054906101000a900463ffffffff1663ffffffff1663ffffffff16815260200160008201600c9054906101000a900463ffffffff1663ffffffff1663ffffffff168152602001600182018054610fd490612d98565b80601f016020809104026020016040519081016040528092919081815260200182805461100090612d98565b801561104d5780601f106110225761010080835404028352916020019161104d565b820191906000526020600020905b81548152906001019060200180831161103057829003601f168201915b5050505050815260200160028201805461106690612d98565b80601f016020809104026020016040519081016040528092919081815260200182805461109290612d98565b80156110df5780601f106110b4576101008083540402835291602001916110df565b820191906000526020600020905b8154815290600101906020018083116110c257829003601f168201915b505050505081526020016003820180546110f890612d98565b80601f016020809104026020016040519081016040528092919081815260200182805461112490612d98565b80156111715780601f1061114657610100808354040283529160200191611171565b820191906000526020600020905b81548152906001019060200180831161115457829003601f168201915b5050505050815260200160048201805461118a90612d98565b80601f01602080910402602001604051908101604052809291908181526020018280546111b690612d98565b80156112035780601f106111d857610100808354040283529160200191611203565b820191906000526020600020905b8154815290600101906020018083116111e657829003601f168201915b5050505050815260200160058201805480602002602001604051908101604052809291908181526020016000905b828210156112dd57838290600052602060002001805461125090612d98565b80601f016020809104026020016040519081016040528092919081815260200182805461127c90612d98565b80156112c95780601f1061129e576101008083540402835291602001916112c9565b820191906000526020600020905b8154815290600101906020018083116112ac57829003601f168201915b505050505081526020019060010190611231565b5050505081526020016006820160009054906101000a900460ff16151515158152505083838151811061131357611312612d3a565b5b6020026020010181905250818061132990612df8565b9250505b808061133890612df8565b915050610e42565b50819250505090565b61135161144e565b61135a57600080fd5b6001828154811061136e5761136d612d3a565b5b906000526020600020906007020160000160089054906101000a900463ffffffff1663ffffffff168163ffffffff16116113dd576040517f08c379a00000000000000000000000000000000000000000000000000000000081526004016113d490612eb2565b60405180910390fd5b80600183815481106113f2576113f1612d3a565b5b906000526020600020906007020160000160086101000a81548163ffffffff021916908363ffffffff1602179055505050565b60008060009054906101000a900473ffffffffffffffffffffffffffffffffffffffff16905090565b60008060009054906101000a900473ffffffffffffffffffffffffffffffffffffffff1673ffffffffffffffffffffffffffffffffffffffff163373ffffffffffffffffffffffffffffffffffffffff1614905090565b60026020528060005260406000206000915054906101000a900473ffffffffffffffffffffffffffffffffffffffff1681565b80600260008263ffffffff1663ffffffff16815260200190815260200160002060009054906101000a900473ffffffffffffffffffffffffffffffffffffffff1673ffffffffffffffffffffffffffffffffffffffff163373ffffffffffffffffffffffffffffffffffffffff1614611586576040517f08c379a000000000000000000000000000000000000000000000000000000000815260040161157d90612f1e565b60405180910390fd5b60005b6001805490508110156116d7578263ffffffff16600182815481106115b1576115b0612d3a565b5b906000526020600020906007020160000160009054906101000a900463ffffffff1663ffffffff16036116c457600181815481106115f2576115f1612d3a565b5b9060005260206000209060070201600080820160006101000a81549063ffffffff02191690556000820160046101000a81549063ffffffff02191690556000820160086101000a81549063ffffffff021916905560008201600c6101000a81549063ffffffff021916905560018201600061166d9190612133565b60028201600061167d9190612133565b60038201600061168d9190612133565b60048201600061169d9190612133565b6005820160006116ad9190612173565b6006820160006101000a81549060ff021916905550505b80806116cf90612df8565b915050611589565b505050565b600060405180610140016040528060018054905063ffffffff1681526020018b63ffffffff1681526020018a63ffffffff1681526020018963ffffffff168152602001888152602001878152602001868152602001858152602001848152602001831515815250905060008a63ffffffff1614158015611763575060008963ffffffff1614155b8015611776575060008863ffffffff1614155b801561178457506000875114155b801561179257506000865114155b80156117a057506000855114155b80156117ae57506000845114155b6117ed576040517f08c379a00000000000000000000000000000000000000000000000000000000081526004016117e490612fb0565b60405180910390fd5b600181908060018154018082558091505060019003906000526020600020906007020160009091909190915060008201518160000160006101000a81548163ffffffff021916908363ffffffff16021790555060208201518160000160046101000a81548163ffffffff021916908363ffffffff16021790555060408201518160000160086101000a81548163ffffffff021916908363ffffffff160217905550606082015181600001600c6101000a81548163ffffffff021916908363ffffffff16021790555060808201518160010190816118ca919061317c565b5060a08201518160020190816118e0919061317c565b5060c08201518160030190816118f6919061317c565b5060e082015181600401908161190c919061317c565b5061010082015181600501908051906020019061192a929190612194565b506101208201518160060160006101000a81548160ff02191690831515021790555050503360026000836000015163ffffffff1663ffffffff16815260200190815260200160002060006101000a81548173ffffffffffffffffffffffffffffffffffffffff021916908373ffffffffffffffffffffffffffffffffffffffff160217905550611a036001600360003373ffffffffffffffffffffffffffffffffffffffff1673ffffffffffffffffffffffffffffffffffffffff16815260200190815260200160002054611fa490919063ffffffff16565b600360003373ffffffffffffffffffffffffffffffffffffffff1673ffffffffffffffffffffffffffffffffffffffff168152602001908152602001600020819055507f1a1d86e0f039b69dc75a6a99b30e291a372ccdcae3c35990cc416065bf72777881604051611a75919061280f565b60405180910390a150505050505050505050565b611a9161144e565b611a9a57600080fd5b611aa381611fd0565b50565b60018181548110611ab657600080fd5b90600052602060002090600702016000915090508060000160009054906101000a900463ffffffff16908060000160049054906101000a900463ffffffff16908060000160089054906101000a900463ffffffff169080600001600c9054906101000a900463ffffffff1690806001018054611b3190612d98565b80601f0160208091040260200160405190810160405280929190818152602001828054611b5d90612d98565b8015611baa5780601f10611b7f57610100808354040283529160200191611baa565b820191906000526020600020905b815481529060010190602001808311611b8d57829003601f168201915b505050505090806002018054611bbf90612d98565b80601f0160208091040260200160405190810160405280929190818152602001828054611beb90612d98565b8015611c385780601f10611c0d57610100808354040283529160200191611c38565b820191906000526020600020905b815481529060010190602001808311611c1b57829003601f168201915b505050505090806003018054611c4d90612d98565b80601f0160208091040260200160405190810160405280929190818152602001828054611c7990612d98565b8015611cc65780601f10611c9b57610100808354040283529160200191611cc6565b820191906000526020600020905b815481529060010190602001808311611ca957829003601f168201915b505050505090806004018054611cdb90612d98565b80601f0160208091040260200160405190810160405280929190818152602001828054611d0790612d98565b8015611d545780601f10611d2957610100808354040283529160200191611d54565b820191906000526020600020905b815481529060010190602001808311611d3757829003601f168201915b5050505050908060060160009054906101000a900460ff16905089565b611d7961144e565b611d8257600080fd5b8060018381548110611d9757611d96612d3a565b5b9060005260206000209060070201600001600c6101000a81548163ffffffff021916908363ffffffff1602179055505050565b6000806000905060005b600180549050811015611eaa578373ffffffffffffffffffffffffffffffffffffffff166002600060018481548110611e1057611e0f612d3a565b5b906000526020600020906007020160000160009054906101000a900463ffffffff1663ffffffff1663ffffffff16815260200190815260200160002060009054906101000a900473ffffffffffffffffffffffffffffffffffffffff1673ffffffffffffffffffffffffffffffffffffffff1603611e97578180611e9390612df8565b9250505b8080611ea290612df8565b915050611dd4565b5080915050919050565b6000806000905060005b600180549050811015611f9c573373ffffffffffffffffffffffffffffffffffffffff16600260008363ffffffff1663ffffffff16815260200190815260200160002060009054906101000a900473ffffffffffffffffffffffffffffffffffffffff1673ffffffffffffffffffffffffffffffffffffffff1614158015611f75575060018181548110611f5557611f54612d3a565b5b906000526020600020906007020160060160009054906101000a900460ff165b15611f89578180611f8590612df8565b9250505b8080611f9490612df8565b915050611ebe565b508091505090565b6000808284611fb3919061324e565b905083811015611fc657611fc5613282565b5b8091505092915050565b600073ffffffffffffffffffffffffffffffffffffffff168173ffffffffffffffffffffffffffffffffffffffff160361200957600080fd5b8073ffffffffffffffffffffffffffffffffffffffff1660008054906101000a900473ffffffffffffffffffffffffffffffffffffffff1673ffffffffffffffffffffffffffffffffffffffff167f8be0079c531659141344cd1fd0a4f28419497f9722a3daafe3b4186f6b6457e060405160405180910390a3806000806101000a81548173ffffffffffffffffffffffffffffffffffffffff021916908373ffffffffffffffffffffffffffffffffffffffff16021790555050565b604051806101400160405280600063ffffffff168152602001600063ffffffff168152602001600063ffffffff168152602001600063ffffffff16815260200160608152602001606081526020016060815260200160608152602001606081526020016000151581525090565b50805461213f90612d98565b6000825580601f106121515750612170565b601f01602090049060005260206000209081019061216f91906121ed565b5b50565b5080546000825590600052602060002090810190612191919061220a565b50565b8280548282559060005260206000209081019282156121dc579160200282015b828111156121db5782518290816121cb919061317c565b50916020019190600101906121b4565b5b5090506121e9919061220a565b5090565b5b808211156122065760008160009055506001016121ee565b5090565b5b8082111561222a57600081816122219190612133565b5060010161220b565b5090565b6000604051905090565b600080fd5b600080fd5b600073ffffffffffffffffffffffffffffffffffffffff82169050919050565b600061226d82612242565b9050919050565b61227d81612262565b811461228857600080fd5b50565b60008135905061229a81612274565b92915050565b6000602082840312156122b6576122b5612238565b5b60006122c48482850161228b565b91505092915050565b600081519050919050565b600082825260208201905092915050565b6000819050602082019050919050565b600063ffffffff82169050919050565b612312816122f9565b82525050565b600081519050919050565b600082825260208201905092915050565b60005b83811015612352578082015181840152602081019050612337565b60008484015250505050565b6000601f19601f8301169050919050565b600061237a82612318565b6123848185612323565b9350612394818560208601612334565b61239d8161235e565b840191505092915050565b600081519050919050565b600082825260208201905092915050565b6000819050602082019050919050565b60006123e0838361236f565b905092915050565b6000602082019050919050565b6000612400826123a8565b61240a81856123b3565b93508360208202850161241c856123c4565b8060005b85811015612458578484038952815161243985826123d4565b9450612444836123e8565b925060208a01995050600181019050612420565b50829750879550505050505092915050565b60008115159050919050565b61247f8161246a565b82525050565b60006101408301600083015161249e6000860182612309565b5060208301516124b16020860182612309565b5060408301516124c46040860182612309565b5060608301516124d76060860182612309565b50608083015184820360808601526124ef828261236f565b91505060a083015184820360a0860152612509828261236f565b91505060c083015184820360c0860152612523828261236f565b91505060e083015184820360e086015261253d828261236f565b91505061010083015184820361010086015261255982826123f5565b915050610120830151612570610120860182612476565b508091505092915050565b60006125878383612485565b905092915050565b6000602082019050919050565b60006125a7826122cd565b6125b181856122d8565b9350836020820285016125c3856122e9565b8060005b858110156125ff57848403895281516125e0858261257b565b94506125eb8361258f565b925060208a019950506001810190506125c7565b50829750879550505050505092915050565b6000602082019050818103600083015261262b818461259c565b905092915050565b61263c816122f9565b811461264757600080fd5b50565b60008135905061265981612633565b92915050565b60006020828403121561267557612674612238565b5b60006126838482850161264a565b91505092915050565b61269581612262565b82525050565b60006020820190506126b0600083018461268c565b92915050565b6000819050919050565b6126c9816126b6565b81146126d457600080fd5b50565b6000813590506126e6816126c0565b92915050565b60006020828403121561270257612701612238565b5b6000612710848285016126d7565b91505092915050565b6000610140830160008301516127326000860182612309565b5060208301516127456020860182612309565b5060408301516127586040860182612309565b50606083015161276b6060860182612309565b5060808301518482036080860152612783828261236f565b91505060a083015184820360a086015261279d828261236f565b91505060c083015184820360c08601526127b7828261236f565b91505060e083015184820360e08601526127d1828261236f565b9150506101008301518482036101008601526127ed82826123f5565b915050610120830151612804610120860182612476565b508091505092915050565b600060208201905081810360008301526128298184612719565b905092915050565b6000806040838503121561284857612847612238565b5b6000612856858286016126d7565b92505060206128678582860161264a565b9150509250929050565b61287a8161246a565b82525050565b60006020820190506128956000830184612871565b92915050565b600080fd5b600080fd5b7f4e487b7100000000000000000000000000000000000000000000000000000000600052604160045260246000fd5b6128dd8261235e565b810181811067ffffffffffffffff821117156128fc576128fb6128a5565b5b80604052505050565b600061290f61222e565b905061291b82826128d4565b919050565b600067ffffffffffffffff82111561293b5761293a6128a5565b5b6129448261235e565b9050602081019050919050565b82818337600083830152505050565b600061297361296e84612920565b612905565b90508281526020810184848401111561298f5761298e6128a0565b5b61299a848285612951565b509392505050565b600082601f8301126129b7576129b661289b565b5b81356129c7848260208601612960565b91505092915050565b600067ffffffffffffffff8211156129eb576129ea6128a5565b5b602082029050602081019050919050565b600080fd5b6000612a14612a0f846129d0565b612905565b90508083825260208201905060208402830185811115612a3757612a366129fc565b5b835b81811015612a7e57803567ffffffffffffffff811115612a5c57612a5b61289b565b5b808601612a6989826129a2565b85526020850194505050602081019050612a39565b5050509392505050565b600082601f830112612a9d57612a9c61289b565b5b8135612aad848260208601612a01565b91505092915050565b612abf8161246a565b8114612aca57600080fd5b50565b600081359050612adc81612ab6565b92915050565b60008060008060008060008060006101208a8c031215612b0557612b04612238565b5b6000612b138c828d0161264a565b9950506020612b248c828d0161264a565b9850506040612b358c828d0161264a565b97505060608a013567ffffffffffffffff811115612b5657612b5561223d565b5b612b628c828d016129a2565b96505060808a013567ffffffffffffffff811115612b8357612b8261223d565b5b612b8f8c828d016129a2565b95505060a08a013567ffffffffffffffff811115612bb057612baf61223d565b5b612bbc8c828d016129a2565b94505060c08a013567ffffffffffffffff811115612bdd57612bdc61223d565b5b612be98c828d016129a2565b93505060e08a013567ffffffffffffffff811115612c0a57612c0961223d565b5b612c168c828d01612a88565b925050610100612c288c828d01612acd565b9150509295985092959850929598565b612c41816122f9565b82525050565b600082825260208201905092915050565b6000612c6382612318565b612c6d8185612c47565b9350612c7d818560208601612334565b612c868161235e565b840191505092915050565b600061012082019050612ca7600083018c612c38565b612cb4602083018b612c38565b612cc1604083018a612c38565b612cce6060830189612c38565b8181036080830152612ce08188612c58565b905081810360a0830152612cf48187612c58565b905081810360c0830152612d088186612c58565b905081810360e0830152612d1c8185612c58565b9050612d2c610100830184612871565b9a9950505050505050505050565b7f4e487b7100000000000000000000000000000000000000000000000000000000600052603260045260246000fd5b7f4e487b7100000000000000000000000000000000000000000000000000000000600052602260045260246000fd5b60006002820490506001821680612db057607f821691505b602082108103612dc357612dc2612d69565b5b50919050565b7f4e487b7100000000000000000000000000000000000000000000000000000000600052601160045260246000fd5b6000612e03826126b6565b91507fffffffffffffffffffffffffffffffffffffffffffffffffffffffffffffffff8203612e3557612e34612dc9565b5b600182019050919050565b7f546865206e6577206d696c616765206d75737420626520686967686572204f5560008201527f4c45480000000000000000000000000000000000000000000000000000000000602082015250565b6000612e9c602383612c47565b9150612ea782612e40565b604082019050919050565b60006020820190508181036000830152612ecb81612e8f565b9050919050565b7f546861742773206e6f7420796f20636172000000000000000000000000000000600082015250565b6000612f08601183612c47565b9150612f1382612ed2565b602082019050919050565b60006020820190508181036000830152612f3781612efb565b9050919050565b7f536f6d65206669656c64732077657265206e6f7420636f72726563746c79206660008201527f696c6c656420696e2e0000000000000000000000000000000000000000000000602082015250565b6000612f9a602983612c47565b9150612fa582612f3e565b604082019050919050565b60006020820190508181036000830152612fc981612f8d565b9050919050565b60008190508160005260206000209050919050565b60006020601f8301049050919050565b600082821b905092915050565b6000600883026130327fffffffffffffffffffffffffffffffffffffffffffffffffffffffffffffffff82612ff5565b61303c8683612ff5565b95508019841693508086168417925050509392505050565b6000819050919050565b600061307961307461306f846126b6565b613054565b6126b6565b9050919050565b6000819050919050565b6130938361305e565b6130a761309f82613080565b848454613002565b825550505050565b600090565b6130bc6130af565b6130c781848461308a565b505050565b5b818110156130eb576130e06000826130b4565b6001810190506130cd565b5050565b601f8211156131305761310181612fd0565b61310a84612fe5565b81016020851015613119578190505b61312d61312585612fe5565b8301826130cc565b50505b505050565b600082821c905092915050565b600061315360001984600802613135565b1980831691505092915050565b600061316c8383613142565b9150826002028217905092915050565b61318582612318565b67ffffffffffffffff81111561319e5761319d6128a5565b5b6131a88254612d98565b6131b38282856130ef565b600060209050601f8311600181146131e657600084156131d4578287015190505b6131de8582613160565b865550613246565b601f1984166131f486612fd0565b60005b8281101561321c578489015182556001820191506020850194506020810190506131f7565b868310156132395784890151613235601f891682613142565b8355505b6001600288020188555050505b505050505050565b6000613259826126b6565b9150613264836126b6565b925082820190508082111561327c5761327b612dc9565b5b92915050565b7f4e487b7100000000000000000000000000000000000000000000000000000000600052600160045260246000fdfea26469706673582212208e87dbd122f2b04affb259261680f52af485af942b0b30f4149c9536ff3e9bb864736f6c63430008120033",
  "linkReferences": {},
  "deployedLinkReferences": {}
}