{
  "_format": "hh-sol-artifact-1",
  "contractName": "CarDetails",
  "sourceName": "contracts/cardetails.sol",
  "abi": [
    {
      "anonymous": false,
      "inputs": [
        {
          "components": [
            {
              "internalType": "uint32",
              "name": "id",
              "type": "uint32"
            },
            {
              "internalType": "uint32",
              "name": "chassisNumber",
              "type": "uint32"
            },
            {
              "internalType": "uint32",
              "name": "mileage",
              "type": "uint32"
            },
            {
              "internalType": "uint32",
              "name": "price",
              "type": "uint32"
            },
            {
              "internalType": "string",
              "name": "licensePlate",
              "type": "string"
            },
            {
              "internalType": "string",
              "name": "brand",
              "type": "string"
            },
            {
              "internalType": "string",
              "name": "carType",
              "type": "string"
            },
            {
              "internalType": "string",
              "name": "colour",
              "type": "string"
            },
            {
              "internalType": "string[]",
              "name": "pictures",
              "type": "string[]"
            },
            {
              "internalType": "bool",
              "name": "isForSale",
              "type": "bool"
            }
          ],
          "indexed": false,
          "internalType": "struct CarDetails.Car",
          "name": "car",
          "type": "tuple"
        }
      ],
      "name": "NewCar",
      "type": "event"
    },
    {
      "anonymous": false,
      "inputs": [
        {
          "indexed": true,
          "internalType": "address",
          "name": "previousOwner",
          "type": "address"
        },
        {
          "indexed": true,
          "internalType": "address",
          "name": "newOwner",
          "type": "address"
        }
      ],
      "name": "OwnershipTransferred",
      "type": "event"
    },
    {
      "inputs": [
        {
          "internalType": "uint32",
          "name": "",
          "type": "uint32"
        }
      ],
      "name": "carToOwner",
      "outputs": [
        {
          "internalType": "address",
          "name": "",
          "type": "address"
        }
      ],
      "stateMutability": "view",
      "type": "function"
    },
    {
      "inputs": [
        {
          "internalType": "uint256",
          "name": "",
          "type": "uint256"
        }
      ],
      "name": "cars",
      "outputs": [
        {
          "internalType": "uint32",
          "name": "id",
          "type": "uint32"
        },
        {
          "internalType": "uint32",
          "name": "chassisNumber",
          "type": "uint32"
        },
        {
          "internalType": "uint32",
          "name": "mileage",
          "type": "uint32"
        },
        {
          "internalType": "uint32",
          "name": "price",
          "type": "uint32"
        },
        {
          "internalType": "string",
          "name": "licensePlate",
          "type": "string"
        },
        {
          "internalType": "string",
          "name": "brand",
          "type": "string"
        },
        {
          "internalType": "string",
          "name": "carType",
          "type": "string"
        },
        {
          "internalType": "string",
          "name": "colour",
          "type": "string"
        },
        {
          "internalType": "bool",
          "name": "isForSale",
          "type": "bool"
        }
      ],
      "stateMutability": "view",
      "type": "function"
    },
    {
      "inputs": [
        {
          "internalType": "uint32",
          "name": "_chassisNumber",
          "type": "uint32"
        },
        {
          "internalType": "uint32",
          "name": "_mileage",
          "type": "uint32"
        },
        {
          "internalType": "uint32",
          "name": "_price",
          "type": "uint32"
        },
        {
          "internalType": "string",
          "name": "_licensePlate",
          "type": "string"
        },
        {
          "internalType": "string",
          "name": "_brand",
          "type": "string"
        },
        {
          "internalType": "string",
          "name": "_carType",
          "type": "string"
        },
        {
          "internalType": "string",
          "name": "_colour",
          "type": "string"
        },
        {
          "internalType": "string[]",
          "name": "_pictures",
          "type": "string[]"
        },
        {
          "internalType": "bool",
          "name": "_isForSale",
          "type": "bool"
        }
      ],
      "name": "createCar",
      "outputs": [],
      "stateMutability": "nonpayable",
      "type": "function"
    },
    {
      "inputs": [
        {
          "internalType": "uint32",
          "name": "_carId",
          "type": "uint32"
        }
      ],
      "name": "deleteCar",
      "outputs": [],
      "stateMutability": "nonpayable",
      "type": "function"
    },
    {
      "inputs": [
        {
          "internalType": "address",
          "name": "_owner",
          "type": "address"
        }
      ],
      "name": "getAllCarsForOwner",
      "outputs": [
        {
          "components": [
            {
              "internalType": "uint32",
              "name": "id",
              "type": "uint32"
            },
            {
              "internalType": "uint32",
              "name": "chassisNumber",
              "type": "uint32"
            },
            {
              "internalType": "uint32",
              "name": "mileage",
              "type": "uint32"
            },
            {
              "internalType": "uint32",
              "name": "price",
              "type": "uint32"
            },
            {
              "internalType": "string",
              "name": "licensePlate",
              "type": "string"
            },
            {
              "internalType": "string",
              "name": "brand",
              "type": "string"
            },
            {
              "internalType": "string",
              "name": "carType",
              "type": "string"
            },
            {
              "internalType": "string",
              "name": "colour",
              "type": "string"
            },
            {
              "internalType": "string[]",
              "name": "pictures",
              "type": "string[]"
            },
            {
              "internalType": "bool",
              "name": "isForSale",
              "type": "bool"
            }
          ],
          "internalType": "struct CarDetails.Car[]",
          "name": "",
          "type": "tuple[]"
        }
      ],
      "stateMutability": "view",
      "type": "function"
    },
    {
      "inputs": [
        {
          "internalType": "uint256",
          "name": "_carId",
          "type": "uint256"
        }
      ],
      "name": "getCar",
      "outputs": [
        {
          "components": [
            {
              "internalType": "uint32",
              "name": "id",
              "type": "uint32"
            },
            {
              "internalType": "uint32",
              "name": "chassisNumber",
              "type": "uint32"
            },
            {
              "internalType": "uint32",
              "name": "mileage",
              "type": "uint32"
            },
            {
              "internalType": "uint32",
              "name": "price",
              "type": "uint32"
            },
            {
              "internalType": "string",
              "name": "licensePlate",
              "type": "string"
            },
            {
              "internalType": "string",
              "name": "brand",
              "type": "string"
            },
            {
              "internalType": "string",
              "name": "carType",
              "type": "string"
            },
            {
              "internalType": "string",
              "name": "colour",
              "type": "string"
            },
            {
              "internalType": "string[]",
              "name": "pictures",
              "type": "string[]"
            },
            {
              "internalType": "bool",
              "name": "isForSale",
              "type": "bool"
            }
          ],
          "internalType": "struct CarDetails.Car",
          "name": "",
          "type": "tuple"
        }
      ],
      "stateMutability": "view",
      "type": "function"
    },
    {
      "inputs": [
        {
          "internalType": "uint32",
          "name": "_carId",
          "type": "uint32"
        }
      ],
      "name": "getCarOwner",
      "outputs": [
        {
          "internalType": "address",
          "name": "ownerAddress",
          "type": "address"
        }
      ],
      "stateMutability": "view",
      "type": "function"
    },
    {
      "inputs": [],
      "name": "getCarsForSale",
      "outputs": [
        {
          "components": [
            {
              "internalType": "uint32",
              "name": "id",
              "type": "uint32"
            },
            {
              "internalType": "uint32",
              "name": "chassisNumber",
              "type": "uint32"
            },
            {
              "internalType": "uint32",
              "name": "mileage",
              "type": "uint32"
            },
            {
              "internalType": "uint32",
              "name": "price",
              "type": "uint32"
            },
            {
              "internalType": "string",
              "name": "licensePlate",
              "type": "string"
            },
            {
              "internalType": "string",
              "name": "brand",
              "type": "string"
            },
            {
              "internalType": "string",
              "name": "carType",
              "type": "string"
            },
            {
              "internalType": "string",
              "name": "colour",
              "type": "string"
            },
            {
              "internalType": "string[]",
              "name": "pictures",
              "type": "string[]"
            },
            {
              "internalType": "bool",
              "name": "isForSale",
              "type": "bool"
            }
          ],
          "internalType": "struct CarDetails.Car[]",
          "name": "",
          "type": "tuple[]"
        }
      ],
      "stateMutability": "view",
      "type": "function"
    },
    {
      "inputs": [],
      "name": "isOwner",
      "outputs": [
        {
          "internalType": "bool",
          "name": "",
          "type": "bool"
        }
      ],
      "stateMutability": "view",
      "type": "function"
    },
    {
      "inputs": [],
      "name": "owner",
      "outputs": [
        {
          "internalType": "address",
          "name": "",
          "type": "address"
        }
      ],
      "stateMutability": "view",
      "type": "function"
    },
    {
      "inputs": [],
      "name": "renounceOwnership",
      "outputs": [],
      "stateMutability": "nonpayable",
      "type": "function"
    },
    {
      "inputs": [
        {
          "internalType": "uint256",
          "name": "_carId",
          "type": "uint256"
        }
      ],
      "name": "toggleSaleState",
      "outputs": [],
      "stateMutability": "nonpayable",
      "type": "function"
    },
    {
      "inputs": [
        {
          "internalType": "address",
          "name": "newOwner",
          "type": "address"
        }
      ],
      "name": "transferOwnership",
      "outputs": [],
      "stateMutability": "nonpayable",
      "type": "function"
    },
    {
      "inputs": [
        {
          "internalType": "uint256",
          "name": "_carId",
          "type": "uint256"
        },
        {
          "internalType": "uint32",
          "name": "_newMileage",
          "type": "uint32"
        }
      ],
      "name": "updateMileage",
      "outputs": [],
      "stateMutability": "nonpayable",
      "type": "function"
    },
    {
      "inputs": [
        {
          "internalType": "uint256",
          "name": "_carId",
          "type": "uint256"
        },
        {
          "internalType": "uint32",
          "name": "_newPrice",
          "type": "uint32"
        }
      ],
      "name": "updatePrice",
      "outputs": [],
      "stateMutability": "nonpayable",
      "type": "function"
    }
  ],
  "bytecode": "0x608060405234801561001057600080fd5b50336000806101000a81548173ffffffffffffffffffffffffffffffffffffffff021916908373ffffffffffffffffffffffffffffffffffffffff16021790555060008054906101000a900473ffffffffffffffffffffffffffffffffffffffff1673ffffffffffffffffffffffffffffffffffffffff16600073ffffffffffffffffffffffffffffffffffffffff167f8be0079c531659141344cd1fd0a4f28419497f9722a3daafe3b4186f6b6457e060405160405180910390a36132f1806100db6000396000f3fe608060405234801561001057600080fd5b50600436106100f55760003560e01c80638da5cb5b11610097578063d4d942ec11610066578063d4d942ec14610272578063f2fde38b1461028e578063f7746e36146102aa578063f95fe25b146102e2576100f5565b80638da5cb5b146101ea5780638f32d59b1461020857806391a2077614610226578063b275decc14610256576100f5565b8063628dd13e116100d3578063628dd13e1461018a578063715018a6146101a657806376b4646d146101b05780637edffa53146101ce576100f5565b80632286c0c1146100fa57806339c98a1b1461012a5780635e8be1901461015a575b600080fd5b610114600480360381019061010f91906122fd565b6102fe565b604051610121919061266e565b60405180910390f35b610144600480360381019061013f91906126bc565b610870565b60405161015191906126f8565b60405180910390f35b610174600480360381019061016f9190612749565b6108b9565b604051610181919061286c565b60405180910390f35b6101a4600480360381019061019f9190612749565b610cca565b005b6101ae610d4e565b005b6101b8610e1d565b6040516101c5919061266e565b60405180910390f35b6101e860048036038101906101e3919061288e565b611389565b005b6101f2611465565b6040516101ff91906126f8565b60405180910390f35b61021061148e565b60405161021d91906128dd565b60405180910390f35b610240600480360381019061023b91906126bc565b6114e5565b60405161024d91906126f8565b60405180910390f35b610270600480360381019061026b91906126bc565b611518565b005b61028c60048036038101906102879190612b3f565b61171c565b005b6102a860048036038101906102a391906122fd565b611a21565b005b6102c460048036038101906102bf9190612749565b611a3e565b6040516102d999989796959493929190612cee565b60405180910390f35b6102fc60048036038101906102f7919061288e565b611d09565b005b6060600061030b83611d62565b67ffffffffffffffff81111561032457610323612902565b5b60405190808252806020026020018201604052801561035d57816020015b61034a612123565b8152602001906001900390816103425790505b5090506000805b600180549050811015610825578473ffffffffffffffffffffffffffffffffffffffff16600260008363ffffffff1663ffffffff16815260200190815260200160002060009054906101000a900473ffffffffffffffffffffffffffffffffffffffff1673ffffffffffffffffffffffffffffffffffffffff160361081257600181815481106103f7576103f6612d97565b5b9060005260206000209060070201604051806101400160405290816000820160009054906101000a900463ffffffff1663ffffffff1663ffffffff1681526020016000820160049054906101000a900463ffffffff1663ffffffff1663ffffffff1681526020016000820160089054906101000a900463ffffffff1663ffffffff1663ffffffff16815260200160008201600c9054906101000a900463ffffffff1663ffffffff1663ffffffff1681526020016001820180546104b990612df5565b80601f01602080910402602001604051908101604052809291908181526020018280546104e590612df5565b80156105325780601f1061050757610100808354040283529160200191610532565b820191906000526020600020905b81548152906001019060200180831161051557829003601f168201915b5050505050815260200160028201805461054b90612df5565b80601f016020809104026020016040519081016040528092919081815260200182805461057790612df5565b80156105c45780601f10610599576101008083540402835291602001916105c4565b820191906000526020600020905b8154815290600101906020018083116105a757829003601f168201915b505050505081526020016003820180546105dd90612df5565b80601f016020809104026020016040519081016040528092919081815260200182805461060990612df5565b80156106565780601f1061062b57610100808354040283529160200191610656565b820191906000526020600020905b81548152906001019060200180831161063957829003601f168201915b5050505050815260200160048201805461066f90612df5565b80601f016020809104026020016040519081016040528092919081815260200182805461069b90612df5565b80156106e85780601f106106bd576101008083540402835291602001916106e8565b820191906000526020600020905b8154815290600101906020018083116106cb57829003601f168201915b5050505050815260200160058201805480602002602001604051908101604052809291908181526020016000905b828210156107c257838290600052602060002001805461073590612df5565b80601f016020809104026020016040519081016040528092919081815260200182805461076190612df5565b80156107ae5780601f10610783576101008083540402835291602001916107ae565b820191906000526020600020905b81548152906001019060200180831161079157829003601f168201915b505050505081526020019060010190610716565b5050505081526020016006820160009054906101000a900460ff1615151515815250508383815181106107f8576107f7612d97565b5b6020026020010181905250818061080e90612e55565b9250505b808061081d90612e55565b915050610364565b506108666040518060400160405280600f81526020017f726573756c74206c656e6774683a2000000000000000000000000000000000008152508351611e4c565b8192505050919050565b6000600260008363ffffffff1663ffffffff16815260200190815260200160002060009054906101000a900473ffffffffffffffffffffffffffffffffffffffff169050919050565b6108c1612123565b600182815481106108d5576108d4612d97565b5b9060005260206000209060070201604051806101400160405290816000820160009054906101000a900463ffffffff1663ffffffff1663ffffffff1681526020016000820160049054906101000a900463ffffffff1663ffffffff1663ffffffff1681526020016000820160089054906101000a900463ffffffff1663ffffffff1663ffffffff16815260200160008201600c9054906101000a900463ffffffff1663ffffffff1663ffffffff16815260200160018201805461099790612df5565b80601f01602080910402602001604051908101604052809291908181526020018280546109c390612df5565b8015610a105780601f106109e557610100808354040283529160200191610a10565b820191906000526020600020905b8154815290600101906020018083116109f357829003601f168201915b50505050508152602001600282018054610a2990612df5565b80601f0160208091040260200160405190810160405280929190818152602001828054610a5590612df5565b8015610aa25780601f10610a7757610100808354040283529160200191610aa2565b820191906000526020600020905b815481529060010190602001808311610a8557829003601f168201915b50505050508152602001600382018054610abb90612df5565b80601f0160208091040260200160405190810160405280929190818152602001828054610ae790612df5565b8015610b345780601f10610b0957610100808354040283529160200191610b34565b820191906000526020600020905b815481529060010190602001808311610b1757829003601f168201915b50505050508152602001600482018054610b4d90612df5565b80601f0160208091040260200160405190810160405280929190818152602001828054610b7990612df5565b8015610bc65780601f10610b9b57610100808354040283529160200191610bc6565b820191906000526020600020905b815481529060010190602001808311610ba957829003601f168201915b5050505050815260200160058201805480602002602001604051908101604052809291908181526020016000905b82821015610ca0578382906000526020600020018054610c1390612df5565b80601f0160208091040260200160405190810160405280929190818152602001828054610c3f90612df5565b8015610c8c5780601f10610c6157610100808354040283529160200191610c8c565b820191906000526020600020905b815481529060010190602001808311610c6f57829003601f168201915b505050505081526020019060010190610bf4565b5050505081526020016006820160009054906101000a900460ff1615151515815250509050919050565b610cd261148e565b610cdb57600080fd5b60018181548110610cef57610cee612d97565b5b906000526020600020906007020160060160009054906101000a900460ff161560018281548110610d2357610d22612d97565b5b906000526020600020906007020160060160006101000a81548160ff02191690831515021790555050565b610d5661148e565b610d5f57600080fd5b600073ffffffffffffffffffffffffffffffffffffffff1660008054906101000a900473ffffffffffffffffffffffffffffffffffffffff1673ffffffffffffffffffffffffffffffffffffffff167f8be0079c531659141344cd1fd0a4f28419497f9722a3daafe3b4186f6b6457e060405160405180910390a360008060006101000a81548173ffffffffffffffffffffffffffffffffffffffff021916908373ffffffffffffffffffffffffffffffffffffffff160217905550565b60606000610e29611ee8565b67ffffffffffffffff811115610e4257610e41612902565b5b604051908082528060200260200182016040528015610e7b57816020015b610e68612123565b815260200190600190039081610e605790505b5090506000805b600180549050811015611380573373ffffffffffffffffffffffffffffffffffffffff16600260008363ffffffff1663ffffffff16815260200190815260200160002060009054906101000a900473ffffffffffffffffffffffffffffffffffffffff1673ffffffffffffffffffffffffffffffffffffffff1614158015610f39575060018181548110610f1957610f18612d97565b5b906000526020600020906007020160060160009054906101000a900460ff165b1561136d5760018181548110610f5257610f51612d97565b5b9060005260206000209060070201604051806101400160405290816000820160009054906101000a900463ffffffff1663ffffffff1663ffffffff1681526020016000820160049054906101000a900463ffffffff1663ffffffff1663ffffffff1681526020016000820160089054906101000a900463ffffffff1663ffffffff1663ffffffff16815260200160008201600c9054906101000a900463ffffffff1663ffffffff1663ffffffff16815260200160018201805461101490612df5565b80601f016020809104026020016040519081016040528092919081815260200182805461104090612df5565b801561108d5780601f106110625761010080835404028352916020019161108d565b820191906000526020600020905b81548152906001019060200180831161107057829003601f168201915b505050505081526020016002820180546110a690612df5565b80601f01602080910402602001604051908101604052809291908181526020018280546110d290612df5565b801561111f5780601f106110f45761010080835404028352916020019161111f565b820191906000526020600020905b81548152906001019060200180831161110257829003601f168201915b5050505050815260200160038201805461113890612df5565b80601f016020809104026020016040519081016040528092919081815260200182805461116490612df5565b80156111b15780601f10611186576101008083540402835291602001916111b1565b820191906000526020600020905b81548152906001019060200180831161119457829003601f168201915b505050505081526020016004820180546111ca90612df5565b80601f01602080910402602001604051908101604052809291908181526020018280546111f690612df5565b80156112435780601f1061121857610100808354040283529160200191611243565b820191906000526020600020905b81548152906001019060200180831161122657829003601f168201915b5050505050815260200160058201805480602002602001604051908101604052809291908181526020016000905b8282101561131d57838290600052602060002001805461129090612df5565b80601f01602080910402602001604051908101604052809291908181526020018280546112bc90612df5565b80156113095780601f106112de57610100808354040283529160200191611309565b820191906000526020600020905b8154815290600101906020018083116112ec57829003601f168201915b505050505081526020019060010190611271565b5050505081526020016006820160009054906101000a900460ff16151515158152505083838151811061135357611352612d97565b5b6020026020010181905250818061136990612e55565b9250505b808061137890612e55565b915050610e82565b50819250505090565b61139161148e565b61139a57600080fd5b600182815481106113ae576113ad612d97565b5b906000526020600020906007020160000160089054906101000a900463ffffffff1663ffffffff168163ffffffff161161141d576040517f08c379a000000000000000000000000000000000000000000000000000000000815260040161141490612f0f565b60405180910390fd5b806001838154811061143257611431612d97565b5b906000526020600020906007020160000160086101000a81548163ffffffff021916908363ffffffff1602179055505050565b60008060009054906101000a900473ffffffffffffffffffffffffffffffffffffffff16905090565b60008060009054906101000a900473ffffffffffffffffffffffffffffffffffffffff1673ffffffffffffffffffffffffffffffffffffffff163373ffffffffffffffffffffffffffffffffffffffff1614905090565b60026020528060005260406000206000915054906101000a900473ffffffffffffffffffffffffffffffffffffffff1681565b80600260008263ffffffff1663ffffffff16815260200190815260200160002060009054906101000a900473ffffffffffffffffffffffffffffffffffffffff1673ffffffffffffffffffffffffffffffffffffffff163373ffffffffffffffffffffffffffffffffffffffff16146115c6576040517f08c379a00000000000000000000000000000000000000000000000000000000081526004016115bd90612f7b565b60405180910390fd5b60005b600180549050811015611717578263ffffffff16600182815481106115f1576115f0612d97565b5b906000526020600020906007020160000160009054906101000a900463ffffffff1663ffffffff1603611704576001818154811061163257611631612d97565b5b9060005260206000209060070201600080820160006101000a81549063ffffffff02191690556000820160046101000a81549063ffffffff02191690556000820160086101000a81549063ffffffff021916905560008201600c6101000a81549063ffffffff02191690556001820160006116ad9190612190565b6002820160006116bd9190612190565b6003820160006116cd9190612190565b6004820160006116dd9190612190565b6005820160006116ed91906121d0565b6006820160006101000a81549060ff021916905550505b808061170f90612e55565b9150506115c9565b505050565b600060405180610140016040528060018054905063ffffffff1681526020018b63ffffffff1681526020018a63ffffffff1681526020018963ffffffff1681526020018881526020018781526020018681526020018581526020018481526020018315158152509050600181908060018154018082558091505060019003906000526020600020906007020160009091909190915060008201518160000160006101000a81548163ffffffff021916908363ffffffff16021790555060208201518160000160046101000a81548163ffffffff021916908363ffffffff16021790555060408201518160000160086101000a81548163ffffffff021916908363ffffffff160217905550606082015181600001600c6101000a81548163ffffffff021916908363ffffffff16021790555060808201518160010190816118629190613147565b5060a08201518160020190816118789190613147565b5060c082015181600301908161188e9190613147565b5060e08201518160040190816118a49190613147565b506101008201518160050190805190602001906118c29291906121f1565b506101208201518160060160006101000a81548160ff02191690831515021790555050503360026000836000015163ffffffff1663ffffffff16815260200190815260200160002060006101000a81548173ffffffffffffffffffffffffffffffffffffffff021916908373ffffffffffffffffffffffffffffffffffffffff16021790555061199b6001600360003373ffffffffffffffffffffffffffffffffffffffff1673ffffffffffffffffffffffffffffffffffffffff16815260200190815260200160002054611fd890919063ffffffff16565b600360003373ffffffffffffffffffffffffffffffffffffffff1673ffffffffffffffffffffffffffffffffffffffff168152602001908152602001600020819055507f1a1d86e0f039b69dc75a6a99b30e291a372ccdcae3c35990cc416065bf72777881604051611a0d919061286c565b60405180910390a150505050505050505050565b611a2961148e565b611a3257600080fd5b611a3b81612004565b50565b60018181548110611a4e57600080fd5b90600052602060002090600702016000915090508060000160009054906101000a900463ffffffff16908060000160049054906101000a900463ffffffff16908060000160089054906101000a900463ffffffff169080600001600c9054906101000a900463ffffffff1690806001018054611ac990612df5565b80601f0160208091040260200160405190810160405280929190818152602001828054611af590612df5565b8015611b425780601f10611b1757610100808354040283529160200191611b42565b820191906000526020600020905b815481529060010190602001808311611b2557829003601f168201915b505050505090806002018054611b5790612df5565b80601f0160208091040260200160405190810160405280929190818152602001828054611b8390612df5565b8015611bd05780601f10611ba557610100808354040283529160200191611bd0565b820191906000526020600020905b815481529060010190602001808311611bb357829003601f168201915b505050505090806003018054611be590612df5565b80601f0160208091040260200160405190810160405280929190818152602001828054611c1190612df5565b8015611c5e5780601f10611c3357610100808354040283529160200191611c5e565b820191906000526020600020905b815481529060010190602001808311611c4157829003601f168201915b505050505090806004018054611c7390612df5565b80601f0160208091040260200160405190810160405280929190818152602001828054611c9f90612df5565b8015611cec5780601f10611cc157610100808354040283529160200191611cec565b820191906000526020600020905b815481529060010190602001808311611ccf57829003601f168201915b5050505050908060060160009054906101000a900460ff16905089565b611d1161148e565b611d1a57600080fd5b8060018381548110611d2f57611d2e612d97565b5b9060005260206000209060070201600001600c6101000a81548163ffffffff021916908363ffffffff1602179055505050565b6000806000905060005b600180549050811015611e42578373ffffffffffffffffffffffffffffffffffffffff166002600060018481548110611da857611da7612d97565b5b906000526020600020906007020160000160009054906101000a900463ffffffff1663ffffffff1663ffffffff16815260200190815260200160002060009054906101000a900473ffffffffffffffffffffffffffffffffffffffff1673ffffffffffffffffffffffffffffffffffffffff1603611e2f578180611e2b90612e55565b9250505b8080611e3a90612e55565b915050611d6c565b5080915050919050565b611ee48282604051602401611e62929190613228565b6040516020818303038152906040527fb60e72cc000000000000000000000000000000000000000000000000000000007bffffffffffffffffffffffffffffffffffffffffffffffffffffffff19166020820180517bffffffffffffffffffffffffffffffffffffffffffffffffffffffff83818316178352505050506120fa565b5050565b6000806000905060005b600180549050811015611fd0573373ffffffffffffffffffffffffffffffffffffffff16600260008363ffffffff1663ffffffff16815260200190815260200160002060009054906101000a900473ffffffffffffffffffffffffffffffffffffffff1673ffffffffffffffffffffffffffffffffffffffff1614158015611fa9575060018181548110611f8957611f88612d97565b5b906000526020600020906007020160060160009054906101000a900460ff165b15611fbd578180611fb990612e55565b9250505b8080611fc890612e55565b915050611ef2565b508091505090565b6000808284611fe79190613258565b905083811015611ffa57611ff961328c565b5b8091505092915050565b600073ffffffffffffffffffffffffffffffffffffffff168173ffffffffffffffffffffffffffffffffffffffff160361203d57600080fd5b8073ffffffffffffffffffffffffffffffffffffffff1660008054906101000a900473ffffffffffffffffffffffffffffffffffffffff1673ffffffffffffffffffffffffffffffffffffffff167f8be0079c531659141344cd1fd0a4f28419497f9722a3daafe3b4186f6b6457e060405160405180910390a3806000806101000a81548173ffffffffffffffffffffffffffffffffffffffff021916908373ffffffffffffffffffffffffffffffffffffffff16021790555050565b60008151905060006a636f6e736f6c652e6c6f679050602083016000808483855afa5050505050565b604051806101400160405280600063ffffffff168152602001600063ffffffff168152602001600063ffffffff168152602001600063ffffffff16815260200160608152602001606081526020016060815260200160608152602001606081526020016000151581525090565b50805461219c90612df5565b6000825580601f106121ae57506121cd565b601f0160209004906000526020600020908101906121cc919061224a565b5b50565b50805460008255906000526020600020908101906121ee9190612267565b50565b828054828255906000526020600020908101928215612239579160200282015b828111156122385782518290816122289190613147565b5091602001919060010190612211565b5b5090506122469190612267565b5090565b5b8082111561226357600081600090555060010161224b565b5090565b5b80821115612287576000818161227e9190612190565b50600101612268565b5090565b6000604051905090565b600080fd5b600080fd5b600073ffffffffffffffffffffffffffffffffffffffff82169050919050565b60006122ca8261229f565b9050919050565b6122da816122bf565b81146122e557600080fd5b50565b6000813590506122f7816122d1565b92915050565b60006020828403121561231357612312612295565b5b6000612321848285016122e8565b91505092915050565b600081519050919050565b600082825260208201905092915050565b6000819050602082019050919050565b600063ffffffff82169050919050565b61236f81612356565b82525050565b600081519050919050565b600082825260208201905092915050565b60005b838110156123af578082015181840152602081019050612394565b60008484015250505050565b6000601f19601f8301169050919050565b60006123d782612375565b6123e18185612380565b93506123f1818560208601612391565b6123fa816123bb565b840191505092915050565b600081519050919050565b600082825260208201905092915050565b6000819050602082019050919050565b600061243d83836123cc565b905092915050565b6000602082019050919050565b600061245d82612405565b6124678185612410565b93508360208202850161247985612421565b8060005b858110156124b557848403895281516124968582612431565b94506124a183612445565b925060208a0199505060018101905061247d565b50829750879550505050505092915050565b60008115159050919050565b6124dc816124c7565b82525050565b6000610140830160008301516124fb6000860182612366565b50602083015161250e6020860182612366565b5060408301516125216040860182612366565b5060608301516125346060860182612366565b506080830151848203608086015261254c82826123cc565b91505060a083015184820360a086015261256682826123cc565b91505060c083015184820360c086015261258082826123cc565b91505060e083015184820360e086015261259a82826123cc565b9150506101008301518482036101008601526125b68282612452565b9150506101208301516125cd6101208601826124d3565b508091505092915050565b60006125e483836124e2565b905092915050565b6000602082019050919050565b60006126048261232a565b61260e8185612335565b93508360208202850161262085612346565b8060005b8581101561265c578484038952815161263d85826125d8565b9450612648836125ec565b925060208a01995050600181019050612624565b50829750879550505050505092915050565b6000602082019050818103600083015261268881846125f9565b905092915050565b61269981612356565b81146126a457600080fd5b50565b6000813590506126b681612690565b92915050565b6000602082840312156126d2576126d1612295565b5b60006126e0848285016126a7565b91505092915050565b6126f2816122bf565b82525050565b600060208201905061270d60008301846126e9565b92915050565b6000819050919050565b61272681612713565b811461273157600080fd5b50565b6000813590506127438161271d565b92915050565b60006020828403121561275f5761275e612295565b5b600061276d84828501612734565b91505092915050565b60006101408301600083015161278f6000860182612366565b5060208301516127a26020860182612366565b5060408301516127b56040860182612366565b5060608301516127c86060860182612366565b50608083015184820360808601526127e082826123cc565b91505060a083015184820360a08601526127fa82826123cc565b91505060c083015184820360c086015261281482826123cc565b91505060e083015184820360e086015261282e82826123cc565b91505061010083015184820361010086015261284a8282612452565b9150506101208301516128616101208601826124d3565b508091505092915050565b600060208201905081810360008301526128868184612776565b905092915050565b600080604083850312156128a5576128a4612295565b5b60006128b385828601612734565b92505060206128c4858286016126a7565b9150509250929050565b6128d7816124c7565b82525050565b60006020820190506128f260008301846128ce565b92915050565b600080fd5b600080fd5b7f4e487b7100000000000000000000000000000000000000000000000000000000600052604160045260246000fd5b61293a826123bb565b810181811067ffffffffffffffff8211171561295957612958612902565b5b80604052505050565b600061296c61228b565b90506129788282612931565b919050565b600067ffffffffffffffff82111561299857612997612902565b5b6129a1826123bb565b9050602081019050919050565b82818337600083830152505050565b60006129d06129cb8461297d565b612962565b9050828152602081018484840111156129ec576129eb6128fd565b5b6129f78482856129ae565b509392505050565b600082601f830112612a1457612a136128f8565b5b8135612a248482602086016129bd565b91505092915050565b600067ffffffffffffffff821115612a4857612a47612902565b5b602082029050602081019050919050565b600080fd5b6000612a71612a6c84612a2d565b612962565b90508083825260208201905060208402830185811115612a9457612a93612a59565b5b835b81811015612adb57803567ffffffffffffffff811115612ab957612ab86128f8565b5b808601612ac689826129ff565b85526020850194505050602081019050612a96565b5050509392505050565b600082601f830112612afa57612af96128f8565b5b8135612b0a848260208601612a5e565b91505092915050565b612b1c816124c7565b8114612b2757600080fd5b50565b600081359050612b3981612b13565b92915050565b60008060008060008060008060006101208a8c031215612b6257612b61612295565b5b6000612b708c828d016126a7565b9950506020612b818c828d016126a7565b9850506040612b928c828d016126a7565b97505060608a013567ffffffffffffffff811115612bb357612bb261229a565b5b612bbf8c828d016129ff565b96505060808a013567ffffffffffffffff811115612be057612bdf61229a565b5b612bec8c828d016129ff565b95505060a08a013567ffffffffffffffff811115612c0d57612c0c61229a565b5b612c198c828d016129ff565b94505060c08a013567ffffffffffffffff811115612c3a57612c3961229a565b5b612c468c828d016129ff565b93505060e08a013567ffffffffffffffff811115612c6757612c6661229a565b5b612c738c828d01612ae5565b925050610100612c858c828d01612b2a565b9150509295985092959850929598565b612c9e81612356565b82525050565b600082825260208201905092915050565b6000612cc082612375565b612cca8185612ca4565b9350612cda818560208601612391565b612ce3816123bb565b840191505092915050565b600061012082019050612d04600083018c612c95565b612d11602083018b612c95565b612d1e604083018a612c95565b612d2b6060830189612c95565b8181036080830152612d3d8188612cb5565b905081810360a0830152612d518187612cb5565b905081810360c0830152612d658186612cb5565b905081810360e0830152612d798185612cb5565b9050612d896101008301846128ce565b9a9950505050505050505050565b7f4e487b7100000000000000000000000000000000000000000000000000000000600052603260045260246000fd5b7f4e487b7100000000000000000000000000000000000000000000000000000000600052602260045260246000fd5b60006002820490506001821680612e0d57607f821691505b602082108103612e2057612e1f612dc6565b5b50919050565b7f4e487b7100000000000000000000000000000000000000000000000000000000600052601160045260246000fd5b6000612e6082612713565b91507fffffffffffffffffffffffffffffffffffffffffffffffffffffffffffffffff8203612e9257612e91612e26565b5b600182019050919050565b7f546865206e6577206d696c616765206d75737420626520686967686572204f5560008201527f4c45480000000000000000000000000000000000000000000000000000000000602082015250565b6000612ef9602383612ca4565b9150612f0482612e9d565b604082019050919050565b60006020820190508181036000830152612f2881612eec565b9050919050565b7f546861742773206e6f7420796f20636172000000000000000000000000000000600082015250565b6000612f65601183612ca4565b9150612f7082612f2f565b602082019050919050565b60006020820190508181036000830152612f9481612f58565b9050919050565b60008190508160005260206000209050919050565b60006020601f8301049050919050565b600082821b905092915050565b600060088302612ffd7fffffffffffffffffffffffffffffffffffffffffffffffffffffffffffffffff82612fc0565b6130078683612fc0565b95508019841693508086168417925050509392505050565b6000819050919050565b600061304461303f61303a84612713565b61301f565b612713565b9050919050565b6000819050919050565b61305e83613029565b61307261306a8261304b565b848454612fcd565b825550505050565b600090565b61308761307a565b613092818484613055565b505050565b5b818110156130b6576130ab60008261307f565b600181019050613098565b5050565b601f8211156130fb576130cc81612f9b565b6130d584612fb0565b810160208510156130e4578190505b6130f86130f085612fb0565b830182613097565b50505b505050565b600082821c905092915050565b600061311e60001984600802613100565b1980831691505092915050565b6000613137838361310d565b9150826002028217905092915050565b61315082612375565b67ffffffffffffffff81111561316957613168612902565b5b6131738254612df5565b61317e8282856130ba565b600060209050601f8311600181146131b1576000841561319f578287015190505b6131a9858261312b565b865550613211565b601f1984166131bf86612f9b565b60005b828110156131e7578489015182556001820191506020850194506020810190506131c2565b868310156132045784890151613200601f89168261310d565b8355505b6001600288020188555050505b505050505050565b61322281612713565b82525050565b600060408201905081810360008301526132428185612cb5565b90506132516020830184613219565b9392505050565b600061326382612713565b915061326e83612713565b925082820190508082111561328657613285612e26565b5b92915050565b7f4e487b7100000000000000000000000000000000000000000000000000000000600052600160045260246000fdfea264697066735822122091bdfa7b778661cedb51002d9c3195739a1dee6fcdbe703590737de7bbdb8cc164736f6c63430008120033",
  "linkReferences": {},
  "deployedLinkReferences": {}
}