{
  "_format": "hh-sol-artifact-1",
  "contractName": "CarDetails",
  "sourceName": "contracts/cardetails.sol",
  "abi": [
    {
      "anonymous": false,
      "inputs": [
        {
          "components": [
            {
              "internalType": "uint32",
              "name": "id",
              "type": "uint32"
            },
            {
              "internalType": "uint32",
              "name": "chassisNumber",
              "type": "uint32"
            },
            {
              "internalType": "uint32",
              "name": "mileage",
              "type": "uint32"
            },
            {
              "internalType": "uint32",
              "name": "price",
              "type": "uint32"
            },
            {
              "internalType": "string",
              "name": "licensePlate",
              "type": "string"
            },
            {
              "internalType": "string",
              "name": "brand",
              "type": "string"
            },
            {
              "internalType": "string",
              "name": "carType",
              "type": "string"
            },
            {
              "internalType": "string",
              "name": "colour",
              "type": "string"
            },
            {
              "internalType": "string[]",
              "name": "pictures",
              "type": "string[]"
            },
            {
              "internalType": "bool",
              "name": "isForSale",
              "type": "bool"
            }
          ],
          "indexed": false,
          "internalType": "struct CarDetails.Car",
          "name": "car",
          "type": "tuple"
        }
      ],
      "name": "NewCar",
      "type": "event"
    },
    {
      "anonymous": false,
      "inputs": [
        {
          "indexed": true,
          "internalType": "address",
          "name": "previousOwner",
          "type": "address"
        },
        {
          "indexed": true,
          "internalType": "address",
          "name": "newOwner",
          "type": "address"
        }
      ],
      "name": "OwnershipTransferred",
      "type": "event"
    },
    {
      "inputs": [
        {
          "internalType": "uint256",
          "name": "",
          "type": "uint256"
        }
      ],
      "name": "carToOwner",
      "outputs": [
        {
          "internalType": "address",
          "name": "",
          "type": "address"
        }
      ],
      "stateMutability": "view",
      "type": "function"
    },
    {
      "inputs": [
        {
          "internalType": "uint256",
          "name": "",
          "type": "uint256"
        }
      ],
      "name": "cars",
      "outputs": [
        {
          "internalType": "uint32",
          "name": "id",
          "type": "uint32"
        },
        {
          "internalType": "uint32",
          "name": "chassisNumber",
          "type": "uint32"
        },
        {
          "internalType": "uint32",
          "name": "mileage",
          "type": "uint32"
        },
        {
          "internalType": "uint32",
          "name": "price",
          "type": "uint32"
        },
        {
          "internalType": "string",
          "name": "licensePlate",
          "type": "string"
        },
        {
          "internalType": "string",
          "name": "brand",
          "type": "string"
        },
        {
          "internalType": "string",
          "name": "carType",
          "type": "string"
        },
        {
          "internalType": "string",
          "name": "colour",
          "type": "string"
        },
        {
          "internalType": "bool",
          "name": "isForSale",
          "type": "bool"
        }
      ],
      "stateMutability": "view",
      "type": "function"
    },
    {
      "inputs": [
        {
          "internalType": "uint32",
          "name": "_chassisNumber",
          "type": "uint32"
        },
        {
          "internalType": "uint32",
          "name": "_mileage",
          "type": "uint32"
        },
        {
          "internalType": "uint32",
          "name": "_price",
          "type": "uint32"
        },
        {
          "internalType": "string",
          "name": "_licensePlate",
          "type": "string"
        },
        {
          "internalType": "string",
          "name": "_brand",
          "type": "string"
        },
        {
          "internalType": "string",
          "name": "_carType",
          "type": "string"
        },
        {
          "internalType": "string",
          "name": "_colour",
          "type": "string"
        },
        {
          "internalType": "string[]",
          "name": "_pictures",
          "type": "string[]"
        },
        {
          "internalType": "bool",
          "name": "_isForSale",
          "type": "bool"
        }
      ],
      "name": "createCar",
      "outputs": [],
      "stateMutability": "nonpayable",
      "type": "function"
    },
    {
      "inputs": [
        {
          "internalType": "uint32",
          "name": "_carId",
          "type": "uint32"
        }
      ],
      "name": "deleteCar",
      "outputs": [],
      "stateMutability": "nonpayable",
      "type": "function"
    },
    {
      "inputs": [
        {
          "internalType": "address",
          "name": "_owner",
          "type": "address"
        }
      ],
      "name": "getAllCarsForOwner",
      "outputs": [
        {
          "components": [
            {
              "internalType": "uint32",
              "name": "id",
              "type": "uint32"
            },
            {
              "internalType": "uint32",
              "name": "chassisNumber",
              "type": "uint32"
            },
            {
              "internalType": "uint32",
              "name": "mileage",
              "type": "uint32"
            },
            {
              "internalType": "uint32",
              "name": "price",
              "type": "uint32"
            },
            {
              "internalType": "string",
              "name": "licensePlate",
              "type": "string"
            },
            {
              "internalType": "string",
              "name": "brand",
              "type": "string"
            },
            {
              "internalType": "string",
              "name": "carType",
              "type": "string"
            },
            {
              "internalType": "string",
              "name": "colour",
              "type": "string"
            },
            {
              "internalType": "string[]",
              "name": "pictures",
              "type": "string[]"
            },
            {
              "internalType": "bool",
              "name": "isForSale",
              "type": "bool"
            }
          ],
          "internalType": "struct CarDetails.Car[]",
          "name": "",
          "type": "tuple[]"
        }
      ],
      "stateMutability": "view",
      "type": "function"
    },
    {
      "inputs": [
        {
          "internalType": "uint256",
          "name": "_carId",
          "type": "uint256"
        }
      ],
      "name": "getCar",
      "outputs": [
        {
          "components": [
            {
              "internalType": "uint32",
              "name": "id",
              "type": "uint32"
            },
            {
              "internalType": "uint32",
              "name": "chassisNumber",
              "type": "uint32"
            },
            {
              "internalType": "uint32",
              "name": "mileage",
              "type": "uint32"
            },
            {
              "internalType": "uint32",
              "name": "price",
              "type": "uint32"
            },
            {
              "internalType": "string",
              "name": "licensePlate",
              "type": "string"
            },
            {
              "internalType": "string",
              "name": "brand",
              "type": "string"
            },
            {
              "internalType": "string",
              "name": "carType",
              "type": "string"
            },
            {
              "internalType": "string",
              "name": "colour",
              "type": "string"
            },
            {
              "internalType": "string[]",
              "name": "pictures",
              "type": "string[]"
            },
            {
              "internalType": "bool",
              "name": "isForSale",
              "type": "bool"
            }
          ],
          "internalType": "struct CarDetails.Car",
          "name": "",
          "type": "tuple"
        }
      ],
      "stateMutability": "view",
      "type": "function"
    },
    {
      "inputs": [],
      "name": "isOwner",
      "outputs": [
        {
          "internalType": "bool",
          "name": "",
          "type": "bool"
        }
      ],
      "stateMutability": "view",
      "type": "function"
    },
    {
      "inputs": [],
      "name": "owner",
      "outputs": [
        {
          "internalType": "address",
          "name": "",
          "type": "address"
        }
      ],
      "stateMutability": "view",
      "type": "function"
    },
    {
      "inputs": [],
      "name": "renounceOwnership",
      "outputs": [],
      "stateMutability": "nonpayable",
      "type": "function"
    },
    {
      "inputs": [
        {
          "internalType": "uint256",
          "name": "_carId",
          "type": "uint256"
        }
      ],
      "name": "toggleSaleState",
      "outputs": [],
      "stateMutability": "nonpayable",
      "type": "function"
    },
    {
      "inputs": [
        {
          "internalType": "address",
          "name": "newOwner",
          "type": "address"
        }
      ],
      "name": "transferOwnership",
      "outputs": [],
      "stateMutability": "nonpayable",
      "type": "function"
    },
    {
      "inputs": [
        {
          "internalType": "uint256",
          "name": "_carId",
          "type": "uint256"
        },
        {
          "internalType": "uint32",
          "name": "_newMileage",
          "type": "uint32"
        }
      ],
      "name": "updateMileage",
      "outputs": [],
      "stateMutability": "nonpayable",
      "type": "function"
    },
    {
      "inputs": [
        {
          "internalType": "uint256",
          "name": "_carId",
          "type": "uint256"
        },
        {
          "internalType": "uint32",
          "name": "_newPrice",
          "type": "uint32"
        }
      ],
      "name": "updatePrice",
      "outputs": [],
      "stateMutability": "nonpayable",
      "type": "function"
    }
  ],
  "bytecode": "0x608060405234801561001057600080fd5b50336000806101000a81548173ffffffffffffffffffffffffffffffffffffffff021916908373ffffffffffffffffffffffffffffffffffffffff16021790555060008054906101000a900473ffffffffffffffffffffffffffffffffffffffff1673ffffffffffffffffffffffffffffffffffffffff16600073ffffffffffffffffffffffffffffffffffffffff167f8be0079c531659141344cd1fd0a4f28419497f9722a3daafe3b4186f6b6457e060405160405180910390a3612a23806100db6000396000f3fe608060405234801561001057600080fd5b50600436106100cf5760003560e01c80638da5cb5b1161008c578063d4d942ec11610066578063d4d942ec146101fe578063f2fde38b1461021a578063f7746e3614610236578063f95fe25b1461026e576100cf565b80638da5cb5b146101a65780638f32d59b146101c4578063b275decc146101e2576100cf565b80632286c0c1146100d457806333ca504b146101045780635e8be19014610134578063628dd13e14610164578063715018a6146101805780637edffa531461018a575b600080fd5b6100ee60048036038101906100e99190611a3a565b61028a565b6040516100fb9190611dab565b60405180910390f35b61011e60048036038101906101199190611e03565b6107e7565b60405161012b9190611e3f565b60405180910390f35b61014e60048036038101906101499190611e03565b61081a565b60405161015b9190611f50565b60405180910390f35b61017e60048036038101906101799190611e03565b610c2b565b005b610188610caf565b005b6101a4600480360381019061019f9190611f9e565b610d7e565b005b6101ae610e5a565b6040516101bb9190611e3f565b60405180910390f35b6101cc610e83565b6040516101d99190611fed565b60405180910390f35b6101fc60048036038101906101f79190612008565b610eda565b005b6102186004803603810190610213919061227c565b6110d8565b005b610234600480360381019061022f9190611a3a565b6113fd565b005b610250600480360381019061024b9190611e03565b61141a565b6040516102659998979695949392919061242b565b60405180910390f35b61028860048036038101906102839190611f9e565b6116e5565b005b60606000600360008473ffffffffffffffffffffffffffffffffffffffff1673ffffffffffffffffffffffffffffffffffffffff1681526020019081526020016000205467ffffffffffffffff8111156102e7576102e661203f565b5b60405190808252806020026020018201604052801561032057816020015b61030d611860565b8152602001906001900390816103055790505b5090506000805b6001805490508110156107dc578473ffffffffffffffffffffffffffffffffffffffff166002600083815260200190815260200160002060009054906101000a900473ffffffffffffffffffffffffffffffffffffffff1673ffffffffffffffffffffffffffffffffffffffff16036107c957600181815481106103ae576103ad6124d4565b5b9060005260206000209060070201604051806101400160405290816000820160009054906101000a900463ffffffff1663ffffffff1663ffffffff1681526020016000820160049054906101000a900463ffffffff1663ffffffff1663ffffffff1681526020016000820160089054906101000a900463ffffffff1663ffffffff1663ffffffff16815260200160008201600c9054906101000a900463ffffffff1663ffffffff1663ffffffff16815260200160018201805461047090612532565b80601f016020809104026020016040519081016040528092919081815260200182805461049c90612532565b80156104e95780601f106104be576101008083540402835291602001916104e9565b820191906000526020600020905b8154815290600101906020018083116104cc57829003601f168201915b5050505050815260200160028201805461050290612532565b80601f016020809104026020016040519081016040528092919081815260200182805461052e90612532565b801561057b5780601f106105505761010080835404028352916020019161057b565b820191906000526020600020905b81548152906001019060200180831161055e57829003601f168201915b5050505050815260200160038201805461059490612532565b80601f01602080910402602001604051908101604052809291908181526020018280546105c090612532565b801561060d5780601f106105e25761010080835404028352916020019161060d565b820191906000526020600020905b8154815290600101906020018083116105f057829003601f168201915b5050505050815260200160048201805461062690612532565b80601f016020809104026020016040519081016040528092919081815260200182805461065290612532565b801561069f5780601f106106745761010080835404028352916020019161069f565b820191906000526020600020905b81548152906001019060200180831161068257829003601f168201915b5050505050815260200160058201805480602002602001604051908101604052809291908181526020016000905b828210156107795783829060005260206000200180546106ec90612532565b80601f016020809104026020016040519081016040528092919081815260200182805461071890612532565b80156107655780601f1061073a57610100808354040283529160200191610765565b820191906000526020600020905b81548152906001019060200180831161074857829003601f168201915b5050505050815260200190600101906106cd565b5050505081526020016006820160009054906101000a900460ff1615151515815250508383815181106107af576107ae6124d4565b5b602002602001018190525081806107c590612592565b9250505b80806107d490612592565b915050610327565b508192505050919050565b60026020528060005260406000206000915054906101000a900473ffffffffffffffffffffffffffffffffffffffff1681565b610822611860565b60018281548110610836576108356124d4565b5b9060005260206000209060070201604051806101400160405290816000820160009054906101000a900463ffffffff1663ffffffff1663ffffffff1681526020016000820160049054906101000a900463ffffffff1663ffffffff1663ffffffff1681526020016000820160089054906101000a900463ffffffff1663ffffffff1663ffffffff16815260200160008201600c9054906101000a900463ffffffff1663ffffffff1663ffffffff1681526020016001820180546108f890612532565b80601f016020809104026020016040519081016040528092919081815260200182805461092490612532565b80156109715780601f1061094657610100808354040283529160200191610971565b820191906000526020600020905b81548152906001019060200180831161095457829003601f168201915b5050505050815260200160028201805461098a90612532565b80601f01602080910402602001604051908101604052809291908181526020018280546109b690612532565b8015610a035780601f106109d857610100808354040283529160200191610a03565b820191906000526020600020905b8154815290600101906020018083116109e657829003601f168201915b50505050508152602001600382018054610a1c90612532565b80601f0160208091040260200160405190810160405280929190818152602001828054610a4890612532565b8015610a955780601f10610a6a57610100808354040283529160200191610a95565b820191906000526020600020905b815481529060010190602001808311610a7857829003601f168201915b50505050508152602001600482018054610aae90612532565b80601f0160208091040260200160405190810160405280929190818152602001828054610ada90612532565b8015610b275780601f10610afc57610100808354040283529160200191610b27565b820191906000526020600020905b815481529060010190602001808311610b0a57829003601f168201915b5050505050815260200160058201805480602002602001604051908101604052809291908181526020016000905b82821015610c01578382906000526020600020018054610b7490612532565b80601f0160208091040260200160405190810160405280929190818152602001828054610ba090612532565b8015610bed5780601f10610bc257610100808354040283529160200191610bed565b820191906000526020600020905b815481529060010190602001808311610bd057829003601f168201915b505050505081526020019060010190610b55565b5050505081526020016006820160009054906101000a900460ff1615151515815250509050919050565b610c33610e83565b610c3c57600080fd5b60018181548110610c5057610c4f6124d4565b5b906000526020600020906007020160060160009054906101000a900460ff161560018281548110610c8457610c836124d4565b5b906000526020600020906007020160060160006101000a81548160ff02191690831515021790555050565b610cb7610e83565b610cc057600080fd5b600073ffffffffffffffffffffffffffffffffffffffff1660008054906101000a900473ffffffffffffffffffffffffffffffffffffffff1673ffffffffffffffffffffffffffffffffffffffff167f8be0079c531659141344cd1fd0a4f28419497f9722a3daafe3b4186f6b6457e060405160405180910390a360008060006101000a81548173ffffffffffffffffffffffffffffffffffffffff021916908373ffffffffffffffffffffffffffffffffffffffff160217905550565b610d86610e83565b610d8f57600080fd5b60018281548110610da357610da26124d4565b5b906000526020600020906007020160000160089054906101000a900463ffffffff1663ffffffff168163ffffffff1611610e12576040517f08c379a0000000000000000000000000000000000000000000000000000000008152600401610e099061264c565b60405180910390fd5b8060018381548110610e2757610e266124d4565b5b906000526020600020906007020160000160086101000a81548163ffffffff021916908363ffffffff1602179055505050565b60008060009054906101000a900473ffffffffffffffffffffffffffffffffffffffff16905090565b60008060009054906101000a900473ffffffffffffffffffffffffffffffffffffffff1673ffffffffffffffffffffffffffffffffffffffff163373ffffffffffffffffffffffffffffffffffffffff1614905090565b8063ffffffff166002600082815260200190815260200160002060009054906101000a900473ffffffffffffffffffffffffffffffffffffffff1673ffffffffffffffffffffffffffffffffffffffff163373ffffffffffffffffffffffffffffffffffffffff1614610f82576040517f08c379a0000000000000000000000000000000000000000000000000000000008152600401610f79906126b8565b60405180910390fd5b60005b6001805490508110156110d3578263ffffffff1660018281548110610fad57610fac6124d4565b5b906000526020600020906007020160000160009054906101000a900463ffffffff1663ffffffff16036110c05760018181548110610fee57610fed6124d4565b5b9060005260206000209060070201600080820160006101000a81549063ffffffff02191690556000820160046101000a81549063ffffffff02191690556000820160086101000a81549063ffffffff021916905560008201600c6101000a81549063ffffffff021916905560018201600061106991906118cd565b60028201600061107991906118cd565b60038201600061108991906118cd565b60048201600061109991906118cd565b6005820160006110a9919061190d565b6006820160006101000a81549060ff021916905550505b80806110cb90612592565b915050610f85565b505050565b6000604051806101400160405280600063ffffffff1681526020018b63ffffffff1681526020018a63ffffffff1681526020018963ffffffff1681526020018881526020018781526020018681526020018581526020018481526020018315158152509050600181908060018154018082558091505060019003906000526020600020906007020160009091909190915060008201518160000160006101000a81548163ffffffff021916908363ffffffff16021790555060208201518160000160046101000a81548163ffffffff021916908363ffffffff16021790555060408201518160000160086101000a81548163ffffffff021916908363ffffffff160217905550606082015181600001600c6101000a81548163ffffffff021916908363ffffffff160217905550608082015181600101908161121a9190612884565b5060a08201518160020190816112309190612884565b5060c08201518160030190816112469190612884565b5060e082015181600401908161125c9190612884565b5061010082015181600501908051906020019061127a92919061192e565b506101208201518160060160006101000a81548160ff02191690831515021790555050506000600180805490506112b19190612956565b905080826000019063ffffffff16908163ffffffff168152505033600260008363ffffffff16815260200190815260200160002060006101000a81548173ffffffffffffffffffffffffffffffffffffffff021916908373ffffffffffffffffffffffffffffffffffffffff1602179055506113766001600360003373ffffffffffffffffffffffffffffffffffffffff1673ffffffffffffffffffffffffffffffffffffffff1681526020019081526020016000205461173e90919063ffffffff16565b600360003373ffffffffffffffffffffffffffffffffffffffff1673ffffffffffffffffffffffffffffffffffffffff168152602001908152602001600020819055507f1a1d86e0f039b69dc75a6a99b30e291a372ccdcae3c35990cc416065bf727778826040516113e89190611f50565b60405180910390a15050505050505050505050565b611405610e83565b61140e57600080fd5b6114178161176a565b50565b6001818154811061142a57600080fd5b90600052602060002090600702016000915090508060000160009054906101000a900463ffffffff16908060000160049054906101000a900463ffffffff16908060000160089054906101000a900463ffffffff169080600001600c9054906101000a900463ffffffff16908060010180546114a590612532565b80601f01602080910402602001604051908101604052809291908181526020018280546114d190612532565b801561151e5780601f106114f35761010080835404028352916020019161151e565b820191906000526020600020905b81548152906001019060200180831161150157829003601f168201915b50505050509080600201805461153390612532565b80601f016020809104026020016040519081016040528092919081815260200182805461155f90612532565b80156115ac5780601f10611581576101008083540402835291602001916115ac565b820191906000526020600020905b81548152906001019060200180831161158f57829003601f168201915b5050505050908060030180546115c190612532565b80601f01602080910402602001604051908101604052809291908181526020018280546115ed90612532565b801561163a5780601f1061160f5761010080835404028352916020019161163a565b820191906000526020600020905b81548152906001019060200180831161161d57829003601f168201915b50505050509080600401805461164f90612532565b80601f016020809104026020016040519081016040528092919081815260200182805461167b90612532565b80156116c85780601f1061169d576101008083540402835291602001916116c8565b820191906000526020600020905b8154815290600101906020018083116116ab57829003601f168201915b5050505050908060060160009054906101000a900460ff16905089565b6116ed610e83565b6116f657600080fd5b806001838154811061170b5761170a6124d4565b5b9060005260206000209060070201600001600c6101000a81548163ffffffff021916908363ffffffff1602179055505050565b600080828461174d919061298a565b9050838110156117605761175f6129be565b5b8091505092915050565b600073ffffffffffffffffffffffffffffffffffffffff168173ffffffffffffffffffffffffffffffffffffffff16036117a357600080fd5b8073ffffffffffffffffffffffffffffffffffffffff1660008054906101000a900473ffffffffffffffffffffffffffffffffffffffff1673ffffffffffffffffffffffffffffffffffffffff167f8be0079c531659141344cd1fd0a4f28419497f9722a3daafe3b4186f6b6457e060405160405180910390a3806000806101000a81548173ffffffffffffffffffffffffffffffffffffffff021916908373ffffffffffffffffffffffffffffffffffffffff16021790555050565b604051806101400160405280600063ffffffff168152602001600063ffffffff168152602001600063ffffffff168152602001600063ffffffff16815260200160608152602001606081526020016060815260200160608152602001606081526020016000151581525090565b5080546118d990612532565b6000825580601f106118eb575061190a565b601f0160209004906000526020600020908101906119099190611987565b5b50565b508054600082559060005260206000209081019061192b91906119a4565b50565b828054828255906000526020600020908101928215611976579160200282015b828111156119755782518290816119659190612884565b509160200191906001019061194e565b5b50905061198391906119a4565b5090565b5b808211156119a0576000816000905550600101611988565b5090565b5b808211156119c457600081816119bb91906118cd565b506001016119a5565b5090565b6000604051905090565b600080fd5b600080fd5b600073ffffffffffffffffffffffffffffffffffffffff82169050919050565b6000611a07826119dc565b9050919050565b611a17816119fc565b8114611a2257600080fd5b50565b600081359050611a3481611a0e565b92915050565b600060208284031215611a5057611a4f6119d2565b5b6000611a5e84828501611a25565b91505092915050565b600081519050919050565b600082825260208201905092915050565b6000819050602082019050919050565b600063ffffffff82169050919050565b611aac81611a93565b82525050565b600081519050919050565b600082825260208201905092915050565b60005b83811015611aec578082015181840152602081019050611ad1565b60008484015250505050565b6000601f19601f8301169050919050565b6000611b1482611ab2565b611b1e8185611abd565b9350611b2e818560208601611ace565b611b3781611af8565b840191505092915050565b600081519050919050565b600082825260208201905092915050565b6000819050602082019050919050565b6000611b7a8383611b09565b905092915050565b6000602082019050919050565b6000611b9a82611b42565b611ba48185611b4d565b935083602082028501611bb685611b5e565b8060005b85811015611bf25784840389528151611bd38582611b6e565b9450611bde83611b82565b925060208a01995050600181019050611bba565b50829750879550505050505092915050565b60008115159050919050565b611c1981611c04565b82525050565b600061014083016000830151611c386000860182611aa3565b506020830151611c4b6020860182611aa3565b506040830151611c5e6040860182611aa3565b506060830151611c716060860182611aa3565b5060808301518482036080860152611c898282611b09565b91505060a083015184820360a0860152611ca38282611b09565b91505060c083015184820360c0860152611cbd8282611b09565b91505060e083015184820360e0860152611cd78282611b09565b915050610100830151848203610100860152611cf38282611b8f565b915050610120830151611d0a610120860182611c10565b508091505092915050565b6000611d218383611c1f565b905092915050565b6000602082019050919050565b6000611d4182611a67565b611d4b8185611a72565b935083602082028501611d5d85611a83565b8060005b85811015611d995784840389528151611d7a8582611d15565b9450611d8583611d29565b925060208a01995050600181019050611d61565b50829750879550505050505092915050565b60006020820190508181036000830152611dc58184611d36565b905092915050565b6000819050919050565b611de081611dcd565b8114611deb57600080fd5b50565b600081359050611dfd81611dd7565b92915050565b600060208284031215611e1957611e186119d2565b5b6000611e2784828501611dee565b91505092915050565b611e39816119fc565b82525050565b6000602082019050611e546000830184611e30565b92915050565b600061014083016000830151611e736000860182611aa3565b506020830151611e866020860182611aa3565b506040830151611e996040860182611aa3565b506060830151611eac6060860182611aa3565b5060808301518482036080860152611ec48282611b09565b91505060a083015184820360a0860152611ede8282611b09565b91505060c083015184820360c0860152611ef88282611b09565b91505060e083015184820360e0860152611f128282611b09565b915050610100830151848203610100860152611f2e8282611b8f565b915050610120830151611f45610120860182611c10565b508091505092915050565b60006020820190508181036000830152611f6a8184611e5a565b905092915050565b611f7b81611a93565b8114611f8657600080fd5b50565b600081359050611f9881611f72565b92915050565b60008060408385031215611fb557611fb46119d2565b5b6000611fc385828601611dee565b9250506020611fd485828601611f89565b9150509250929050565b611fe781611c04565b82525050565b60006020820190506120026000830184611fde565b92915050565b60006020828403121561201e5761201d6119d2565b5b600061202c84828501611f89565b91505092915050565b600080fd5b600080fd5b7f4e487b7100000000000000000000000000000000000000000000000000000000600052604160045260246000fd5b61207782611af8565b810181811067ffffffffffffffff821117156120965761209561203f565b5b80604052505050565b60006120a96119c8565b90506120b5828261206e565b919050565b600067ffffffffffffffff8211156120d5576120d461203f565b5b6120de82611af8565b9050602081019050919050565b82818337600083830152505050565b600061210d612108846120ba565b61209f565b9050828152602081018484840111156121295761212861203a565b5b6121348482856120eb565b509392505050565b600082601f83011261215157612150612035565b5b81356121618482602086016120fa565b91505092915050565b600067ffffffffffffffff8211156121855761218461203f565b5b602082029050602081019050919050565b600080fd5b60006121ae6121a98461216a565b61209f565b905080838252602082019050602084028301858111156121d1576121d0612196565b5b835b8181101561221857803567ffffffffffffffff8111156121f6576121f5612035565b5b808601612203898261213c565b855260208501945050506020810190506121d3565b5050509392505050565b600082601f83011261223757612236612035565b5b813561224784826020860161219b565b91505092915050565b61225981611c04565b811461226457600080fd5b50565b60008135905061227681612250565b92915050565b60008060008060008060008060006101208a8c03121561229f5761229e6119d2565b5b60006122ad8c828d01611f89565b99505060206122be8c828d01611f89565b98505060406122cf8c828d01611f89565b97505060608a013567ffffffffffffffff8111156122f0576122ef6119d7565b5b6122fc8c828d0161213c565b96505060808a013567ffffffffffffffff81111561231d5761231c6119d7565b5b6123298c828d0161213c565b95505060a08a013567ffffffffffffffff81111561234a576123496119d7565b5b6123568c828d0161213c565b94505060c08a013567ffffffffffffffff811115612377576123766119d7565b5b6123838c828d0161213c565b93505060e08a013567ffffffffffffffff8111156123a4576123a36119d7565b5b6123b08c828d01612222565b9250506101006123c28c828d01612267565b9150509295985092959850929598565b6123db81611a93565b82525050565b600082825260208201905092915050565b60006123fd82611ab2565b61240781856123e1565b9350612417818560208601611ace565b61242081611af8565b840191505092915050565b600061012082019050612441600083018c6123d2565b61244e602083018b6123d2565b61245b604083018a6123d2565b61246860608301896123d2565b818103608083015261247a81886123f2565b905081810360a083015261248e81876123f2565b905081810360c08301526124a281866123f2565b905081810360e08301526124b681856123f2565b90506124c6610100830184611fde565b9a9950505050505050505050565b7f4e487b7100000000000000000000000000000000000000000000000000000000600052603260045260246000fd5b7f4e487b7100000000000000000000000000000000000000000000000000000000600052602260045260246000fd5b6000600282049050600182168061254a57607f821691505b60208210810361255d5761255c612503565b5b50919050565b7f4e487b7100000000000000000000000000000000000000000000000000000000600052601160045260246000fd5b600061259d82611dcd565b91507fffffffffffffffffffffffffffffffffffffffffffffffffffffffffffffffff82036125cf576125ce612563565b5b600182019050919050565b7f546865206e6577206d696c616765206d75737420626520686967686572204f5560008201527f4c45480000000000000000000000000000000000000000000000000000000000602082015250565b60006126366023836123e1565b9150612641826125da565b604082019050919050565b6000602082019050818103600083015261266581612629565b9050919050565b7f546861742773206e6f7420796f20636172000000000000000000000000000000600082015250565b60006126a26011836123e1565b91506126ad8261266c565b602082019050919050565b600060208201905081810360008301526126d181612695565b9050919050565b60008190508160005260206000209050919050565b60006020601f8301049050919050565b600082821b905092915050565b60006008830261273a7fffffffffffffffffffffffffffffffffffffffffffffffffffffffffffffffff826126fd565b61274486836126fd565b95508019841693508086168417925050509392505050565b6000819050919050565b600061278161277c61277784611dcd565b61275c565b611dcd565b9050919050565b6000819050919050565b61279b83612766565b6127af6127a782612788565b84845461270a565b825550505050565b600090565b6127c46127b7565b6127cf818484612792565b505050565b5b818110156127f3576127e86000826127bc565b6001810190506127d5565b5050565b601f82111561283857612809816126d8565b612812846126ed565b81016020851015612821578190505b61283561282d856126ed565b8301826127d4565b50505b505050565b600082821c905092915050565b600061285b6000198460080261283d565b1980831691505092915050565b6000612874838361284a565b9150826002028217905092915050565b61288d82611ab2565b67ffffffffffffffff8111156128a6576128a561203f565b5b6128b08254612532565b6128bb8282856127f7565b600060209050601f8311600181146128ee57600084156128dc578287015190505b6128e68582612868565b86555061294e565b601f1984166128fc866126d8565b60005b82811015612924578489015182556001820191506020850194506020810190506128ff565b86831015612941578489015161293d601f89168261284a565b8355505b6001600288020188555050505b505050505050565b600061296182611dcd565b915061296c83611dcd565b925082820390508181111561298457612983612563565b5b92915050565b600061299582611dcd565b91506129a083611dcd565b92508282019050808211156129b8576129b7612563565b5b92915050565b7f4e487b7100000000000000000000000000000000000000000000000000000000600052600160045260246000fdfea2646970667358221220792277ec01ac1e05348876714a12380417bdb474d6ac414284c840ee36add87864736f6c63430008110033",
  "linkReferences": {},
  "deployedLinkReferences": {}
}