{
  "_format": "hh-sol-artifact-1",
  "contractName": "CarDetails",
  "sourceName": "contracts/cardetails.sol",
  "abi": [
    {
      "anonymous": false,
      "inputs": [
        {
          "components": [
            {
              "internalType": "uint256",
              "name": "chassisNumber",
              "type": "uint256"
            },
            {
              "internalType": "uint32",
              "name": "mileage",
              "type": "uint32"
            },
            {
              "internalType": "uint32",
              "name": "price",
              "type": "uint32"
            },
            {
              "internalType": "string",
              "name": "licensePlate",
              "type": "string"
            },
            {
              "internalType": "string",
              "name": "brand",
              "type": "string"
            },
            {
              "internalType": "string",
              "name": "carType",
              "type": "string"
            },
            {
              "internalType": "string",
              "name": "colour",
              "type": "string"
            },
            {
              "internalType": "string[]",
              "name": "pictures",
              "type": "string[]"
            },
            {
              "internalType": "bool",
              "name": "isForSale",
              "type": "bool"
            }
          ],
          "indexed": false,
          "internalType": "struct CarDetails.Car",
          "name": "car",
          "type": "tuple"
        }
      ],
      "name": "NewCar",
      "type": "event"
    },
    {
      "anonymous": false,
      "inputs": [
        {
          "indexed": true,
          "internalType": "address",
          "name": "previousOwner",
          "type": "address"
        },
        {
          "indexed": true,
          "internalType": "address",
          "name": "newOwner",
          "type": "address"
        }
      ],
      "name": "OwnershipTransferred",
      "type": "event"
    },
    {
      "inputs": [
        {
          "internalType": "uint256",
          "name": "",
          "type": "uint256"
        }
      ],
      "name": "carToOwner",
      "outputs": [
        {
          "internalType": "address",
          "name": "",
          "type": "address"
        }
      ],
      "stateMutability": "view",
      "type": "function"
    },
    {
      "inputs": [
        {
          "internalType": "uint256",
          "name": "",
          "type": "uint256"
        }
      ],
      "name": "cars",
      "outputs": [
        {
          "internalType": "uint256",
          "name": "chassisNumber",
          "type": "uint256"
        },
        {
          "internalType": "uint32",
          "name": "mileage",
          "type": "uint32"
        },
        {
          "internalType": "uint32",
          "name": "price",
          "type": "uint32"
        },
        {
          "internalType": "string",
          "name": "licensePlate",
          "type": "string"
        },
        {
          "internalType": "string",
          "name": "brand",
          "type": "string"
        },
        {
          "internalType": "string",
          "name": "carType",
          "type": "string"
        },
        {
          "internalType": "string",
          "name": "colour",
          "type": "string"
        },
        {
          "internalType": "bool",
          "name": "isForSale",
          "type": "bool"
        }
      ],
      "stateMutability": "view",
      "type": "function"
    },
    {
      "inputs": [
        {
          "internalType": "uint256",
          "name": "_chassisNumber",
          "type": "uint256"
        },
        {
          "internalType": "uint32",
          "name": "_mileage",
          "type": "uint32"
        },
        {
          "internalType": "uint32",
          "name": "_price",
          "type": "uint32"
        },
        {
          "internalType": "string",
          "name": "_licensePlate",
          "type": "string"
        },
        {
          "internalType": "string",
          "name": "_brand",
          "type": "string"
        },
        {
          "internalType": "string",
          "name": "_carType",
          "type": "string"
        },
        {
          "internalType": "string",
          "name": "_colour",
          "type": "string"
        },
        {
          "internalType": "string[]",
          "name": "_pictures",
          "type": "string[]"
        },
        {
          "internalType": "bool",
          "name": "_isForSale",
          "type": "bool"
        }
      ],
      "name": "createCar",
      "outputs": [],
      "stateMutability": "nonpayable",
      "type": "function"
    },
    {
      "inputs": [
        {
          "internalType": "address",
          "name": "_owner",
          "type": "address"
        }
      ],
      "name": "getAllCarsForOwner",
      "outputs": [
        {
          "components": [
            {
              "internalType": "uint256",
              "name": "chassisNumber",
              "type": "uint256"
            },
            {
              "internalType": "uint32",
              "name": "mileage",
              "type": "uint32"
            },
            {
              "internalType": "uint32",
              "name": "price",
              "type": "uint32"
            },
            {
              "internalType": "string",
              "name": "licensePlate",
              "type": "string"
            },
            {
              "internalType": "string",
              "name": "brand",
              "type": "string"
            },
            {
              "internalType": "string",
              "name": "carType",
              "type": "string"
            },
            {
              "internalType": "string",
              "name": "colour",
              "type": "string"
            },
            {
              "internalType": "string[]",
              "name": "pictures",
              "type": "string[]"
            },
            {
              "internalType": "bool",
              "name": "isForSale",
              "type": "bool"
            }
          ],
          "internalType": "struct CarDetails.Car[]",
          "name": "",
          "type": "tuple[]"
        }
      ],
      "stateMutability": "view",
      "type": "function"
    },
    {
      "inputs": [
        {
          "internalType": "uint256",
          "name": "_carId",
          "type": "uint256"
        }
      ],
      "name": "getCar",
      "outputs": [
        {
          "components": [
            {
              "internalType": "uint256",
              "name": "chassisNumber",
              "type": "uint256"
            },
            {
              "internalType": "uint32",
              "name": "mileage",
              "type": "uint32"
            },
            {
              "internalType": "uint32",
              "name": "price",
              "type": "uint32"
            },
            {
              "internalType": "string",
              "name": "licensePlate",
              "type": "string"
            },
            {
              "internalType": "string",
              "name": "brand",
              "type": "string"
            },
            {
              "internalType": "string",
              "name": "carType",
              "type": "string"
            },
            {
              "internalType": "string",
              "name": "colour",
              "type": "string"
            },
            {
              "internalType": "string[]",
              "name": "pictures",
              "type": "string[]"
            },
            {
              "internalType": "bool",
              "name": "isForSale",
              "type": "bool"
            }
          ],
          "internalType": "struct CarDetails.Car",
          "name": "",
          "type": "tuple"
        }
      ],
      "stateMutability": "view",
      "type": "function"
    },
    {
      "inputs": [],
      "name": "isOwner",
      "outputs": [
        {
          "internalType": "bool",
          "name": "",
          "type": "bool"
        }
      ],
      "stateMutability": "view",
      "type": "function"
    },
    {
      "inputs": [],
      "name": "owner",
      "outputs": [
        {
          "internalType": "address",
          "name": "",
          "type": "address"
        }
      ],
      "stateMutability": "view",
      "type": "function"
    },
    {
      "inputs": [],
      "name": "renounceOwnership",
      "outputs": [],
      "stateMutability": "nonpayable",
      "type": "function"
    },
    {
      "inputs": [
        {
          "internalType": "uint256",
          "name": "_carId",
          "type": "uint256"
        }
      ],
      "name": "toggleSaleState",
      "outputs": [],
      "stateMutability": "nonpayable",
      "type": "function"
    },
    {
      "inputs": [
        {
          "internalType": "address",
          "name": "newOwner",
          "type": "address"
        }
      ],
      "name": "transferOwnership",
      "outputs": [],
      "stateMutability": "nonpayable",
      "type": "function"
    },
    {
      "inputs": [
        {
          "internalType": "uint256",
          "name": "_carId",
          "type": "uint256"
        },
        {
          "internalType": "uint32",
          "name": "_newMileage",
          "type": "uint32"
        }
      ],
      "name": "updateMileage",
      "outputs": [],
      "stateMutability": "nonpayable",
      "type": "function"
    },
    {
      "inputs": [
        {
          "internalType": "uint256",
          "name": "_carId",
          "type": "uint256"
        },
        {
          "internalType": "uint32",
          "name": "_newPrice",
          "type": "uint32"
        }
      ],
      "name": "updatePrice",
      "outputs": [],
      "stateMutability": "nonpayable",
      "type": "function"
    }
  ],
  "bytecode": "0x608060405234801561001057600080fd5b50336000806101000a81548173ffffffffffffffffffffffffffffffffffffffff021916908373ffffffffffffffffffffffffffffffffffffffff16021790555060008054906101000a900473ffffffffffffffffffffffffffffffffffffffff1673ffffffffffffffffffffffffffffffffffffffff16600073ffffffffffffffffffffffffffffffffffffffff167f8be0079c531659141344cd1fd0a4f28419497f9722a3daafe3b4186f6b6457e060405160405180910390a36125e5806100db6000396000f3fe608060405234801561001057600080fd5b50600436106100b45760003560e01c80637edffa53116100715780637edffa531461018b5780638da5cb5b146101a75780638f32d59b146101c5578063f2fde38b146101e3578063f7746e36146101ff578063f95fe25b14610236576100b4565b80632286c0c1146100b957806333ca504b146100e95780635e8be19014610119578063628dd13e14610149578063715018a61461016557806374f84af71461016f575b600080fd5b6100d360048036038101906100ce91906116b0565b610252565b6040516100e09190611a25565b60405180910390f35b61010360048036038101906100fe9190611a73565b61076d565b6040516101109190611aaf565b60405180910390f35b610133600480360381019061012e9190611a73565b6107a0565b6040516101409190611bab565b60405180910390f35b610163600480360381019061015e9190611a73565b610b6f565b005b61016d610bf3565b005b61018960048036038101906101849190611e40565b610cc2565b005b6101a560048036038101906101a09190611f96565b610f71565b005b6101af61104d565b6040516101bc9190611aaf565b60405180910390f35b6101cd611076565b6040516101da9190611fe5565b60405180910390f35b6101fd60048036038101906101f891906116b0565b6110cd565b005b61021960048036038101906102149190611a73565b6110ea565b60405161022d989796959493929190612068565b60405180910390f35b610250600480360381019061024b9190611f96565b61138f565b005b60606000600360008473ffffffffffffffffffffffffffffffffffffffff1673ffffffffffffffffffffffffffffffffffffffff1681526020019081526020016000205467ffffffffffffffff8111156102af576102ae611c03565b5b6040519080825280602002602001820160405280156102e857816020015b6102d561150a565b8152602001906001900390816102cd5790505b5090506000805b600180549050811015610762578473ffffffffffffffffffffffffffffffffffffffff166002600083815260200190815260200160002060009054906101000a900473ffffffffffffffffffffffffffffffffffffffff1673ffffffffffffffffffffffffffffffffffffffff160361074f576001818154811061037657610375612102565b5b906000526020600020906008020160405180610120016040529081600082015481526020016001820160009054906101000a900463ffffffff1663ffffffff1663ffffffff1681526020016001820160049054906101000a900463ffffffff1663ffffffff1663ffffffff1681526020016002820180546103f690612160565b80601f016020809104026020016040519081016040528092919081815260200182805461042290612160565b801561046f5780601f106104445761010080835404028352916020019161046f565b820191906000526020600020905b81548152906001019060200180831161045257829003601f168201915b5050505050815260200160038201805461048890612160565b80601f01602080910402602001604051908101604052809291908181526020018280546104b490612160565b80156105015780601f106104d657610100808354040283529160200191610501565b820191906000526020600020905b8154815290600101906020018083116104e457829003601f168201915b5050505050815260200160048201805461051a90612160565b80601f016020809104026020016040519081016040528092919081815260200182805461054690612160565b80156105935780601f1061056857610100808354040283529160200191610593565b820191906000526020600020905b81548152906001019060200180831161057657829003601f168201915b505050505081526020016005820180546105ac90612160565b80601f01602080910402602001604051908101604052809291908181526020018280546105d890612160565b80156106255780601f106105fa57610100808354040283529160200191610625565b820191906000526020600020905b81548152906001019060200180831161060857829003601f168201915b5050505050815260200160068201805480602002602001604051908101604052809291908181526020016000905b828210156106ff57838290600052602060002001805461067290612160565b80601f016020809104026020016040519081016040528092919081815260200182805461069e90612160565b80156106eb5780601f106106c0576101008083540402835291602001916106eb565b820191906000526020600020905b8154815290600101906020018083116106ce57829003601f168201915b505050505081526020019060010190610653565b5050505081526020016007820160009054906101000a900460ff16151515158152505083838151811061073557610734612102565b5b6020026020010181905250818061074b906121c0565b9250505b808061075a906121c0565b9150506102ef565b508192505050919050565b60026020528060005260406000206000915054906101000a900473ffffffffffffffffffffffffffffffffffffffff1681565b6107a861150a565b600182815481106107bc576107bb612102565b5b906000526020600020906008020160405180610120016040529081600082015481526020016001820160009054906101000a900463ffffffff1663ffffffff1663ffffffff1681526020016001820160049054906101000a900463ffffffff1663ffffffff1663ffffffff16815260200160028201805461083c90612160565b80601f016020809104026020016040519081016040528092919081815260200182805461086890612160565b80156108b55780601f1061088a576101008083540402835291602001916108b5565b820191906000526020600020905b81548152906001019060200180831161089857829003601f168201915b505050505081526020016003820180546108ce90612160565b80601f01602080910402602001604051908101604052809291908181526020018280546108fa90612160565b80156109475780601f1061091c57610100808354040283529160200191610947565b820191906000526020600020905b81548152906001019060200180831161092a57829003601f168201915b5050505050815260200160048201805461096090612160565b80601f016020809104026020016040519081016040528092919081815260200182805461098c90612160565b80156109d95780601f106109ae576101008083540402835291602001916109d9565b820191906000526020600020905b8154815290600101906020018083116109bc57829003601f168201915b505050505081526020016005820180546109f290612160565b80601f0160208091040260200160405190810160405280929190818152602001828054610a1e90612160565b8015610a6b5780601f10610a4057610100808354040283529160200191610a6b565b820191906000526020600020905b815481529060010190602001808311610a4e57829003601f168201915b5050505050815260200160068201805480602002602001604051908101604052809291908181526020016000905b82821015610b45578382906000526020600020018054610ab890612160565b80601f0160208091040260200160405190810160405280929190818152602001828054610ae490612160565b8015610b315780601f10610b0657610100808354040283529160200191610b31565b820191906000526020600020905b815481529060010190602001808311610b1457829003601f168201915b505050505081526020019060010190610a99565b5050505081526020016007820160009054906101000a900460ff1615151515815250509050919050565b610b77611076565b610b8057600080fd5b60018181548110610b9457610b93612102565b5b906000526020600020906008020160070160009054906101000a900460ff161560018281548110610bc857610bc7612102565b5b906000526020600020906008020160070160006101000a81548160ff02191690831515021790555050565b610bfb611076565b610c0457600080fd5b600073ffffffffffffffffffffffffffffffffffffffff1660008054906101000a900473ffffffffffffffffffffffffffffffffffffffff1673ffffffffffffffffffffffffffffffffffffffff167f8be0079c531659141344cd1fd0a4f28419497f9722a3daafe3b4186f6b6457e060405160405180910390a360008060006101000a81548173ffffffffffffffffffffffffffffffffffffffff021916908373ffffffffffffffffffffffffffffffffffffffff160217905550565b60006040518061012001604052808b81526020018a63ffffffff1681526020018963ffffffff168152602001888152602001878152602001868152602001858152602001848152602001831515815250905060018190806001815401808255809150506001900390600052602060002090600802016000909190919091506000820151816000015560208201518160010160006101000a81548163ffffffff021916908363ffffffff16021790555060408201518160010160046101000a81548163ffffffff021916908363ffffffff1602179055506060820151816002019081610dad91906123b4565b506080820151816003019081610dc391906123b4565b5060a0820151816004019081610dd991906123b4565b5060c0820151816005019081610def91906123b4565b5060e0820151816006019080519060200190610e0c929190611564565b506101008201518160070160006101000a81548160ff0219169083151502179055505050600060018080549050610e439190612486565b9050336002600083815260200190815260200160002060006101000a81548173ffffffffffffffffffffffffffffffffffffffff021916908373ffffffffffffffffffffffffffffffffffffffff160217905550610eea6001600360003373ffffffffffffffffffffffffffffffffffffffff1673ffffffffffffffffffffffffffffffffffffffff168152602001908152602001600020546113e890919063ffffffff16565b600360003373ffffffffffffffffffffffffffffffffffffffff1673ffffffffffffffffffffffffffffffffffffffff168152602001908152602001600020819055507fdc83e501905cdc81b60bf2202ce003605089e4d952e4c6bca0831ca72f1776da82604051610f5c9190611bab565b60405180910390a15050505050505050505050565b610f79611076565b610f8257600080fd5b60018281548110610f9657610f95612102565b5b906000526020600020906008020160010160009054906101000a900463ffffffff1663ffffffff168163ffffffff1611611005576040517f08c379a0000000000000000000000000000000000000000000000000000000008152600401610ffc9061252c565b60405180910390fd5b806001838154811061101a57611019612102565b5b906000526020600020906008020160010160006101000a81548163ffffffff021916908363ffffffff1602179055505050565b60008060009054906101000a900473ffffffffffffffffffffffffffffffffffffffff16905090565b60008060009054906101000a900473ffffffffffffffffffffffffffffffffffffffff1673ffffffffffffffffffffffffffffffffffffffff163373ffffffffffffffffffffffffffffffffffffffff1614905090565b6110d5611076565b6110de57600080fd5b6110e781611414565b50565b600181815481106110fa57600080fd5b90600052602060002090600802016000915090508060000154908060010160009054906101000a900463ffffffff16908060010160049054906101000a900463ffffffff169080600201805461114f90612160565b80601f016020809104026020016040519081016040528092919081815260200182805461117b90612160565b80156111c85780601f1061119d576101008083540402835291602001916111c8565b820191906000526020600020905b8154815290600101906020018083116111ab57829003601f168201915b5050505050908060030180546111dd90612160565b80601f016020809104026020016040519081016040528092919081815260200182805461120990612160565b80156112565780601f1061122b57610100808354040283529160200191611256565b820191906000526020600020905b81548152906001019060200180831161123957829003601f168201915b50505050509080600401805461126b90612160565b80601f016020809104026020016040519081016040528092919081815260200182805461129790612160565b80156112e45780601f106112b9576101008083540402835291602001916112e4565b820191906000526020600020905b8154815290600101906020018083116112c757829003601f168201915b5050505050908060050180546112f990612160565b80601f016020809104026020016040519081016040528092919081815260200182805461132590612160565b80156113725780601f1061134757610100808354040283529160200191611372565b820191906000526020600020905b81548152906001019060200180831161135557829003601f168201915b5050505050908060070160009054906101000a900460ff16905088565b611397611076565b6113a057600080fd5b80600183815481106113b5576113b4612102565b5b906000526020600020906008020160010160046101000a81548163ffffffff021916908363ffffffff1602179055505050565b60008082846113f7919061254c565b90508381101561140a57611409612580565b5b8091505092915050565b600073ffffffffffffffffffffffffffffffffffffffff168173ffffffffffffffffffffffffffffffffffffffff160361144d57600080fd5b8073ffffffffffffffffffffffffffffffffffffffff1660008054906101000a900473ffffffffffffffffffffffffffffffffffffffff1673ffffffffffffffffffffffffffffffffffffffff167f8be0079c531659141344cd1fd0a4f28419497f9722a3daafe3b4186f6b6457e060405160405180910390a3806000806101000a81548173ffffffffffffffffffffffffffffffffffffffff021916908373ffffffffffffffffffffffffffffffffffffffff16021790555050565b60405180610120016040528060008152602001600063ffffffff168152602001600063ffffffff16815260200160608152602001606081526020016060815260200160608152602001606081526020016000151581525090565b8280548282559060005260206000209081019282156115ac579160200282015b828111156115ab57825182908161159b91906123b4565b5091602001919060010190611584565b5b5090506115b991906115bd565b5090565b5b808211156115dd57600081816115d491906115e1565b506001016115be565b5090565b5080546115ed90612160565b6000825580601f106115ff575061161e565b601f01602090049060005260206000209081019061161d9190611621565b5b50565b5b8082111561163a576000816000905550600101611622565b5090565b6000604051905090565b600080fd5b600080fd5b600073ffffffffffffffffffffffffffffffffffffffff82169050919050565b600061167d82611652565b9050919050565b61168d81611672565b811461169857600080fd5b50565b6000813590506116aa81611684565b92915050565b6000602082840312156116c6576116c5611648565b5b60006116d48482850161169b565b91505092915050565b600081519050919050565b600082825260208201905092915050565b6000819050602082019050919050565b6000819050919050565b61171c81611709565b82525050565b600063ffffffff82169050919050565b61173b81611722565b82525050565b600081519050919050565b600082825260208201905092915050565b60005b8381101561177b578082015181840152602081019050611760565b60008484015250505050565b6000601f19601f8301169050919050565b60006117a382611741565b6117ad818561174c565b93506117bd81856020860161175d565b6117c681611787565b840191505092915050565b600081519050919050565b600082825260208201905092915050565b6000819050602082019050919050565b60006118098383611798565b905092915050565b6000602082019050919050565b6000611829826117d1565b61183381856117dc565b935083602082028501611845856117ed565b8060005b85811015611881578484038952815161186285826117fd565b945061186d83611811565b925060208a01995050600181019050611849565b50829750879550505050505092915050565b60008115159050919050565b6118a881611893565b82525050565b6000610120830160008301516118c76000860182611713565b5060208301516118da6020860182611732565b5060408301516118ed6040860182611732565b50606083015184820360608601526119058282611798565b9150506080830151848203608086015261191f8282611798565b91505060a083015184820360a08601526119398282611798565b91505060c083015184820360c08601526119538282611798565b91505060e083015184820360e086015261196d828261181e565b91505061010083015161198461010086018261189f565b508091505092915050565b600061199b83836118ae565b905092915050565b6000602082019050919050565b60006119bb826116dd565b6119c581856116e8565b9350836020820285016119d7856116f9565b8060005b85811015611a1357848403895281516119f4858261198f565b94506119ff836119a3565b925060208a019950506001810190506119db565b50829750879550505050505092915050565b60006020820190508181036000830152611a3f81846119b0565b905092915050565b611a5081611709565b8114611a5b57600080fd5b50565b600081359050611a6d81611a47565b92915050565b600060208284031215611a8957611a88611648565b5b6000611a9784828501611a5e565b91505092915050565b611aa981611672565b82525050565b6000602082019050611ac46000830184611aa0565b92915050565b600061012083016000830151611ae36000860182611713565b506020830151611af66020860182611732565b506040830151611b096040860182611732565b5060608301518482036060860152611b218282611798565b91505060808301518482036080860152611b3b8282611798565b91505060a083015184820360a0860152611b558282611798565b91505060c083015184820360c0860152611b6f8282611798565b91505060e083015184820360e0860152611b89828261181e565b915050610100830151611ba061010086018261189f565b508091505092915050565b60006020820190508181036000830152611bc58184611aca565b905092915050565b611bd681611722565b8114611be157600080fd5b50565b600081359050611bf381611bcd565b92915050565b600080fd5b600080fd5b7f4e487b7100000000000000000000000000000000000000000000000000000000600052604160045260246000fd5b611c3b82611787565b810181811067ffffffffffffffff82111715611c5a57611c59611c03565b5b80604052505050565b6000611c6d61163e565b9050611c798282611c32565b919050565b600067ffffffffffffffff821115611c9957611c98611c03565b5b611ca282611787565b9050602081019050919050565b82818337600083830152505050565b6000611cd1611ccc84611c7e565b611c63565b905082815260208101848484011115611ced57611cec611bfe565b5b611cf8848285611caf565b509392505050565b600082601f830112611d1557611d14611bf9565b5b8135611d25848260208601611cbe565b91505092915050565b600067ffffffffffffffff821115611d4957611d48611c03565b5b602082029050602081019050919050565b600080fd5b6000611d72611d6d84611d2e565b611c63565b90508083825260208201905060208402830185811115611d9557611d94611d5a565b5b835b81811015611ddc57803567ffffffffffffffff811115611dba57611db9611bf9565b5b808601611dc78982611d00565b85526020850194505050602081019050611d97565b5050509392505050565b600082601f830112611dfb57611dfa611bf9565b5b8135611e0b848260208601611d5f565b91505092915050565b611e1d81611893565b8114611e2857600080fd5b50565b600081359050611e3a81611e14565b92915050565b60008060008060008060008060006101208a8c031215611e6357611e62611648565b5b6000611e718c828d01611a5e565b9950506020611e828c828d01611be4565b9850506040611e938c828d01611be4565b97505060608a013567ffffffffffffffff811115611eb457611eb361164d565b5b611ec08c828d01611d00565b96505060808a013567ffffffffffffffff811115611ee157611ee061164d565b5b611eed8c828d01611d00565b95505060a08a013567ffffffffffffffff811115611f0e57611f0d61164d565b5b611f1a8c828d01611d00565b94505060c08a013567ffffffffffffffff811115611f3b57611f3a61164d565b5b611f478c828d01611d00565b93505060e08a013567ffffffffffffffff811115611f6857611f6761164d565b5b611f748c828d01611de6565b925050610100611f868c828d01611e2b565b9150509295985092959850929598565b60008060408385031215611fad57611fac611648565b5b6000611fbb85828601611a5e565b9250506020611fcc85828601611be4565b9150509250929050565b611fdf81611893565b82525050565b6000602082019050611ffa6000830184611fd6565b92915050565b61200981611709565b82525050565b61201881611722565b82525050565b600082825260208201905092915050565b600061203a82611741565b612044818561201e565b935061205481856020860161175d565b61205d81611787565b840191505092915050565b60006101008201905061207e600083018b612000565b61208b602083018a61200f565b612098604083018961200f565b81810360608301526120aa818861202f565b905081810360808301526120be818761202f565b905081810360a08301526120d2818661202f565b905081810360c08301526120e6818561202f565b90506120f560e0830184611fd6565b9998505050505050505050565b7f4e487b7100000000000000000000000000000000000000000000000000000000600052603260045260246000fd5b7f4e487b7100000000000000000000000000000000000000000000000000000000600052602260045260246000fd5b6000600282049050600182168061217857607f821691505b60208210810361218b5761218a612131565b5b50919050565b7f4e487b7100000000000000000000000000000000000000000000000000000000600052601160045260246000fd5b60006121cb82611709565b91507fffffffffffffffffffffffffffffffffffffffffffffffffffffffffffffffff82036121fd576121fc612191565b5b600182019050919050565b60008190508160005260206000209050919050565b60006020601f8301049050919050565b600082821b905092915050565b60006008830261226a7fffffffffffffffffffffffffffffffffffffffffffffffffffffffffffffffff8261222d565b612274868361222d565b95508019841693508086168417925050509392505050565b6000819050919050565b60006122b16122ac6122a784611709565b61228c565b611709565b9050919050565b6000819050919050565b6122cb83612296565b6122df6122d7826122b8565b84845461223a565b825550505050565b600090565b6122f46122e7565b6122ff8184846122c2565b505050565b5b81811015612323576123186000826122ec565b600181019050612305565b5050565b601f8211156123685761233981612208565b6123428461221d565b81016020851015612351578190505b61236561235d8561221d565b830182612304565b50505b505050565b600082821c905092915050565b600061238b6000198460080261236d565b1980831691505092915050565b60006123a4838361237a565b9150826002028217905092915050565b6123bd82611741565b67ffffffffffffffff8111156123d6576123d5611c03565b5b6123e08254612160565b6123eb828285612327565b600060209050601f83116001811461241e576000841561240c578287015190505b6124168582612398565b86555061247e565b601f19841661242c86612208565b60005b828110156124545784890151825560018201915060208501945060208101905061242f565b86831015612471578489015161246d601f89168261237a565b8355505b6001600288020188555050505b505050505050565b600061249182611709565b915061249c83611709565b92508282039050818111156124b4576124b3612191565b5b92915050565b7f546865206e6577206d696c616765206d75737420626520686967686572204f5560008201527f4c45480000000000000000000000000000000000000000000000000000000000602082015250565b600061251660238361201e565b9150612521826124ba565b604082019050919050565b6000602082019050818103600083015261254581612509565b9050919050565b600061255782611709565b915061256283611709565b925082820190508082111561257a57612579612191565b5b92915050565b7f4e487b7100000000000000000000000000000000000000000000000000000000600052600160045260246000fdfea26469706673582212209515ef3cfc3fadf5175160d2bd5e07904e9ce93858cf7eee12ed59a546a3b8e564736f6c63430008110033",
  "linkReferences": {},
  "deployedLinkReferences": {}
}