{
  "_format": "hh-sol-artifact-1",
  "contractName": "CarDetails",
  "sourceName": "contracts/cardetails.sol",
  "abi": [
    {
      "anonymous": false,
      "inputs": [
        {
          "components": [
            {
              "internalType": "uint32",
              "name": "id",
              "type": "uint32"
            },
            {
              "internalType": "uint32",
              "name": "chassisNumber",
              "type": "uint32"
            },
            {
              "internalType": "uint32",
              "name": "mileage",
              "type": "uint32"
            },
            {
              "internalType": "uint32",
              "name": "price",
              "type": "uint32"
            },
            {
              "internalType": "string",
              "name": "licensePlate",
              "type": "string"
            },
            {
              "internalType": "string",
              "name": "brand",
              "type": "string"
            },
            {
              "internalType": "string",
              "name": "carType",
              "type": "string"
            },
            {
              "internalType": "string",
              "name": "colour",
              "type": "string"
            },
            {
              "internalType": "string[]",
              "name": "pictures",
              "type": "string[]"
            },
            {
              "internalType": "bool",
              "name": "isForSale",
              "type": "bool"
            }
          ],
          "indexed": false,
          "internalType": "struct CarDetails.Car",
          "name": "car",
          "type": "tuple"
        }
      ],
      "name": "NewCar",
      "type": "event"
    },
    {
      "anonymous": false,
      "inputs": [
        {
          "indexed": true,
          "internalType": "address",
          "name": "previousOwner",
          "type": "address"
        },
        {
          "indexed": true,
          "internalType": "address",
          "name": "newOwner",
          "type": "address"
        }
      ],
      "name": "OwnershipTransferred",
      "type": "event"
    },
    {
      "inputs": [
        {
          "internalType": "uint32",
          "name": "",
          "type": "uint32"
        }
      ],
      "name": "carToOwner",
      "outputs": [
        {
          "internalType": "address",
          "name": "",
          "type": "address"
        }
      ],
      "stateMutability": "view",
      "type": "function"
    },
    {
      "inputs": [
        {
          "internalType": "uint256",
          "name": "",
          "type": "uint256"
        }
      ],
      "name": "cars",
      "outputs": [
        {
          "internalType": "uint32",
          "name": "id",
          "type": "uint32"
        },
        {
          "internalType": "uint32",
          "name": "chassisNumber",
          "type": "uint32"
        },
        {
          "internalType": "uint32",
          "name": "mileage",
          "type": "uint32"
        },
        {
          "internalType": "uint32",
          "name": "price",
          "type": "uint32"
        },
        {
          "internalType": "string",
          "name": "licensePlate",
          "type": "string"
        },
        {
          "internalType": "string",
          "name": "brand",
          "type": "string"
        },
        {
          "internalType": "string",
          "name": "carType",
          "type": "string"
        },
        {
          "internalType": "string",
          "name": "colour",
          "type": "string"
        },
        {
          "internalType": "bool",
          "name": "isForSale",
          "type": "bool"
        }
      ],
      "stateMutability": "view",
      "type": "function"
    },
    {
      "inputs": [
        {
          "internalType": "uint32",
          "name": "_chassisNumber",
          "type": "uint32"
        },
        {
          "internalType": "uint32",
          "name": "_mileage",
          "type": "uint32"
        },
        {
          "internalType": "uint32",
          "name": "_price",
          "type": "uint32"
        },
        {
          "internalType": "string",
          "name": "_licensePlate",
          "type": "string"
        },
        {
          "internalType": "string",
          "name": "_brand",
          "type": "string"
        },
        {
          "internalType": "string",
          "name": "_carType",
          "type": "string"
        },
        {
          "internalType": "string",
          "name": "_colour",
          "type": "string"
        },
        {
          "internalType": "string[]",
          "name": "_pictures",
          "type": "string[]"
        },
        {
          "internalType": "bool",
          "name": "_isForSale",
          "type": "bool"
        }
      ],
      "name": "createCar",
      "outputs": [],
      "stateMutability": "nonpayable",
      "type": "function"
    },
    {
      "inputs": [
        {
          "internalType": "uint32",
          "name": "_carId",
          "type": "uint32"
        }
      ],
      "name": "deleteCar",
      "outputs": [],
      "stateMutability": "nonpayable",
      "type": "function"
    },
    {
      "inputs": [
        {
          "internalType": "address",
          "name": "_owner",
          "type": "address"
        }
      ],
      "name": "getAllCarsForOwner",
      "outputs": [
        {
          "components": [
            {
              "internalType": "uint32",
              "name": "id",
              "type": "uint32"
            },
            {
              "internalType": "uint32",
              "name": "chassisNumber",
              "type": "uint32"
            },
            {
              "internalType": "uint32",
              "name": "mileage",
              "type": "uint32"
            },
            {
              "internalType": "uint32",
              "name": "price",
              "type": "uint32"
            },
            {
              "internalType": "string",
              "name": "licensePlate",
              "type": "string"
            },
            {
              "internalType": "string",
              "name": "brand",
              "type": "string"
            },
            {
              "internalType": "string",
              "name": "carType",
              "type": "string"
            },
            {
              "internalType": "string",
              "name": "colour",
              "type": "string"
            },
            {
              "internalType": "string[]",
              "name": "pictures",
              "type": "string[]"
            },
            {
              "internalType": "bool",
              "name": "isForSale",
              "type": "bool"
            }
          ],
          "internalType": "struct CarDetails.Car[]",
          "name": "",
          "type": "tuple[]"
        }
      ],
      "stateMutability": "view",
      "type": "function"
    },
    {
      "inputs": [
        {
          "internalType": "uint256",
          "name": "_carId",
          "type": "uint256"
        }
      ],
      "name": "getCar",
      "outputs": [
        {
          "components": [
            {
              "internalType": "uint32",
              "name": "id",
              "type": "uint32"
            },
            {
              "internalType": "uint32",
              "name": "chassisNumber",
              "type": "uint32"
            },
            {
              "internalType": "uint32",
              "name": "mileage",
              "type": "uint32"
            },
            {
              "internalType": "uint32",
              "name": "price",
              "type": "uint32"
            },
            {
              "internalType": "string",
              "name": "licensePlate",
              "type": "string"
            },
            {
              "internalType": "string",
              "name": "brand",
              "type": "string"
            },
            {
              "internalType": "string",
              "name": "carType",
              "type": "string"
            },
            {
              "internalType": "string",
              "name": "colour",
              "type": "string"
            },
            {
              "internalType": "string[]",
              "name": "pictures",
              "type": "string[]"
            },
            {
              "internalType": "bool",
              "name": "isForSale",
              "type": "bool"
            }
          ],
          "internalType": "struct CarDetails.Car",
          "name": "",
          "type": "tuple"
        }
      ],
      "stateMutability": "view",
      "type": "function"
    },
    {
      "inputs": [
        {
          "internalType": "uint32",
          "name": "_carId",
          "type": "uint32"
        }
      ],
      "name": "getCarOwner",
      "outputs": [
        {
          "internalType": "address",
          "name": "ownerAddress",
          "type": "address"
        }
      ],
      "stateMutability": "view",
      "type": "function"
    },
    {
      "inputs": [
        {
          "internalType": "address",
          "name": "_buyer",
          "type": "address"
        }
      ],
      "name": "getCarsForSale",
      "outputs": [
        {
          "components": [
            {
              "internalType": "uint32",
              "name": "id",
              "type": "uint32"
            },
            {
              "internalType": "uint32",
              "name": "chassisNumber",
              "type": "uint32"
            },
            {
              "internalType": "uint32",
              "name": "mileage",
              "type": "uint32"
            },
            {
              "internalType": "uint32",
              "name": "price",
              "type": "uint32"
            },
            {
              "internalType": "string",
              "name": "licensePlate",
              "type": "string"
            },
            {
              "internalType": "string",
              "name": "brand",
              "type": "string"
            },
            {
              "internalType": "string",
              "name": "carType",
              "type": "string"
            },
            {
              "internalType": "string",
              "name": "colour",
              "type": "string"
            },
            {
              "internalType": "string[]",
              "name": "pictures",
              "type": "string[]"
            },
            {
              "internalType": "bool",
              "name": "isForSale",
              "type": "bool"
            }
          ],
          "internalType": "struct CarDetails.Car[]",
          "name": "",
          "type": "tuple[]"
        }
      ],
      "stateMutability": "view",
      "type": "function"
    },
    {
      "inputs": [],
      "name": "isOwner",
      "outputs": [
        {
          "internalType": "bool",
          "name": "",
          "type": "bool"
        }
      ],
      "stateMutability": "view",
      "type": "function"
    },
    {
      "inputs": [],
      "name": "owner",
      "outputs": [
        {
          "internalType": "address",
          "name": "",
          "type": "address"
        }
      ],
      "stateMutability": "view",
      "type": "function"
    },
    {
      "inputs": [],
      "name": "renounceOwnership",
      "outputs": [],
      "stateMutability": "nonpayable",
      "type": "function"
    },
    {
      "inputs": [
        {
          "internalType": "uint256",
          "name": "_carId",
          "type": "uint256"
        }
      ],
      "name": "toggleSaleState",
      "outputs": [],
      "stateMutability": "nonpayable",
      "type": "function"
    },
    {
      "inputs": [
        {
          "internalType": "address",
          "name": "newOwner",
          "type": "address"
        }
      ],
      "name": "transferOwnership",
      "outputs": [],
      "stateMutability": "nonpayable",
      "type": "function"
    },
    {
      "inputs": [
        {
          "internalType": "uint256",
          "name": "_carId",
          "type": "uint256"
        },
        {
          "internalType": "uint32",
          "name": "_newMileage",
          "type": "uint32"
        }
      ],
      "name": "updateMileage",
      "outputs": [],
      "stateMutability": "nonpayable",
      "type": "function"
    },
    {
      "inputs": [
        {
          "internalType": "uint256",
          "name": "_carId",
          "type": "uint256"
        },
        {
          "internalType": "uint32",
          "name": "_newPrice",
          "type": "uint32"
        }
      ],
      "name": "updatePrice",
      "outputs": [],
      "stateMutability": "nonpayable",
      "type": "function"
    }
  ],
  "bytecode": "0x608060405234801561001057600080fd5b50336000806101000a81548173ffffffffffffffffffffffffffffffffffffffff021916908373ffffffffffffffffffffffffffffffffffffffff16021790555060008054906101000a900473ffffffffffffffffffffffffffffffffffffffff1673ffffffffffffffffffffffffffffffffffffffff16600073ffffffffffffffffffffffffffffffffffffffff167f8be0079c531659141344cd1fd0a4f28419497f9722a3daafe3b4186f6b6457e060405160405180910390a36132fe806100db6000396000f3fe608060405234801561001057600080fd5b50600436106100f55760003560e01c80638f32d59b11610097578063d4d942ec11610066578063d4d942ec14610284578063f2fde38b146102a0578063f7746e36146102bc578063f95fe25b146102f4576100f5565b80638f32d59b146101ea57806391a20776146102085780639ab656aa14610238578063b275decc14610268576100f5565b8063628dd13e116100d3578063628dd13e1461018a578063715018a6146101a65780637edffa53146101b05780638da5cb5b146101cc576100f5565b80632286c0c1146100fa57806339c98a1b1461012a5780635e8be1901461015a575b600080fd5b610114600480360381019061010f91906122b7565b610310565b6040516101219190612628565b60405180910390f35b610144600480360381019061013f9190612676565b610842565b60405161015191906126b2565b60405180910390f35b610174600480360381019061016f9190612703565b61088b565b6040516101819190612826565b60405180910390f35b6101a4600480360381019061019f9190612703565b610c9c565b005b6101ae610d20565b005b6101ca60048036038101906101c59190612848565b610def565b005b6101d4610ecb565b6040516101e191906126b2565b60405180910390f35b6101f2610ef4565b6040516101ff9190612897565b60405180910390f35b610222600480360381019061021d9190612676565b610f4b565b60405161022f91906126b2565b60405180910390f35b610252600480360381019061024d91906122b7565b610f7e565b60405161025f9190612628565b60405180910390f35b610282600480360381019061027d9190612676565b6114ed565b005b61029e60048036038101906102999190612af9565b6116f1565b005b6102ba60048036038101906102b591906122b7565b611a9e565b005b6102d660048036038101906102d19190612703565b611abb565b6040516102eb99989796959493929190612ca8565b60405180910390f35b61030e60048036038101906103099190612848565b611d86565b005b6060600061031d83611ddf565b67ffffffffffffffff811115610336576103356128bc565b5b60405190808252806020026020018201604052801561036f57816020015b61035c6120dd565b8152602001906001900390816103545790505b5090506000805b600180549050811015610837578473ffffffffffffffffffffffffffffffffffffffff16600260008363ffffffff1663ffffffff16815260200190815260200160002060009054906101000a900473ffffffffffffffffffffffffffffffffffffffff1673ffffffffffffffffffffffffffffffffffffffff1603610824576001818154811061040957610408612d51565b5b9060005260206000209060070201604051806101400160405290816000820160009054906101000a900463ffffffff1663ffffffff1663ffffffff1681526020016000820160049054906101000a900463ffffffff1663ffffffff1663ffffffff1681526020016000820160089054906101000a900463ffffffff1663ffffffff1663ffffffff16815260200160008201600c9054906101000a900463ffffffff1663ffffffff1663ffffffff1681526020016001820180546104cb90612daf565b80601f01602080910402602001604051908101604052809291908181526020018280546104f790612daf565b80156105445780601f1061051957610100808354040283529160200191610544565b820191906000526020600020905b81548152906001019060200180831161052757829003601f168201915b5050505050815260200160028201805461055d90612daf565b80601f016020809104026020016040519081016040528092919081815260200182805461058990612daf565b80156105d65780601f106105ab576101008083540402835291602001916105d6565b820191906000526020600020905b8154815290600101906020018083116105b957829003601f168201915b505050505081526020016003820180546105ef90612daf565b80601f016020809104026020016040519081016040528092919081815260200182805461061b90612daf565b80156106685780601f1061063d57610100808354040283529160200191610668565b820191906000526020600020905b81548152906001019060200180831161064b57829003601f168201915b5050505050815260200160048201805461068190612daf565b80601f01602080910402602001604051908101604052809291908181526020018280546106ad90612daf565b80156106fa5780601f106106cf576101008083540402835291602001916106fa565b820191906000526020600020905b8154815290600101906020018083116106dd57829003601f168201915b5050505050815260200160058201805480602002602001604051908101604052809291908181526020016000905b828210156107d457838290600052602060002001805461074790612daf565b80601f016020809104026020016040519081016040528092919081815260200182805461077390612daf565b80156107c05780601f10610795576101008083540402835291602001916107c0565b820191906000526020600020905b8154815290600101906020018083116107a357829003601f168201915b505050505081526020019060010190610728565b5050505081526020016006820160009054906101000a900460ff16151515158152505083838151811061080a57610809612d51565b5b6020026020010181905250818061082090612e0f565b9250505b808061082f90612e0f565b915050610376565b508192505050919050565b6000600260008363ffffffff1663ffffffff16815260200190815260200160002060009054906101000a900473ffffffffffffffffffffffffffffffffffffffff169050919050565b6108936120dd565b600182815481106108a7576108a6612d51565b5b9060005260206000209060070201604051806101400160405290816000820160009054906101000a900463ffffffff1663ffffffff1663ffffffff1681526020016000820160049054906101000a900463ffffffff1663ffffffff1663ffffffff1681526020016000820160089054906101000a900463ffffffff1663ffffffff1663ffffffff16815260200160008201600c9054906101000a900463ffffffff1663ffffffff1663ffffffff16815260200160018201805461096990612daf565b80601f016020809104026020016040519081016040528092919081815260200182805461099590612daf565b80156109e25780601f106109b7576101008083540402835291602001916109e2565b820191906000526020600020905b8154815290600101906020018083116109c557829003601f168201915b505050505081526020016002820180546109fb90612daf565b80601f0160208091040260200160405190810160405280929190818152602001828054610a2790612daf565b8015610a745780601f10610a4957610100808354040283529160200191610a74565b820191906000526020600020905b815481529060010190602001808311610a5757829003601f168201915b50505050508152602001600382018054610a8d90612daf565b80601f0160208091040260200160405190810160405280929190818152602001828054610ab990612daf565b8015610b065780601f10610adb57610100808354040283529160200191610b06565b820191906000526020600020905b815481529060010190602001808311610ae957829003601f168201915b50505050508152602001600482018054610b1f90612daf565b80601f0160208091040260200160405190810160405280929190818152602001828054610b4b90612daf565b8015610b985780601f10610b6d57610100808354040283529160200191610b98565b820191906000526020600020905b815481529060010190602001808311610b7b57829003601f168201915b5050505050815260200160058201805480602002602001604051908101604052809291908181526020016000905b82821015610c72578382906000526020600020018054610be590612daf565b80601f0160208091040260200160405190810160405280929190818152602001828054610c1190612daf565b8015610c5e5780601f10610c3357610100808354040283529160200191610c5e565b820191906000526020600020905b815481529060010190602001808311610c4157829003601f168201915b505050505081526020019060010190610bc6565b5050505081526020016006820160009054906101000a900460ff1615151515815250509050919050565b610ca4610ef4565b610cad57600080fd5b60018181548110610cc157610cc0612d51565b5b906000526020600020906007020160060160009054906101000a900460ff161560018281548110610cf557610cf4612d51565b5b906000526020600020906007020160060160006101000a81548160ff02191690831515021790555050565b610d28610ef4565b610d3157600080fd5b600073ffffffffffffffffffffffffffffffffffffffff1660008054906101000a900473ffffffffffffffffffffffffffffffffffffffff1673ffffffffffffffffffffffffffffffffffffffff167f8be0079c531659141344cd1fd0a4f28419497f9722a3daafe3b4186f6b6457e060405160405180910390a360008060006101000a81548173ffffffffffffffffffffffffffffffffffffffff021916908373ffffffffffffffffffffffffffffffffffffffff160217905550565b610df7610ef4565b610e0057600080fd5b60018281548110610e1457610e13612d51565b5b906000526020600020906007020160000160089054906101000a900463ffffffff1663ffffffff168163ffffffff1611610e83576040517f08c379a0000000000000000000000000000000000000000000000000000000008152600401610e7a90612ec9565b60405180910390fd5b8060018381548110610e9857610e97612d51565b5b906000526020600020906007020160000160086101000a81548163ffffffff021916908363ffffffff1602179055505050565b60008060009054906101000a900473ffffffffffffffffffffffffffffffffffffffff16905090565b60008060009054906101000a900473ffffffffffffffffffffffffffffffffffffffff1673ffffffffffffffffffffffffffffffffffffffff163373ffffffffffffffffffffffffffffffffffffffff1614905090565b60026020528060005260406000206000915054906101000a900473ffffffffffffffffffffffffffffffffffffffff1681565b60606000610f8b83611ec9565b67ffffffffffffffff811115610fa457610fa36128bc565b5b604051908082528060200260200182016040528015610fdd57816020015b610fca6120dd565b815260200190600190039081610fc25790505b5090506000805b6001805490508110156114e2578473ffffffffffffffffffffffffffffffffffffffff16600260008363ffffffff1663ffffffff16815260200190815260200160002060009054906101000a900473ffffffffffffffffffffffffffffffffffffffff1673ffffffffffffffffffffffffffffffffffffffff161415801561109b57506001818154811061107b5761107a612d51565b5b906000526020600020906007020160060160009054906101000a900460ff165b156114cf57600181815481106110b4576110b3612d51565b5b9060005260206000209060070201604051806101400160405290816000820160009054906101000a900463ffffffff1663ffffffff1663ffffffff1681526020016000820160049054906101000a900463ffffffff1663ffffffff1663ffffffff1681526020016000820160089054906101000a900463ffffffff1663ffffffff1663ffffffff16815260200160008201600c9054906101000a900463ffffffff1663ffffffff1663ffffffff16815260200160018201805461117690612daf565b80601f01602080910402602001604051908101604052809291908181526020018280546111a290612daf565b80156111ef5780601f106111c4576101008083540402835291602001916111ef565b820191906000526020600020905b8154815290600101906020018083116111d257829003601f168201915b5050505050815260200160028201805461120890612daf565b80601f016020809104026020016040519081016040528092919081815260200182805461123490612daf565b80156112815780601f1061125657610100808354040283529160200191611281565b820191906000526020600020905b81548152906001019060200180831161126457829003601f168201915b5050505050815260200160038201805461129a90612daf565b80601f01602080910402602001604051908101604052809291908181526020018280546112c690612daf565b80156113135780601f106112e857610100808354040283529160200191611313565b820191906000526020600020905b8154815290600101906020018083116112f657829003601f168201915b5050505050815260200160048201805461132c90612daf565b80601f016020809104026020016040519081016040528092919081815260200182805461135890612daf565b80156113a55780601f1061137a576101008083540402835291602001916113a5565b820191906000526020600020905b81548152906001019060200180831161138857829003601f168201915b5050505050815260200160058201805480602002602001604051908101604052809291908181526020016000905b8282101561147f5783829060005260206000200180546113f290612daf565b80601f016020809104026020016040519081016040528092919081815260200182805461141e90612daf565b801561146b5780601f106114405761010080835404028352916020019161146b565b820191906000526020600020905b81548152906001019060200180831161144e57829003601f168201915b5050505050815260200190600101906113d3565b5050505081526020016006820160009054906101000a900460ff1615151515815250508383815181106114b5576114b4612d51565b5b602002602001018190525081806114cb90612e0f565b9250505b80806114da90612e0f565b915050610fe4565b508192505050919050565b80600260008263ffffffff1663ffffffff16815260200190815260200160002060009054906101000a900473ffffffffffffffffffffffffffffffffffffffff1673ffffffffffffffffffffffffffffffffffffffff163373ffffffffffffffffffffffffffffffffffffffff161461159b576040517f08c379a000000000000000000000000000000000000000000000000000000000815260040161159290612f35565b60405180910390fd5b60005b6001805490508110156116ec578263ffffffff16600182815481106115c6576115c5612d51565b5b906000526020600020906007020160000160009054906101000a900463ffffffff1663ffffffff16036116d9576001818154811061160757611606612d51565b5b9060005260206000209060070201600080820160006101000a81549063ffffffff02191690556000820160046101000a81549063ffffffff02191690556000820160086101000a81549063ffffffff021916905560008201600c6101000a81549063ffffffff0219169055600182016000611682919061214a565b600282016000611692919061214a565b6003820160006116a2919061214a565b6004820160006116b2919061214a565b6005820160006116c2919061218a565b6006820160006101000a81549060ff021916905550505b80806116e490612e0f565b91505061159e565b505050565b600060405180610140016040528060018054905063ffffffff1681526020018b63ffffffff1681526020018a63ffffffff1681526020018963ffffffff168152602001888152602001878152602001868152602001858152602001848152602001831515815250905060008a63ffffffff1614158015611778575060008963ffffffff1614155b801561178b575060008863ffffffff1614155b801561179957506000875114155b80156117a757506000865114155b80156117b557506000855114155b80156117c357506000845114155b611802576040517f08c379a00000000000000000000000000000000000000000000000000000000081526004016117f990612fc7565b60405180910390fd5b600181908060018154018082558091505060019003906000526020600020906007020160009091909190915060008201518160000160006101000a81548163ffffffff021916908363ffffffff16021790555060208201518160000160046101000a81548163ffffffff021916908363ffffffff16021790555060408201518160000160086101000a81548163ffffffff021916908363ffffffff160217905550606082015181600001600c6101000a81548163ffffffff021916908363ffffffff16021790555060808201518160010190816118df9190613193565b5060a08201518160020190816118f59190613193565b5060c082015181600301908161190b9190613193565b5060e08201518160040190816119219190613193565b5061010082015181600501908051906020019061193f9291906121ab565b506101208201518160060160006101000a81548160ff02191690831515021790555050503360026000836000015163ffffffff1663ffffffff16815260200190815260200160002060006101000a81548173ffffffffffffffffffffffffffffffffffffffff021916908373ffffffffffffffffffffffffffffffffffffffff160217905550611a186001600360003373ffffffffffffffffffffffffffffffffffffffff1673ffffffffffffffffffffffffffffffffffffffff16815260200190815260200160002054611fbb90919063ffffffff16565b600360003373ffffffffffffffffffffffffffffffffffffffff1673ffffffffffffffffffffffffffffffffffffffff168152602001908152602001600020819055507f1a1d86e0f039b69dc75a6a99b30e291a372ccdcae3c35990cc416065bf72777881604051611a8a9190612826565b60405180910390a150505050505050505050565b611aa6610ef4565b611aaf57600080fd5b611ab881611fe7565b50565b60018181548110611acb57600080fd5b90600052602060002090600702016000915090508060000160009054906101000a900463ffffffff16908060000160049054906101000a900463ffffffff16908060000160089054906101000a900463ffffffff169080600001600c9054906101000a900463ffffffff1690806001018054611b4690612daf565b80601f0160208091040260200160405190810160405280929190818152602001828054611b7290612daf565b8015611bbf5780601f10611b9457610100808354040283529160200191611bbf565b820191906000526020600020905b815481529060010190602001808311611ba257829003601f168201915b505050505090806002018054611bd490612daf565b80601f0160208091040260200160405190810160405280929190818152602001828054611c0090612daf565b8015611c4d5780601f10611c2257610100808354040283529160200191611c4d565b820191906000526020600020905b815481529060010190602001808311611c3057829003601f168201915b505050505090806003018054611c6290612daf565b80601f0160208091040260200160405190810160405280929190818152602001828054611c8e90612daf565b8015611cdb5780601f10611cb057610100808354040283529160200191611cdb565b820191906000526020600020905b815481529060010190602001808311611cbe57829003601f168201915b505050505090806004018054611cf090612daf565b80601f0160208091040260200160405190810160405280929190818152602001828054611d1c90612daf565b8015611d695780601f10611d3e57610100808354040283529160200191611d69565b820191906000526020600020905b815481529060010190602001808311611d4c57829003601f168201915b5050505050908060060160009054906101000a900460ff16905089565b611d8e610ef4565b611d9757600080fd5b8060018381548110611dac57611dab612d51565b5b9060005260206000209060070201600001600c6101000a81548163ffffffff021916908363ffffffff1602179055505050565b6000806000905060005b600180549050811015611ebf578373ffffffffffffffffffffffffffffffffffffffff166002600060018481548110611e2557611e24612d51565b5b906000526020600020906007020160000160009054906101000a900463ffffffff1663ffffffff1663ffffffff16815260200190815260200160002060009054906101000a900473ffffffffffffffffffffffffffffffffffffffff1673ffffffffffffffffffffffffffffffffffffffff1603611eac578180611ea890612e0f565b9250505b8080611eb790612e0f565b915050611de9565b5080915050919050565b6000806000905060005b600180549050811015611fb1578373ffffffffffffffffffffffffffffffffffffffff16600260008363ffffffff1663ffffffff16815260200190815260200160002060009054906101000a900473ffffffffffffffffffffffffffffffffffffffff1673ffffffffffffffffffffffffffffffffffffffff1614158015611f8a575060018181548110611f6a57611f69612d51565b5b906000526020600020906007020160060160009054906101000a900460ff165b15611f9e578180611f9a90612e0f565b9250505b8080611fa990612e0f565b915050611ed3565b5080915050919050565b6000808284611fca9190613265565b905083811015611fdd57611fdc613299565b5b8091505092915050565b600073ffffffffffffffffffffffffffffffffffffffff168173ffffffffffffffffffffffffffffffffffffffff160361202057600080fd5b8073ffffffffffffffffffffffffffffffffffffffff1660008054906101000a900473ffffffffffffffffffffffffffffffffffffffff1673ffffffffffffffffffffffffffffffffffffffff167f8be0079c531659141344cd1fd0a4f28419497f9722a3daafe3b4186f6b6457e060405160405180910390a3806000806101000a81548173ffffffffffffffffffffffffffffffffffffffff021916908373ffffffffffffffffffffffffffffffffffffffff16021790555050565b604051806101400160405280600063ffffffff168152602001600063ffffffff168152602001600063ffffffff168152602001600063ffffffff16815260200160608152602001606081526020016060815260200160608152602001606081526020016000151581525090565b50805461215690612daf565b6000825580601f106121685750612187565b601f0160209004906000526020600020908101906121869190612204565b5b50565b50805460008255906000526020600020908101906121a89190612221565b50565b8280548282559060005260206000209081019282156121f3579160200282015b828111156121f25782518290816121e29190613193565b50916020019190600101906121cb565b5b5090506122009190612221565b5090565b5b8082111561221d576000816000905550600101612205565b5090565b5b808211156122415760008181612238919061214a565b50600101612222565b5090565b6000604051905090565b600080fd5b600080fd5b600073ffffffffffffffffffffffffffffffffffffffff82169050919050565b600061228482612259565b9050919050565b61229481612279565b811461229f57600080fd5b50565b6000813590506122b18161228b565b92915050565b6000602082840312156122cd576122cc61224f565b5b60006122db848285016122a2565b91505092915050565b600081519050919050565b600082825260208201905092915050565b6000819050602082019050919050565b600063ffffffff82169050919050565b61232981612310565b82525050565b600081519050919050565b600082825260208201905092915050565b60005b8381101561236957808201518184015260208101905061234e565b60008484015250505050565b6000601f19601f8301169050919050565b60006123918261232f565b61239b818561233a565b93506123ab81856020860161234b565b6123b481612375565b840191505092915050565b600081519050919050565b600082825260208201905092915050565b6000819050602082019050919050565b60006123f78383612386565b905092915050565b6000602082019050919050565b6000612417826123bf565b61242181856123ca565b935083602082028501612433856123db565b8060005b8581101561246f578484038952815161245085826123eb565b945061245b836123ff565b925060208a01995050600181019050612437565b50829750879550505050505092915050565b60008115159050919050565b61249681612481565b82525050565b6000610140830160008301516124b56000860182612320565b5060208301516124c86020860182612320565b5060408301516124db6040860182612320565b5060608301516124ee6060860182612320565b50608083015184820360808601526125068282612386565b91505060a083015184820360a08601526125208282612386565b91505060c083015184820360c086015261253a8282612386565b91505060e083015184820360e08601526125548282612386565b915050610100830151848203610100860152612570828261240c565b91505061012083015161258761012086018261248d565b508091505092915050565b600061259e838361249c565b905092915050565b6000602082019050919050565b60006125be826122e4565b6125c881856122ef565b9350836020820285016125da85612300565b8060005b8581101561261657848403895281516125f78582612592565b9450612602836125a6565b925060208a019950506001810190506125de565b50829750879550505050505092915050565b6000602082019050818103600083015261264281846125b3565b905092915050565b61265381612310565b811461265e57600080fd5b50565b6000813590506126708161264a565b92915050565b60006020828403121561268c5761268b61224f565b5b600061269a84828501612661565b91505092915050565b6126ac81612279565b82525050565b60006020820190506126c760008301846126a3565b92915050565b6000819050919050565b6126e0816126cd565b81146126eb57600080fd5b50565b6000813590506126fd816126d7565b92915050565b6000602082840312156127195761271861224f565b5b6000612727848285016126ee565b91505092915050565b6000610140830160008301516127496000860182612320565b50602083015161275c6020860182612320565b50604083015161276f6040860182612320565b5060608301516127826060860182612320565b506080830151848203608086015261279a8282612386565b91505060a083015184820360a08601526127b48282612386565b91505060c083015184820360c08601526127ce8282612386565b91505060e083015184820360e08601526127e88282612386565b915050610100830151848203610100860152612804828261240c565b91505061012083015161281b61012086018261248d565b508091505092915050565b600060208201905081810360008301526128408184612730565b905092915050565b6000806040838503121561285f5761285e61224f565b5b600061286d858286016126ee565b925050602061287e85828601612661565b9150509250929050565b61289181612481565b82525050565b60006020820190506128ac6000830184612888565b92915050565b600080fd5b600080fd5b7f4e487b7100000000000000000000000000000000000000000000000000000000600052604160045260246000fd5b6128f482612375565b810181811067ffffffffffffffff82111715612913576129126128bc565b5b80604052505050565b6000612926612245565b905061293282826128eb565b919050565b600067ffffffffffffffff821115612952576129516128bc565b5b61295b82612375565b9050602081019050919050565b82818337600083830152505050565b600061298a61298584612937565b61291c565b9050828152602081018484840111156129a6576129a56128b7565b5b6129b1848285612968565b509392505050565b600082601f8301126129ce576129cd6128b2565b5b81356129de848260208601612977565b91505092915050565b600067ffffffffffffffff821115612a0257612a016128bc565b5b602082029050602081019050919050565b600080fd5b6000612a2b612a26846129e7565b61291c565b90508083825260208201905060208402830185811115612a4e57612a4d612a13565b5b835b81811015612a9557803567ffffffffffffffff811115612a7357612a726128b2565b5b808601612a8089826129b9565b85526020850194505050602081019050612a50565b5050509392505050565b600082601f830112612ab457612ab36128b2565b5b8135612ac4848260208601612a18565b91505092915050565b612ad681612481565b8114612ae157600080fd5b50565b600081359050612af381612acd565b92915050565b60008060008060008060008060006101208a8c031215612b1c57612b1b61224f565b5b6000612b2a8c828d01612661565b9950506020612b3b8c828d01612661565b9850506040612b4c8c828d01612661565b97505060608a013567ffffffffffffffff811115612b6d57612b6c612254565b5b612b798c828d016129b9565b96505060808a013567ffffffffffffffff811115612b9a57612b99612254565b5b612ba68c828d016129b9565b95505060a08a013567ffffffffffffffff811115612bc757612bc6612254565b5b612bd38c828d016129b9565b94505060c08a013567ffffffffffffffff811115612bf457612bf3612254565b5b612c008c828d016129b9565b93505060e08a013567ffffffffffffffff811115612c2157612c20612254565b5b612c2d8c828d01612a9f565b925050610100612c3f8c828d01612ae4565b9150509295985092959850929598565b612c5881612310565b82525050565b600082825260208201905092915050565b6000612c7a8261232f565b612c848185612c5e565b9350612c9481856020860161234b565b612c9d81612375565b840191505092915050565b600061012082019050612cbe600083018c612c4f565b612ccb602083018b612c4f565b612cd8604083018a612c4f565b612ce56060830189612c4f565b8181036080830152612cf78188612c6f565b905081810360a0830152612d0b8187612c6f565b905081810360c0830152612d1f8186612c6f565b905081810360e0830152612d338185612c6f565b9050612d43610100830184612888565b9a9950505050505050505050565b7f4e487b7100000000000000000000000000000000000000000000000000000000600052603260045260246000fd5b7f4e487b7100000000000000000000000000000000000000000000000000000000600052602260045260246000fd5b60006002820490506001821680612dc757607f821691505b602082108103612dda57612dd9612d80565b5b50919050565b7f4e487b7100000000000000000000000000000000000000000000000000000000600052601160045260246000fd5b6000612e1a826126cd565b91507fffffffffffffffffffffffffffffffffffffffffffffffffffffffffffffffff8203612e4c57612e4b612de0565b5b600182019050919050565b7f546865206e6577206d696c616765206d75737420626520686967686572204f5560008201527f4c45480000000000000000000000000000000000000000000000000000000000602082015250565b6000612eb3602383612c5e565b9150612ebe82612e57565b604082019050919050565b60006020820190508181036000830152612ee281612ea6565b9050919050565b7f546861742773206e6f7420796f20636172000000000000000000000000000000600082015250565b6000612f1f601183612c5e565b9150612f2a82612ee9565b602082019050919050565b60006020820190508181036000830152612f4e81612f12565b9050919050565b7f536f6d65206669656c64732077657265206e6f7420636f72726563746c79206660008201527f696c6c656420696e2e0000000000000000000000000000000000000000000000602082015250565b6000612fb1602983612c5e565b9150612fbc82612f55565b604082019050919050565b60006020820190508181036000830152612fe081612fa4565b9050919050565b60008190508160005260206000209050919050565b60006020601f8301049050919050565b600082821b905092915050565b6000600883026130497fffffffffffffffffffffffffffffffffffffffffffffffffffffffffffffffff8261300c565b613053868361300c565b95508019841693508086168417925050509392505050565b6000819050919050565b600061309061308b613086846126cd565b61306b565b6126cd565b9050919050565b6000819050919050565b6130aa83613075565b6130be6130b682613097565b848454613019565b825550505050565b600090565b6130d36130c6565b6130de8184846130a1565b505050565b5b81811015613102576130f76000826130cb565b6001810190506130e4565b5050565b601f8211156131475761311881612fe7565b61312184612ffc565b81016020851015613130578190505b61314461313c85612ffc565b8301826130e3565b50505b505050565b600082821c905092915050565b600061316a6000198460080261314c565b1980831691505092915050565b60006131838383613159565b9150826002028217905092915050565b61319c8261232f565b67ffffffffffffffff8111156131b5576131b46128bc565b5b6131bf8254612daf565b6131ca828285613106565b600060209050601f8311600181146131fd57600084156131eb578287015190505b6131f58582613177565b86555061325d565b601f19841661320b86612fe7565b60005b828110156132335784890151825560018201915060208501945060208101905061320e565b86831015613250578489015161324c601f891682613159565b8355505b6001600288020188555050505b505050505050565b6000613270826126cd565b915061327b836126cd565b925082820190508082111561329357613292612de0565b5b92915050565b7f4e487b7100000000000000000000000000000000000000000000000000000000600052600160045260246000fdfea26469706673582212200efbe17c6754474c860a48542f84694f85bc921ccf6d6497b9d641765df5224f64736f6c63430008120033",
  "linkReferences": {},
  "deployedLinkReferences": {}
}