{
  "_format": "hh-sol-artifact-1",
  "contractName": "CarDetails",
  "sourceName": "contracts/cardetails.sol",
  "abi": [
    {
      "anonymous": false,
      "inputs": [
        {
          "components": [
            {
              "internalType": "uint256",
              "name": "chassisNumber",
              "type": "uint256"
            },
            {
              "internalType": "uint32",
              "name": "mileage",
              "type": "uint32"
            },
            {
              "internalType": "uint32",
              "name": "price",
              "type": "uint32"
            },
            {
              "internalType": "string",
              "name": "licensePlate",
              "type": "string"
            },
            {
              "internalType": "string",
              "name": "brand",
              "type": "string"
            },
            {
              "internalType": "string",
              "name": "carType",
              "type": "string"
            },
            {
              "internalType": "string",
              "name": "colour",
              "type": "string"
            },
            {
              "internalType": "string[]",
              "name": "pictures",
              "type": "string[]"
            },
            {
              "internalType": "bool",
              "name": "isForSale",
              "type": "bool"
            }
          ],
          "indexed": false,
          "internalType": "struct CarDetails.Car",
          "name": "car",
          "type": "tuple"
        }
      ],
      "name": "NewCar",
      "type": "event"
    },
    {
      "anonymous": false,
      "inputs": [
        {
          "indexed": true,
          "internalType": "address",
          "name": "previousOwner",
          "type": "address"
        },
        {
          "indexed": true,
          "internalType": "address",
          "name": "newOwner",
          "type": "address"
        }
      ],
      "name": "OwnershipTransferred",
      "type": "event"
    },
    {
      "inputs": [
        {
          "internalType": "uint256",
          "name": "",
          "type": "uint256"
        }
      ],
      "name": "carToOwner",
      "outputs": [
        {
          "internalType": "address",
          "name": "",
          "type": "address"
        }
      ],
      "stateMutability": "view",
      "type": "function"
    },
    {
      "inputs": [
        {
          "internalType": "uint256",
          "name": "",
          "type": "uint256"
        }
      ],
      "name": "cars",
      "outputs": [
        {
          "internalType": "uint256",
          "name": "chassisNumber",
          "type": "uint256"
        },
        {
          "internalType": "uint32",
          "name": "mileage",
          "type": "uint32"
        },
        {
          "internalType": "uint32",
          "name": "price",
          "type": "uint32"
        },
        {
          "internalType": "string",
          "name": "licensePlate",
          "type": "string"
        },
        {
          "internalType": "string",
          "name": "brand",
          "type": "string"
        },
        {
          "internalType": "string",
          "name": "carType",
          "type": "string"
        },
        {
          "internalType": "string",
          "name": "colour",
          "type": "string"
        },
        {
          "internalType": "bool",
          "name": "isForSale",
          "type": "bool"
        }
      ],
      "stateMutability": "view",
      "type": "function"
    },
    {
      "inputs": [
        {
          "internalType": "uint256",
          "name": "_chassisNumber",
          "type": "uint256"
        },
        {
          "internalType": "uint32",
          "name": "_mileage",
          "type": "uint32"
        },
        {
          "internalType": "uint32",
          "name": "_price",
          "type": "uint32"
        },
        {
          "internalType": "string",
          "name": "_licensePlate",
          "type": "string"
        },
        {
          "internalType": "string",
          "name": "_brand",
          "type": "string"
        },
        {
          "internalType": "string",
          "name": "_carType",
          "type": "string"
        },
        {
          "internalType": "string",
          "name": "_colour",
          "type": "string"
        },
        {
          "internalType": "string[]",
          "name": "_pictures",
          "type": "string[]"
        },
        {
          "internalType": "bool",
          "name": "_isForSale",
          "type": "bool"
        }
      ],
      "name": "createCar",
      "outputs": [],
      "stateMutability": "nonpayable",
      "type": "function"
    },
    {
      "inputs": [
        {
          "internalType": "uint256",
          "name": "_carId",
          "type": "uint256"
        }
      ],
      "name": "getCar",
      "outputs": [
        {
          "components": [
            {
              "internalType": "uint256",
              "name": "chassisNumber",
              "type": "uint256"
            },
            {
              "internalType": "uint32",
              "name": "mileage",
              "type": "uint32"
            },
            {
              "internalType": "uint32",
              "name": "price",
              "type": "uint32"
            },
            {
              "internalType": "string",
              "name": "licensePlate",
              "type": "string"
            },
            {
              "internalType": "string",
              "name": "brand",
              "type": "string"
            },
            {
              "internalType": "string",
              "name": "carType",
              "type": "string"
            },
            {
              "internalType": "string",
              "name": "colour",
              "type": "string"
            },
            {
              "internalType": "string[]",
              "name": "pictures",
              "type": "string[]"
            },
            {
              "internalType": "bool",
              "name": "isForSale",
              "type": "bool"
            }
          ],
          "internalType": "struct CarDetails.Car",
          "name": "",
          "type": "tuple"
        }
      ],
      "stateMutability": "view",
      "type": "function"
    },
    {
      "inputs": [],
      "name": "isOwner",
      "outputs": [
        {
          "internalType": "bool",
          "name": "",
          "type": "bool"
        }
      ],
      "stateMutability": "view",
      "type": "function"
    },
    {
      "inputs": [],
      "name": "owner",
      "outputs": [
        {
          "internalType": "address",
          "name": "",
          "type": "address"
        }
      ],
      "stateMutability": "view",
      "type": "function"
    },
    {
      "inputs": [],
      "name": "renounceOwnership",
      "outputs": [],
      "stateMutability": "nonpayable",
      "type": "function"
    },
    {
      "inputs": [
        {
          "internalType": "uint256",
          "name": "_carId",
          "type": "uint256"
        }
      ],
      "name": "toggleSaleState",
      "outputs": [],
      "stateMutability": "nonpayable",
      "type": "function"
    },
    {
      "inputs": [
        {
          "internalType": "address",
          "name": "newOwner",
          "type": "address"
        }
      ],
      "name": "transferOwnership",
      "outputs": [],
      "stateMutability": "nonpayable",
      "type": "function"
    },
    {
      "inputs": [
        {
          "internalType": "uint256",
          "name": "_carId",
          "type": "uint256"
        },
        {
          "internalType": "uint32",
          "name": "_newMileage",
          "type": "uint32"
        }
      ],
      "name": "updateMileage",
      "outputs": [],
      "stateMutability": "nonpayable",
      "type": "function"
    },
    {
      "inputs": [
        {
          "internalType": "uint256",
          "name": "_carId",
          "type": "uint256"
        },
        {
          "internalType": "uint32",
          "name": "_newPrice",
          "type": "uint32"
        }
      ],
      "name": "updatePrice",
      "outputs": [],
      "stateMutability": "nonpayable",
      "type": "function"
    }
  ],
  "bytecode": "0x608060405234801561001057600080fd5b50336000806101000a81548173ffffffffffffffffffffffffffffffffffffffff021916908373ffffffffffffffffffffffffffffffffffffffff16021790555060008054906101000a900473ffffffffffffffffffffffffffffffffffffffff1673ffffffffffffffffffffffffffffffffffffffff16600073ffffffffffffffffffffffffffffffffffffffff167f8be0079c531659141344cd1fd0a4f28419497f9722a3daafe3b4186f6b6457e060405160405180910390a3611e82806100db6000396000f3fe608060405234801561001057600080fd5b50600436106100a95760003560e01c80637edffa53116100715780637edffa53146101505780638da5cb5b1461016c5780638f32d59b1461018a578063f2fde38b146101a8578063f7746e36146101c4578063f95fe25b146101fb576100a9565b806333ca504b146100ae5780635e8be190146100de578063628dd13e1461010e578063715018a61461012a57806374f84af714610134575b600080fd5b6100c860048036038101906100c39190611132565b610217565b6040516100d591906111a0565b60405180910390f35b6100f860048036038101906100f39190611132565b61024a565b6040516101059190611437565b60405180910390f35b61012860048036038101906101239190611132565b610619565b005b61013261069d565b005b61014e600480360381019061014991906116cc565b61076c565b005b61016a60048036038101906101659190611822565b610a1b565b005b610174610af7565b60405161018191906111a0565b60405180910390f35b610192610b20565b60405161019f9190611871565b60405180910390f35b6101c260048036038101906101bd91906118b8565b610b77565b005b6101de60048036038101906101d99190611132565b610b94565b6040516101f298979695949392919061194d565b60405180910390f35b61021560048036038101906102109190611822565b610e39565b005b60026020528060005260406000206000915054906101000a900473ffffffffffffffffffffffffffffffffffffffff1681565b610252610fb4565b60018281548110610266576102656119e7565b5b906000526020600020906008020160405180610120016040529081600082015481526020016001820160009054906101000a900463ffffffff1663ffffffff1663ffffffff1681526020016001820160049054906101000a900463ffffffff1663ffffffff1663ffffffff1681526020016002820180546102e690611a45565b80601f016020809104026020016040519081016040528092919081815260200182805461031290611a45565b801561035f5780601f106103345761010080835404028352916020019161035f565b820191906000526020600020905b81548152906001019060200180831161034257829003601f168201915b5050505050815260200160038201805461037890611a45565b80601f01602080910402602001604051908101604052809291908181526020018280546103a490611a45565b80156103f15780601f106103c6576101008083540402835291602001916103f1565b820191906000526020600020905b8154815290600101906020018083116103d457829003601f168201915b5050505050815260200160048201805461040a90611a45565b80601f016020809104026020016040519081016040528092919081815260200182805461043690611a45565b80156104835780601f1061045857610100808354040283529160200191610483565b820191906000526020600020905b81548152906001019060200180831161046657829003601f168201915b5050505050815260200160058201805461049c90611a45565b80601f01602080910402602001604051908101604052809291908181526020018280546104c890611a45565b80156105155780601f106104ea57610100808354040283529160200191610515565b820191906000526020600020905b8154815290600101906020018083116104f857829003601f168201915b5050505050815260200160068201805480602002602001604051908101604052809291908181526020016000905b828210156105ef57838290600052602060002001805461056290611a45565b80601f016020809104026020016040519081016040528092919081815260200182805461058e90611a45565b80156105db5780601f106105b0576101008083540402835291602001916105db565b820191906000526020600020905b8154815290600101906020018083116105be57829003601f168201915b505050505081526020019060010190610543565b5050505081526020016007820160009054906101000a900460ff1615151515815250509050919050565b610621610b20565b61062a57600080fd5b6001818154811061063e5761063d6119e7565b5b906000526020600020906008020160070160009054906101000a900460ff161560018281548110610672576106716119e7565b5b906000526020600020906008020160070160006101000a81548160ff02191690831515021790555050565b6106a5610b20565b6106ae57600080fd5b600073ffffffffffffffffffffffffffffffffffffffff1660008054906101000a900473ffffffffffffffffffffffffffffffffffffffff1673ffffffffffffffffffffffffffffffffffffffff167f8be0079c531659141344cd1fd0a4f28419497f9722a3daafe3b4186f6b6457e060405160405180910390a360008060006101000a81548173ffffffffffffffffffffffffffffffffffffffff021916908373ffffffffffffffffffffffffffffffffffffffff160217905550565b60006040518061012001604052808b81526020018a63ffffffff1681526020018963ffffffff168152602001888152602001878152602001868152602001858152602001848152602001831515815250905060018190806001815401808255809150506001900390600052602060002090600802016000909190919091506000820151816000015560208201518160010160006101000a81548163ffffffff021916908363ffffffff16021790555060408201518160010160046101000a81548163ffffffff021916908363ffffffff16021790555060608201518160020190816108579190611c22565b50608082015181600301908161086d9190611c22565b5060a08201518160040190816108839190611c22565b5060c08201518160050190816108999190611c22565b5060e08201518160060190805190602001906108b692919061100e565b506101008201518160070160006101000a81548160ff02191690831515021790555050506000600180805490506108ed9190611d23565b9050336002600083815260200190815260200160002060006101000a81548173ffffffffffffffffffffffffffffffffffffffff021916908373ffffffffffffffffffffffffffffffffffffffff1602179055506109946001600360003373ffffffffffffffffffffffffffffffffffffffff1673ffffffffffffffffffffffffffffffffffffffff16815260200190815260200160002054610e9290919063ffffffff16565b600360003373ffffffffffffffffffffffffffffffffffffffff1673ffffffffffffffffffffffffffffffffffffffff168152602001908152602001600020819055507fdc83e501905cdc81b60bf2202ce003605089e4d952e4c6bca0831ca72f1776da82604051610a069190611437565b60405180910390a15050505050505050505050565b610a23610b20565b610a2c57600080fd5b60018281548110610a4057610a3f6119e7565b5b906000526020600020906008020160010160009054906101000a900463ffffffff1663ffffffff168163ffffffff1611610aaf576040517f08c379a0000000000000000000000000000000000000000000000000000000008152600401610aa690611dc9565b60405180910390fd5b8060018381548110610ac457610ac36119e7565b5b906000526020600020906008020160010160006101000a81548163ffffffff021916908363ffffffff1602179055505050565b60008060009054906101000a900473ffffffffffffffffffffffffffffffffffffffff16905090565b60008060009054906101000a900473ffffffffffffffffffffffffffffffffffffffff1673ffffffffffffffffffffffffffffffffffffffff163373ffffffffffffffffffffffffffffffffffffffff1614905090565b610b7f610b20565b610b8857600080fd5b610b9181610ebe565b50565b60018181548110610ba457600080fd5b90600052602060002090600802016000915090508060000154908060010160009054906101000a900463ffffffff16908060010160049054906101000a900463ffffffff1690806002018054610bf990611a45565b80601f0160208091040260200160405190810160405280929190818152602001828054610c2590611a45565b8015610c725780601f10610c4757610100808354040283529160200191610c72565b820191906000526020600020905b815481529060010190602001808311610c5557829003601f168201915b505050505090806003018054610c8790611a45565b80601f0160208091040260200160405190810160405280929190818152602001828054610cb390611a45565b8015610d005780601f10610cd557610100808354040283529160200191610d00565b820191906000526020600020905b815481529060010190602001808311610ce357829003601f168201915b505050505090806004018054610d1590611a45565b80601f0160208091040260200160405190810160405280929190818152602001828054610d4190611a45565b8015610d8e5780601f10610d6357610100808354040283529160200191610d8e565b820191906000526020600020905b815481529060010190602001808311610d7157829003601f168201915b505050505090806005018054610da390611a45565b80601f0160208091040260200160405190810160405280929190818152602001828054610dcf90611a45565b8015610e1c5780601f10610df157610100808354040283529160200191610e1c565b820191906000526020600020905b815481529060010190602001808311610dff57829003601f168201915b5050505050908060070160009054906101000a900460ff16905088565b610e41610b20565b610e4a57600080fd5b8060018381548110610e5f57610e5e6119e7565b5b906000526020600020906008020160010160046101000a81548163ffffffff021916908363ffffffff1602179055505050565b6000808284610ea19190611de9565b905083811015610eb457610eb3611e1d565b5b8091505092915050565b600073ffffffffffffffffffffffffffffffffffffffff168173ffffffffffffffffffffffffffffffffffffffff1603610ef757600080fd5b8073ffffffffffffffffffffffffffffffffffffffff1660008054906101000a900473ffffffffffffffffffffffffffffffffffffffff1673ffffffffffffffffffffffffffffffffffffffff167f8be0079c531659141344cd1fd0a4f28419497f9722a3daafe3b4186f6b6457e060405160405180910390a3806000806101000a81548173ffffffffffffffffffffffffffffffffffffffff021916908373ffffffffffffffffffffffffffffffffffffffff16021790555050565b60405180610120016040528060008152602001600063ffffffff168152602001600063ffffffff16815260200160608152602001606081526020016060815260200160608152602001606081526020016000151581525090565b828054828255906000526020600020908101928215611056579160200282015b828111156110555782518290816110459190611c22565b509160200191906001019061102e565b5b5090506110639190611067565b5090565b5b80821115611087576000818161107e919061108b565b50600101611068565b5090565b50805461109790611a45565b6000825580601f106110a957506110c8565b601f0160209004906000526020600020908101906110c791906110cb565b5b50565b5b808211156110e45760008160009055506001016110cc565b5090565b6000604051905090565b600080fd5b600080fd5b6000819050919050565b61110f816110fc565b811461111a57600080fd5b50565b60008135905061112c81611106565b92915050565b600060208284031215611148576111476110f2565b5b60006111568482850161111d565b91505092915050565b600073ffffffffffffffffffffffffffffffffffffffff82169050919050565b600061118a8261115f565b9050919050565b61119a8161117f565b82525050565b60006020820190506111b56000830184611191565b92915050565b6111c4816110fc565b82525050565b600063ffffffff82169050919050565b6111e3816111ca565b82525050565b600081519050919050565b600082825260208201905092915050565b60005b83811015611223578082015181840152602081019050611208565b60008484015250505050565b6000601f19601f8301169050919050565b600061124b826111e9565b61125581856111f4565b9350611265818560208601611205565b61126e8161122f565b840191505092915050565b600081519050919050565b600082825260208201905092915050565b6000819050602082019050919050565b60006112b18383611240565b905092915050565b6000602082019050919050565b60006112d182611279565b6112db8185611284565b9350836020820285016112ed85611295565b8060005b85811015611329578484038952815161130a85826112a5565b9450611315836112b9565b925060208a019950506001810190506112f1565b50829750879550505050505092915050565b60008115159050919050565b6113508161133b565b82525050565b60006101208301600083015161136f60008601826111bb565b50602083015161138260208601826111da565b50604083015161139560408601826111da565b50606083015184820360608601526113ad8282611240565b915050608083015184820360808601526113c78282611240565b91505060a083015184820360a08601526113e18282611240565b91505060c083015184820360c08601526113fb8282611240565b91505060e083015184820360e086015261141582826112c6565b91505061010083015161142c610100860182611347565b508091505092915050565b600060208201905081810360008301526114518184611356565b905092915050565b611462816111ca565b811461146d57600080fd5b50565b60008135905061147f81611459565b92915050565b600080fd5b600080fd5b7f4e487b7100000000000000000000000000000000000000000000000000000000600052604160045260246000fd5b6114c78261122f565b810181811067ffffffffffffffff821117156114e6576114e561148f565b5b80604052505050565b60006114f96110e8565b905061150582826114be565b919050565b600067ffffffffffffffff8211156115255761152461148f565b5b61152e8261122f565b9050602081019050919050565b82818337600083830152505050565b600061155d6115588461150a565b6114ef565b9050828152602081018484840111156115795761157861148a565b5b61158484828561153b565b509392505050565b600082601f8301126115a1576115a0611485565b5b81356115b184826020860161154a565b91505092915050565b600067ffffffffffffffff8211156115d5576115d461148f565b5b602082029050602081019050919050565b600080fd5b60006115fe6115f9846115ba565b6114ef565b90508083825260208201905060208402830185811115611621576116206115e6565b5b835b8181101561166857803567ffffffffffffffff81111561164657611645611485565b5b808601611653898261158c565b85526020850194505050602081019050611623565b5050509392505050565b600082601f83011261168757611686611485565b5b81356116978482602086016115eb565b91505092915050565b6116a98161133b565b81146116b457600080fd5b50565b6000813590506116c6816116a0565b92915050565b60008060008060008060008060006101208a8c0312156116ef576116ee6110f2565b5b60006116fd8c828d0161111d565b995050602061170e8c828d01611470565b985050604061171f8c828d01611470565b97505060608a013567ffffffffffffffff8111156117405761173f6110f7565b5b61174c8c828d0161158c565b96505060808a013567ffffffffffffffff81111561176d5761176c6110f7565b5b6117798c828d0161158c565b95505060a08a013567ffffffffffffffff81111561179a576117996110f7565b5b6117a68c828d0161158c565b94505060c08a013567ffffffffffffffff8111156117c7576117c66110f7565b5b6117d38c828d0161158c565b93505060e08a013567ffffffffffffffff8111156117f4576117f36110f7565b5b6118008c828d01611672565b9250506101006118128c828d016116b7565b9150509295985092959850929598565b60008060408385031215611839576118386110f2565b5b60006118478582860161111d565b925050602061185885828601611470565b9150509250929050565b61186b8161133b565b82525050565b60006020820190506118866000830184611862565b92915050565b6118958161117f565b81146118a057600080fd5b50565b6000813590506118b28161188c565b92915050565b6000602082840312156118ce576118cd6110f2565b5b60006118dc848285016118a3565b91505092915050565b6118ee816110fc565b82525050565b6118fd816111ca565b82525050565b600082825260208201905092915050565b600061191f826111e9565b6119298185611903565b9350611939818560208601611205565b6119428161122f565b840191505092915050565b600061010082019050611963600083018b6118e5565b611970602083018a6118f4565b61197d60408301896118f4565b818103606083015261198f8188611914565b905081810360808301526119a38187611914565b905081810360a08301526119b78186611914565b905081810360c08301526119cb8185611914565b90506119da60e0830184611862565b9998505050505050505050565b7f4e487b7100000000000000000000000000000000000000000000000000000000600052603260045260246000fd5b7f4e487b7100000000000000000000000000000000000000000000000000000000600052602260045260246000fd5b60006002820490506001821680611a5d57607f821691505b602082108103611a7057611a6f611a16565b5b50919050565b60008190508160005260206000209050919050565b60006020601f8301049050919050565b600082821b905092915050565b600060088302611ad87fffffffffffffffffffffffffffffffffffffffffffffffffffffffffffffffff82611a9b565b611ae28683611a9b565b95508019841693508086168417925050509392505050565b6000819050919050565b6000611b1f611b1a611b15846110fc565b611afa565b6110fc565b9050919050565b6000819050919050565b611b3983611b04565b611b4d611b4582611b26565b848454611aa8565b825550505050565b600090565b611b62611b55565b611b6d818484611b30565b505050565b5b81811015611b9157611b86600082611b5a565b600181019050611b73565b5050565b601f821115611bd657611ba781611a76565b611bb084611a8b565b81016020851015611bbf578190505b611bd3611bcb85611a8b565b830182611b72565b50505b505050565b600082821c905092915050565b6000611bf960001984600802611bdb565b1980831691505092915050565b6000611c128383611be8565b9150826002028217905092915050565b611c2b826111e9565b67ffffffffffffffff811115611c4457611c4361148f565b5b611c4e8254611a45565b611c59828285611b95565b600060209050601f831160018114611c8c5760008415611c7a578287015190505b611c848582611c06565b865550611cec565b601f198416611c9a86611a76565b60005b82811015611cc257848901518255600182019150602085019450602081019050611c9d565b86831015611cdf5784890151611cdb601f891682611be8565b8355505b6001600288020188555050505b505050505050565b7f4e487b7100000000000000000000000000000000000000000000000000000000600052601160045260246000fd5b6000611d2e826110fc565b9150611d39836110fc565b9250828203905081811115611d5157611d50611cf4565b5b92915050565b7f546865206e6577206d696c616765206d75737420626520686967686572204f5560008201527f4c45480000000000000000000000000000000000000000000000000000000000602082015250565b6000611db3602383611903565b9150611dbe82611d57565b604082019050919050565b60006020820190508181036000830152611de281611da6565b9050919050565b6000611df4826110fc565b9150611dff836110fc565b9250828201905080821115611e1757611e16611cf4565b5b92915050565b7f4e487b7100000000000000000000000000000000000000000000000000000000600052600160045260246000fdfea2646970667358221220267b258934f185f645c2e465d2d00e8e1be1c8dbebf4874bfb89531988018e1764736f6c63430008110033",
  "linkReferences": {},
  "deployedLinkReferences": {}
}