{
  "_format": "hh-sol-artifact-1",
  "contractName": "CarDetails",
  "sourceName": "contracts/cardetails.sol",
  "abi": [
    {
      "anonymous": false,
      "inputs": [
        {
          "components": [
            {
              "internalType": "uint32",
              "name": "chassisNumber",
              "type": "uint32"
            },
            {
              "internalType": "uint32",
              "name": "mileage",
              "type": "uint32"
            },
            {
              "internalType": "uint32",
              "name": "price",
              "type": "uint32"
            },
            {
              "internalType": "string",
              "name": "licensePlate",
              "type": "string"
            },
            {
              "internalType": "string",
              "name": "brand",
              "type": "string"
            },
            {
              "internalType": "string",
              "name": "carType",
              "type": "string"
            },
            {
              "internalType": "string",
              "name": "colour",
              "type": "string"
            },
            {
              "internalType": "string[]",
              "name": "pictures",
              "type": "string[]"
            },
            {
              "internalType": "bool",
              "name": "isForSale",
              "type": "bool"
            }
          ],
          "indexed": false,
          "internalType": "struct CarDetails.Car",
          "name": "car",
          "type": "tuple"
        }
      ],
      "name": "NewCar",
      "type": "event"
    },
    {
      "anonymous": false,
      "inputs": [
        {
          "indexed": true,
          "internalType": "address",
          "name": "previousOwner",
          "type": "address"
        },
        {
          "indexed": true,
          "internalType": "address",
          "name": "newOwner",
          "type": "address"
        }
      ],
      "name": "OwnershipTransferred",
      "type": "event"
    },
    {
      "inputs": [
        {
          "internalType": "uint256",
          "name": "",
          "type": "uint256"
        }
      ],
      "name": "carToOwner",
      "outputs": [
        {
          "internalType": "address",
          "name": "",
          "type": "address"
        }
      ],
      "stateMutability": "view",
      "type": "function"
    },
    {
      "inputs": [
        {
          "internalType": "uint256",
          "name": "",
          "type": "uint256"
        }
      ],
      "name": "cars",
      "outputs": [
        {
          "internalType": "uint32",
          "name": "chassisNumber",
          "type": "uint32"
        },
        {
          "internalType": "uint32",
          "name": "mileage",
          "type": "uint32"
        },
        {
          "internalType": "uint32",
          "name": "price",
          "type": "uint32"
        },
        {
          "internalType": "string",
          "name": "licensePlate",
          "type": "string"
        },
        {
          "internalType": "string",
          "name": "brand",
          "type": "string"
        },
        {
          "internalType": "string",
          "name": "carType",
          "type": "string"
        },
        {
          "internalType": "string",
          "name": "colour",
          "type": "string"
        },
        {
          "internalType": "bool",
          "name": "isForSale",
          "type": "bool"
        }
      ],
      "stateMutability": "view",
      "type": "function"
    },
    {
      "inputs": [
        {
          "internalType": "uint32",
          "name": "_chassisNumber",
          "type": "uint32"
        },
        {
          "internalType": "uint32",
          "name": "_mileage",
          "type": "uint32"
        },
        {
          "internalType": "uint32",
          "name": "_price",
          "type": "uint32"
        },
        {
          "internalType": "string",
          "name": "_licensePlate",
          "type": "string"
        },
        {
          "internalType": "string",
          "name": "_brand",
          "type": "string"
        },
        {
          "internalType": "string",
          "name": "_carType",
          "type": "string"
        },
        {
          "internalType": "string",
          "name": "_colour",
          "type": "string"
        },
        {
          "internalType": "string[]",
          "name": "_pictures",
          "type": "string[]"
        },
        {
          "internalType": "bool",
          "name": "_isForSale",
          "type": "bool"
        }
      ],
      "name": "createCar",
      "outputs": [],
      "stateMutability": "nonpayable",
      "type": "function"
    },
    {
      "inputs": [
        {
          "internalType": "address",
          "name": "_owner",
          "type": "address"
        }
      ],
      "name": "getAllCarsForOwner",
      "outputs": [
        {
          "components": [
            {
              "internalType": "uint32",
              "name": "chassisNumber",
              "type": "uint32"
            },
            {
              "internalType": "uint32",
              "name": "mileage",
              "type": "uint32"
            },
            {
              "internalType": "uint32",
              "name": "price",
              "type": "uint32"
            },
            {
              "internalType": "string",
              "name": "licensePlate",
              "type": "string"
            },
            {
              "internalType": "string",
              "name": "brand",
              "type": "string"
            },
            {
              "internalType": "string",
              "name": "carType",
              "type": "string"
            },
            {
              "internalType": "string",
              "name": "colour",
              "type": "string"
            },
            {
              "internalType": "string[]",
              "name": "pictures",
              "type": "string[]"
            },
            {
              "internalType": "bool",
              "name": "isForSale",
              "type": "bool"
            }
          ],
          "internalType": "struct CarDetails.Car[]",
          "name": "",
          "type": "tuple[]"
        }
      ],
      "stateMutability": "view",
      "type": "function"
    },
    {
      "inputs": [
        {
          "internalType": "uint256",
          "name": "_carId",
          "type": "uint256"
        }
      ],
      "name": "getCar",
      "outputs": [
        {
          "components": [
            {
              "internalType": "uint32",
              "name": "chassisNumber",
              "type": "uint32"
            },
            {
              "internalType": "uint32",
              "name": "mileage",
              "type": "uint32"
            },
            {
              "internalType": "uint32",
              "name": "price",
              "type": "uint32"
            },
            {
              "internalType": "string",
              "name": "licensePlate",
              "type": "string"
            },
            {
              "internalType": "string",
              "name": "brand",
              "type": "string"
            },
            {
              "internalType": "string",
              "name": "carType",
              "type": "string"
            },
            {
              "internalType": "string",
              "name": "colour",
              "type": "string"
            },
            {
              "internalType": "string[]",
              "name": "pictures",
              "type": "string[]"
            },
            {
              "internalType": "bool",
              "name": "isForSale",
              "type": "bool"
            }
          ],
          "internalType": "struct CarDetails.Car",
          "name": "",
          "type": "tuple"
        }
      ],
      "stateMutability": "view",
      "type": "function"
    },
    {
      "inputs": [],
      "name": "isOwner",
      "outputs": [
        {
          "internalType": "bool",
          "name": "",
          "type": "bool"
        }
      ],
      "stateMutability": "view",
      "type": "function"
    },
    {
      "inputs": [],
      "name": "owner",
      "outputs": [
        {
          "internalType": "address",
          "name": "",
          "type": "address"
        }
      ],
      "stateMutability": "view",
      "type": "function"
    },
    {
      "inputs": [],
      "name": "renounceOwnership",
      "outputs": [],
      "stateMutability": "nonpayable",
      "type": "function"
    },
    {
      "inputs": [
        {
          "internalType": "uint256",
          "name": "_carId",
          "type": "uint256"
        }
      ],
      "name": "toggleSaleState",
      "outputs": [],
      "stateMutability": "nonpayable",
      "type": "function"
    },
    {
      "inputs": [
        {
          "internalType": "address",
          "name": "newOwner",
          "type": "address"
        }
      ],
      "name": "transferOwnership",
      "outputs": [],
      "stateMutability": "nonpayable",
      "type": "function"
    },
    {
      "inputs": [
        {
          "internalType": "uint256",
          "name": "_carId",
          "type": "uint256"
        },
        {
          "internalType": "uint32",
          "name": "_newMileage",
          "type": "uint32"
        }
      ],
      "name": "updateMileage",
      "outputs": [],
      "stateMutability": "nonpayable",
      "type": "function"
    },
    {
      "inputs": [
        {
          "internalType": "uint256",
          "name": "_carId",
          "type": "uint256"
        },
        {
          "internalType": "uint32",
          "name": "_newPrice",
          "type": "uint32"
        }
      ],
      "name": "updatePrice",
      "outputs": [],
      "stateMutability": "nonpayable",
      "type": "function"
    }
  ],
  "bytecode": "0x608060405234801561001057600080fd5b50336000806101000a81548173ffffffffffffffffffffffffffffffffffffffff021916908373ffffffffffffffffffffffffffffffffffffffff16021790555060008054906101000a900473ffffffffffffffffffffffffffffffffffffffff1673ffffffffffffffffffffffffffffffffffffffff16600073ffffffffffffffffffffffffffffffffffffffff167f8be0079c531659141344cd1fd0a4f28419497f9722a3daafe3b4186f6b6457e060405160405180910390a3612638806100db6000396000f3fe608060405234801561001057600080fd5b50600436106100b45760003560e01c80638da5cb5b116100715780638da5cb5b1461018b5780638f32d59b146101a9578063d4d942ec146101c7578063f2fde38b146101e3578063f7746e36146101ff578063f95fe25b14610236576100b4565b80632286c0c1146100b957806333ca504b146100e95780635e8be19014610119578063628dd13e14610149578063715018a6146101655780637edffa531461016f575b600080fd5b6100d360048036038101906100ce9190611721565b610252565b6040516100e09190611a7d565b60405180910390f35b61010360048036038101906100fe9190611ad5565b610789565b6040516101109190611b11565b60405180910390f35b610133600480360381019061012e9190611ad5565b6107bc565b6040516101409190611c0d565b60405180910390f35b610163600480360381019061015e9190611ad5565b610ba7565b005b61016d610c2b565b005b61018960048036038101906101849190611c5b565b610cfa565b005b610193610dd6565b6040516101a09190611b11565b60405180910390f35b6101b1610dff565b6040516101be9190611caa565b60405180910390f35b6101e160048036038101906101dc9190611f0c565b610e56565b005b6101fd60048036038101906101f89190611721565b611128565b005b61021960048036038101906102149190611ad5565b611145565b60405161022d9897969594939291906120bb565b60405180910390f35b610250600480360381019061024b9190611c5b565b6113fa565b005b60606000600360008473ffffffffffffffffffffffffffffffffffffffff1673ffffffffffffffffffffffffffffffffffffffff1681526020019081526020016000205467ffffffffffffffff8111156102af576102ae611ccf565b5b6040519080825280602002602001820160405280156102e857816020015b6102d5611575565b8152602001906001900390816102cd5790505b5090506000805b60018054905081101561077e578473ffffffffffffffffffffffffffffffffffffffff166002600083815260200190815260200160002060009054906101000a900473ffffffffffffffffffffffffffffffffffffffff1673ffffffffffffffffffffffffffffffffffffffff160361076b576001818154811061037657610375612155565b5b9060005260206000209060070201604051806101200160405290816000820160009054906101000a900463ffffffff1663ffffffff1663ffffffff1681526020016000820160049054906101000a900463ffffffff1663ffffffff1663ffffffff1681526020016000820160089054906101000a900463ffffffff1663ffffffff1663ffffffff168152602001600182018054610412906121b3565b80601f016020809104026020016040519081016040528092919081815260200182805461043e906121b3565b801561048b5780601f106104605761010080835404028352916020019161048b565b820191906000526020600020905b81548152906001019060200180831161046e57829003601f168201915b505050505081526020016002820180546104a4906121b3565b80601f01602080910402602001604051908101604052809291908181526020018280546104d0906121b3565b801561051d5780601f106104f25761010080835404028352916020019161051d565b820191906000526020600020905b81548152906001019060200180831161050057829003601f168201915b50505050508152602001600382018054610536906121b3565b80601f0160208091040260200160405190810160405280929190818152602001828054610562906121b3565b80156105af5780601f10610584576101008083540402835291602001916105af565b820191906000526020600020905b81548152906001019060200180831161059257829003601f168201915b505050505081526020016004820180546105c8906121b3565b80601f01602080910402602001604051908101604052809291908181526020018280546105f4906121b3565b80156106415780601f1061061657610100808354040283529160200191610641565b820191906000526020600020905b81548152906001019060200180831161062457829003601f168201915b5050505050815260200160058201805480602002602001604051908101604052809291908181526020016000905b8282101561071b57838290600052602060002001805461068e906121b3565b80601f01602080910402602001604051908101604052809291908181526020018280546106ba906121b3565b80156107075780601f106106dc57610100808354040283529160200191610707565b820191906000526020600020905b8154815290600101906020018083116106ea57829003601f168201915b50505050508152602001906001019061066f565b5050505081526020016006820160009054906101000a900460ff16151515158152505083838151811061075157610750612155565b5b6020026020010181905250818061076790612213565b9250505b808061077690612213565b9150506102ef565b508192505050919050565b60026020528060005260406000206000915054906101000a900473ffffffffffffffffffffffffffffffffffffffff1681565b6107c4611575565b600182815481106107d8576107d7612155565b5b9060005260206000209060070201604051806101200160405290816000820160009054906101000a900463ffffffff1663ffffffff1663ffffffff1681526020016000820160049054906101000a900463ffffffff1663ffffffff1663ffffffff1681526020016000820160089054906101000a900463ffffffff1663ffffffff1663ffffffff168152602001600182018054610874906121b3565b80601f01602080910402602001604051908101604052809291908181526020018280546108a0906121b3565b80156108ed5780601f106108c2576101008083540402835291602001916108ed565b820191906000526020600020905b8154815290600101906020018083116108d057829003601f168201915b50505050508152602001600282018054610906906121b3565b80601f0160208091040260200160405190810160405280929190818152602001828054610932906121b3565b801561097f5780601f106109545761010080835404028352916020019161097f565b820191906000526020600020905b81548152906001019060200180831161096257829003601f168201915b50505050508152602001600382018054610998906121b3565b80601f01602080910402602001604051908101604052809291908181526020018280546109c4906121b3565b8015610a115780601f106109e657610100808354040283529160200191610a11565b820191906000526020600020905b8154815290600101906020018083116109f457829003601f168201915b50505050508152602001600482018054610a2a906121b3565b80601f0160208091040260200160405190810160405280929190818152602001828054610a56906121b3565b8015610aa35780601f10610a7857610100808354040283529160200191610aa3565b820191906000526020600020905b815481529060010190602001808311610a8657829003601f168201915b5050505050815260200160058201805480602002602001604051908101604052809291908181526020016000905b82821015610b7d578382906000526020600020018054610af0906121b3565b80601f0160208091040260200160405190810160405280929190818152602001828054610b1c906121b3565b8015610b695780601f10610b3e57610100808354040283529160200191610b69565b820191906000526020600020905b815481529060010190602001808311610b4c57829003601f168201915b505050505081526020019060010190610ad1565b5050505081526020016006820160009054906101000a900460ff1615151515815250509050919050565b610baf610dff565b610bb857600080fd5b60018181548110610bcc57610bcb612155565b5b906000526020600020906007020160060160009054906101000a900460ff161560018281548110610c0057610bff612155565b5b906000526020600020906007020160060160006101000a81548160ff02191690831515021790555050565b610c33610dff565b610c3c57600080fd5b600073ffffffffffffffffffffffffffffffffffffffff1660008054906101000a900473ffffffffffffffffffffffffffffffffffffffff1673ffffffffffffffffffffffffffffffffffffffff167f8be0079c531659141344cd1fd0a4f28419497f9722a3daafe3b4186f6b6457e060405160405180910390a360008060006101000a81548173ffffffffffffffffffffffffffffffffffffffff021916908373ffffffffffffffffffffffffffffffffffffffff160217905550565b610d02610dff565b610d0b57600080fd5b60018281548110610d1f57610d1e612155565b5b906000526020600020906007020160000160049054906101000a900463ffffffff1663ffffffff168163ffffffff1611610d8e576040517f08c379a0000000000000000000000000000000000000000000000000000000008152600401610d85906122cd565b60405180910390fd5b8060018381548110610da357610da2612155565b5b906000526020600020906007020160000160046101000a81548163ffffffff021916908363ffffffff1602179055505050565b60008060009054906101000a900473ffffffffffffffffffffffffffffffffffffffff16905090565b60008060009054906101000a900473ffffffffffffffffffffffffffffffffffffffff1673ffffffffffffffffffffffffffffffffffffffff163373ffffffffffffffffffffffffffffffffffffffff1614905090565b60006040518061012001604052808b63ffffffff1681526020018a63ffffffff1681526020018963ffffffff1681526020018881526020018781526020018681526020018581526020018481526020018315158152509050600181908060018154018082558091505060019003906000526020600020906007020160009091909190915060008201518160000160006101000a81548163ffffffff021916908363ffffffff16021790555060208201518160000160046101000a81548163ffffffff021916908363ffffffff16021790555060408201518160000160086101000a81548163ffffffff021916908363ffffffff1602179055506060820151816001019081610f649190612499565b506080820151816002019081610f7a9190612499565b5060a0820151816003019081610f909190612499565b5060c0820151816004019081610fa69190612499565b5060e0820151816005019080519060200190610fc39291906115d5565b506101008201518160060160006101000a81548160ff0219169083151502179055505050600060018080549050610ffa919061256b565b9050336002600083815260200190815260200160002060006101000a81548173ffffffffffffffffffffffffffffffffffffffff021916908373ffffffffffffffffffffffffffffffffffffffff1602179055506110a16001600360003373ffffffffffffffffffffffffffffffffffffffff1673ffffffffffffffffffffffffffffffffffffffff1681526020019081526020016000205461145390919063ffffffff16565b600360003373ffffffffffffffffffffffffffffffffffffffff1673ffffffffffffffffffffffffffffffffffffffff168152602001908152602001600020819055507f9fa933a4314619d734428b1038f1dd61e63dd0b19328ee6e7338a2d5d1847534826040516111139190611c0d565b60405180910390a15050505050505050505050565b611130610dff565b61113957600080fd5b6111428161147f565b50565b6001818154811061115557600080fd5b90600052602060002090600702016000915090508060000160009054906101000a900463ffffffff16908060000160049054906101000a900463ffffffff16908060000160089054906101000a900463ffffffff16908060010180546111ba906121b3565b80601f01602080910402602001604051908101604052809291908181526020018280546111e6906121b3565b80156112335780601f1061120857610100808354040283529160200191611233565b820191906000526020600020905b81548152906001019060200180831161121657829003601f168201915b505050505090806002018054611248906121b3565b80601f0160208091040260200160405190810160405280929190818152602001828054611274906121b3565b80156112c15780601f10611296576101008083540402835291602001916112c1565b820191906000526020600020905b8154815290600101906020018083116112a457829003601f168201915b5050505050908060030180546112d6906121b3565b80601f0160208091040260200160405190810160405280929190818152602001828054611302906121b3565b801561134f5780601f106113245761010080835404028352916020019161134f565b820191906000526020600020905b81548152906001019060200180831161133257829003601f168201915b505050505090806004018054611364906121b3565b80601f0160208091040260200160405190810160405280929190818152602001828054611390906121b3565b80156113dd5780601f106113b2576101008083540402835291602001916113dd565b820191906000526020600020905b8154815290600101906020018083116113c057829003601f168201915b5050505050908060060160009054906101000a900460ff16905088565b611402610dff565b61140b57600080fd5b80600183815481106114205761141f612155565b5b906000526020600020906007020160000160086101000a81548163ffffffff021916908363ffffffff1602179055505050565b6000808284611462919061259f565b905083811015611475576114746125d3565b5b8091505092915050565b600073ffffffffffffffffffffffffffffffffffffffff168173ffffffffffffffffffffffffffffffffffffffff16036114b857600080fd5b8073ffffffffffffffffffffffffffffffffffffffff1660008054906101000a900473ffffffffffffffffffffffffffffffffffffffff1673ffffffffffffffffffffffffffffffffffffffff167f8be0079c531659141344cd1fd0a4f28419497f9722a3daafe3b4186f6b6457e060405160405180910390a3806000806101000a81548173ffffffffffffffffffffffffffffffffffffffff021916908373ffffffffffffffffffffffffffffffffffffffff16021790555050565b604051806101200160405280600063ffffffff168152602001600063ffffffff168152602001600063ffffffff16815260200160608152602001606081526020016060815260200160608152602001606081526020016000151581525090565b82805482825590600052602060002090810192821561161d579160200282015b8281111561161c57825182908161160c9190612499565b50916020019190600101906115f5565b5b50905061162a919061162e565b5090565b5b8082111561164e57600081816116459190611652565b5060010161162f565b5090565b50805461165e906121b3565b6000825580601f10611670575061168f565b601f01602090049060005260206000209081019061168e9190611692565b5b50565b5b808211156116ab576000816000905550600101611693565b5090565b6000604051905090565b600080fd5b600080fd5b600073ffffffffffffffffffffffffffffffffffffffff82169050919050565b60006116ee826116c3565b9050919050565b6116fe816116e3565b811461170957600080fd5b50565b60008135905061171b816116f5565b92915050565b600060208284031215611737576117366116b9565b5b60006117458482850161170c565b91505092915050565b600081519050919050565b600082825260208201905092915050565b6000819050602082019050919050565b600063ffffffff82169050919050565b6117938161177a565b82525050565b600081519050919050565b600082825260208201905092915050565b60005b838110156117d35780820151818401526020810190506117b8565b60008484015250505050565b6000601f19601f8301169050919050565b60006117fb82611799565b61180581856117a4565b93506118158185602086016117b5565b61181e816117df565b840191505092915050565b600081519050919050565b600082825260208201905092915050565b6000819050602082019050919050565b600061186183836117f0565b905092915050565b6000602082019050919050565b600061188182611829565b61188b8185611834565b93508360208202850161189d85611845565b8060005b858110156118d957848403895281516118ba8582611855565b94506118c583611869565b925060208a019950506001810190506118a1565b50829750879550505050505092915050565b60008115159050919050565b611900816118eb565b82525050565b60006101208301600083015161191f600086018261178a565b506020830151611932602086018261178a565b506040830151611945604086018261178a565b506060830151848203606086015261195d82826117f0565b9150506080830151848203608086015261197782826117f0565b91505060a083015184820360a086015261199182826117f0565b91505060c083015184820360c08601526119ab82826117f0565b91505060e083015184820360e08601526119c58282611876565b9150506101008301516119dc6101008601826118f7565b508091505092915050565b60006119f38383611906565b905092915050565b6000602082019050919050565b6000611a138261174e565b611a1d8185611759565b935083602082028501611a2f8561176a565b8060005b85811015611a6b5784840389528151611a4c85826119e7565b9450611a57836119fb565b925060208a01995050600181019050611a33565b50829750879550505050505092915050565b60006020820190508181036000830152611a978184611a08565b905092915050565b6000819050919050565b611ab281611a9f565b8114611abd57600080fd5b50565b600081359050611acf81611aa9565b92915050565b600060208284031215611aeb57611aea6116b9565b5b6000611af984828501611ac0565b91505092915050565b611b0b816116e3565b82525050565b6000602082019050611b266000830184611b02565b92915050565b600061012083016000830151611b45600086018261178a565b506020830151611b58602086018261178a565b506040830151611b6b604086018261178a565b5060608301518482036060860152611b8382826117f0565b91505060808301518482036080860152611b9d82826117f0565b91505060a083015184820360a0860152611bb782826117f0565b91505060c083015184820360c0860152611bd182826117f0565b91505060e083015184820360e0860152611beb8282611876565b915050610100830151611c026101008601826118f7565b508091505092915050565b60006020820190508181036000830152611c278184611b2c565b905092915050565b611c388161177a565b8114611c4357600080fd5b50565b600081359050611c5581611c2f565b92915050565b60008060408385031215611c7257611c716116b9565b5b6000611c8085828601611ac0565b9250506020611c9185828601611c46565b9150509250929050565b611ca4816118eb565b82525050565b6000602082019050611cbf6000830184611c9b565b92915050565b600080fd5b600080fd5b7f4e487b7100000000000000000000000000000000000000000000000000000000600052604160045260246000fd5b611d07826117df565b810181811067ffffffffffffffff82111715611d2657611d25611ccf565b5b80604052505050565b6000611d396116af565b9050611d458282611cfe565b919050565b600067ffffffffffffffff821115611d6557611d64611ccf565b5b611d6e826117df565b9050602081019050919050565b82818337600083830152505050565b6000611d9d611d9884611d4a565b611d2f565b905082815260208101848484011115611db957611db8611cca565b5b611dc4848285611d7b565b509392505050565b600082601f830112611de157611de0611cc5565b5b8135611df1848260208601611d8a565b91505092915050565b600067ffffffffffffffff821115611e1557611e14611ccf565b5b602082029050602081019050919050565b600080fd5b6000611e3e611e3984611dfa565b611d2f565b90508083825260208201905060208402830185811115611e6157611e60611e26565b5b835b81811015611ea857803567ffffffffffffffff811115611e8657611e85611cc5565b5b808601611e938982611dcc565b85526020850194505050602081019050611e63565b5050509392505050565b600082601f830112611ec757611ec6611cc5565b5b8135611ed7848260208601611e2b565b91505092915050565b611ee9816118eb565b8114611ef457600080fd5b50565b600081359050611f0681611ee0565b92915050565b60008060008060008060008060006101208a8c031215611f2f57611f2e6116b9565b5b6000611f3d8c828d01611c46565b9950506020611f4e8c828d01611c46565b9850506040611f5f8c828d01611c46565b97505060608a013567ffffffffffffffff811115611f8057611f7f6116be565b5b611f8c8c828d01611dcc565b96505060808a013567ffffffffffffffff811115611fad57611fac6116be565b5b611fb98c828d01611dcc565b95505060a08a013567ffffffffffffffff811115611fda57611fd96116be565b5b611fe68c828d01611dcc565b94505060c08a013567ffffffffffffffff811115612007576120066116be565b5b6120138c828d01611dcc565b93505060e08a013567ffffffffffffffff811115612034576120336116be565b5b6120408c828d01611eb2565b9250506101006120528c828d01611ef7565b9150509295985092959850929598565b61206b8161177a565b82525050565b600082825260208201905092915050565b600061208d82611799565b6120978185612071565b93506120a78185602086016117b5565b6120b0816117df565b840191505092915050565b6000610100820190506120d1600083018b612062565b6120de602083018a612062565b6120eb6040830189612062565b81810360608301526120fd8188612082565b905081810360808301526121118187612082565b905081810360a08301526121258186612082565b905081810360c08301526121398185612082565b905061214860e0830184611c9b565b9998505050505050505050565b7f4e487b7100000000000000000000000000000000000000000000000000000000600052603260045260246000fd5b7f4e487b7100000000000000000000000000000000000000000000000000000000600052602260045260246000fd5b600060028204905060018216806121cb57607f821691505b6020821081036121de576121dd612184565b5b50919050565b7f4e487b7100000000000000000000000000000000000000000000000000000000600052601160045260246000fd5b600061221e82611a9f565b91507fffffffffffffffffffffffffffffffffffffffffffffffffffffffffffffffff82036122505761224f6121e4565b5b600182019050919050565b7f546865206e6577206d696c616765206d75737420626520686967686572204f5560008201527f4c45480000000000000000000000000000000000000000000000000000000000602082015250565b60006122b7602383612071565b91506122c28261225b565b604082019050919050565b600060208201905081810360008301526122e6816122aa565b9050919050565b60008190508160005260206000209050919050565b60006020601f8301049050919050565b600082821b905092915050565b60006008830261234f7fffffffffffffffffffffffffffffffffffffffffffffffffffffffffffffffff82612312565b6123598683612312565b95508019841693508086168417925050509392505050565b6000819050919050565b600061239661239161238c84611a9f565b612371565b611a9f565b9050919050565b6000819050919050565b6123b08361237b565b6123c46123bc8261239d565b84845461231f565b825550505050565b600090565b6123d96123cc565b6123e48184846123a7565b505050565b5b81811015612408576123fd6000826123d1565b6001810190506123ea565b5050565b601f82111561244d5761241e816122ed565b61242784612302565b81016020851015612436578190505b61244a61244285612302565b8301826123e9565b50505b505050565b600082821c905092915050565b600061247060001984600802612452565b1980831691505092915050565b6000612489838361245f565b9150826002028217905092915050565b6124a282611799565b67ffffffffffffffff8111156124bb576124ba611ccf565b5b6124c582546121b3565b6124d082828561240c565b600060209050601f83116001811461250357600084156124f1578287015190505b6124fb858261247d565b865550612563565b601f198416612511866122ed565b60005b8281101561253957848901518255600182019150602085019450602081019050612514565b868310156125565784890151612552601f89168261245f565b8355505b6001600288020188555050505b505050505050565b600061257682611a9f565b915061258183611a9f565b9250828203905081811115612599576125986121e4565b5b92915050565b60006125aa82611a9f565b91506125b583611a9f565b92508282019050808211156125cd576125cc6121e4565b5b92915050565b7f4e487b7100000000000000000000000000000000000000000000000000000000600052600160045260246000fdfea2646970667358221220c1141e14a6ba909e23cce5e996a9a936a4a6fa2248ed958472acf386ac8de50664736f6c63430008110033",
  "linkReferences": {},
  "deployedLinkReferences": {}
}