{
  "_format": "hh-sol-artifact-1",
  "contractName": "CarDetails",
  "sourceName": "contracts/cardetails.sol",
  "abi": [
    {
      "anonymous": false,
      "inputs": [
        {
          "components": [
            {
              "internalType": "uint32",
              "name": "id",
              "type": "uint32"
            },
            {
              "internalType": "uint32",
              "name": "chassisNumber",
              "type": "uint32"
            },
            {
              "internalType": "uint32",
              "name": "mileage",
              "type": "uint32"
            },
            {
              "internalType": "uint32",
              "name": "price",
              "type": "uint32"
            },
            {
              "internalType": "string",
              "name": "licensePlate",
              "type": "string"
            },
            {
              "internalType": "string",
              "name": "brand",
              "type": "string"
            },
            {
              "internalType": "string",
              "name": "carType",
              "type": "string"
            },
            {
              "internalType": "string",
              "name": "colour",
              "type": "string"
            },
            {
              "internalType": "string[]",
              "name": "pictures",
              "type": "string[]"
            },
            {
              "internalType": "bool",
              "name": "isForSale",
              "type": "bool"
            }
          ],
          "indexed": false,
          "internalType": "struct CarDetails.Car",
          "name": "car",
          "type": "tuple"
        }
      ],
      "name": "NewCar",
      "type": "event"
    },
    {
      "anonymous": false,
      "inputs": [
        {
          "indexed": true,
          "internalType": "address",
          "name": "previousOwner",
          "type": "address"
        },
        {
          "indexed": true,
          "internalType": "address",
          "name": "newOwner",
          "type": "address"
        }
      ],
      "name": "OwnershipTransferred",
      "type": "event"
    },
    {
      "inputs": [
        {
          "internalType": "uint32",
          "name": "",
          "type": "uint32"
        }
      ],
      "name": "carToOwner",
      "outputs": [
        {
          "internalType": "address",
          "name": "",
          "type": "address"
        }
      ],
      "stateMutability": "view",
      "type": "function"
    },
    {
      "inputs": [
        {
          "internalType": "uint256",
          "name": "",
          "type": "uint256"
        }
      ],
      "name": "cars",
      "outputs": [
        {
          "internalType": "uint32",
          "name": "id",
          "type": "uint32"
        },
        {
          "internalType": "uint32",
          "name": "chassisNumber",
          "type": "uint32"
        },
        {
          "internalType": "uint32",
          "name": "mileage",
          "type": "uint32"
        },
        {
          "internalType": "uint32",
          "name": "price",
          "type": "uint32"
        },
        {
          "internalType": "string",
          "name": "licensePlate",
          "type": "string"
        },
        {
          "internalType": "string",
          "name": "brand",
          "type": "string"
        },
        {
          "internalType": "string",
          "name": "carType",
          "type": "string"
        },
        {
          "internalType": "string",
          "name": "colour",
          "type": "string"
        },
        {
          "internalType": "bool",
          "name": "isForSale",
          "type": "bool"
        }
      ],
      "stateMutability": "view",
      "type": "function"
    },
    {
      "inputs": [
        {
          "internalType": "uint32",
          "name": "_chassisNumber",
          "type": "uint32"
        },
        {
          "internalType": "uint32",
          "name": "_mileage",
          "type": "uint32"
        },
        {
          "internalType": "uint32",
          "name": "_price",
          "type": "uint32"
        },
        {
          "internalType": "string",
          "name": "_licensePlate",
          "type": "string"
        },
        {
          "internalType": "string",
          "name": "_brand",
          "type": "string"
        },
        {
          "internalType": "string",
          "name": "_carType",
          "type": "string"
        },
        {
          "internalType": "string",
          "name": "_colour",
          "type": "string"
        },
        {
          "internalType": "string[]",
          "name": "_pictures",
          "type": "string[]"
        },
        {
          "internalType": "bool",
          "name": "_isForSale",
          "type": "bool"
        }
      ],
      "name": "createCar",
      "outputs": [],
      "stateMutability": "nonpayable",
      "type": "function"
    },
    {
      "inputs": [
        {
          "internalType": "uint32",
          "name": "_carId",
          "type": "uint32"
        }
      ],
      "name": "deleteCar",
      "outputs": [],
      "stateMutability": "nonpayable",
      "type": "function"
    },
    {
      "inputs": [
        {
          "internalType": "address",
          "name": "_owner",
          "type": "address"
        }
      ],
      "name": "getAllCarsForOwner",
      "outputs": [
        {
          "components": [
            {
              "internalType": "uint32",
              "name": "id",
              "type": "uint32"
            },
            {
              "internalType": "uint32",
              "name": "chassisNumber",
              "type": "uint32"
            },
            {
              "internalType": "uint32",
              "name": "mileage",
              "type": "uint32"
            },
            {
              "internalType": "uint32",
              "name": "price",
              "type": "uint32"
            },
            {
              "internalType": "string",
              "name": "licensePlate",
              "type": "string"
            },
            {
              "internalType": "string",
              "name": "brand",
              "type": "string"
            },
            {
              "internalType": "string",
              "name": "carType",
              "type": "string"
            },
            {
              "internalType": "string",
              "name": "colour",
              "type": "string"
            },
            {
              "internalType": "string[]",
              "name": "pictures",
              "type": "string[]"
            },
            {
              "internalType": "bool",
              "name": "isForSale",
              "type": "bool"
            }
          ],
          "internalType": "struct CarDetails.Car[]",
          "name": "",
          "type": "tuple[]"
        }
      ],
      "stateMutability": "view",
      "type": "function"
    },
    {
      "inputs": [
        {
          "internalType": "uint256",
          "name": "_carId",
          "type": "uint256"
        }
      ],
      "name": "getCar",
      "outputs": [
        {
          "components": [
            {
              "internalType": "uint32",
              "name": "id",
              "type": "uint32"
            },
            {
              "internalType": "uint32",
              "name": "chassisNumber",
              "type": "uint32"
            },
            {
              "internalType": "uint32",
              "name": "mileage",
              "type": "uint32"
            },
            {
              "internalType": "uint32",
              "name": "price",
              "type": "uint32"
            },
            {
              "internalType": "string",
              "name": "licensePlate",
              "type": "string"
            },
            {
              "internalType": "string",
              "name": "brand",
              "type": "string"
            },
            {
              "internalType": "string",
              "name": "carType",
              "type": "string"
            },
            {
              "internalType": "string",
              "name": "colour",
              "type": "string"
            },
            {
              "internalType": "string[]",
              "name": "pictures",
              "type": "string[]"
            },
            {
              "internalType": "bool",
              "name": "isForSale",
              "type": "bool"
            }
          ],
          "internalType": "struct CarDetails.Car",
          "name": "",
          "type": "tuple"
        }
      ],
      "stateMutability": "view",
      "type": "function"
    },
    {
      "inputs": [
        {
          "internalType": "uint32",
          "name": "_carId",
          "type": "uint32"
        }
      ],
      "name": "getCarOwner",
      "outputs": [
        {
          "internalType": "address",
          "name": "ownerAddress",
          "type": "address"
        }
      ],
      "stateMutability": "view",
      "type": "function"
    },
    {
      "inputs": [
        {
          "internalType": "address",
          "name": "_buyer",
          "type": "address"
        }
      ],
      "name": "getCarsForSale",
      "outputs": [
        {
          "components": [
            {
              "internalType": "uint32",
              "name": "id",
              "type": "uint32"
            },
            {
              "internalType": "uint32",
              "name": "chassisNumber",
              "type": "uint32"
            },
            {
              "internalType": "uint32",
              "name": "mileage",
              "type": "uint32"
            },
            {
              "internalType": "uint32",
              "name": "price",
              "type": "uint32"
            },
            {
              "internalType": "string",
              "name": "licensePlate",
              "type": "string"
            },
            {
              "internalType": "string",
              "name": "brand",
              "type": "string"
            },
            {
              "internalType": "string",
              "name": "carType",
              "type": "string"
            },
            {
              "internalType": "string",
              "name": "colour",
              "type": "string"
            },
            {
              "internalType": "string[]",
              "name": "pictures",
              "type": "string[]"
            },
            {
              "internalType": "bool",
              "name": "isForSale",
              "type": "bool"
            }
          ],
          "internalType": "struct CarDetails.Car[]",
          "name": "",
          "type": "tuple[]"
        }
      ],
      "stateMutability": "view",
      "type": "function"
    },
    {
      "inputs": [],
      "name": "isOwner",
      "outputs": [
        {
          "internalType": "bool",
          "name": "",
          "type": "bool"
        }
      ],
      "stateMutability": "view",
      "type": "function"
    },
    {
      "inputs": [],
      "name": "owner",
      "outputs": [
        {
          "internalType": "address",
          "name": "",
          "type": "address"
        }
      ],
      "stateMutability": "view",
      "type": "function"
    },
    {
      "inputs": [],
      "name": "renounceOwnership",
      "outputs": [],
      "stateMutability": "nonpayable",
      "type": "function"
    },
    {
      "inputs": [
        {
          "internalType": "uint256",
          "name": "_carId",
          "type": "uint256"
        }
      ],
      "name": "toggleSaleState",
      "outputs": [],
      "stateMutability": "nonpayable",
      "type": "function"
    },
    {
      "inputs": [
        {
          "internalType": "address",
          "name": "newOwner",
          "type": "address"
        }
      ],
      "name": "transferOwnership",
      "outputs": [],
      "stateMutability": "nonpayable",
      "type": "function"
    },
    {
      "inputs": [
        {
          "internalType": "uint32",
          "name": "_carId",
          "type": "uint32"
        },
        {
          "internalType": "uint32",
          "name": "_newMileage",
          "type": "uint32"
        }
      ],
      "name": "updateMileage",
      "outputs": [],
      "stateMutability": "nonpayable",
      "type": "function"
    },
    {
      "inputs": [
        {
          "internalType": "uint32",
          "name": "_carId",
          "type": "uint32"
        },
        {
          "internalType": "uint32",
          "name": "_newPrice",
          "type": "uint32"
        }
      ],
      "name": "updatePrice",
      "outputs": [],
      "stateMutability": "nonpayable",
      "type": "function"
    }
  ],
  "bytecode": "0x608060405234801561001057600080fd5b50336000806101000a81548173ffffffffffffffffffffffffffffffffffffffff021916908373ffffffffffffffffffffffffffffffffffffffff16021790555060008054906101000a900473ffffffffffffffffffffffffffffffffffffffff1673ffffffffffffffffffffffffffffffffffffffff16600073ffffffffffffffffffffffffffffffffffffffff167f8be0079c531659141344cd1fd0a4f28419497f9722a3daafe3b4186f6b6457e060405160405180910390a361344c806100db6000396000f3fe608060405234801561001057600080fd5b50600436106100f55760003560e01c80638da5cb5b11610097578063b275decc11610066578063b275decc14610284578063d4d942ec146102a0578063f2fde38b146102bc578063f7746e36146102d8576100f5565b80638da5cb5b146101e85780638f32d59b1461020657806391a20776146102245780639ab656aa14610254576100f5565b80635e8be190116100d35780635e8be19014610176578063628dd13e146101a6578063715018a6146101c257806372e3b7ed146101cc576100f5565b80631f5005cb146100fa5780632286c0c11461011657806339c98a1b14610146575b600080fd5b610114600480360381019061010f91906123e3565b610310565b005b610130600480360381019061012b9190612481565b610496565b60405161013d91906127e2565b60405180910390f35b610160600480360381019061015b9190612804565b6109c8565b60405161016d9190612840565b60405180910390f35b610190600480360381019061018b9190612891565b610a11565b60405161019d91906129b4565b60405180910390f35b6101c060048036038101906101bb9190612891565b610e22565b005b6101ca610ea6565b005b6101e660048036038101906101e191906123e3565b610f75565b005b6101f0611072565b6040516101fd9190612840565b60405180910390f35b61020e61109b565b60405161021b91906129e5565b60405180910390f35b61023e60048036038101906102399190612804565b6110f2565b60405161024b9190612840565b60405180910390f35b61026e60048036038101906102699190612481565b611125565b60405161027b91906127e2565b60405180910390f35b61029e60048036038101906102999190612804565b611694565b005b6102ba60048036038101906102b59190612c47565b611898565b005b6102d660048036038101906102d19190612481565b611c45565b005b6102f260048036038101906102ed9190612891565b611c62565b60405161030799989796959493929190612df6565b60405180910390f35b81600260008263ffffffff1663ffffffff16815260200190815260200160002060009054906101000a900473ffffffffffffffffffffffffffffffffffffffff1673ffffffffffffffffffffffffffffffffffffffff163373ffffffffffffffffffffffffffffffffffffffff16146103be576040517f08c379a00000000000000000000000000000000000000000000000000000000081526004016103b590612eeb565b60405180910390fd5b60018363ffffffff16815481106103d8576103d7612f0b565b5b906000526020600020906007020160000160089054906101000a900463ffffffff1663ffffffff168263ffffffff1611610447576040517f08c379a000000000000000000000000000000000000000000000000000000000815260040161043e90612fac565b60405180910390fd5b8160018463ffffffff168154811061046257610461612f0b565b5b906000526020600020906007020160000160086101000a81548163ffffffff021916908363ffffffff160217905550505050565b606060006104a383611f2d565b67ffffffffffffffff8111156104bc576104bb612a0a565b5b6040519080825280602002602001820160405280156104f557816020015b6104e261222b565b8152602001906001900390816104da5790505b5090506000805b6001805490508110156109bd578473ffffffffffffffffffffffffffffffffffffffff16600260008363ffffffff1663ffffffff16815260200190815260200160002060009054906101000a900473ffffffffffffffffffffffffffffffffffffffff1673ffffffffffffffffffffffffffffffffffffffff16036109aa576001818154811061058f5761058e612f0b565b5b9060005260206000209060070201604051806101400160405290816000820160009054906101000a900463ffffffff1663ffffffff1663ffffffff1681526020016000820160049054906101000a900463ffffffff1663ffffffff1663ffffffff1681526020016000820160089054906101000a900463ffffffff1663ffffffff1663ffffffff16815260200160008201600c9054906101000a900463ffffffff1663ffffffff1663ffffffff16815260200160018201805461065190612ffb565b80601f016020809104026020016040519081016040528092919081815260200182805461067d90612ffb565b80156106ca5780601f1061069f576101008083540402835291602001916106ca565b820191906000526020600020905b8154815290600101906020018083116106ad57829003601f168201915b505050505081526020016002820180546106e390612ffb565b80601f016020809104026020016040519081016040528092919081815260200182805461070f90612ffb565b801561075c5780601f106107315761010080835404028352916020019161075c565b820191906000526020600020905b81548152906001019060200180831161073f57829003601f168201915b5050505050815260200160038201805461077590612ffb565b80601f01602080910402602001604051908101604052809291908181526020018280546107a190612ffb565b80156107ee5780601f106107c3576101008083540402835291602001916107ee565b820191906000526020600020905b8154815290600101906020018083116107d157829003601f168201915b5050505050815260200160048201805461080790612ffb565b80601f016020809104026020016040519081016040528092919081815260200182805461083390612ffb565b80156108805780601f1061085557610100808354040283529160200191610880565b820191906000526020600020905b81548152906001019060200180831161086357829003601f168201915b5050505050815260200160058201805480602002602001604051908101604052809291908181526020016000905b8282101561095a5783829060005260206000200180546108cd90612ffb565b80601f01602080910402602001604051908101604052809291908181526020018280546108f990612ffb565b80156109465780601f1061091b57610100808354040283529160200191610946565b820191906000526020600020905b81548152906001019060200180831161092957829003601f168201915b5050505050815260200190600101906108ae565b5050505081526020016006820160009054906101000a900460ff1615151515815250508383815181106109905761098f612f0b565b5b602002602001018190525081806109a69061305b565b9250505b80806109b59061305b565b9150506104fc565b508192505050919050565b6000600260008363ffffffff1663ffffffff16815260200190815260200160002060009054906101000a900473ffffffffffffffffffffffffffffffffffffffff169050919050565b610a1961222b565b60018281548110610a2d57610a2c612f0b565b5b9060005260206000209060070201604051806101400160405290816000820160009054906101000a900463ffffffff1663ffffffff1663ffffffff1681526020016000820160049054906101000a900463ffffffff1663ffffffff1663ffffffff1681526020016000820160089054906101000a900463ffffffff1663ffffffff1663ffffffff16815260200160008201600c9054906101000a900463ffffffff1663ffffffff1663ffffffff168152602001600182018054610aef90612ffb565b80601f0160208091040260200160405190810160405280929190818152602001828054610b1b90612ffb565b8015610b685780601f10610b3d57610100808354040283529160200191610b68565b820191906000526020600020905b815481529060010190602001808311610b4b57829003601f168201915b50505050508152602001600282018054610b8190612ffb565b80601f0160208091040260200160405190810160405280929190818152602001828054610bad90612ffb565b8015610bfa5780601f10610bcf57610100808354040283529160200191610bfa565b820191906000526020600020905b815481529060010190602001808311610bdd57829003601f168201915b50505050508152602001600382018054610c1390612ffb565b80601f0160208091040260200160405190810160405280929190818152602001828054610c3f90612ffb565b8015610c8c5780601f10610c6157610100808354040283529160200191610c8c565b820191906000526020600020905b815481529060010190602001808311610c6f57829003601f168201915b50505050508152602001600482018054610ca590612ffb565b80601f0160208091040260200160405190810160405280929190818152602001828054610cd190612ffb565b8015610d1e5780601f10610cf357610100808354040283529160200191610d1e565b820191906000526020600020905b815481529060010190602001808311610d0157829003601f168201915b5050505050815260200160058201805480602002602001604051908101604052809291908181526020016000905b82821015610df8578382906000526020600020018054610d6b90612ffb565b80601f0160208091040260200160405190810160405280929190818152602001828054610d9790612ffb565b8015610de45780601f10610db957610100808354040283529160200191610de4565b820191906000526020600020905b815481529060010190602001808311610dc757829003601f168201915b505050505081526020019060010190610d4c565b5050505081526020016006820160009054906101000a900460ff1615151515815250509050919050565b610e2a61109b565b610e3357600080fd5b60018181548110610e4757610e46612f0b565b5b906000526020600020906007020160060160009054906101000a900460ff161560018281548110610e7b57610e7a612f0b565b5b906000526020600020906007020160060160006101000a81548160ff02191690831515021790555050565b610eae61109b565b610eb757600080fd5b600073ffffffffffffffffffffffffffffffffffffffff1660008054906101000a900473ffffffffffffffffffffffffffffffffffffffff1673ffffffffffffffffffffffffffffffffffffffff167f8be0079c531659141344cd1fd0a4f28419497f9722a3daafe3b4186f6b6457e060405160405180910390a360008060006101000a81548173ffffffffffffffffffffffffffffffffffffffff021916908373ffffffffffffffffffffffffffffffffffffffff160217905550565b81600260008263ffffffff1663ffffffff16815260200190815260200160002060009054906101000a900473ffffffffffffffffffffffffffffffffffffffff1673ffffffffffffffffffffffffffffffffffffffff163373ffffffffffffffffffffffffffffffffffffffff1614611023576040517f08c379a000000000000000000000000000000000000000000000000000000000815260040161101a90612eeb565b60405180910390fd5b8160018463ffffffff168154811061103e5761103d612f0b565b5b9060005260206000209060070201600001600c6101000a81548163ffffffff021916908363ffffffff160217905550505050565b60008060009054906101000a900473ffffffffffffffffffffffffffffffffffffffff16905090565b60008060009054906101000a900473ffffffffffffffffffffffffffffffffffffffff1673ffffffffffffffffffffffffffffffffffffffff163373ffffffffffffffffffffffffffffffffffffffff1614905090565b60026020528060005260406000206000915054906101000a900473ffffffffffffffffffffffffffffffffffffffff1681565b6060600061113283612017565b67ffffffffffffffff81111561114b5761114a612a0a565b5b60405190808252806020026020018201604052801561118457816020015b61117161222b565b8152602001906001900390816111695790505b5090506000805b600180549050811015611689578473ffffffffffffffffffffffffffffffffffffffff16600260008363ffffffff1663ffffffff16815260200190815260200160002060009054906101000a900473ffffffffffffffffffffffffffffffffffffffff1673ffffffffffffffffffffffffffffffffffffffff161415801561124257506001818154811061122257611221612f0b565b5b906000526020600020906007020160060160009054906101000a900460ff165b15611676576001818154811061125b5761125a612f0b565b5b9060005260206000209060070201604051806101400160405290816000820160009054906101000a900463ffffffff1663ffffffff1663ffffffff1681526020016000820160049054906101000a900463ffffffff1663ffffffff1663ffffffff1681526020016000820160089054906101000a900463ffffffff1663ffffffff1663ffffffff16815260200160008201600c9054906101000a900463ffffffff1663ffffffff1663ffffffff16815260200160018201805461131d90612ffb565b80601f016020809104026020016040519081016040528092919081815260200182805461134990612ffb565b80156113965780601f1061136b57610100808354040283529160200191611396565b820191906000526020600020905b81548152906001019060200180831161137957829003601f168201915b505050505081526020016002820180546113af90612ffb565b80601f01602080910402602001604051908101604052809291908181526020018280546113db90612ffb565b80156114285780601f106113fd57610100808354040283529160200191611428565b820191906000526020600020905b81548152906001019060200180831161140b57829003601f168201915b5050505050815260200160038201805461144190612ffb565b80601f016020809104026020016040519081016040528092919081815260200182805461146d90612ffb565b80156114ba5780601f1061148f576101008083540402835291602001916114ba565b820191906000526020600020905b81548152906001019060200180831161149d57829003601f168201915b505050505081526020016004820180546114d390612ffb565b80601f01602080910402602001604051908101604052809291908181526020018280546114ff90612ffb565b801561154c5780601f106115215761010080835404028352916020019161154c565b820191906000526020600020905b81548152906001019060200180831161152f57829003601f168201915b5050505050815260200160058201805480602002602001604051908101604052809291908181526020016000905b8282101561162657838290600052602060002001805461159990612ffb565b80601f01602080910402602001604051908101604052809291908181526020018280546115c590612ffb565b80156116125780601f106115e757610100808354040283529160200191611612565b820191906000526020600020905b8154815290600101906020018083116115f557829003601f168201915b50505050508152602001906001019061157a565b5050505081526020016006820160009054906101000a900460ff16151515158152505083838151811061165c5761165b612f0b565b5b602002602001018190525081806116729061305b565b9250505b80806116819061305b565b91505061118b565b508192505050919050565b80600260008263ffffffff1663ffffffff16815260200190815260200160002060009054906101000a900473ffffffffffffffffffffffffffffffffffffffff1673ffffffffffffffffffffffffffffffffffffffff163373ffffffffffffffffffffffffffffffffffffffff1614611742576040517f08c379a000000000000000000000000000000000000000000000000000000000815260040161173990612eeb565b60405180910390fd5b60005b600180549050811015611893578263ffffffff166001828154811061176d5761176c612f0b565b5b906000526020600020906007020160000160009054906101000a900463ffffffff1663ffffffff160361188057600181815481106117ae576117ad612f0b565b5b9060005260206000209060070201600080820160006101000a81549063ffffffff02191690556000820160046101000a81549063ffffffff02191690556000820160086101000a81549063ffffffff021916905560008201600c6101000a81549063ffffffff02191690556001820160006118299190612298565b6002820160006118399190612298565b6003820160006118499190612298565b6004820160006118599190612298565b60058201600061186991906122d8565b6006820160006101000a81549060ff021916905550505b808061188b9061305b565b915050611745565b505050565b600060405180610140016040528060018054905063ffffffff1681526020018b63ffffffff1681526020018a63ffffffff1681526020018963ffffffff168152602001888152602001878152602001868152602001858152602001848152602001831515815250905060008a63ffffffff161415801561191f575060008963ffffffff1614155b8015611932575060008863ffffffff1614155b801561194057506000875114155b801561194e57506000865114155b801561195c57506000855114155b801561196a57506000845114155b6119a9576040517f08c379a00000000000000000000000000000000000000000000000000000000081526004016119a090613115565b60405180910390fd5b600181908060018154018082558091505060019003906000526020600020906007020160009091909190915060008201518160000160006101000a81548163ffffffff021916908363ffffffff16021790555060208201518160000160046101000a81548163ffffffff021916908363ffffffff16021790555060408201518160000160086101000a81548163ffffffff021916908363ffffffff160217905550606082015181600001600c6101000a81548163ffffffff021916908363ffffffff1602179055506080820151816001019081611a8691906132e1565b5060a0820151816002019081611a9c91906132e1565b5060c0820151816003019081611ab291906132e1565b5060e0820151816004019081611ac891906132e1565b50610100820151816005019080519060200190611ae69291906122f9565b506101208201518160060160006101000a81548160ff02191690831515021790555050503360026000836000015163ffffffff1663ffffffff16815260200190815260200160002060006101000a81548173ffffffffffffffffffffffffffffffffffffffff021916908373ffffffffffffffffffffffffffffffffffffffff160217905550611bbf6001600360003373ffffffffffffffffffffffffffffffffffffffff1673ffffffffffffffffffffffffffffffffffffffff1681526020019081526020016000205461210990919063ffffffff16565b600360003373ffffffffffffffffffffffffffffffffffffffff1673ffffffffffffffffffffffffffffffffffffffff168152602001908152602001600020819055507f1a1d86e0f039b69dc75a6a99b30e291a372ccdcae3c35990cc416065bf72777881604051611c3191906129b4565b60405180910390a150505050505050505050565b611c4d61109b565b611c5657600080fd5b611c5f81612135565b50565b60018181548110611c7257600080fd5b90600052602060002090600702016000915090508060000160009054906101000a900463ffffffff16908060000160049054906101000a900463ffffffff16908060000160089054906101000a900463ffffffff169080600001600c9054906101000a900463ffffffff1690806001018054611ced90612ffb565b80601f0160208091040260200160405190810160405280929190818152602001828054611d1990612ffb565b8015611d665780601f10611d3b57610100808354040283529160200191611d66565b820191906000526020600020905b815481529060010190602001808311611d4957829003601f168201915b505050505090806002018054611d7b90612ffb565b80601f0160208091040260200160405190810160405280929190818152602001828054611da790612ffb565b8015611df45780601f10611dc957610100808354040283529160200191611df4565b820191906000526020600020905b815481529060010190602001808311611dd757829003601f168201915b505050505090806003018054611e0990612ffb565b80601f0160208091040260200160405190810160405280929190818152602001828054611e3590612ffb565b8015611e825780601f10611e5757610100808354040283529160200191611e82565b820191906000526020600020905b815481529060010190602001808311611e6557829003601f168201915b505050505090806004018054611e9790612ffb565b80601f0160208091040260200160405190810160405280929190818152602001828054611ec390612ffb565b8015611f105780601f10611ee557610100808354040283529160200191611f10565b820191906000526020600020905b815481529060010190602001808311611ef357829003601f168201915b5050505050908060060160009054906101000a900460ff16905089565b6000806000905060005b60018054905081101561200d578373ffffffffffffffffffffffffffffffffffffffff166002600060018481548110611f7357611f72612f0b565b5b906000526020600020906007020160000160009054906101000a900463ffffffff1663ffffffff1663ffffffff16815260200190815260200160002060009054906101000a900473ffffffffffffffffffffffffffffffffffffffff1673ffffffffffffffffffffffffffffffffffffffff1603611ffa578180611ff69061305b565b9250505b80806120059061305b565b915050611f37565b5080915050919050565b6000806000905060005b6001805490508110156120ff578373ffffffffffffffffffffffffffffffffffffffff16600260008363ffffffff1663ffffffff16815260200190815260200160002060009054906101000a900473ffffffffffffffffffffffffffffffffffffffff1673ffffffffffffffffffffffffffffffffffffffff16141580156120d85750600181815481106120b8576120b7612f0b565b5b906000526020600020906007020160060160009054906101000a900460ff165b156120ec5781806120e89061305b565b9250505b80806120f79061305b565b915050612021565b5080915050919050565b600080828461211891906133b3565b90508381101561212b5761212a6133e7565b5b8091505092915050565b600073ffffffffffffffffffffffffffffffffffffffff168173ffffffffffffffffffffffffffffffffffffffff160361216e57600080fd5b8073ffffffffffffffffffffffffffffffffffffffff1660008054906101000a900473ffffffffffffffffffffffffffffffffffffffff1673ffffffffffffffffffffffffffffffffffffffff167f8be0079c531659141344cd1fd0a4f28419497f9722a3daafe3b4186f6b6457e060405160405180910390a3806000806101000a81548173ffffffffffffffffffffffffffffffffffffffff021916908373ffffffffffffffffffffffffffffffffffffffff16021790555050565b604051806101400160405280600063ffffffff168152602001600063ffffffff168152602001600063ffffffff168152602001600063ffffffff16815260200160608152602001606081526020016060815260200160608152602001606081526020016000151581525090565b5080546122a490612ffb565b6000825580601f106122b657506122d5565b601f0160209004906000526020600020908101906122d49190612352565b5b50565b50805460008255906000526020600020908101906122f6919061236f565b50565b828054828255906000526020600020908101928215612341579160200282015b8281111561234057825182908161233091906132e1565b5091602001919060010190612319565b5b50905061234e919061236f565b5090565b5b8082111561236b576000816000905550600101612353565b5090565b5b8082111561238f57600081816123869190612298565b50600101612370565b5090565b6000604051905090565b600080fd5b600080fd5b600063ffffffff82169050919050565b6123c0816123a7565b81146123cb57600080fd5b50565b6000813590506123dd816123b7565b92915050565b600080604083850312156123fa576123f961239d565b5b6000612408858286016123ce565b9250506020612419858286016123ce565b9150509250929050565b600073ffffffffffffffffffffffffffffffffffffffff82169050919050565b600061244e82612423565b9050919050565b61245e81612443565b811461246957600080fd5b50565b60008135905061247b81612455565b92915050565b6000602082840312156124975761249661239d565b5b60006124a58482850161246c565b91505092915050565b600081519050919050565b600082825260208201905092915050565b6000819050602082019050919050565b6124e3816123a7565b82525050565b600081519050919050565b600082825260208201905092915050565b60005b83811015612523578082015181840152602081019050612508565b60008484015250505050565b6000601f19601f8301169050919050565b600061254b826124e9565b61255581856124f4565b9350612565818560208601612505565b61256e8161252f565b840191505092915050565b600081519050919050565b600082825260208201905092915050565b6000819050602082019050919050565b60006125b18383612540565b905092915050565b6000602082019050919050565b60006125d182612579565b6125db8185612584565b9350836020820285016125ed85612595565b8060005b85811015612629578484038952815161260a85826125a5565b9450612615836125b9565b925060208a019950506001810190506125f1565b50829750879550505050505092915050565b60008115159050919050565b6126508161263b565b82525050565b60006101408301600083015161266f60008601826124da565b50602083015161268260208601826124da565b50604083015161269560408601826124da565b5060608301516126a860608601826124da565b50608083015184820360808601526126c08282612540565b91505060a083015184820360a08601526126da8282612540565b91505060c083015184820360c08601526126f48282612540565b91505060e083015184820360e086015261270e8282612540565b91505061010083015184820361010086015261272a82826125c6565b915050610120830151612741610120860182612647565b508091505092915050565b60006127588383612656565b905092915050565b6000602082019050919050565b6000612778826124ae565b61278281856124b9565b935083602082028501612794856124ca565b8060005b858110156127d057848403895281516127b1858261274c565b94506127bc83612760565b925060208a01995050600181019050612798565b50829750879550505050505092915050565b600060208201905081810360008301526127fc818461276d565b905092915050565b60006020828403121561281a5761281961239d565b5b6000612828848285016123ce565b91505092915050565b61283a81612443565b82525050565b60006020820190506128556000830184612831565b92915050565b6000819050919050565b61286e8161285b565b811461287957600080fd5b50565b60008135905061288b81612865565b92915050565b6000602082840312156128a7576128a661239d565b5b60006128b58482850161287c565b91505092915050565b6000610140830160008301516128d760008601826124da565b5060208301516128ea60208601826124da565b5060408301516128fd60408601826124da565b50606083015161291060608601826124da565b50608083015184820360808601526129288282612540565b91505060a083015184820360a08601526129428282612540565b91505060c083015184820360c086015261295c8282612540565b91505060e083015184820360e08601526129768282612540565b91505061010083015184820361010086015261299282826125c6565b9150506101208301516129a9610120860182612647565b508091505092915050565b600060208201905081810360008301526129ce81846128be565b905092915050565b6129df8161263b565b82525050565b60006020820190506129fa60008301846129d6565b92915050565b600080fd5b600080fd5b7f4e487b7100000000000000000000000000000000000000000000000000000000600052604160045260246000fd5b612a428261252f565b810181811067ffffffffffffffff82111715612a6157612a60612a0a565b5b80604052505050565b6000612a74612393565b9050612a808282612a39565b919050565b600067ffffffffffffffff821115612aa057612a9f612a0a565b5b612aa98261252f565b9050602081019050919050565b82818337600083830152505050565b6000612ad8612ad384612a85565b612a6a565b905082815260208101848484011115612af457612af3612a05565b5b612aff848285612ab6565b509392505050565b600082601f830112612b1c57612b1b612a00565b5b8135612b2c848260208601612ac5565b91505092915050565b600067ffffffffffffffff821115612b5057612b4f612a0a565b5b602082029050602081019050919050565b600080fd5b6000612b79612b7484612b35565b612a6a565b90508083825260208201905060208402830185811115612b9c57612b9b612b61565b5b835b81811015612be357803567ffffffffffffffff811115612bc157612bc0612a00565b5b808601612bce8982612b07565b85526020850194505050602081019050612b9e565b5050509392505050565b600082601f830112612c0257612c01612a00565b5b8135612c12848260208601612b66565b91505092915050565b612c248161263b565b8114612c2f57600080fd5b50565b600081359050612c4181612c1b565b92915050565b60008060008060008060008060006101208a8c031215612c6a57612c6961239d565b5b6000612c788c828d016123ce565b9950506020612c898c828d016123ce565b9850506040612c9a8c828d016123ce565b97505060608a013567ffffffffffffffff811115612cbb57612cba6123a2565b5b612cc78c828d01612b07565b96505060808a013567ffffffffffffffff811115612ce857612ce76123a2565b5b612cf48c828d01612b07565b95505060a08a013567ffffffffffffffff811115612d1557612d146123a2565b5b612d218c828d01612b07565b94505060c08a013567ffffffffffffffff811115612d4257612d416123a2565b5b612d4e8c828d01612b07565b93505060e08a013567ffffffffffffffff811115612d6f57612d6e6123a2565b5b612d7b8c828d01612bed565b925050610100612d8d8c828d01612c32565b9150509295985092959850929598565b612da6816123a7565b82525050565b600082825260208201905092915050565b6000612dc8826124e9565b612dd28185612dac565b9350612de2818560208601612505565b612deb8161252f565b840191505092915050565b600061012082019050612e0c600083018c612d9d565b612e19602083018b612d9d565b612e26604083018a612d9d565b612e336060830189612d9d565b8181036080830152612e458188612dbd565b905081810360a0830152612e598187612dbd565b905081810360c0830152612e6d8186612dbd565b905081810360e0830152612e818185612dbd565b9050612e916101008301846129d6565b9a9950505050505050505050565b7f546861742773206e6f7420796f20636172000000000000000000000000000000600082015250565b6000612ed5601183612dac565b9150612ee082612e9f565b602082019050919050565b60006020820190508181036000830152612f0481612ec8565b9050919050565b7f4e487b7100000000000000000000000000000000000000000000000000000000600052603260045260246000fd5b7f546865206e6577206d696c616765206d75737420626520686967686572204f5560008201527f4c45480000000000000000000000000000000000000000000000000000000000602082015250565b6000612f96602383612dac565b9150612fa182612f3a565b604082019050919050565b60006020820190508181036000830152612fc581612f89565b9050919050565b7f4e487b7100000000000000000000000000000000000000000000000000000000600052602260045260246000fd5b6000600282049050600182168061301357607f821691505b60208210810361302657613025612fcc565b5b50919050565b7f4e487b7100000000000000000000000000000000000000000000000000000000600052601160045260246000fd5b60006130668261285b565b91507fffffffffffffffffffffffffffffffffffffffffffffffffffffffffffffffff82036130985761309761302c565b5b600182019050919050565b7f536f6d65206669656c64732077657265206e6f7420636f72726563746c79206660008201527f696c6c656420696e2e0000000000000000000000000000000000000000000000602082015250565b60006130ff602983612dac565b915061310a826130a3565b604082019050919050565b6000602082019050818103600083015261312e816130f2565b9050919050565b60008190508160005260206000209050919050565b60006020601f8301049050919050565b600082821b905092915050565b6000600883026131977fffffffffffffffffffffffffffffffffffffffffffffffffffffffffffffffff8261315a565b6131a1868361315a565b95508019841693508086168417925050509392505050565b6000819050919050565b60006131de6131d96131d48461285b565b6131b9565b61285b565b9050919050565b6000819050919050565b6131f8836131c3565b61320c613204826131e5565b848454613167565b825550505050565b600090565b613221613214565b61322c8184846131ef565b505050565b5b8181101561325057613245600082613219565b600181019050613232565b5050565b601f8211156132955761326681613135565b61326f8461314a565b8101602085101561327e578190505b61329261328a8561314a565b830182613231565b50505b505050565b600082821c905092915050565b60006132b86000198460080261329a565b1980831691505092915050565b60006132d183836132a7565b9150826002028217905092915050565b6132ea826124e9565b67ffffffffffffffff81111561330357613302612a0a565b5b61330d8254612ffb565b613318828285613254565b600060209050601f83116001811461334b5760008415613339578287015190505b61334385826132c5565b8655506133ab565b601f19841661335986613135565b60005b828110156133815784890151825560018201915060208501945060208101905061335c565b8683101561339e578489015161339a601f8916826132a7565b8355505b6001600288020188555050505b505050505050565b60006133be8261285b565b91506133c98361285b565b92508282019050808211156133e1576133e061302c565b5b92915050565b7f4e487b7100000000000000000000000000000000000000000000000000000000600052600160045260246000fdfea2646970667358221220d7b1704d8cd79d93484083957e0cc4d131596a86d464267a9ff3099894ff9b5164736f6c63430008120033",
  "linkReferences": {},
  "deployedLinkReferences": {}
}