{
  "_format": "hh-sol-artifact-1",
  "contractName": "CarDetails",
  "sourceName": "contracts/cardetails.sol",
  "abi": [
    {
      "anonymous": false,
      "inputs": [
        {
          "components": [
            {
              "internalType": "uint32",
              "name": "id",
              "type": "uint32"
            },
            {
              "internalType": "uint32",
              "name": "chassisNumber",
              "type": "uint32"
            },
            {
              "internalType": "uint32",
              "name": "mileage",
              "type": "uint32"
            },
            {
              "internalType": "uint32",
              "name": "price",
              "type": "uint32"
            },
            {
              "internalType": "string",
              "name": "licensePlate",
              "type": "string"
            },
            {
              "internalType": "string",
              "name": "brand",
              "type": "string"
            },
            {
              "internalType": "string",
              "name": "carType",
              "type": "string"
            },
            {
              "internalType": "string",
              "name": "colour",
              "type": "string"
            },
            {
              "internalType": "string[]",
              "name": "pictures",
              "type": "string[]"
            },
            {
              "internalType": "bool",
              "name": "isForSale",
              "type": "bool"
            }
          ],
          "indexed": false,
          "internalType": "struct CarDetails.Car",
          "name": "car",
          "type": "tuple"
        }
      ],
      "name": "NewCar",
      "type": "event"
    },
    {
      "anonymous": false,
      "inputs": [
        {
          "indexed": true,
          "internalType": "address",
          "name": "previousOwner",
          "type": "address"
        },
        {
          "indexed": true,
          "internalType": "address",
          "name": "newOwner",
          "type": "address"
        }
      ],
      "name": "OwnershipTransferred",
      "type": "event"
    },
    {
      "inputs": [
        {
          "internalType": "uint32",
          "name": "",
          "type": "uint32"
        }
      ],
      "name": "carToOwner",
      "outputs": [
        {
          "internalType": "address",
          "name": "",
          "type": "address"
        }
      ],
      "stateMutability": "view",
      "type": "function"
    },
    {
      "inputs": [
        {
          "internalType": "uint256",
          "name": "",
          "type": "uint256"
        }
      ],
      "name": "cars",
      "outputs": [
        {
          "internalType": "uint32",
          "name": "id",
          "type": "uint32"
        },
        {
          "internalType": "uint32",
          "name": "chassisNumber",
          "type": "uint32"
        },
        {
          "internalType": "uint32",
          "name": "mileage",
          "type": "uint32"
        },
        {
          "internalType": "uint32",
          "name": "price",
          "type": "uint32"
        },
        {
          "internalType": "string",
          "name": "licensePlate",
          "type": "string"
        },
        {
          "internalType": "string",
          "name": "brand",
          "type": "string"
        },
        {
          "internalType": "string",
          "name": "carType",
          "type": "string"
        },
        {
          "internalType": "string",
          "name": "colour",
          "type": "string"
        },
        {
          "internalType": "bool",
          "name": "isForSale",
          "type": "bool"
        }
      ],
      "stateMutability": "view",
      "type": "function"
    },
    {
      "inputs": [
        {
          "internalType": "uint32",
          "name": "_chassisNumber",
          "type": "uint32"
        },
        {
          "internalType": "uint32",
          "name": "_mileage",
          "type": "uint32"
        },
        {
          "internalType": "uint32",
          "name": "_price",
          "type": "uint32"
        },
        {
          "internalType": "string",
          "name": "_licensePlate",
          "type": "string"
        },
        {
          "internalType": "string",
          "name": "_brand",
          "type": "string"
        },
        {
          "internalType": "string",
          "name": "_carType",
          "type": "string"
        },
        {
          "internalType": "string",
          "name": "_colour",
          "type": "string"
        },
        {
          "internalType": "string[]",
          "name": "_pictures",
          "type": "string[]"
        },
        {
          "internalType": "bool",
          "name": "_isForSale",
          "type": "bool"
        }
      ],
      "name": "createCar",
      "outputs": [],
      "stateMutability": "nonpayable",
      "type": "function"
    },
    {
      "inputs": [
        {
          "internalType": "uint32",
          "name": "_carId",
          "type": "uint32"
        }
      ],
      "name": "deleteCar",
      "outputs": [],
      "stateMutability": "nonpayable",
      "type": "function"
    },
    {
      "inputs": [
        {
          "internalType": "address",
          "name": "_owner",
          "type": "address"
        }
      ],
      "name": "getAllCarsForOwner",
      "outputs": [
        {
          "components": [
            {
              "internalType": "uint32",
              "name": "id",
              "type": "uint32"
            },
            {
              "internalType": "uint32",
              "name": "chassisNumber",
              "type": "uint32"
            },
            {
              "internalType": "uint32",
              "name": "mileage",
              "type": "uint32"
            },
            {
              "internalType": "uint32",
              "name": "price",
              "type": "uint32"
            },
            {
              "internalType": "string",
              "name": "licensePlate",
              "type": "string"
            },
            {
              "internalType": "string",
              "name": "brand",
              "type": "string"
            },
            {
              "internalType": "string",
              "name": "carType",
              "type": "string"
            },
            {
              "internalType": "string",
              "name": "colour",
              "type": "string"
            },
            {
              "internalType": "string[]",
              "name": "pictures",
              "type": "string[]"
            },
            {
              "internalType": "bool",
              "name": "isForSale",
              "type": "bool"
            }
          ],
          "internalType": "struct CarDetails.Car[]",
          "name": "",
          "type": "tuple[]"
        }
      ],
      "stateMutability": "view",
      "type": "function"
    },
    {
      "inputs": [
        {
          "internalType": "uint256",
          "name": "_carId",
          "type": "uint256"
        }
      ],
      "name": "getCar",
      "outputs": [
        {
          "components": [
            {
              "internalType": "uint32",
              "name": "id",
              "type": "uint32"
            },
            {
              "internalType": "uint32",
              "name": "chassisNumber",
              "type": "uint32"
            },
            {
              "internalType": "uint32",
              "name": "mileage",
              "type": "uint32"
            },
            {
              "internalType": "uint32",
              "name": "price",
              "type": "uint32"
            },
            {
              "internalType": "string",
              "name": "licensePlate",
              "type": "string"
            },
            {
              "internalType": "string",
              "name": "brand",
              "type": "string"
            },
            {
              "internalType": "string",
              "name": "carType",
              "type": "string"
            },
            {
              "internalType": "string",
              "name": "colour",
              "type": "string"
            },
            {
              "internalType": "string[]",
              "name": "pictures",
              "type": "string[]"
            },
            {
              "internalType": "bool",
              "name": "isForSale",
              "type": "bool"
            }
          ],
          "internalType": "struct CarDetails.Car",
          "name": "",
          "type": "tuple"
        }
      ],
      "stateMutability": "view",
      "type": "function"
    },
    {
      "inputs": [],
      "name": "isOwner",
      "outputs": [
        {
          "internalType": "bool",
          "name": "",
          "type": "bool"
        }
      ],
      "stateMutability": "view",
      "type": "function"
    },
    {
      "inputs": [],
      "name": "owner",
      "outputs": [
        {
          "internalType": "address",
          "name": "",
          "type": "address"
        }
      ],
      "stateMutability": "view",
      "type": "function"
    },
    {
      "inputs": [],
      "name": "renounceOwnership",
      "outputs": [],
      "stateMutability": "nonpayable",
      "type": "function"
    },
    {
      "inputs": [
        {
          "internalType": "uint256",
          "name": "_carId",
          "type": "uint256"
        }
      ],
      "name": "toggleSaleState",
      "outputs": [],
      "stateMutability": "nonpayable",
      "type": "function"
    },
    {
      "inputs": [
        {
          "internalType": "address",
          "name": "newOwner",
          "type": "address"
        }
      ],
      "name": "transferOwnership",
      "outputs": [],
      "stateMutability": "nonpayable",
      "type": "function"
    },
    {
      "inputs": [
        {
          "internalType": "uint256",
          "name": "_carId",
          "type": "uint256"
        },
        {
          "internalType": "uint32",
          "name": "_newMileage",
          "type": "uint32"
        }
      ],
      "name": "updateMileage",
      "outputs": [],
      "stateMutability": "nonpayable",
      "type": "function"
    },
    {
      "inputs": [
        {
          "internalType": "uint256",
          "name": "_carId",
          "type": "uint256"
        },
        {
          "internalType": "uint32",
          "name": "_newPrice",
          "type": "uint32"
        }
      ],
      "name": "updatePrice",
      "outputs": [],
      "stateMutability": "nonpayable",
      "type": "function"
    }
  ],
  "bytecode": "0x608060405234801561001057600080fd5b50336000806101000a81548173ffffffffffffffffffffffffffffffffffffffff021916908373ffffffffffffffffffffffffffffffffffffffff16021790555060008054906101000a900473ffffffffffffffffffffffffffffffffffffffff1673ffffffffffffffffffffffffffffffffffffffff16600073ffffffffffffffffffffffffffffffffffffffff167f8be0079c531659141344cd1fd0a4f28419497f9722a3daafe3b4186f6b6457e060405160405180910390a36129e1806100db6000396000f3fe608060405234801561001057600080fd5b50600436106100cf5760003560e01c80638f32d59b1161008c578063d4d942ec11610066578063d4d942ec146101fe578063f2fde38b1461021a578063f7746e3614610236578063f95fe25b1461026e576100cf565b80638f32d59b1461019457806391a20776146101b2578063b275decc146101e2576100cf565b80632286c0c1146100d45780635e8be19014610104578063628dd13e14610134578063715018a6146101505780637edffa531461015a5780638da5cb5b14610176575b600080fd5b6100ee60048036038101906100e99190611a2c565b61028a565b6040516100fb9190611d9d565b60405180910390f35b61011e60048036038101906101199190611df5565b6107f3565b60405161012b9190611f18565b60405180910390f35b61014e60048036038101906101499190611df5565b610c04565b005b610158610c88565b005b610174600480360381019061016f9190611f66565b610d57565b005b61017e610e33565b60405161018b9190611fb5565b60405180910390f35b61019c610e5c565b6040516101a99190611fdf565b60405180910390f35b6101cc60048036038101906101c79190611ffa565b610eb3565b6040516101d99190611fb5565b60405180910390f35b6101fc60048036038101906101f79190611ffa565b610ee6565b005b6102186004803603810190610213919061226e565b6110ea565b005b610234600480360381019061022f9190611a2c565b6113ef565b005b610250600480360381019061024b9190611df5565b61140c565b6040516102659998979695949392919061241d565b60405180910390f35b61028860048036038101906102839190611f66565b6116d7565b005b60606000600360008473ffffffffffffffffffffffffffffffffffffffff1673ffffffffffffffffffffffffffffffffffffffff1681526020019081526020016000205467ffffffffffffffff8111156102e7576102e6612031565b5b60405190808252806020026020018201604052801561032057816020015b61030d611852565b8152602001906001900390816103055790505b5090506000805b6001805490508110156107e8578473ffffffffffffffffffffffffffffffffffffffff16600260008363ffffffff1663ffffffff16815260200190815260200160002060009054906101000a900473ffffffffffffffffffffffffffffffffffffffff1673ffffffffffffffffffffffffffffffffffffffff16036107d557600181815481106103ba576103b96124c6565b5b9060005260206000209060070201604051806101400160405290816000820160009054906101000a900463ffffffff1663ffffffff1663ffffffff1681526020016000820160049054906101000a900463ffffffff1663ffffffff1663ffffffff1681526020016000820160089054906101000a900463ffffffff1663ffffffff1663ffffffff16815260200160008201600c9054906101000a900463ffffffff1663ffffffff1663ffffffff16815260200160018201805461047c90612524565b80601f01602080910402602001604051908101604052809291908181526020018280546104a890612524565b80156104f55780601f106104ca576101008083540402835291602001916104f5565b820191906000526020600020905b8154815290600101906020018083116104d857829003601f168201915b5050505050815260200160028201805461050e90612524565b80601f016020809104026020016040519081016040528092919081815260200182805461053a90612524565b80156105875780601f1061055c57610100808354040283529160200191610587565b820191906000526020600020905b81548152906001019060200180831161056a57829003601f168201915b505050505081526020016003820180546105a090612524565b80601f01602080910402602001604051908101604052809291908181526020018280546105cc90612524565b80156106195780601f106105ee57610100808354040283529160200191610619565b820191906000526020600020905b8154815290600101906020018083116105fc57829003601f168201915b5050505050815260200160048201805461063290612524565b80601f016020809104026020016040519081016040528092919081815260200182805461065e90612524565b80156106ab5780601f10610680576101008083540402835291602001916106ab565b820191906000526020600020905b81548152906001019060200180831161068e57829003601f168201915b5050505050815260200160058201805480602002602001604051908101604052809291908181526020016000905b828210156107855783829060005260206000200180546106f890612524565b80601f016020809104026020016040519081016040528092919081815260200182805461072490612524565b80156107715780601f1061074657610100808354040283529160200191610771565b820191906000526020600020905b81548152906001019060200180831161075457829003601f168201915b5050505050815260200190600101906106d9565b5050505081526020016006820160009054906101000a900460ff1615151515815250508383815181106107bb576107ba6124c6565b5b602002602001018190525081806107d190612584565b9250505b80806107e090612584565b915050610327565b508192505050919050565b6107fb611852565b6001828154811061080f5761080e6124c6565b5b9060005260206000209060070201604051806101400160405290816000820160009054906101000a900463ffffffff1663ffffffff1663ffffffff1681526020016000820160049054906101000a900463ffffffff1663ffffffff1663ffffffff1681526020016000820160089054906101000a900463ffffffff1663ffffffff1663ffffffff16815260200160008201600c9054906101000a900463ffffffff1663ffffffff1663ffffffff1681526020016001820180546108d190612524565b80601f01602080910402602001604051908101604052809291908181526020018280546108fd90612524565b801561094a5780601f1061091f5761010080835404028352916020019161094a565b820191906000526020600020905b81548152906001019060200180831161092d57829003601f168201915b5050505050815260200160028201805461096390612524565b80601f016020809104026020016040519081016040528092919081815260200182805461098f90612524565b80156109dc5780601f106109b1576101008083540402835291602001916109dc565b820191906000526020600020905b8154815290600101906020018083116109bf57829003601f168201915b505050505081526020016003820180546109f590612524565b80601f0160208091040260200160405190810160405280929190818152602001828054610a2190612524565b8015610a6e5780601f10610a4357610100808354040283529160200191610a6e565b820191906000526020600020905b815481529060010190602001808311610a5157829003601f168201915b50505050508152602001600482018054610a8790612524565b80601f0160208091040260200160405190810160405280929190818152602001828054610ab390612524565b8015610b005780601f10610ad557610100808354040283529160200191610b00565b820191906000526020600020905b815481529060010190602001808311610ae357829003601f168201915b5050505050815260200160058201805480602002602001604051908101604052809291908181526020016000905b82821015610bda578382906000526020600020018054610b4d90612524565b80601f0160208091040260200160405190810160405280929190818152602001828054610b7990612524565b8015610bc65780601f10610b9b57610100808354040283529160200191610bc6565b820191906000526020600020905b815481529060010190602001808311610ba957829003601f168201915b505050505081526020019060010190610b2e565b5050505081526020016006820160009054906101000a900460ff1615151515815250509050919050565b610c0c610e5c565b610c1557600080fd5b60018181548110610c2957610c286124c6565b5b906000526020600020906007020160060160009054906101000a900460ff161560018281548110610c5d57610c5c6124c6565b5b906000526020600020906007020160060160006101000a81548160ff02191690831515021790555050565b610c90610e5c565b610c9957600080fd5b600073ffffffffffffffffffffffffffffffffffffffff1660008054906101000a900473ffffffffffffffffffffffffffffffffffffffff1673ffffffffffffffffffffffffffffffffffffffff167f8be0079c531659141344cd1fd0a4f28419497f9722a3daafe3b4186f6b6457e060405160405180910390a360008060006101000a81548173ffffffffffffffffffffffffffffffffffffffff021916908373ffffffffffffffffffffffffffffffffffffffff160217905550565b610d5f610e5c565b610d6857600080fd5b60018281548110610d7c57610d7b6124c6565b5b906000526020600020906007020160000160089054906101000a900463ffffffff1663ffffffff168163ffffffff1611610deb576040517f08c379a0000000000000000000000000000000000000000000000000000000008152600401610de29061263e565b60405180910390fd5b8060018381548110610e0057610dff6124c6565b5b906000526020600020906007020160000160086101000a81548163ffffffff021916908363ffffffff1602179055505050565b60008060009054906101000a900473ffffffffffffffffffffffffffffffffffffffff16905090565b60008060009054906101000a900473ffffffffffffffffffffffffffffffffffffffff1673ffffffffffffffffffffffffffffffffffffffff163373ffffffffffffffffffffffffffffffffffffffff1614905090565b60026020528060005260406000206000915054906101000a900473ffffffffffffffffffffffffffffffffffffffff1681565b80600260008263ffffffff1663ffffffff16815260200190815260200160002060009054906101000a900473ffffffffffffffffffffffffffffffffffffffff1673ffffffffffffffffffffffffffffffffffffffff163373ffffffffffffffffffffffffffffffffffffffff1614610f94576040517f08c379a0000000000000000000000000000000000000000000000000000000008152600401610f8b906126aa565b60405180910390fd5b60005b6001805490508110156110e5578263ffffffff1660018281548110610fbf57610fbe6124c6565b5b906000526020600020906007020160000160009054906101000a900463ffffffff1663ffffffff16036110d2576001818154811061100057610fff6124c6565b5b9060005260206000209060070201600080820160006101000a81549063ffffffff02191690556000820160046101000a81549063ffffffff02191690556000820160086101000a81549063ffffffff021916905560008201600c6101000a81549063ffffffff021916905560018201600061107b91906118bf565b60028201600061108b91906118bf565b60038201600061109b91906118bf565b6004820160006110ab91906118bf565b6005820160006110bb91906118ff565b6006820160006101000a81549060ff021916905550505b80806110dd90612584565b915050610f97565b505050565b600060405180610140016040528060018054905063ffffffff1681526020018b63ffffffff1681526020018a63ffffffff1681526020018963ffffffff1681526020018881526020018781526020018681526020018581526020018481526020018315158152509050600181908060018154018082558091505060019003906000526020600020906007020160009091909190915060008201518160000160006101000a81548163ffffffff021916908363ffffffff16021790555060208201518160000160046101000a81548163ffffffff021916908363ffffffff16021790555060408201518160000160086101000a81548163ffffffff021916908363ffffffff160217905550606082015181600001600c6101000a81548163ffffffff021916908363ffffffff16021790555060808201518160010190816112309190612876565b5060a08201518160020190816112469190612876565b5060c082015181600301908161125c9190612876565b5060e08201518160040190816112729190612876565b50610100820151816005019080519060200190611290929190611920565b506101208201518160060160006101000a81548160ff02191690831515021790555050503360026000836000015163ffffffff1663ffffffff16815260200190815260200160002060006101000a81548173ffffffffffffffffffffffffffffffffffffffff021916908373ffffffffffffffffffffffffffffffffffffffff1602179055506113696001600360003373ffffffffffffffffffffffffffffffffffffffff1673ffffffffffffffffffffffffffffffffffffffff1681526020019081526020016000205461173090919063ffffffff16565b600360003373ffffffffffffffffffffffffffffffffffffffff1673ffffffffffffffffffffffffffffffffffffffff168152602001908152602001600020819055507f1a1d86e0f039b69dc75a6a99b30e291a372ccdcae3c35990cc416065bf727778816040516113db9190611f18565b60405180910390a150505050505050505050565b6113f7610e5c565b61140057600080fd5b6114098161175c565b50565b6001818154811061141c57600080fd5b90600052602060002090600702016000915090508060000160009054906101000a900463ffffffff16908060000160049054906101000a900463ffffffff16908060000160089054906101000a900463ffffffff169080600001600c9054906101000a900463ffffffff169080600101805461149790612524565b80601f01602080910402602001604051908101604052809291908181526020018280546114c390612524565b80156115105780601f106114e557610100808354040283529160200191611510565b820191906000526020600020905b8154815290600101906020018083116114f357829003601f168201915b50505050509080600201805461152590612524565b80601f016020809104026020016040519081016040528092919081815260200182805461155190612524565b801561159e5780601f106115735761010080835404028352916020019161159e565b820191906000526020600020905b81548152906001019060200180831161158157829003601f168201915b5050505050908060030180546115b390612524565b80601f01602080910402602001604051908101604052809291908181526020018280546115df90612524565b801561162c5780601f106116015761010080835404028352916020019161162c565b820191906000526020600020905b81548152906001019060200180831161160f57829003601f168201915b50505050509080600401805461164190612524565b80601f016020809104026020016040519081016040528092919081815260200182805461166d90612524565b80156116ba5780601f1061168f576101008083540402835291602001916116ba565b820191906000526020600020905b81548152906001019060200180831161169d57829003601f168201915b5050505050908060060160009054906101000a900460ff16905089565b6116df610e5c565b6116e857600080fd5b80600183815481106116fd576116fc6124c6565b5b9060005260206000209060070201600001600c6101000a81548163ffffffff021916908363ffffffff1602179055505050565b600080828461173f9190612948565b9050838110156117525761175161297c565b5b8091505092915050565b600073ffffffffffffffffffffffffffffffffffffffff168173ffffffffffffffffffffffffffffffffffffffff160361179557600080fd5b8073ffffffffffffffffffffffffffffffffffffffff1660008054906101000a900473ffffffffffffffffffffffffffffffffffffffff1673ffffffffffffffffffffffffffffffffffffffff167f8be0079c531659141344cd1fd0a4f28419497f9722a3daafe3b4186f6b6457e060405160405180910390a3806000806101000a81548173ffffffffffffffffffffffffffffffffffffffff021916908373ffffffffffffffffffffffffffffffffffffffff16021790555050565b604051806101400160405280600063ffffffff168152602001600063ffffffff168152602001600063ffffffff168152602001600063ffffffff16815260200160608152602001606081526020016060815260200160608152602001606081526020016000151581525090565b5080546118cb90612524565b6000825580601f106118dd57506118fc565b601f0160209004906000526020600020908101906118fb9190611979565b5b50565b508054600082559060005260206000209081019061191d9190611996565b50565b828054828255906000526020600020908101928215611968579160200282015b828111156119675782518290816119579190612876565b5091602001919060010190611940565b5b5090506119759190611996565b5090565b5b8082111561199257600081600090555060010161197a565b5090565b5b808211156119b657600081816119ad91906118bf565b50600101611997565b5090565b6000604051905090565b600080fd5b600080fd5b600073ffffffffffffffffffffffffffffffffffffffff82169050919050565b60006119f9826119ce565b9050919050565b611a09816119ee565b8114611a1457600080fd5b50565b600081359050611a2681611a00565b92915050565b600060208284031215611a4257611a416119c4565b5b6000611a5084828501611a17565b91505092915050565b600081519050919050565b600082825260208201905092915050565b6000819050602082019050919050565b600063ffffffff82169050919050565b611a9e81611a85565b82525050565b600081519050919050565b600082825260208201905092915050565b60005b83811015611ade578082015181840152602081019050611ac3565b60008484015250505050565b6000601f19601f8301169050919050565b6000611b0682611aa4565b611b108185611aaf565b9350611b20818560208601611ac0565b611b2981611aea565b840191505092915050565b600081519050919050565b600082825260208201905092915050565b6000819050602082019050919050565b6000611b6c8383611afb565b905092915050565b6000602082019050919050565b6000611b8c82611b34565b611b968185611b3f565b935083602082028501611ba885611b50565b8060005b85811015611be45784840389528151611bc58582611b60565b9450611bd083611b74565b925060208a01995050600181019050611bac565b50829750879550505050505092915050565b60008115159050919050565b611c0b81611bf6565b82525050565b600061014083016000830151611c2a6000860182611a95565b506020830151611c3d6020860182611a95565b506040830151611c506040860182611a95565b506060830151611c636060860182611a95565b5060808301518482036080860152611c7b8282611afb565b91505060a083015184820360a0860152611c958282611afb565b91505060c083015184820360c0860152611caf8282611afb565b91505060e083015184820360e0860152611cc98282611afb565b915050610100830151848203610100860152611ce58282611b81565b915050610120830151611cfc610120860182611c02565b508091505092915050565b6000611d138383611c11565b905092915050565b6000602082019050919050565b6000611d3382611a59565b611d3d8185611a64565b935083602082028501611d4f85611a75565b8060005b85811015611d8b5784840389528151611d6c8582611d07565b9450611d7783611d1b565b925060208a01995050600181019050611d53565b50829750879550505050505092915050565b60006020820190508181036000830152611db78184611d28565b905092915050565b6000819050919050565b611dd281611dbf565b8114611ddd57600080fd5b50565b600081359050611def81611dc9565b92915050565b600060208284031215611e0b57611e0a6119c4565b5b6000611e1984828501611de0565b91505092915050565b600061014083016000830151611e3b6000860182611a95565b506020830151611e4e6020860182611a95565b506040830151611e616040860182611a95565b506060830151611e746060860182611a95565b5060808301518482036080860152611e8c8282611afb565b91505060a083015184820360a0860152611ea68282611afb565b91505060c083015184820360c0860152611ec08282611afb565b91505060e083015184820360e0860152611eda8282611afb565b915050610100830151848203610100860152611ef68282611b81565b915050610120830151611f0d610120860182611c02565b508091505092915050565b60006020820190508181036000830152611f328184611e22565b905092915050565b611f4381611a85565b8114611f4e57600080fd5b50565b600081359050611f6081611f3a565b92915050565b60008060408385031215611f7d57611f7c6119c4565b5b6000611f8b85828601611de0565b9250506020611f9c85828601611f51565b9150509250929050565b611faf816119ee565b82525050565b6000602082019050611fca6000830184611fa6565b92915050565b611fd981611bf6565b82525050565b6000602082019050611ff46000830184611fd0565b92915050565b6000602082840312156120105761200f6119c4565b5b600061201e84828501611f51565b91505092915050565b600080fd5b600080fd5b7f4e487b7100000000000000000000000000000000000000000000000000000000600052604160045260246000fd5b61206982611aea565b810181811067ffffffffffffffff8211171561208857612087612031565b5b80604052505050565b600061209b6119ba565b90506120a78282612060565b919050565b600067ffffffffffffffff8211156120c7576120c6612031565b5b6120d082611aea565b9050602081019050919050565b82818337600083830152505050565b60006120ff6120fa846120ac565b612091565b90508281526020810184848401111561211b5761211a61202c565b5b6121268482856120dd565b509392505050565b600082601f83011261214357612142612027565b5b81356121538482602086016120ec565b91505092915050565b600067ffffffffffffffff82111561217757612176612031565b5b602082029050602081019050919050565b600080fd5b60006121a061219b8461215c565b612091565b905080838252602082019050602084028301858111156121c3576121c2612188565b5b835b8181101561220a57803567ffffffffffffffff8111156121e8576121e7612027565b5b8086016121f5898261212e565b855260208501945050506020810190506121c5565b5050509392505050565b600082601f83011261222957612228612027565b5b813561223984826020860161218d565b91505092915050565b61224b81611bf6565b811461225657600080fd5b50565b60008135905061226881612242565b92915050565b60008060008060008060008060006101208a8c031215612291576122906119c4565b5b600061229f8c828d01611f51565b99505060206122b08c828d01611f51565b98505060406122c18c828d01611f51565b97505060608a013567ffffffffffffffff8111156122e2576122e16119c9565b5b6122ee8c828d0161212e565b96505060808a013567ffffffffffffffff81111561230f5761230e6119c9565b5b61231b8c828d0161212e565b95505060a08a013567ffffffffffffffff81111561233c5761233b6119c9565b5b6123488c828d0161212e565b94505060c08a013567ffffffffffffffff811115612369576123686119c9565b5b6123758c828d0161212e565b93505060e08a013567ffffffffffffffff811115612396576123956119c9565b5b6123a28c828d01612214565b9250506101006123b48c828d01612259565b9150509295985092959850929598565b6123cd81611a85565b82525050565b600082825260208201905092915050565b60006123ef82611aa4565b6123f981856123d3565b9350612409818560208601611ac0565b61241281611aea565b840191505092915050565b600061012082019050612433600083018c6123c4565b612440602083018b6123c4565b61244d604083018a6123c4565b61245a60608301896123c4565b818103608083015261246c81886123e4565b905081810360a083015261248081876123e4565b905081810360c083015261249481866123e4565b905081810360e08301526124a881856123e4565b90506124b8610100830184611fd0565b9a9950505050505050505050565b7f4e487b7100000000000000000000000000000000000000000000000000000000600052603260045260246000fd5b7f4e487b7100000000000000000000000000000000000000000000000000000000600052602260045260246000fd5b6000600282049050600182168061253c57607f821691505b60208210810361254f5761254e6124f5565b5b50919050565b7f4e487b7100000000000000000000000000000000000000000000000000000000600052601160045260246000fd5b600061258f82611dbf565b91507fffffffffffffffffffffffffffffffffffffffffffffffffffffffffffffffff82036125c1576125c0612555565b5b600182019050919050565b7f546865206e6577206d696c616765206d75737420626520686967686572204f5560008201527f4c45480000000000000000000000000000000000000000000000000000000000602082015250565b60006126286023836123d3565b9150612633826125cc565b604082019050919050565b600060208201905081810360008301526126578161261b565b9050919050565b7f546861742773206e6f7420796f20636172000000000000000000000000000000600082015250565b60006126946011836123d3565b915061269f8261265e565b602082019050919050565b600060208201905081810360008301526126c381612687565b9050919050565b60008190508160005260206000209050919050565b60006020601f8301049050919050565b600082821b905092915050565b60006008830261272c7fffffffffffffffffffffffffffffffffffffffffffffffffffffffffffffffff826126ef565b61273686836126ef565b95508019841693508086168417925050509392505050565b6000819050919050565b600061277361276e61276984611dbf565b61274e565b611dbf565b9050919050565b6000819050919050565b61278d83612758565b6127a16127998261277a565b8484546126fc565b825550505050565b600090565b6127b66127a9565b6127c1818484612784565b505050565b5b818110156127e5576127da6000826127ae565b6001810190506127c7565b5050565b601f82111561282a576127fb816126ca565b612804846126df565b81016020851015612813578190505b61282761281f856126df565b8301826127c6565b50505b505050565b600082821c905092915050565b600061284d6000198460080261282f565b1980831691505092915050565b6000612866838361283c565b9150826002028217905092915050565b61287f82611aa4565b67ffffffffffffffff81111561289857612897612031565b5b6128a28254612524565b6128ad8282856127e9565b600060209050601f8311600181146128e057600084156128ce578287015190505b6128d8858261285a565b865550612940565b601f1984166128ee866126ca565b60005b82811015612916578489015182556001820191506020850194506020810190506128f1565b86831015612933578489015161292f601f89168261283c565b8355505b6001600288020188555050505b505050505050565b600061295382611dbf565b915061295e83611dbf565b925082820190508082111561297657612975612555565b5b92915050565b7f4e487b7100000000000000000000000000000000000000000000000000000000600052600160045260246000fdfea26469706673582212200d241daa78a48dc65f05e9f91ade869522a9b552872e2eddfaad79a799df2c4b64736f6c63430008110033",
  "linkReferences": {},
  "deployedLinkReferences": {}
}