{
  "_format": "hh-sol-artifact-1",
  "contractName": "CarOwnership",
  "sourceName": "contracts/carownership.sol",
  "abi": [
    {
      "anonymous": false,
      "inputs": [
        {
          "indexed": true,
          "internalType": "address",
          "name": "_owner",
          "type": "address"
        },
        {
          "indexed": true,
          "internalType": "address",
          "name": "_approved",
          "type": "address"
        },
        {
          "indexed": true,
          "internalType": "uint256",
          "name": "_tokenId",
          "type": "uint256"
        }
      ],
      "name": "Approval",
      "type": "event"
    },
    {
      "anonymous": false,
      "inputs": [
        {
          "components": [
            {
              "internalType": "uint32",
              "name": "id",
              "type": "uint32"
            },
            {
              "internalType": "uint32",
              "name": "chassisNumber",
              "type": "uint32"
            },
            {
              "internalType": "uint32",
              "name": "mileage",
              "type": "uint32"
            },
            {
              "internalType": "uint32",
              "name": "price",
              "type": "uint32"
            },
            {
              "internalType": "string",
              "name": "licensePlate",
              "type": "string"
            },
            {
              "internalType": "string",
              "name": "brand",
              "type": "string"
            },
            {
              "internalType": "string",
              "name": "carType",
              "type": "string"
            },
            {
              "internalType": "string",
              "name": "colour",
              "type": "string"
            },
            {
              "internalType": "string[]",
              "name": "pictures",
              "type": "string[]"
            },
            {
              "internalType": "bool",
              "name": "isForSale",
              "type": "bool"
            }
          ],
          "indexed": false,
          "internalType": "struct CarDetails.Car",
          "name": "car",
          "type": "tuple"
        }
      ],
      "name": "NewCar",
      "type": "event"
    },
    {
      "anonymous": false,
      "inputs": [
        {
          "indexed": true,
          "internalType": "address",
          "name": "previousOwner",
          "type": "address"
        },
        {
          "indexed": true,
          "internalType": "address",
          "name": "newOwner",
          "type": "address"
        }
      ],
      "name": "OwnershipTransferred",
      "type": "event"
    },
    {
      "anonymous": false,
      "inputs": [
        {
          "indexed": true,
          "internalType": "address",
          "name": "_from",
          "type": "address"
        },
        {
          "indexed": true,
          "internalType": "address",
          "name": "_to",
          "type": "address"
        },
        {
          "indexed": true,
          "internalType": "uint256",
          "name": "_tokenId",
          "type": "uint256"
        }
      ],
      "name": "Transfer",
      "type": "event"
    },
    {
      "inputs": [],
      "name": "addEtherToYourWallet",
      "outputs": [],
      "stateMutability": "payable",
      "type": "function"
    },
    {
      "inputs": [
        {
          "internalType": "address",
          "name": "_approved",
          "type": "address"
        },
        {
          "internalType": "uint256",
          "name": "_tokenId",
          "type": "uint256"
        }
      ],
      "name": "approve",
      "outputs": [],
      "stateMutability": "payable",
      "type": "function"
    },
    {
      "inputs": [
        {
          "internalType": "address",
          "name": "_owner",
          "type": "address"
        }
      ],
      "name": "balanceOf",
      "outputs": [
        {
          "internalType": "uint256",
          "name": "",
          "type": "uint256"
        }
      ],
      "stateMutability": "view",
      "type": "function"
    },
    {
      "inputs": [
        {
          "internalType": "uint32",
          "name": "",
          "type": "uint32"
        }
      ],
      "name": "carToOwner",
      "outputs": [
        {
          "internalType": "address",
          "name": "",
          "type": "address"
        }
      ],
      "stateMutability": "view",
      "type": "function"
    },
    {
      "inputs": [
        {
          "internalType": "uint256",
          "name": "",
          "type": "uint256"
        }
      ],
      "name": "cars",
      "outputs": [
        {
          "internalType": "uint32",
          "name": "id",
          "type": "uint32"
        },
        {
          "internalType": "uint32",
          "name": "chassisNumber",
          "type": "uint32"
        },
        {
          "internalType": "uint32",
          "name": "mileage",
          "type": "uint32"
        },
        {
          "internalType": "uint32",
          "name": "price",
          "type": "uint32"
        },
        {
          "internalType": "string",
          "name": "licensePlate",
          "type": "string"
        },
        {
          "internalType": "string",
          "name": "brand",
          "type": "string"
        },
        {
          "internalType": "string",
          "name": "carType",
          "type": "string"
        },
        {
          "internalType": "string",
          "name": "colour",
          "type": "string"
        },
        {
          "internalType": "bool",
          "name": "isForSale",
          "type": "bool"
        }
      ],
      "stateMutability": "view",
      "type": "function"
    },
    {
      "inputs": [
        {
          "internalType": "uint32",
          "name": "_chassisNumber",
          "type": "uint32"
        },
        {
          "internalType": "uint32",
          "name": "_mileage",
          "type": "uint32"
        },
        {
          "internalType": "uint32",
          "name": "_price",
          "type": "uint32"
        },
        {
          "internalType": "string",
          "name": "_licensePlate",
          "type": "string"
        },
        {
          "internalType": "string",
          "name": "_brand",
          "type": "string"
        },
        {
          "internalType": "string",
          "name": "_carType",
          "type": "string"
        },
        {
          "internalType": "string",
          "name": "_colour",
          "type": "string"
        },
        {
          "internalType": "string[]",
          "name": "_pictures",
          "type": "string[]"
        },
        {
          "internalType": "bool",
          "name": "_isForSale",
          "type": "bool"
        }
      ],
      "name": "createCar",
      "outputs": [],
      "stateMutability": "nonpayable",
      "type": "function"
    },
    {
      "inputs": [
        {
          "internalType": "uint32",
          "name": "_carId",
          "type": "uint32"
        }
      ],
      "name": "deleteCar",
      "outputs": [],
      "stateMutability": "nonpayable",
      "type": "function"
    },
    {
      "inputs": [
        {
          "internalType": "address",
          "name": "_owner",
          "type": "address"
        }
      ],
      "name": "getAllCarsForOwner",
      "outputs": [
        {
          "components": [
            {
              "internalType": "uint32",
              "name": "id",
              "type": "uint32"
            },
            {
              "internalType": "uint32",
              "name": "chassisNumber",
              "type": "uint32"
            },
            {
              "internalType": "uint32",
              "name": "mileage",
              "type": "uint32"
            },
            {
              "internalType": "uint32",
              "name": "price",
              "type": "uint32"
            },
            {
              "internalType": "string",
              "name": "licensePlate",
              "type": "string"
            },
            {
              "internalType": "string",
              "name": "brand",
              "type": "string"
            },
            {
              "internalType": "string",
              "name": "carType",
              "type": "string"
            },
            {
              "internalType": "string",
              "name": "colour",
              "type": "string"
            },
            {
              "internalType": "string[]",
              "name": "pictures",
              "type": "string[]"
            },
            {
              "internalType": "bool",
              "name": "isForSale",
              "type": "bool"
            }
          ],
          "internalType": "struct CarDetails.Car[]",
          "name": "",
          "type": "tuple[]"
        }
      ],
      "stateMutability": "view",
      "type": "function"
    },
    {
      "inputs": [
        {
          "internalType": "uint256",
          "name": "_carId",
          "type": "uint256"
        }
      ],
      "name": "getCar",
      "outputs": [
        {
          "components": [
            {
              "internalType": "uint32",
              "name": "id",
              "type": "uint32"
            },
            {
              "internalType": "uint32",
              "name": "chassisNumber",
              "type": "uint32"
            },
            {
              "internalType": "uint32",
              "name": "mileage",
              "type": "uint32"
            },
            {
              "internalType": "uint32",
              "name": "price",
              "type": "uint32"
            },
            {
              "internalType": "string",
              "name": "licensePlate",
              "type": "string"
            },
            {
              "internalType": "string",
              "name": "brand",
              "type": "string"
            },
            {
              "internalType": "string",
              "name": "carType",
              "type": "string"
            },
            {
              "internalType": "string",
              "name": "colour",
              "type": "string"
            },
            {
              "internalType": "string[]",
              "name": "pictures",
              "type": "string[]"
            },
            {
              "internalType": "bool",
              "name": "isForSale",
              "type": "bool"
            }
          ],
          "internalType": "struct CarDetails.Car",
          "name": "",
          "type": "tuple"
        }
      ],
      "stateMutability": "view",
      "type": "function"
    },
    {
      "inputs": [
        {
          "internalType": "uint32",
          "name": "_carId",
          "type": "uint32"
        }
      ],
      "name": "getCarOwner",
      "outputs": [
        {
          "internalType": "address",
          "name": "ownerAddress",
          "type": "address"
        }
      ],
      "stateMutability": "view",
      "type": "function"
    },
    {
      "inputs": [],
      "name": "getCarsForSale",
      "outputs": [
        {
          "components": [
            {
              "internalType": "uint32",
              "name": "id",
              "type": "uint32"
            },
            {
              "internalType": "uint32",
              "name": "chassisNumber",
              "type": "uint32"
            },
            {
              "internalType": "uint32",
              "name": "mileage",
              "type": "uint32"
            },
            {
              "internalType": "uint32",
              "name": "price",
              "type": "uint32"
            },
            {
              "internalType": "string",
              "name": "licensePlate",
              "type": "string"
            },
            {
              "internalType": "string",
              "name": "brand",
              "type": "string"
            },
            {
              "internalType": "string",
              "name": "carType",
              "type": "string"
            },
            {
              "internalType": "string",
              "name": "colour",
              "type": "string"
            },
            {
              "internalType": "string[]",
              "name": "pictures",
              "type": "string[]"
            },
            {
              "internalType": "bool",
              "name": "isForSale",
              "type": "bool"
            }
          ],
          "internalType": "struct CarDetails.Car[]",
          "name": "",
          "type": "tuple[]"
        }
      ],
      "stateMutability": "view",
      "type": "function"
    },
    {
      "inputs": [
        {
          "internalType": "address",
          "name": "_address",
          "type": "address"
        }
      ],
      "name": "getWalletBalance",
      "outputs": [
        {
          "internalType": "uint32",
          "name": "",
          "type": "uint32"
        }
      ],
      "stateMutability": "view",
      "type": "function"
    },
    {
      "inputs": [],
      "name": "isOwner",
      "outputs": [
        {
          "internalType": "bool",
          "name": "",
          "type": "bool"
        }
      ],
      "stateMutability": "view",
      "type": "function"
    },
    {
      "inputs": [],
      "name": "owner",
      "outputs": [
        {
          "internalType": "address",
          "name": "",
          "type": "address"
        }
      ],
      "stateMutability": "view",
      "type": "function"
    },
    {
      "inputs": [
        {
          "internalType": "uint256",
          "name": "_tokenId",
          "type": "uint256"
        }
      ],
      "name": "ownerOf",
      "outputs": [
        {
          "internalType": "address",
          "name": "",
          "type": "address"
        }
      ],
      "stateMutability": "view",
      "type": "function"
    },
    {
      "inputs": [],
      "name": "renounceOwnership",
      "outputs": [],
      "stateMutability": "nonpayable",
      "type": "function"
    },
    {
      "inputs": [
        {
          "internalType": "uint256",
          "name": "_carId",
          "type": "uint256"
        }
      ],
      "name": "toggleSaleState",
      "outputs": [],
      "stateMutability": "nonpayable",
      "type": "function"
    },
    {
      "inputs": [
        {
          "internalType": "address",
          "name": "_from",
          "type": "address"
        },
        {
          "internalType": "address",
          "name": "_to",
          "type": "address"
        },
        {
          "internalType": "uint256",
          "name": "_tokenId",
          "type": "uint256"
        }
      ],
      "name": "transferFrom",
      "outputs": [],
      "stateMutability": "payable",
      "type": "function"
    },
    {
      "inputs": [
        {
          "internalType": "address",
          "name": "newOwner",
          "type": "address"
        }
      ],
      "name": "transferOwnership",
      "outputs": [],
      "stateMutability": "nonpayable",
      "type": "function"
    },
    {
      "inputs": [
        {
          "internalType": "uint256",
          "name": "_carId",
          "type": "uint256"
        },
        {
          "internalType": "uint32",
          "name": "_newMileage",
          "type": "uint32"
        }
      ],
      "name": "updateMileage",
      "outputs": [],
      "stateMutability": "nonpayable",
      "type": "function"
    },
    {
      "inputs": [
        {
          "internalType": "uint256",
          "name": "_carId",
          "type": "uint256"
        },
        {
          "internalType": "uint32",
          "name": "_newPrice",
          "type": "uint32"
        }
      ],
      "name": "updatePrice",
      "outputs": [],
      "stateMutability": "nonpayable",
      "type": "function"
    },
    {
      "inputs": [],
      "name": "withdrawEtherFromWallet",
      "outputs": [],
      "stateMutability": "payable",
      "type": "function"
    }
  ],
  "bytecode": "0x608060405234801561001057600080fd5b50336000806101000a81548173ffffffffffffffffffffffffffffffffffffffff021916908373ffffffffffffffffffffffffffffffffffffffff16021790555060008054906101000a900473ffffffffffffffffffffffffffffffffffffffff1673ffffffffffffffffffffffffffffffffffffffff16600073ffffffffffffffffffffffffffffffffffffffff167f8be0079c531659141344cd1fd0a4f28419497f9722a3daafe3b4186f6b6457e060405160405180910390a3614455806100db6000396000f3fe6080604052600436106101355760003560e01c80637edffa53116100ab578063b275decc1161006f578063b275decc146103de578063d4d942ec14610407578063ed8ec19414610430578063f2fde38b1461046d578063f7746e3614610496578063f95fe25b146104db57610135565b80637edffa53146103185780638da5cb5b146103415780638f32d59b1461036c57806391a2077614610397578063adb71f51146103d457610135565b8063628dd13e116100fd578063628dd13e146102295780636352211e146102525780636ed2630e1461028f57806370a0823114610299578063715018a6146102d657806376b4646d146102ed57610135565b8063095ea7b31461013a5780632286c0c11461015657806323b872dd1461019357806339c98a1b146101af5780635e8be190146101ec575b600080fd5b610154600480360381019061014f9190612f83565b610504565b005b34801561016257600080fd5b5061017d60048036038101906101789190612fc3565b610664565b60405161018a9190613334565b60405180910390f35b6101ad60048036038101906101a89190613356565b610b96565b005b3480156101bb57600080fd5b506101d660048036038101906101d191906133d5565b610efd565b6040516101e39190613411565b60405180910390f35b3480156101f857600080fd5b50610213600480360381019061020e919061342c565b610f46565b604051610220919061354f565b60405180910390f35b34801561023557600080fd5b50610250600480360381019061024b919061342c565b611357565b005b34801561025e57600080fd5b506102796004803603810190610274919061342c565b6113db565b6040516102869190613411565b60405180910390f35b610297611424565b005b3480156102a557600080fd5b506102c060048036038101906102bb9190612fc3565b6115d6565b6040516102cd9190613580565b60405180910390f35b3480156102e257600080fd5b506102eb61161f565b005b3480156102f957600080fd5b506103026116ee565b60405161030f9190613334565b60405180910390f35b34801561032457600080fd5b5061033f600480360381019061033a919061359b565b611c5a565b005b34801561034d57600080fd5b50610356611d36565b6040516103639190613411565b60405180910390f35b34801561037857600080fd5b50610381611d5f565b60405161038e91906135ea565b60405180910390f35b3480156103a357600080fd5b506103be60048036038101906103b991906133d5565b611db6565b6040516103cb9190613411565b60405180910390f35b6103dc611de9565b005b3480156103ea57600080fd5b50610405600480360381019061040091906133d5565b611eb0565b005b34801561041357600080fd5b5061042e6004803603810190610429919061384c565b6120b4565b005b34801561043c57600080fd5b5061045760048036038101906104529190612fc3565b612461565b60405161046491906139b1565b60405180910390f35b34801561047957600080fd5b50610494600480360381019061048f9190612fc3565b6124ba565b005b3480156104a257600080fd5b506104bd60048036038101906104b8919061342c565b6124d7565b6040516104d299989796959493929190613a16565b60405180910390f35b3480156104e757600080fd5b5061050260048036038101906104fd919061359b565b6127a2565b005b80600260008263ffffffff1663ffffffff16815260200190815260200160002060009054906101000a900473ffffffffffffffffffffffffffffffffffffffff1673ffffffffffffffffffffffffffffffffffffffff163373ffffffffffffffffffffffffffffffffffffffff16146105b2576040517f08c379a00000000000000000000000000000000000000000000000000000000081526004016105a990613b0b565b60405180910390fd5b826004600084815260200190815260200160002060006101000a81548173ffffffffffffffffffffffffffffffffffffffff021916908373ffffffffffffffffffffffffffffffffffffffff160217905550818373ffffffffffffffffffffffffffffffffffffffff163373ffffffffffffffffffffffffffffffffffffffff167f8c5be1e5ebec7d5bd14f71427d1e84f3dd0314c0f7b2291e5b200ac8c7c3b92560405160405180910390a4505050565b60606000610671836127fb565b67ffffffffffffffff81111561068a5761068961360f565b5b6040519080825280602002602001820160405280156106c357816020015b6106b0612d73565b8152602001906001900390816106a85790505b5090506000805b600180549050811015610b8b578473ffffffffffffffffffffffffffffffffffffffff16600260008363ffffffff1663ffffffff16815260200190815260200160002060009054906101000a900473ffffffffffffffffffffffffffffffffffffffff1673ffffffffffffffffffffffffffffffffffffffff1603610b78576001818154811061075d5761075c613b2b565b5b9060005260206000209060070201604051806101400160405290816000820160009054906101000a900463ffffffff1663ffffffff1663ffffffff1681526020016000820160049054906101000a900463ffffffff1663ffffffff1663ffffffff1681526020016000820160089054906101000a900463ffffffff1663ffffffff1663ffffffff16815260200160008201600c9054906101000a900463ffffffff1663ffffffff1663ffffffff16815260200160018201805461081f90613b89565b80601f016020809104026020016040519081016040528092919081815260200182805461084b90613b89565b80156108985780601f1061086d57610100808354040283529160200191610898565b820191906000526020600020905b81548152906001019060200180831161087b57829003601f168201915b505050505081526020016002820180546108b190613b89565b80601f01602080910402602001604051908101604052809291908181526020018280546108dd90613b89565b801561092a5780601f106108ff5761010080835404028352916020019161092a565b820191906000526020600020905b81548152906001019060200180831161090d57829003601f168201915b5050505050815260200160038201805461094390613b89565b80601f016020809104026020016040519081016040528092919081815260200182805461096f90613b89565b80156109bc5780601f10610991576101008083540402835291602001916109bc565b820191906000526020600020905b81548152906001019060200180831161099f57829003601f168201915b505050505081526020016004820180546109d590613b89565b80601f0160208091040260200160405190810160405280929190818152602001828054610a0190613b89565b8015610a4e5780601f10610a2357610100808354040283529160200191610a4e565b820191906000526020600020905b815481529060010190602001808311610a3157829003601f168201915b5050505050815260200160058201805480602002602001604051908101604052809291908181526020016000905b82821015610b28578382906000526020600020018054610a9b90613b89565b80601f0160208091040260200160405190810160405280929190818152602001828054610ac790613b89565b8015610b145780601f10610ae957610100808354040283529160200191610b14565b820191906000526020600020905b815481529060010190602001808311610af757829003601f168201915b505050505081526020019060010190610a7c565b5050505081526020016006820160009054906101000a900460ff161515151581525050838381518110610b5e57610b5d613b2b565b5b60200260200101819052508180610b7490613be9565b9250505b8080610b8390613be9565b9150506106ca565b508192505050919050565b60018181548110610baa57610ba9613b2b565b5b906000526020600020906007020160060160009054906101000a900460ff16610c08576040517f08c379a0000000000000000000000000000000000000000000000000000000008152600401610bff90613c7d565b60405180910390fd5b3373ffffffffffffffffffffffffffffffffffffffff16600260008363ffffffff1663ffffffff16815260200190815260200160002060009054906101000a900473ffffffffffffffffffffffffffffffffffffffff1673ffffffffffffffffffffffffffffffffffffffff1603610cb5576040517f08c379a0000000000000000000000000000000000000000000000000000000008152600401610cac90613d0f565b60405180910390fd5b600060018263ffffffff1681548110610cd157610cd0613b2b565b5b9060005260206000209060070201600001600c9054906101000a900463ffffffff16905060008163ffffffff1611610d3e576040517f08c379a0000000000000000000000000000000000000000000000000000000008152600401610d3590613d7b565b60405180910390fd5b60008473ffffffffffffffffffffffffffffffffffffffff16670de0b6b3a76400008363ffffffff16610d719190613daf565b67ffffffffffffffff16604051610d8790613e1d565b60006040518083038185875af1925050503d8060008114610dc4576040519150601f19603f3d011682016040523d82523d6000602084013e610dc9565b606091505b5050905080610e0d576040517f08c379a0000000000000000000000000000000000000000000000000000000008152600401610e0490613e7e565b60405180910390fd5b610e8e670de0b6b3a76400008363ffffffff16610e2a9190613daf565b600560003373ffffffffffffffffffffffffffffffffffffffff1673ffffffffffffffffffffffffffffffffffffffff16815260200190815260200160002060009054906101000a900463ffffffff1663ffffffff166128e590919063ffffffff16565b600560003373ffffffffffffffffffffffffffffffffffffffff1673ffffffffffffffffffffffffffffffffffffffff16815260200190815260200160002060006101000a81548163ffffffff021916908363ffffffff160217905550610ef6858585612918565b5050505050565b6000600260008363ffffffff1663ffffffff16815260200190815260200160002060009054906101000a900473ffffffffffffffffffffffffffffffffffffffff169050919050565b610f4e612d73565b60018281548110610f6257610f61613b2b565b5b9060005260206000209060070201604051806101400160405290816000820160009054906101000a900463ffffffff1663ffffffff1663ffffffff1681526020016000820160049054906101000a900463ffffffff1663ffffffff1663ffffffff1681526020016000820160089054906101000a900463ffffffff1663ffffffff1663ffffffff16815260200160008201600c9054906101000a900463ffffffff1663ffffffff1663ffffffff16815260200160018201805461102490613b89565b80601f016020809104026020016040519081016040528092919081815260200182805461105090613b89565b801561109d5780601f106110725761010080835404028352916020019161109d565b820191906000526020600020905b81548152906001019060200180831161108057829003601f168201915b505050505081526020016002820180546110b690613b89565b80601f01602080910402602001604051908101604052809291908181526020018280546110e290613b89565b801561112f5780601f106111045761010080835404028352916020019161112f565b820191906000526020600020905b81548152906001019060200180831161111257829003601f168201915b5050505050815260200160038201805461114890613b89565b80601f016020809104026020016040519081016040528092919081815260200182805461117490613b89565b80156111c15780601f10611196576101008083540402835291602001916111c1565b820191906000526020600020905b8154815290600101906020018083116111a457829003601f168201915b505050505081526020016004820180546111da90613b89565b80601f016020809104026020016040519081016040528092919081815260200182805461120690613b89565b80156112535780601f1061122857610100808354040283529160200191611253565b820191906000526020600020905b81548152906001019060200180831161123657829003601f168201915b5050505050815260200160058201805480602002602001604051908101604052809291908181526020016000905b8282101561132d5783829060005260206000200180546112a090613b89565b80601f01602080910402602001604051908101604052809291908181526020018280546112cc90613b89565b80156113195780601f106112ee57610100808354040283529160200191611319565b820191906000526020600020905b8154815290600101906020018083116112fc57829003601f168201915b505050505081526020019060010190611281565b5050505081526020016006820160009054906101000a900460ff1615151515815250509050919050565b61135f611d5f565b61136857600080fd5b6001818154811061137c5761137b613b2b565b5b906000526020600020906007020160060160009054906101000a900460ff1615600182815481106113b0576113af613b2b565b5b906000526020600020906007020160060160006101000a81548160ff02191690831515021790555050565b6000600260008363ffffffff1663ffffffff16815260200190815260200160002060009054906101000a900473ffffffffffffffffffffffffffffffffffffffff169050919050565b6000600560003373ffffffffffffffffffffffffffffffffffffffff1673ffffffffffffffffffffffffffffffffffffffff16815260200190815260200160002060009054906101000a900463ffffffff16905060008163ffffffff16116114c1576040517f08c379a00000000000000000000000000000000000000000000000000000000081526004016114b890613eea565b60405180910390fd5b6000600560003373ffffffffffffffffffffffffffffffffffffffff1673ffffffffffffffffffffffffffffffffffffffff16815260200190815260200160002060006101000a81548163ffffffff021916908363ffffffff16021790555060003373ffffffffffffffffffffffffffffffffffffffff168263ffffffff1660405161154c90613e1d565b60006040518083038185875af1925050503d8060008114611589576040519150601f19603f3d011682016040523d82523d6000602084013e61158e565b606091505b50509050806115d2576040517f08c379a00000000000000000000000000000000000000000000000000000000081526004016115c990613f56565b60405180910390fd5b5050565b6000600360008373ffffffffffffffffffffffffffffffffffffffff1673ffffffffffffffffffffffffffffffffffffffff168152602001908152602001600020549050919050565b611627611d5f565b61163057600080fd5b600073ffffffffffffffffffffffffffffffffffffffff1660008054906101000a900473ffffffffffffffffffffffffffffffffffffffff1673ffffffffffffffffffffffffffffffffffffffff167f8be0079c531659141344cd1fd0a4f28419497f9722a3daafe3b4186f6b6457e060405160405180910390a360008060006101000a81548173ffffffffffffffffffffffffffffffffffffffff021916908373ffffffffffffffffffffffffffffffffffffffff160217905550565b606060006116fa612b02565b67ffffffffffffffff8111156117135761171261360f565b5b60405190808252806020026020018201604052801561174c57816020015b611739612d73565b8152602001906001900390816117315790505b5090506000805b600180549050811015611c51573373ffffffffffffffffffffffffffffffffffffffff16600260008363ffffffff1663ffffffff16815260200190815260200160002060009054906101000a900473ffffffffffffffffffffffffffffffffffffffff1673ffffffffffffffffffffffffffffffffffffffff161415801561180a5750600181815481106117ea576117e9613b2b565b5b906000526020600020906007020160060160009054906101000a900460ff165b15611c3e576001818154811061182357611822613b2b565b5b9060005260206000209060070201604051806101400160405290816000820160009054906101000a900463ffffffff1663ffffffff1663ffffffff1681526020016000820160049054906101000a900463ffffffff1663ffffffff1663ffffffff1681526020016000820160089054906101000a900463ffffffff1663ffffffff1663ffffffff16815260200160008201600c9054906101000a900463ffffffff1663ffffffff1663ffffffff1681526020016001820180546118e590613b89565b80601f016020809104026020016040519081016040528092919081815260200182805461191190613b89565b801561195e5780601f106119335761010080835404028352916020019161195e565b820191906000526020600020905b81548152906001019060200180831161194157829003601f168201915b5050505050815260200160028201805461197790613b89565b80601f01602080910402602001604051908101604052809291908181526020018280546119a390613b89565b80156119f05780601f106119c5576101008083540402835291602001916119f0565b820191906000526020600020905b8154815290600101906020018083116119d357829003601f168201915b50505050508152602001600382018054611a0990613b89565b80601f0160208091040260200160405190810160405280929190818152602001828054611a3590613b89565b8015611a825780601f10611a5757610100808354040283529160200191611a82565b820191906000526020600020905b815481529060010190602001808311611a6557829003601f168201915b50505050508152602001600482018054611a9b90613b89565b80601f0160208091040260200160405190810160405280929190818152602001828054611ac790613b89565b8015611b145780601f10611ae957610100808354040283529160200191611b14565b820191906000526020600020905b815481529060010190602001808311611af757829003601f168201915b5050505050815260200160058201805480602002602001604051908101604052809291908181526020016000905b82821015611bee578382906000526020600020018054611b6190613b89565b80601f0160208091040260200160405190810160405280929190818152602001828054611b8d90613b89565b8015611bda5780601f10611baf57610100808354040283529160200191611bda565b820191906000526020600020905b815481529060010190602001808311611bbd57829003601f168201915b505050505081526020019060010190611b42565b5050505081526020016006820160009054906101000a900460ff161515151581525050838381518110611c2457611c23613b2b565b5b60200260200101819052508180611c3a90613be9565b9250505b8080611c4990613be9565b915050611753565b50819250505090565b611c62611d5f565b611c6b57600080fd5b60018281548110611c7f57611c7e613b2b565b5b906000526020600020906007020160000160089054906101000a900463ffffffff1663ffffffff168163ffffffff1611611cee576040517f08c379a0000000000000000000000000000000000000000000000000000000008152600401611ce590613fe8565b60405180910390fd5b8060018381548110611d0357611d02613b2b565b5b906000526020600020906007020160000160086101000a81548163ffffffff021916908363ffffffff1602179055505050565b60008060009054906101000a900473ffffffffffffffffffffffffffffffffffffffff16905090565b60008060009054906101000a900473ffffffffffffffffffffffffffffffffffffffff1673ffffffffffffffffffffffffffffffffffffffff163373ffffffffffffffffffffffffffffffffffffffff1614905090565b60026020528060005260406000206000915054906101000a900473ffffffffffffffffffffffffffffffffffffffff1681565b611e5134600560003373ffffffffffffffffffffffffffffffffffffffff1673ffffffffffffffffffffffffffffffffffffffff16815260200190815260200160002060009054906101000a900463ffffffff1663ffffffff16612bf290919063ffffffff16565b600560003373ffffffffffffffffffffffffffffffffffffffff1673ffffffffffffffffffffffffffffffffffffffff16815260200190815260200160002060006101000a81548163ffffffff021916908363ffffffff160217905550565b80600260008263ffffffff1663ffffffff16815260200190815260200160002060009054906101000a900473ffffffffffffffffffffffffffffffffffffffff1673ffffffffffffffffffffffffffffffffffffffff163373ffffffffffffffffffffffffffffffffffffffff1614611f5e576040517f08c379a0000000000000000000000000000000000000000000000000000000008152600401611f5590613b0b565b60405180910390fd5b60005b6001805490508110156120af578263ffffffff1660018281548110611f8957611f88613b2b565b5b906000526020600020906007020160000160009054906101000a900463ffffffff1663ffffffff160361209c5760018181548110611fca57611fc9613b2b565b5b9060005260206000209060070201600080820160006101000a81549063ffffffff02191690556000820160046101000a81549063ffffffff02191690556000820160086101000a81549063ffffffff021916905560008201600c6101000a81549063ffffffff02191690556001820160006120459190612de0565b6002820160006120559190612de0565b6003820160006120659190612de0565b6004820160006120759190612de0565b6005820160006120859190612e20565b6006820160006101000a81549060ff021916905550505b80806120a790613be9565b915050611f61565b505050565b600060405180610140016040528060018054905063ffffffff1681526020018b63ffffffff1681526020018a63ffffffff1681526020018963ffffffff168152602001888152602001878152602001868152602001858152602001848152602001831515815250905060008a63ffffffff161415801561213b575060008963ffffffff1614155b801561214e575060008863ffffffff1614155b801561215c57506000875114155b801561216a57506000865114155b801561217857506000855114155b801561218657506000845114155b6121c5576040517f08c379a00000000000000000000000000000000000000000000000000000000081526004016121bc9061407a565b60405180910390fd5b600181908060018154018082558091505060019003906000526020600020906007020160009091909190915060008201518160000160006101000a81548163ffffffff021916908363ffffffff16021790555060208201518160000160046101000a81548163ffffffff021916908363ffffffff16021790555060408201518160000160086101000a81548163ffffffff021916908363ffffffff160217905550606082015181600001600c6101000a81548163ffffffff021916908363ffffffff16021790555060808201518160010190816122a29190614246565b5060a08201518160020190816122b89190614246565b5060c08201518160030190816122ce9190614246565b5060e08201518160040190816122e49190614246565b50610100820151816005019080519060200190612302929190612e41565b506101208201518160060160006101000a81548160ff02191690831515021790555050503360026000836000015163ffffffff1663ffffffff16815260200190815260200160002060006101000a81548173ffffffffffffffffffffffffffffffffffffffff021916908373ffffffffffffffffffffffffffffffffffffffff1602179055506123db6001600360003373ffffffffffffffffffffffffffffffffffffffff1673ffffffffffffffffffffffffffffffffffffffff16815260200190815260200160002054612c2a90919063ffffffff16565b600360003373ffffffffffffffffffffffffffffffffffffffff1673ffffffffffffffffffffffffffffffffffffffff168152602001908152602001600020819055507f1a1d86e0f039b69dc75a6a99b30e291a372ccdcae3c35990cc416065bf7277788160405161244d919061354f565b60405180910390a150505050505050505050565b6000600560008373ffffffffffffffffffffffffffffffffffffffff1673ffffffffffffffffffffffffffffffffffffffff16815260200190815260200160002060009054906101000a900463ffffffff169050919050565b6124c2611d5f565b6124cb57600080fd5b6124d481612c56565b50565b600181815481106124e757600080fd5b90600052602060002090600702016000915090508060000160009054906101000a900463ffffffff16908060000160049054906101000a900463ffffffff16908060000160089054906101000a900463ffffffff169080600001600c9054906101000a900463ffffffff169080600101805461256290613b89565b80601f016020809104026020016040519081016040528092919081815260200182805461258e90613b89565b80156125db5780601f106125b0576101008083540402835291602001916125db565b820191906000526020600020905b8154815290600101906020018083116125be57829003601f168201915b5050505050908060020180546125f090613b89565b80601f016020809104026020016040519081016040528092919081815260200182805461261c90613b89565b80156126695780601f1061263e57610100808354040283529160200191612669565b820191906000526020600020905b81548152906001019060200180831161264c57829003601f168201915b50505050509080600301805461267e90613b89565b80601f01602080910402602001604051908101604052809291908181526020018280546126aa90613b89565b80156126f75780601f106126cc576101008083540402835291602001916126f7565b820191906000526020600020905b8154815290600101906020018083116126da57829003601f168201915b50505050509080600401805461270c90613b89565b80601f016020809104026020016040519081016040528092919081815260200182805461273890613b89565b80156127855780601f1061275a57610100808354040283529160200191612785565b820191906000526020600020905b81548152906001019060200180831161276857829003601f168201915b5050505050908060060160009054906101000a900460ff16905089565b6127aa611d5f565b6127b357600080fd5b80600183815481106127c8576127c7613b2b565b5b9060005260206000209060070201600001600c6101000a81548163ffffffff021916908363ffffffff1602179055505050565b6000806000905060005b6001805490508110156128db578373ffffffffffffffffffffffffffffffffffffffff16600260006001848154811061284157612840613b2b565b5b906000526020600020906007020160000160009054906101000a900463ffffffff1663ffffffff1663ffffffff16815260200190815260200160002060009054906101000a900473ffffffffffffffffffffffffffffffffffffffff1673ffffffffffffffffffffffffffffffffffffffff16036128c85781806128c490613be9565b9250505b80806128d390613be9565b915050612805565b5080915050919050565b60008263ffffffff168263ffffffff16111561290457612903614318565b5b81836129109190614347565b905092915050565b61296b6001600360008573ffffffffffffffffffffffffffffffffffffffff1673ffffffffffffffffffffffffffffffffffffffff16815260200190815260200160002054612c2a90919063ffffffff16565b600360008473ffffffffffffffffffffffffffffffffffffffff1673ffffffffffffffffffffffffffffffffffffffff16815260200190815260200160002081905550612a016001600360003373ffffffffffffffffffffffffffffffffffffffff1673ffffffffffffffffffffffffffffffffffffffff16815260200190815260200160002054612d4c90919063ffffffff16565b600360003373ffffffffffffffffffffffffffffffffffffffff1673ffffffffffffffffffffffffffffffffffffffff1681526020019081526020016000208190555081600260008363ffffffff1663ffffffff16815260200190815260200160002060006101000a81548173ffffffffffffffffffffffffffffffffffffffff021916908373ffffffffffffffffffffffffffffffffffffffff160217905550808273ffffffffffffffffffffffffffffffffffffffff168473ffffffffffffffffffffffffffffffffffffffff167fddf252ad1be2c89b69c2b068fc378daa952ba7f163c4a11628f55a4df523b3ef60405160405180910390a4505050565b6000806000905060005b600180549050811015612bea573373ffffffffffffffffffffffffffffffffffffffff16600260008363ffffffff1663ffffffff16815260200190815260200160002060009054906101000a900473ffffffffffffffffffffffffffffffffffffffff1673ffffffffffffffffffffffffffffffffffffffff1614158015612bc3575060018181548110612ba357612ba2613b2b565b5b906000526020600020906007020160060160009054906101000a900460ff165b15612bd7578180612bd390613be9565b9250505b8080612be290613be9565b915050612b0c565b508091505090565b6000808284612c01919061437f565b90508363ffffffff168163ffffffff161015612c2057612c1f614318565b5b8091505092915050565b6000808284612c3991906143b7565b905083811015612c4c57612c4b614318565b5b8091505092915050565b600073ffffffffffffffffffffffffffffffffffffffff168173ffffffffffffffffffffffffffffffffffffffff1603612c8f57600080fd5b8073ffffffffffffffffffffffffffffffffffffffff1660008054906101000a900473ffffffffffffffffffffffffffffffffffffffff1673ffffffffffffffffffffffffffffffffffffffff167f8be0079c531659141344cd1fd0a4f28419497f9722a3daafe3b4186f6b6457e060405160405180910390a3806000806101000a81548173ffffffffffffffffffffffffffffffffffffffff021916908373ffffffffffffffffffffffffffffffffffffffff16021790555050565b600082821115612d5f57612d5e614318565b5b8183612d6b91906143eb565b905092915050565b604051806101400160405280600063ffffffff168152602001600063ffffffff168152602001600063ffffffff168152602001600063ffffffff16815260200160608152602001606081526020016060815260200160608152602001606081526020016000151581525090565b508054612dec90613b89565b6000825580601f10612dfe5750612e1d565b601f016020900490600052602060002090810190612e1c9190612e9a565b5b50565b5080546000825590600052602060002090810190612e3e9190612eb7565b50565b828054828255906000526020600020908101928215612e89579160200282015b82811115612e88578251829081612e789190614246565b5091602001919060010190612e61565b5b509050612e969190612eb7565b5090565b5b80821115612eb3576000816000905550600101612e9b565b5090565b5b80821115612ed75760008181612ece9190612de0565b50600101612eb8565b5090565b6000604051905090565b600080fd5b600080fd5b600073ffffffffffffffffffffffffffffffffffffffff82169050919050565b6000612f1a82612eef565b9050919050565b612f2a81612f0f565b8114612f3557600080fd5b50565b600081359050612f4781612f21565b92915050565b6000819050919050565b612f6081612f4d565b8114612f6b57600080fd5b50565b600081359050612f7d81612f57565b92915050565b60008060408385031215612f9a57612f99612ee5565b5b6000612fa885828601612f38565b9250506020612fb985828601612f6e565b9150509250929050565b600060208284031215612fd957612fd8612ee5565b5b6000612fe784828501612f38565b91505092915050565b600081519050919050565b600082825260208201905092915050565b6000819050602082019050919050565b600063ffffffff82169050919050565b6130358161301c565b82525050565b600081519050919050565b600082825260208201905092915050565b60005b8381101561307557808201518184015260208101905061305a565b60008484015250505050565b6000601f19601f8301169050919050565b600061309d8261303b565b6130a78185613046565b93506130b7818560208601613057565b6130c081613081565b840191505092915050565b600081519050919050565b600082825260208201905092915050565b6000819050602082019050919050565b60006131038383613092565b905092915050565b6000602082019050919050565b6000613123826130cb565b61312d81856130d6565b93508360208202850161313f856130e7565b8060005b8581101561317b578484038952815161315c85826130f7565b94506131678361310b565b925060208a01995050600181019050613143565b50829750879550505050505092915050565b60008115159050919050565b6131a28161318d565b82525050565b6000610140830160008301516131c1600086018261302c565b5060208301516131d4602086018261302c565b5060408301516131e7604086018261302c565b5060608301516131fa606086018261302c565b50608083015184820360808601526132128282613092565b91505060a083015184820360a086015261322c8282613092565b91505060c083015184820360c08601526132468282613092565b91505060e083015184820360e08601526132608282613092565b91505061010083015184820361010086015261327c8282613118565b915050610120830151613293610120860182613199565b508091505092915050565b60006132aa83836131a8565b905092915050565b6000602082019050919050565b60006132ca82612ff0565b6132d48185612ffb565b9350836020820285016132e68561300c565b8060005b858110156133225784840389528151613303858261329e565b945061330e836132b2565b925060208a019950506001810190506132ea565b50829750879550505050505092915050565b6000602082019050818103600083015261334e81846132bf565b905092915050565b60008060006060848603121561336f5761336e612ee5565b5b600061337d86828701612f38565b935050602061338e86828701612f38565b925050604061339f86828701612f6e565b9150509250925092565b6133b28161301c565b81146133bd57600080fd5b50565b6000813590506133cf816133a9565b92915050565b6000602082840312156133eb576133ea612ee5565b5b60006133f9848285016133c0565b91505092915050565b61340b81612f0f565b82525050565b60006020820190506134266000830184613402565b92915050565b60006020828403121561344257613441612ee5565b5b600061345084828501612f6e565b91505092915050565b600061014083016000830151613472600086018261302c565b506020830151613485602086018261302c565b506040830151613498604086018261302c565b5060608301516134ab606086018261302c565b50608083015184820360808601526134c38282613092565b91505060a083015184820360a08601526134dd8282613092565b91505060c083015184820360c08601526134f78282613092565b91505060e083015184820360e08601526135118282613092565b91505061010083015184820361010086015261352d8282613118565b915050610120830151613544610120860182613199565b508091505092915050565b600060208201905081810360008301526135698184613459565b905092915050565b61357a81612f4d565b82525050565b60006020820190506135956000830184613571565b92915050565b600080604083850312156135b2576135b1612ee5565b5b60006135c085828601612f6e565b92505060206135d1858286016133c0565b9150509250929050565b6135e48161318d565b82525050565b60006020820190506135ff60008301846135db565b92915050565b600080fd5b600080fd5b7f4e487b7100000000000000000000000000000000000000000000000000000000600052604160045260246000fd5b61364782613081565b810181811067ffffffffffffffff821117156136665761366561360f565b5b80604052505050565b6000613679612edb565b9050613685828261363e565b919050565b600067ffffffffffffffff8211156136a5576136a461360f565b5b6136ae82613081565b9050602081019050919050565b82818337600083830152505050565b60006136dd6136d88461368a565b61366f565b9050828152602081018484840111156136f9576136f861360a565b5b6137048482856136bb565b509392505050565b600082601f83011261372157613720613605565b5b81356137318482602086016136ca565b91505092915050565b600067ffffffffffffffff8211156137555761375461360f565b5b602082029050602081019050919050565b600080fd5b600061377e6137798461373a565b61366f565b905080838252602082019050602084028301858111156137a1576137a0613766565b5b835b818110156137e857803567ffffffffffffffff8111156137c6576137c5613605565b5b8086016137d3898261370c565b855260208501945050506020810190506137a3565b5050509392505050565b600082601f83011261380757613806613605565b5b813561381784826020860161376b565b91505092915050565b6138298161318d565b811461383457600080fd5b50565b60008135905061384681613820565b92915050565b60008060008060008060008060006101208a8c03121561386f5761386e612ee5565b5b600061387d8c828d016133c0565b995050602061388e8c828d016133c0565b985050604061389f8c828d016133c0565b97505060608a013567ffffffffffffffff8111156138c0576138bf612eea565b5b6138cc8c828d0161370c565b96505060808a013567ffffffffffffffff8111156138ed576138ec612eea565b5b6138f98c828d0161370c565b95505060a08a013567ffffffffffffffff81111561391a57613919612eea565b5b6139268c828d0161370c565b94505060c08a013567ffffffffffffffff81111561394757613946612eea565b5b6139538c828d0161370c565b93505060e08a013567ffffffffffffffff81111561397457613973612eea565b5b6139808c828d016137f2565b9250506101006139928c828d01613837565b9150509295985092959850929598565b6139ab8161301c565b82525050565b60006020820190506139c660008301846139a2565b92915050565b600082825260208201905092915050565b60006139e88261303b565b6139f281856139cc565b9350613a02818560208601613057565b613a0b81613081565b840191505092915050565b600061012082019050613a2c600083018c6139a2565b613a39602083018b6139a2565b613a46604083018a6139a2565b613a5360608301896139a2565b8181036080830152613a6581886139dd565b905081810360a0830152613a7981876139dd565b905081810360c0830152613a8d81866139dd565b905081810360e0830152613aa181856139dd565b9050613ab16101008301846135db565b9a9950505050505050505050565b7f546861742773206e6f7420796f20636172000000000000000000000000000000600082015250565b6000613af56011836139cc565b9150613b0082613abf565b602082019050919050565b60006020820190508181036000830152613b2481613ae8565b9050919050565b7f4e487b7100000000000000000000000000000000000000000000000000000000600052603260045260246000fd5b7f4e487b7100000000000000000000000000000000000000000000000000000000600052602260045260246000fd5b60006002820490506001821680613ba157607f821691505b602082108103613bb457613bb3613b5a565b5b50919050565b7f4e487b7100000000000000000000000000000000000000000000000000000000600052601160045260246000fd5b6000613bf482612f4d565b91507fffffffffffffffffffffffffffffffffffffffffffffffffffffffffffffffff8203613c2657613c25613bba565b5b600182019050919050565b7f5468697320636172206973206e6f7420666f722073616c650000000000000000600082015250565b6000613c676018836139cc565b9150613c7282613c31565b602082019050919050565b60006020820190508181036000830152613c9681613c5a565b9050919050565b7f596f7520616c7265616479206f776e20746869732063617220736f20796f752060008201527f63616e206e6f7420627579206974000000000000000000000000000000000000602082015250565b6000613cf9602e836139cc565b9150613d0482613c9d565b604082019050919050565b60006020820190508181036000830152613d2881613cec565b9050919050565b7f5072696365206d7573742062652067726561746572207468616e207a65726f00600082015250565b6000613d65601f836139cc565b9150613d7082613d2f565b602082019050919050565b60006020820190508181036000830152613d9481613d58565b9050919050565b600067ffffffffffffffff82169050919050565b6000613dba82613d9b565b9150613dc583613d9b565b9250828202613dd381613d9b565b9150808214613de557613de4613bba565b5b5092915050565b600081905092915050565b50565b6000613e07600083613dec565b9150613e1282613df7565b600082019050919050565b6000613e2882613dfa565b9150819050919050565b7f4574686572207472616e73666572206661696c65642e00000000000000000000600082015250565b6000613e686016836139cc565b9150613e7382613e32565b602082019050919050565b60006020820190508181036000830152613e9781613e5b565b9050919050565b7f596f752068617665206e6f206d756e6579000000000000000000000000000000600082015250565b6000613ed46011836139cc565b9150613edf82613e9e565b602082019050919050565b60006020820190508181036000830152613f0381613ec7565b9050919050565b7f7769746864726177616c206661696c6564206f756c6568000000000000000000600082015250565b6000613f406017836139cc565b9150613f4b82613f0a565b602082019050919050565b60006020820190508181036000830152613f6f81613f33565b9050919050565b7f546865206e6577206d696c616765206d75737420626520686967686572204f5560008201527f4c45480000000000000000000000000000000000000000000000000000000000602082015250565b6000613fd26023836139cc565b9150613fdd82613f76565b604082019050919050565b6000602082019050818103600083015261400181613fc5565b9050919050565b7f536f6d65206669656c64732077657265206e6f7420636f72726563746c79206660008201527f696c6c656420696e2e0000000000000000000000000000000000000000000000602082015250565b60006140646029836139cc565b915061406f82614008565b604082019050919050565b6000602082019050818103600083015261409381614057565b9050919050565b60008190508160005260206000209050919050565b60006020601f8301049050919050565b600082821b905092915050565b6000600883026140fc7fffffffffffffffffffffffffffffffffffffffffffffffffffffffffffffffff826140bf565b61410686836140bf565b95508019841693508086168417925050509392505050565b6000819050919050565b600061414361413e61413984612f4d565b61411e565b612f4d565b9050919050565b6000819050919050565b61415d83614128565b6141716141698261414a565b8484546140cc565b825550505050565b600090565b614186614179565b614191818484614154565b505050565b5b818110156141b5576141aa60008261417e565b600181019050614197565b5050565b601f8211156141fa576141cb8161409a565b6141d4846140af565b810160208510156141e3578190505b6141f76141ef856140af565b830182614196565b50505b505050565b600082821c905092915050565b600061421d600019846008026141ff565b1980831691505092915050565b6000614236838361420c565b9150826002028217905092915050565b61424f8261303b565b67ffffffffffffffff8111156142685761426761360f565b5b6142728254613b89565b61427d8282856141b9565b600060209050601f8311600181146142b0576000841561429e578287015190505b6142a8858261422a565b865550614310565b601f1984166142be8661409a565b60005b828110156142e6578489015182556001820191506020850194506020810190506142c1565b8683101561430357848901516142ff601f89168261420c565b8355505b6001600288020188555050505b505050505050565b7f4e487b7100000000000000000000000000000000000000000000000000000000600052600160045260246000fd5b60006143528261301c565b915061435d8361301c565b9250828203905063ffffffff81111561437957614378613bba565b5b92915050565b600061438a8261301c565b91506143958361301c565b9250828201905063ffffffff8111156143b1576143b0613bba565b5b92915050565b60006143c282612f4d565b91506143cd83612f4d565b92508282019050808211156143e5576143e4613bba565b5b92915050565b60006143f682612f4d565b915061440183612f4d565b925082820390508181111561441957614418613bba565b5b9291505056fea26469706673582212202f307fea1c14200c0339000137572138ca88ad06050f834b0f26455d1db0529f64736f6c63430008120033",
  "linkReferences": {},
  "deployedLinkReferences": {}
}