{
  "_format": "hh-sol-artifact-1",
  "contractName": "CarOwnership",
  "sourceName": "contracts/carownership.sol",
  "abi": [
    {
      "anonymous": false,
      "inputs": [
        {
          "indexed": true,
          "internalType": "address",
          "name": "_owner",
          "type": "address"
        },
        {
          "indexed": true,
          "internalType": "address",
          "name": "_approved",
          "type": "address"
        },
        {
          "indexed": true,
          "internalType": "uint256",
          "name": "_tokenId",
          "type": "uint256"
        }
      ],
      "name": "Approval",
      "type": "event"
    },
    {
      "anonymous": false,
      "inputs": [
        {
          "components": [
            {
              "internalType": "uint32",
              "name": "id",
              "type": "uint32"
            },
            {
              "internalType": "uint32",
              "name": "chassisNumber",
              "type": "uint32"
            },
            {
              "internalType": "uint32",
              "name": "mileage",
              "type": "uint32"
            },
            {
              "internalType": "uint32",
              "name": "price",
              "type": "uint32"
            },
            {
              "internalType": "string",
              "name": "licensePlate",
              "type": "string"
            },
            {
              "internalType": "string",
              "name": "brand",
              "type": "string"
            },
            {
              "internalType": "string",
              "name": "carType",
              "type": "string"
            },
            {
              "internalType": "string",
              "name": "colour",
              "type": "string"
            },
            {
              "internalType": "string[]",
              "name": "pictures",
              "type": "string[]"
            },
            {
              "internalType": "bool",
              "name": "isForSale",
              "type": "bool"
            }
          ],
          "indexed": false,
          "internalType": "struct CarDetails.Car",
          "name": "car",
          "type": "tuple"
        }
      ],
      "name": "NewCar",
      "type": "event"
    },
    {
      "anonymous": false,
      "inputs": [
        {
          "indexed": true,
          "internalType": "address",
          "name": "previousOwner",
          "type": "address"
        },
        {
          "indexed": true,
          "internalType": "address",
          "name": "newOwner",
          "type": "address"
        }
      ],
      "name": "OwnershipTransferred",
      "type": "event"
    },
    {
      "anonymous": false,
      "inputs": [
        {
          "indexed": true,
          "internalType": "address",
          "name": "_from",
          "type": "address"
        },
        {
          "indexed": true,
          "internalType": "address",
          "name": "_to",
          "type": "address"
        },
        {
          "indexed": true,
          "internalType": "uint256",
          "name": "_tokenId",
          "type": "uint256"
        }
      ],
      "name": "Transfer",
      "type": "event"
    },
    {
      "inputs": [
        {
          "internalType": "address",
          "name": "_approved",
          "type": "address"
        },
        {
          "internalType": "uint256",
          "name": "_tokenId",
          "type": "uint256"
        }
      ],
      "name": "approve",
      "outputs": [],
      "stateMutability": "payable",
      "type": "function"
    },
    {
      "inputs": [
        {
          "internalType": "address",
          "name": "_owner",
          "type": "address"
        }
      ],
      "name": "balanceOf",
      "outputs": [
        {
          "internalType": "uint256",
          "name": "",
          "type": "uint256"
        }
      ],
      "stateMutability": "view",
      "type": "function"
    },
    {
      "inputs": [
        {
          "internalType": "uint256",
          "name": "",
          "type": "uint256"
        }
      ],
      "name": "carToOwner",
      "outputs": [
        {
          "internalType": "address",
          "name": "",
          "type": "address"
        }
      ],
      "stateMutability": "view",
      "type": "function"
    },
    {
      "inputs": [
        {
          "internalType": "uint256",
          "name": "",
          "type": "uint256"
        }
      ],
      "name": "cars",
      "outputs": [
        {
          "internalType": "uint32",
          "name": "id",
          "type": "uint32"
        },
        {
          "internalType": "uint32",
          "name": "chassisNumber",
          "type": "uint32"
        },
        {
          "internalType": "uint32",
          "name": "mileage",
          "type": "uint32"
        },
        {
          "internalType": "uint32",
          "name": "price",
          "type": "uint32"
        },
        {
          "internalType": "string",
          "name": "licensePlate",
          "type": "string"
        },
        {
          "internalType": "string",
          "name": "brand",
          "type": "string"
        },
        {
          "internalType": "string",
          "name": "carType",
          "type": "string"
        },
        {
          "internalType": "string",
          "name": "colour",
          "type": "string"
        },
        {
          "internalType": "bool",
          "name": "isForSale",
          "type": "bool"
        }
      ],
      "stateMutability": "view",
      "type": "function"
    },
    {
      "inputs": [
        {
          "internalType": "uint32",
          "name": "_chassisNumber",
          "type": "uint32"
        },
        {
          "internalType": "uint32",
          "name": "_mileage",
          "type": "uint32"
        },
        {
          "internalType": "uint32",
          "name": "_price",
          "type": "uint32"
        },
        {
          "internalType": "string",
          "name": "_licensePlate",
          "type": "string"
        },
        {
          "internalType": "string",
          "name": "_brand",
          "type": "string"
        },
        {
          "internalType": "string",
          "name": "_carType",
          "type": "string"
        },
        {
          "internalType": "string",
          "name": "_colour",
          "type": "string"
        },
        {
          "internalType": "string[]",
          "name": "_pictures",
          "type": "string[]"
        },
        {
          "internalType": "bool",
          "name": "_isForSale",
          "type": "bool"
        }
      ],
      "name": "createCar",
      "outputs": [],
      "stateMutability": "nonpayable",
      "type": "function"
    },
    {
      "inputs": [
        {
          "internalType": "uint32",
          "name": "_carId",
          "type": "uint32"
        }
      ],
      "name": "deleteCar",
      "outputs": [],
      "stateMutability": "nonpayable",
      "type": "function"
    },
    {
      "inputs": [
        {
          "internalType": "address",
          "name": "_owner",
          "type": "address"
        }
      ],
      "name": "getAllCarsForOwner",
      "outputs": [
        {
          "components": [
            {
              "internalType": "uint32",
              "name": "id",
              "type": "uint32"
            },
            {
              "internalType": "uint32",
              "name": "chassisNumber",
              "type": "uint32"
            },
            {
              "internalType": "uint32",
              "name": "mileage",
              "type": "uint32"
            },
            {
              "internalType": "uint32",
              "name": "price",
              "type": "uint32"
            },
            {
              "internalType": "string",
              "name": "licensePlate",
              "type": "string"
            },
            {
              "internalType": "string",
              "name": "brand",
              "type": "string"
            },
            {
              "internalType": "string",
              "name": "carType",
              "type": "string"
            },
            {
              "internalType": "string",
              "name": "colour",
              "type": "string"
            },
            {
              "internalType": "string[]",
              "name": "pictures",
              "type": "string[]"
            },
            {
              "internalType": "bool",
              "name": "isForSale",
              "type": "bool"
            }
          ],
          "internalType": "struct CarDetails.Car[]",
          "name": "",
          "type": "tuple[]"
        }
      ],
      "stateMutability": "view",
      "type": "function"
    },
    {
      "inputs": [
        {
          "internalType": "uint256",
          "name": "_carId",
          "type": "uint256"
        }
      ],
      "name": "getCar",
      "outputs": [
        {
          "components": [
            {
              "internalType": "uint32",
              "name": "id",
              "type": "uint32"
            },
            {
              "internalType": "uint32",
              "name": "chassisNumber",
              "type": "uint32"
            },
            {
              "internalType": "uint32",
              "name": "mileage",
              "type": "uint32"
            },
            {
              "internalType": "uint32",
              "name": "price",
              "type": "uint32"
            },
            {
              "internalType": "string",
              "name": "licensePlate",
              "type": "string"
            },
            {
              "internalType": "string",
              "name": "brand",
              "type": "string"
            },
            {
              "internalType": "string",
              "name": "carType",
              "type": "string"
            },
            {
              "internalType": "string",
              "name": "colour",
              "type": "string"
            },
            {
              "internalType": "string[]",
              "name": "pictures",
              "type": "string[]"
            },
            {
              "internalType": "bool",
              "name": "isForSale",
              "type": "bool"
            }
          ],
          "internalType": "struct CarDetails.Car",
          "name": "",
          "type": "tuple"
        }
      ],
      "stateMutability": "view",
      "type": "function"
    },
    {
      "inputs": [],
      "name": "isOwner",
      "outputs": [
        {
          "internalType": "bool",
          "name": "",
          "type": "bool"
        }
      ],
      "stateMutability": "view",
      "type": "function"
    },
    {
      "inputs": [],
      "name": "owner",
      "outputs": [
        {
          "internalType": "address",
          "name": "",
          "type": "address"
        }
      ],
      "stateMutability": "view",
      "type": "function"
    },
    {
      "inputs": [
        {
          "internalType": "uint256",
          "name": "_tokenId",
          "type": "uint256"
        }
      ],
      "name": "ownerOf",
      "outputs": [
        {
          "internalType": "address",
          "name": "",
          "type": "address"
        }
      ],
      "stateMutability": "view",
      "type": "function"
    },
    {
      "inputs": [],
      "name": "renounceOwnership",
      "outputs": [],
      "stateMutability": "nonpayable",
      "type": "function"
    },
    {
      "inputs": [
        {
          "internalType": "uint256",
          "name": "_carId",
          "type": "uint256"
        }
      ],
      "name": "toggleSaleState",
      "outputs": [],
      "stateMutability": "nonpayable",
      "type": "function"
    },
    {
      "inputs": [
        {
          "internalType": "address",
          "name": "_from",
          "type": "address"
        },
        {
          "internalType": "address",
          "name": "_to",
          "type": "address"
        },
        {
          "internalType": "uint256",
          "name": "_tokenId",
          "type": "uint256"
        }
      ],
      "name": "transferFrom",
      "outputs": [],
      "stateMutability": "payable",
      "type": "function"
    },
    {
      "inputs": [
        {
          "internalType": "address",
          "name": "newOwner",
          "type": "address"
        }
      ],
      "name": "transferOwnership",
      "outputs": [],
      "stateMutability": "nonpayable",
      "type": "function"
    },
    {
      "inputs": [
        {
          "internalType": "uint256",
          "name": "_carId",
          "type": "uint256"
        },
        {
          "internalType": "uint32",
          "name": "_newMileage",
          "type": "uint32"
        }
      ],
      "name": "updateMileage",
      "outputs": [],
      "stateMutability": "nonpayable",
      "type": "function"
    },
    {
      "inputs": [
        {
          "internalType": "uint256",
          "name": "_carId",
          "type": "uint256"
        },
        {
          "internalType": "uint32",
          "name": "_newPrice",
          "type": "uint32"
        }
      ],
      "name": "updatePrice",
      "outputs": [],
      "stateMutability": "nonpayable",
      "type": "function"
    }
  ],
  "bytecode": "0x608060405234801561001057600080fd5b50336000806101000a81548173ffffffffffffffffffffffffffffffffffffffff021916908373ffffffffffffffffffffffffffffffffffffffff16021790555060008054906101000a900473ffffffffffffffffffffffffffffffffffffffff1673ffffffffffffffffffffffffffffffffffffffff16600073ffffffffffffffffffffffffffffffffffffffff167f8be0079c531659141344cd1fd0a4f28419497f9722a3daafe3b4186f6b6457e060405160405180910390a361331f806100db6000396000f3fe6080604052600436106100fe5760003560e01c8063715018a611610095578063b275decc11610064578063b275decc1461032b578063d4d942ec14610354578063f2fde38b1461037d578063f7746e36146103a6578063f95fe25b146103eb576100fe565b8063715018a6146102955780637edffa53146102ac5780638da5cb5b146102d55780638f32d59b14610300576100fe565b80635e8be190116100d15780635e8be190146101b5578063628dd13e146101f25780636352211e1461021b57806370a0823114610258576100fe565b8063095ea7b3146101035780632286c0c11461011f57806323b872dd1461015c57806333ca504b14610178575b600080fd5b61011d600480360381019061011891906121b1565b610414565b005b34801561012b57600080fd5b50610146600480360381019061014191906121f1565b610568565b6040516101539190612562565b60405180910390f35b61017660048036038101906101719190612584565b610ac5565b005b34801561018457600080fd5b5061019f600480360381019061019a91906125d7565b610c9d565b6040516101ac9190612613565b60405180910390f35b3480156101c157600080fd5b506101dc60048036038101906101d791906125d7565b610cd0565b6040516101e99190612724565b60405180910390f35b3480156101fe57600080fd5b50610219600480360381019061021491906125d7565b6110e1565b005b34801561022757600080fd5b50610242600480360381019061023d91906125d7565b611165565b60405161024f9190612613565b60405180910390f35b34801561026457600080fd5b5061027f600480360381019061027a91906121f1565b6111a2565b60405161028c9190612755565b60405180910390f35b3480156102a157600080fd5b506102aa6111eb565b005b3480156102b857600080fd5b506102d360048036038101906102ce919061279c565b6112ba565b005b3480156102e157600080fd5b506102ea611396565b6040516102f79190612613565b60405180910390f35b34801561030c57600080fd5b506103156113bf565b60405161032291906127eb565b60405180910390f35b34801561033757600080fd5b50610352600480360381019061034d9190612806565b611416565b005b34801561036057600080fd5b5061037b60048036038101906103769190612a7a565b611614565b005b34801561038957600080fd5b506103a4600480360381019061039f91906121f1565b611939565b005b3480156103b257600080fd5b506103cd60048036038101906103c891906125d7565b611956565b6040516103e299989796959493929190612c29565b60405180910390f35b3480156103f757600080fd5b50610412600480360381019061040d919061279c565b611c21565b005b806002600082815260200190815260200160002060009054906101000a900473ffffffffffffffffffffffffffffffffffffffff1673ffffffffffffffffffffffffffffffffffffffff163373ffffffffffffffffffffffffffffffffffffffff16146104b6576040517f08c379a00000000000000000000000000000000000000000000000000000000081526004016104ad90612d1e565b60405180910390fd5b826004600084815260200190815260200160002060006101000a81548173ffffffffffffffffffffffffffffffffffffffff021916908373ffffffffffffffffffffffffffffffffffffffff160217905550818373ffffffffffffffffffffffffffffffffffffffff163373ffffffffffffffffffffffffffffffffffffffff167f8c5be1e5ebec7d5bd14f71427d1e84f3dd0314c0f7b2291e5b200ac8c7c3b92560405160405180910390a4505050565b60606000600360008473ffffffffffffffffffffffffffffffffffffffff1673ffffffffffffffffffffffffffffffffffffffff1681526020019081526020016000205467ffffffffffffffff8111156105c5576105c461283d565b5b6040519080825280602002602001820160405280156105fe57816020015b6105eb611fa1565b8152602001906001900390816105e35790505b5090506000805b600180549050811015610aba578473ffffffffffffffffffffffffffffffffffffffff166002600083815260200190815260200160002060009054906101000a900473ffffffffffffffffffffffffffffffffffffffff1673ffffffffffffffffffffffffffffffffffffffff1603610aa7576001818154811061068c5761068b612d3e565b5b9060005260206000209060070201604051806101400160405290816000820160009054906101000a900463ffffffff1663ffffffff1663ffffffff1681526020016000820160049054906101000a900463ffffffff1663ffffffff1663ffffffff1681526020016000820160089054906101000a900463ffffffff1663ffffffff1663ffffffff16815260200160008201600c9054906101000a900463ffffffff1663ffffffff1663ffffffff16815260200160018201805461074e90612d9c565b80601f016020809104026020016040519081016040528092919081815260200182805461077a90612d9c565b80156107c75780601f1061079c576101008083540402835291602001916107c7565b820191906000526020600020905b8154815290600101906020018083116107aa57829003601f168201915b505050505081526020016002820180546107e090612d9c565b80601f016020809104026020016040519081016040528092919081815260200182805461080c90612d9c565b80156108595780601f1061082e57610100808354040283529160200191610859565b820191906000526020600020905b81548152906001019060200180831161083c57829003601f168201915b5050505050815260200160038201805461087290612d9c565b80601f016020809104026020016040519081016040528092919081815260200182805461089e90612d9c565b80156108eb5780601f106108c0576101008083540402835291602001916108eb565b820191906000526020600020905b8154815290600101906020018083116108ce57829003601f168201915b5050505050815260200160048201805461090490612d9c565b80601f016020809104026020016040519081016040528092919081815260200182805461093090612d9c565b801561097d5780601f106109525761010080835404028352916020019161097d565b820191906000526020600020905b81548152906001019060200180831161096057829003601f168201915b5050505050815260200160058201805480602002602001604051908101604052809291908181526020016000905b82821015610a575783829060005260206000200180546109ca90612d9c565b80601f01602080910402602001604051908101604052809291908181526020018280546109f690612d9c565b8015610a435780601f10610a1857610100808354040283529160200191610a43565b820191906000526020600020905b815481529060010190602001808311610a2657829003601f168201915b5050505050815260200190600101906109ab565b5050505081526020016006820160009054906101000a900460ff161515151581525050838381518110610a8d57610a8c612d3e565b5b60200260200101819052508180610aa390612dfc565b9250505b8080610ab290612dfc565b915050610605565b508192505050919050565b60018181548110610ad957610ad8612d3e565b5b906000526020600020906007020160060160009054906101000a900460ff16610b37576040517f08c379a0000000000000000000000000000000000000000000000000000000008152600401610b2e90612e90565b60405180910390fd5b3373ffffffffffffffffffffffffffffffffffffffff166002600083815260200190815260200160002060009054906101000a900473ffffffffffffffffffffffffffffffffffffffff1673ffffffffffffffffffffffffffffffffffffffff1603610bd8576040517f08c379a0000000000000000000000000000000000000000000000000000000008152600401610bcf90612f22565b60405180910390fd5b6002600082815260200190815260200160002060009054906101000a900473ffffffffffffffffffffffffffffffffffffffff1673ffffffffffffffffffffffffffffffffffffffff166108fc60018381548110610c3957610c38612d3e565b5b9060005260206000209060070201600001600c9054906101000a900463ffffffff1663ffffffff169081150290604051600060405180830381858888f19350505050158015610c8c573d6000803e3d6000fd5b50610c98838383611c7a565b505050565b60026020528060005260406000206000915054906101000a900473ffffffffffffffffffffffffffffffffffffffff1681565b610cd8611fa1565b60018281548110610cec57610ceb612d3e565b5b9060005260206000209060070201604051806101400160405290816000820160009054906101000a900463ffffffff1663ffffffff1663ffffffff1681526020016000820160049054906101000a900463ffffffff1663ffffffff1663ffffffff1681526020016000820160089054906101000a900463ffffffff1663ffffffff1663ffffffff16815260200160008201600c9054906101000a900463ffffffff1663ffffffff1663ffffffff168152602001600182018054610dae90612d9c565b80601f0160208091040260200160405190810160405280929190818152602001828054610dda90612d9c565b8015610e275780601f10610dfc57610100808354040283529160200191610e27565b820191906000526020600020905b815481529060010190602001808311610e0a57829003601f168201915b50505050508152602001600282018054610e4090612d9c565b80601f0160208091040260200160405190810160405280929190818152602001828054610e6c90612d9c565b8015610eb95780601f10610e8e57610100808354040283529160200191610eb9565b820191906000526020600020905b815481529060010190602001808311610e9c57829003601f168201915b50505050508152602001600382018054610ed290612d9c565b80601f0160208091040260200160405190810160405280929190818152602001828054610efe90612d9c565b8015610f4b5780601f10610f2057610100808354040283529160200191610f4b565b820191906000526020600020905b815481529060010190602001808311610f2e57829003601f168201915b50505050508152602001600482018054610f6490612d9c565b80601f0160208091040260200160405190810160405280929190818152602001828054610f9090612d9c565b8015610fdd5780601f10610fb257610100808354040283529160200191610fdd565b820191906000526020600020905b815481529060010190602001808311610fc057829003601f168201915b5050505050815260200160058201805480602002602001604051908101604052809291908181526020016000905b828210156110b757838290600052602060002001805461102a90612d9c565b80601f016020809104026020016040519081016040528092919081815260200182805461105690612d9c565b80156110a35780601f10611078576101008083540402835291602001916110a3565b820191906000526020600020905b81548152906001019060200180831161108657829003601f168201915b50505050508152602001906001019061100b565b5050505081526020016006820160009054906101000a900460ff1615151515815250509050919050565b6110e96113bf565b6110f257600080fd5b6001818154811061110657611105612d3e565b5b906000526020600020906007020160060160009054906101000a900460ff16156001828154811061113a57611139612d3e565b5b906000526020600020906007020160060160006101000a81548160ff02191690831515021790555050565b60006002600083815260200190815260200160002060009054906101000a900473ffffffffffffffffffffffffffffffffffffffff169050919050565b6000600360008373ffffffffffffffffffffffffffffffffffffffff1673ffffffffffffffffffffffffffffffffffffffff168152602001908152602001600020549050919050565b6111f36113bf565b6111fc57600080fd5b600073ffffffffffffffffffffffffffffffffffffffff1660008054906101000a900473ffffffffffffffffffffffffffffffffffffffff1673ffffffffffffffffffffffffffffffffffffffff167f8be0079c531659141344cd1fd0a4f28419497f9722a3daafe3b4186f6b6457e060405160405180910390a360008060006101000a81548173ffffffffffffffffffffffffffffffffffffffff021916908373ffffffffffffffffffffffffffffffffffffffff160217905550565b6112c26113bf565b6112cb57600080fd5b600182815481106112df576112de612d3e565b5b906000526020600020906007020160000160089054906101000a900463ffffffff1663ffffffff168163ffffffff161161134e576040517f08c379a000000000000000000000000000000000000000000000000000000000815260040161134590612fb4565b60405180910390fd5b806001838154811061136357611362612d3e565b5b906000526020600020906007020160000160086101000a81548163ffffffff021916908363ffffffff1602179055505050565b60008060009054906101000a900473ffffffffffffffffffffffffffffffffffffffff16905090565b60008060009054906101000a900473ffffffffffffffffffffffffffffffffffffffff1673ffffffffffffffffffffffffffffffffffffffff163373ffffffffffffffffffffffffffffffffffffffff1614905090565b8063ffffffff166002600082815260200190815260200160002060009054906101000a900473ffffffffffffffffffffffffffffffffffffffff1673ffffffffffffffffffffffffffffffffffffffff163373ffffffffffffffffffffffffffffffffffffffff16146114be576040517f08c379a00000000000000000000000000000000000000000000000000000000081526004016114b590612d1e565b60405180910390fd5b60005b60018054905081101561160f578263ffffffff16600182815481106114e9576114e8612d3e565b5b906000526020600020906007020160000160009054906101000a900463ffffffff1663ffffffff16036115fc576001818154811061152a57611529612d3e565b5b9060005260206000209060070201600080820160006101000a81549063ffffffff02191690556000820160046101000a81549063ffffffff02191690556000820160086101000a81549063ffffffff021916905560008201600c6101000a81549063ffffffff02191690556001820160006115a5919061200e565b6002820160006115b5919061200e565b6003820160006115c5919061200e565b6004820160006115d5919061200e565b6005820160006115e5919061204e565b6006820160006101000a81549060ff021916905550505b808061160790612dfc565b9150506114c1565b505050565b6000604051806101400160405280600063ffffffff1681526020018b63ffffffff1681526020018a63ffffffff1681526020018963ffffffff1681526020018881526020018781526020018681526020018581526020018481526020018315158152509050600181908060018154018082558091505060019003906000526020600020906007020160009091909190915060008201518160000160006101000a81548163ffffffff021916908363ffffffff16021790555060208201518160000160046101000a81548163ffffffff021916908363ffffffff16021790555060408201518160000160086101000a81548163ffffffff021916908363ffffffff160217905550606082015181600001600c6101000a81548163ffffffff021916908363ffffffff16021790555060808201518160010190816117569190613180565b5060a082015181600201908161176c9190613180565b5060c08201518160030190816117829190613180565b5060e08201518160040190816117989190613180565b506101008201518160050190805190602001906117b692919061206f565b506101208201518160060160006101000a81548160ff02191690831515021790555050506000600180805490506117ed9190613252565b905080826000019063ffffffff16908163ffffffff168152505033600260008363ffffffff16815260200190815260200160002060006101000a81548173ffffffffffffffffffffffffffffffffffffffff021916908373ffffffffffffffffffffffffffffffffffffffff1602179055506118b26001600360003373ffffffffffffffffffffffffffffffffffffffff1673ffffffffffffffffffffffffffffffffffffffff16815260200190815260200160002054611e5890919063ffffffff16565b600360003373ffffffffffffffffffffffffffffffffffffffff1673ffffffffffffffffffffffffffffffffffffffff168152602001908152602001600020819055507f1a1d86e0f039b69dc75a6a99b30e291a372ccdcae3c35990cc416065bf727778826040516119249190612724565b60405180910390a15050505050505050505050565b6119416113bf565b61194a57600080fd5b61195381611e84565b50565b6001818154811061196657600080fd5b90600052602060002090600702016000915090508060000160009054906101000a900463ffffffff16908060000160049054906101000a900463ffffffff16908060000160089054906101000a900463ffffffff169080600001600c9054906101000a900463ffffffff16908060010180546119e190612d9c565b80601f0160208091040260200160405190810160405280929190818152602001828054611a0d90612d9c565b8015611a5a5780601f10611a2f57610100808354040283529160200191611a5a565b820191906000526020600020905b815481529060010190602001808311611a3d57829003601f168201915b505050505090806002018054611a6f90612d9c565b80601f0160208091040260200160405190810160405280929190818152602001828054611a9b90612d9c565b8015611ae85780601f10611abd57610100808354040283529160200191611ae8565b820191906000526020600020905b815481529060010190602001808311611acb57829003601f168201915b505050505090806003018054611afd90612d9c565b80601f0160208091040260200160405190810160405280929190818152602001828054611b2990612d9c565b8015611b765780601f10611b4b57610100808354040283529160200191611b76565b820191906000526020600020905b815481529060010190602001808311611b5957829003601f168201915b505050505090806004018054611b8b90612d9c565b80601f0160208091040260200160405190810160405280929190818152602001828054611bb790612d9c565b8015611c045780601f10611bd957610100808354040283529160200191611c04565b820191906000526020600020905b815481529060010190602001808311611be757829003601f168201915b5050505050908060060160009054906101000a900460ff16905089565b611c296113bf565b611c3257600080fd5b8060018381548110611c4757611c46612d3e565b5b9060005260206000209060070201600001600c6101000a81548163ffffffff021916908363ffffffff1602179055505050565b611ccd6001600360008573ffffffffffffffffffffffffffffffffffffffff1673ffffffffffffffffffffffffffffffffffffffff16815260200190815260200160002054611e5890919063ffffffff16565b600360008473ffffffffffffffffffffffffffffffffffffffff1673ffffffffffffffffffffffffffffffffffffffff16815260200190815260200160002081905550611d636001600360003373ffffffffffffffffffffffffffffffffffffffff1673ffffffffffffffffffffffffffffffffffffffff16815260200190815260200160002054611f7a90919063ffffffff16565b600360003373ffffffffffffffffffffffffffffffffffffffff1673ffffffffffffffffffffffffffffffffffffffff16815260200190815260200160002081905550816002600083815260200190815260200160002060006101000a81548173ffffffffffffffffffffffffffffffffffffffff021916908373ffffffffffffffffffffffffffffffffffffffff160217905550808273ffffffffffffffffffffffffffffffffffffffff168473ffffffffffffffffffffffffffffffffffffffff167fddf252ad1be2c89b69c2b068fc378daa952ba7f163c4a11628f55a4df523b3ef60405160405180910390a4505050565b6000808284611e679190613286565b905083811015611e7a57611e796132ba565b5b8091505092915050565b600073ffffffffffffffffffffffffffffffffffffffff168173ffffffffffffffffffffffffffffffffffffffff1603611ebd57600080fd5b8073ffffffffffffffffffffffffffffffffffffffff1660008054906101000a900473ffffffffffffffffffffffffffffffffffffffff1673ffffffffffffffffffffffffffffffffffffffff167f8be0079c531659141344cd1fd0a4f28419497f9722a3daafe3b4186f6b6457e060405160405180910390a3806000806101000a81548173ffffffffffffffffffffffffffffffffffffffff021916908373ffffffffffffffffffffffffffffffffffffffff16021790555050565b600082821115611f8d57611f8c6132ba565b5b8183611f999190613252565b905092915050565b604051806101400160405280600063ffffffff168152602001600063ffffffff168152602001600063ffffffff168152602001600063ffffffff16815260200160608152602001606081526020016060815260200160608152602001606081526020016000151581525090565b50805461201a90612d9c565b6000825580601f1061202c575061204b565b601f01602090049060005260206000209081019061204a91906120c8565b5b50565b508054600082559060005260206000209081019061206c91906120e5565b50565b8280548282559060005260206000209081019282156120b7579160200282015b828111156120b65782518290816120a69190613180565b509160200191906001019061208f565b5b5090506120c491906120e5565b5090565b5b808211156120e15760008160009055506001016120c9565b5090565b5b8082111561210557600081816120fc919061200e565b506001016120e6565b5090565b6000604051905090565b600080fd5b600080fd5b600073ffffffffffffffffffffffffffffffffffffffff82169050919050565b60006121488261211d565b9050919050565b6121588161213d565b811461216357600080fd5b50565b6000813590506121758161214f565b92915050565b6000819050919050565b61218e8161217b565b811461219957600080fd5b50565b6000813590506121ab81612185565b92915050565b600080604083850312156121c8576121c7612113565b5b60006121d685828601612166565b92505060206121e78582860161219c565b9150509250929050565b60006020828403121561220757612206612113565b5b600061221584828501612166565b91505092915050565b600081519050919050565b600082825260208201905092915050565b6000819050602082019050919050565b600063ffffffff82169050919050565b6122638161224a565b82525050565b600081519050919050565b600082825260208201905092915050565b60005b838110156122a3578082015181840152602081019050612288565b60008484015250505050565b6000601f19601f8301169050919050565b60006122cb82612269565b6122d58185612274565b93506122e5818560208601612285565b6122ee816122af565b840191505092915050565b600081519050919050565b600082825260208201905092915050565b6000819050602082019050919050565b600061233183836122c0565b905092915050565b6000602082019050919050565b6000612351826122f9565b61235b8185612304565b93508360208202850161236d85612315565b8060005b858110156123a9578484038952815161238a8582612325565b945061239583612339565b925060208a01995050600181019050612371565b50829750879550505050505092915050565b60008115159050919050565b6123d0816123bb565b82525050565b6000610140830160008301516123ef600086018261225a565b506020830151612402602086018261225a565b506040830151612415604086018261225a565b506060830151612428606086018261225a565b506080830151848203608086015261244082826122c0565b91505060a083015184820360a086015261245a82826122c0565b91505060c083015184820360c086015261247482826122c0565b91505060e083015184820360e086015261248e82826122c0565b9150506101008301518482036101008601526124aa8282612346565b9150506101208301516124c16101208601826123c7565b508091505092915050565b60006124d883836123d6565b905092915050565b6000602082019050919050565b60006124f88261221e565b6125028185612229565b9350836020820285016125148561223a565b8060005b85811015612550578484038952815161253185826124cc565b945061253c836124e0565b925060208a01995050600181019050612518565b50829750879550505050505092915050565b6000602082019050818103600083015261257c81846124ed565b905092915050565b60008060006060848603121561259d5761259c612113565b5b60006125ab86828701612166565b93505060206125bc86828701612166565b92505060406125cd8682870161219c565b9150509250925092565b6000602082840312156125ed576125ec612113565b5b60006125fb8482850161219c565b91505092915050565b61260d8161213d565b82525050565b60006020820190506126286000830184612604565b92915050565b600061014083016000830151612647600086018261225a565b50602083015161265a602086018261225a565b50604083015161266d604086018261225a565b506060830151612680606086018261225a565b506080830151848203608086015261269882826122c0565b91505060a083015184820360a08601526126b282826122c0565b91505060c083015184820360c08601526126cc82826122c0565b91505060e083015184820360e08601526126e682826122c0565b9150506101008301518482036101008601526127028282612346565b9150506101208301516127196101208601826123c7565b508091505092915050565b6000602082019050818103600083015261273e818461262e565b905092915050565b61274f8161217b565b82525050565b600060208201905061276a6000830184612746565b92915050565b6127798161224a565b811461278457600080fd5b50565b60008135905061279681612770565b92915050565b600080604083850312156127b3576127b2612113565b5b60006127c18582860161219c565b92505060206127d285828601612787565b9150509250929050565b6127e5816123bb565b82525050565b600060208201905061280060008301846127dc565b92915050565b60006020828403121561281c5761281b612113565b5b600061282a84828501612787565b91505092915050565b600080fd5b600080fd5b7f4e487b7100000000000000000000000000000000000000000000000000000000600052604160045260246000fd5b612875826122af565b810181811067ffffffffffffffff821117156128945761289361283d565b5b80604052505050565b60006128a7612109565b90506128b3828261286c565b919050565b600067ffffffffffffffff8211156128d3576128d261283d565b5b6128dc826122af565b9050602081019050919050565b82818337600083830152505050565b600061290b612906846128b8565b61289d565b90508281526020810184848401111561292757612926612838565b5b6129328482856128e9565b509392505050565b600082601f83011261294f5761294e612833565b5b813561295f8482602086016128f8565b91505092915050565b600067ffffffffffffffff8211156129835761298261283d565b5b602082029050602081019050919050565b600080fd5b60006129ac6129a784612968565b61289d565b905080838252602082019050602084028301858111156129cf576129ce612994565b5b835b81811015612a1657803567ffffffffffffffff8111156129f4576129f3612833565b5b808601612a01898261293a565b855260208501945050506020810190506129d1565b5050509392505050565b600082601f830112612a3557612a34612833565b5b8135612a45848260208601612999565b91505092915050565b612a57816123bb565b8114612a6257600080fd5b50565b600081359050612a7481612a4e565b92915050565b60008060008060008060008060006101208a8c031215612a9d57612a9c612113565b5b6000612aab8c828d01612787565b9950506020612abc8c828d01612787565b9850506040612acd8c828d01612787565b97505060608a013567ffffffffffffffff811115612aee57612aed612118565b5b612afa8c828d0161293a565b96505060808a013567ffffffffffffffff811115612b1b57612b1a612118565b5b612b278c828d0161293a565b95505060a08a013567ffffffffffffffff811115612b4857612b47612118565b5b612b548c828d0161293a565b94505060c08a013567ffffffffffffffff811115612b7557612b74612118565b5b612b818c828d0161293a565b93505060e08a013567ffffffffffffffff811115612ba257612ba1612118565b5b612bae8c828d01612a20565b925050610100612bc08c828d01612a65565b9150509295985092959850929598565b612bd98161224a565b82525050565b600082825260208201905092915050565b6000612bfb82612269565b612c058185612bdf565b9350612c15818560208601612285565b612c1e816122af565b840191505092915050565b600061012082019050612c3f600083018c612bd0565b612c4c602083018b612bd0565b612c59604083018a612bd0565b612c666060830189612bd0565b8181036080830152612c788188612bf0565b905081810360a0830152612c8c8187612bf0565b905081810360c0830152612ca08186612bf0565b905081810360e0830152612cb48185612bf0565b9050612cc46101008301846127dc565b9a9950505050505050505050565b7f546861742773206e6f7420796f20636172000000000000000000000000000000600082015250565b6000612d08601183612bdf565b9150612d1382612cd2565b602082019050919050565b60006020820190508181036000830152612d3781612cfb565b9050919050565b7f4e487b7100000000000000000000000000000000000000000000000000000000600052603260045260246000fd5b7f4e487b7100000000000000000000000000000000000000000000000000000000600052602260045260246000fd5b60006002820490506001821680612db457607f821691505b602082108103612dc757612dc6612d6d565b5b50919050565b7f4e487b7100000000000000000000000000000000000000000000000000000000600052601160045260246000fd5b6000612e078261217b565b91507fffffffffffffffffffffffffffffffffffffffffffffffffffffffffffffffff8203612e3957612e38612dcd565b5b600182019050919050565b7f5468697320636172206973206e6f7420666f722073616c650000000000000000600082015250565b6000612e7a601883612bdf565b9150612e8582612e44565b602082019050919050565b60006020820190508181036000830152612ea981612e6d565b9050919050565b7f596f7520616c7265616479206f776e20746869732063617220736f20796f752060008201527f63616e206e6f7420627579206974000000000000000000000000000000000000602082015250565b6000612f0c602e83612bdf565b9150612f1782612eb0565b604082019050919050565b60006020820190508181036000830152612f3b81612eff565b9050919050565b7f546865206e6577206d696c616765206d75737420626520686967686572204f5560008201527f4c45480000000000000000000000000000000000000000000000000000000000602082015250565b6000612f9e602383612bdf565b9150612fa982612f42565b604082019050919050565b60006020820190508181036000830152612fcd81612f91565b9050919050565b60008190508160005260206000209050919050565b60006020601f8301049050919050565b600082821b905092915050565b6000600883026130367fffffffffffffffffffffffffffffffffffffffffffffffffffffffffffffffff82612ff9565b6130408683612ff9565b95508019841693508086168417925050509392505050565b6000819050919050565b600061307d6130786130738461217b565b613058565b61217b565b9050919050565b6000819050919050565b61309783613062565b6130ab6130a382613084565b848454613006565b825550505050565b600090565b6130c06130b3565b6130cb81848461308e565b505050565b5b818110156130ef576130e46000826130b8565b6001810190506130d1565b5050565b601f8211156131345761310581612fd4565b61310e84612fe9565b8101602085101561311d578190505b61313161312985612fe9565b8301826130d0565b50505b505050565b600082821c905092915050565b600061315760001984600802613139565b1980831691505092915050565b60006131708383613146565b9150826002028217905092915050565b61318982612269565b67ffffffffffffffff8111156131a2576131a161283d565b5b6131ac8254612d9c565b6131b78282856130f3565b600060209050601f8311600181146131ea57600084156131d8578287015190505b6131e28582613164565b86555061324a565b601f1984166131f886612fd4565b60005b82811015613220578489015182556001820191506020850194506020810190506131fb565b8683101561323d5784890151613239601f891682613146565b8355505b6001600288020188555050505b505050505050565b600061325d8261217b565b91506132688361217b565b92508282039050818111156132805761327f612dcd565b5b92915050565b60006132918261217b565b915061329c8361217b565b92508282019050808211156132b4576132b3612dcd565b5b92915050565b7f4e487b7100000000000000000000000000000000000000000000000000000000600052600160045260246000fdfea264697066735822122061ba59c571405d18d414eab5931c9e1e5df0b6401283cabc984f5e20ba20696364736f6c63430008110033",
  "linkReferences": {},
  "deployedLinkReferences": {}
}