{
  "_format": "hh-sol-artifact-1",
  "contractName": "CarOwnership",
  "sourceName": "contracts/carownership.sol",
  "abi": [
    {
      "anonymous": false,
      "inputs": [
        {
          "indexed": true,
          "internalType": "address",
          "name": "_owner",
          "type": "address"
        },
        {
          "indexed": true,
          "internalType": "address",
          "name": "_approved",
          "type": "address"
        },
        {
          "indexed": true,
          "internalType": "uint256",
          "name": "_tokenId",
          "type": "uint256"
        }
      ],
      "name": "Approval",
      "type": "event"
    },
    {
      "anonymous": false,
      "inputs": [
        {
          "components": [
            {
              "internalType": "uint32",
              "name": "id",
              "type": "uint32"
            },
            {
              "internalType": "uint32",
              "name": "chassisNumber",
              "type": "uint32"
            },
            {
              "internalType": "uint32",
              "name": "mileage",
              "type": "uint32"
            },
            {
              "internalType": "uint32",
              "name": "price",
              "type": "uint32"
            },
            {
              "internalType": "string",
              "name": "licensePlate",
              "type": "string"
            },
            {
              "internalType": "string",
              "name": "brand",
              "type": "string"
            },
            {
              "internalType": "string",
              "name": "carType",
              "type": "string"
            },
            {
              "internalType": "string",
              "name": "colour",
              "type": "string"
            },
            {
              "internalType": "string[]",
              "name": "pictures",
              "type": "string[]"
            },
            {
              "internalType": "bool",
              "name": "isForSale",
              "type": "bool"
            }
          ],
          "indexed": false,
          "internalType": "struct CarDetails.Car",
          "name": "car",
          "type": "tuple"
        }
      ],
      "name": "NewCar",
      "type": "event"
    },
    {
      "anonymous": false,
      "inputs": [
        {
          "indexed": true,
          "internalType": "address",
          "name": "previousOwner",
          "type": "address"
        },
        {
          "indexed": true,
          "internalType": "address",
          "name": "newOwner",
          "type": "address"
        }
      ],
      "name": "OwnershipTransferred",
      "type": "event"
    },
    {
      "anonymous": false,
      "inputs": [
        {
          "indexed": true,
          "internalType": "address",
          "name": "_from",
          "type": "address"
        },
        {
          "indexed": true,
          "internalType": "address",
          "name": "_to",
          "type": "address"
        },
        {
          "indexed": true,
          "internalType": "uint256",
          "name": "_tokenId",
          "type": "uint256"
        }
      ],
      "name": "Transfer",
      "type": "event"
    },
    {
      "inputs": [
        {
          "internalType": "address",
          "name": "_approved",
          "type": "address"
        },
        {
          "internalType": "uint256",
          "name": "_tokenId",
          "type": "uint256"
        }
      ],
      "name": "approve",
      "outputs": [],
      "stateMutability": "payable",
      "type": "function"
    },
    {
      "inputs": [
        {
          "internalType": "address",
          "name": "_owner",
          "type": "address"
        }
      ],
      "name": "balanceOf",
      "outputs": [
        {
          "internalType": "uint256",
          "name": "",
          "type": "uint256"
        }
      ],
      "stateMutability": "view",
      "type": "function"
    },
    {
      "inputs": [
        {
          "internalType": "uint32",
          "name": "",
          "type": "uint32"
        }
      ],
      "name": "carToOwner",
      "outputs": [
        {
          "internalType": "address",
          "name": "",
          "type": "address"
        }
      ],
      "stateMutability": "view",
      "type": "function"
    },
    {
      "inputs": [
        {
          "internalType": "uint256",
          "name": "",
          "type": "uint256"
        }
      ],
      "name": "cars",
      "outputs": [
        {
          "internalType": "uint32",
          "name": "id",
          "type": "uint32"
        },
        {
          "internalType": "uint32",
          "name": "chassisNumber",
          "type": "uint32"
        },
        {
          "internalType": "uint32",
          "name": "mileage",
          "type": "uint32"
        },
        {
          "internalType": "uint32",
          "name": "price",
          "type": "uint32"
        },
        {
          "internalType": "string",
          "name": "licensePlate",
          "type": "string"
        },
        {
          "internalType": "string",
          "name": "brand",
          "type": "string"
        },
        {
          "internalType": "string",
          "name": "carType",
          "type": "string"
        },
        {
          "internalType": "string",
          "name": "colour",
          "type": "string"
        },
        {
          "internalType": "bool",
          "name": "isForSale",
          "type": "bool"
        }
      ],
      "stateMutability": "view",
      "type": "function"
    },
    {
      "inputs": [
        {
          "internalType": "uint32",
          "name": "_chassisNumber",
          "type": "uint32"
        },
        {
          "internalType": "uint32",
          "name": "_mileage",
          "type": "uint32"
        },
        {
          "internalType": "uint32",
          "name": "_price",
          "type": "uint32"
        },
        {
          "internalType": "string",
          "name": "_licensePlate",
          "type": "string"
        },
        {
          "internalType": "string",
          "name": "_brand",
          "type": "string"
        },
        {
          "internalType": "string",
          "name": "_carType",
          "type": "string"
        },
        {
          "internalType": "string",
          "name": "_colour",
          "type": "string"
        },
        {
          "internalType": "string[]",
          "name": "_pictures",
          "type": "string[]"
        },
        {
          "internalType": "bool",
          "name": "_isForSale",
          "type": "bool"
        }
      ],
      "name": "createCar",
      "outputs": [],
      "stateMutability": "nonpayable",
      "type": "function"
    },
    {
      "inputs": [
        {
          "internalType": "uint32",
          "name": "_carId",
          "type": "uint32"
        }
      ],
      "name": "deleteCar",
      "outputs": [],
      "stateMutability": "nonpayable",
      "type": "function"
    },
    {
      "inputs": [
        {
          "internalType": "address",
          "name": "_owner",
          "type": "address"
        }
      ],
      "name": "getAllCarsForOwner",
      "outputs": [
        {
          "components": [
            {
              "internalType": "uint32",
              "name": "id",
              "type": "uint32"
            },
            {
              "internalType": "uint32",
              "name": "chassisNumber",
              "type": "uint32"
            },
            {
              "internalType": "uint32",
              "name": "mileage",
              "type": "uint32"
            },
            {
              "internalType": "uint32",
              "name": "price",
              "type": "uint32"
            },
            {
              "internalType": "string",
              "name": "licensePlate",
              "type": "string"
            },
            {
              "internalType": "string",
              "name": "brand",
              "type": "string"
            },
            {
              "internalType": "string",
              "name": "carType",
              "type": "string"
            },
            {
              "internalType": "string",
              "name": "colour",
              "type": "string"
            },
            {
              "internalType": "string[]",
              "name": "pictures",
              "type": "string[]"
            },
            {
              "internalType": "bool",
              "name": "isForSale",
              "type": "bool"
            }
          ],
          "internalType": "struct CarDetails.Car[]",
          "name": "",
          "type": "tuple[]"
        }
      ],
      "stateMutability": "view",
      "type": "function"
    },
    {
      "inputs": [
        {
          "internalType": "uint256",
          "name": "_carId",
          "type": "uint256"
        }
      ],
      "name": "getCar",
      "outputs": [
        {
          "components": [
            {
              "internalType": "uint32",
              "name": "id",
              "type": "uint32"
            },
            {
              "internalType": "uint32",
              "name": "chassisNumber",
              "type": "uint32"
            },
            {
              "internalType": "uint32",
              "name": "mileage",
              "type": "uint32"
            },
            {
              "internalType": "uint32",
              "name": "price",
              "type": "uint32"
            },
            {
              "internalType": "string",
              "name": "licensePlate",
              "type": "string"
            },
            {
              "internalType": "string",
              "name": "brand",
              "type": "string"
            },
            {
              "internalType": "string",
              "name": "carType",
              "type": "string"
            },
            {
              "internalType": "string",
              "name": "colour",
              "type": "string"
            },
            {
              "internalType": "string[]",
              "name": "pictures",
              "type": "string[]"
            },
            {
              "internalType": "bool",
              "name": "isForSale",
              "type": "bool"
            }
          ],
          "internalType": "struct CarDetails.Car",
          "name": "",
          "type": "tuple"
        }
      ],
      "stateMutability": "view",
      "type": "function"
    },
    {
      "inputs": [
        {
          "internalType": "uint32",
          "name": "_carId",
          "type": "uint32"
        }
      ],
      "name": "getCarOwner",
      "outputs": [
        {
          "internalType": "address",
          "name": "ownerAddress",
          "type": "address"
        }
      ],
      "stateMutability": "view",
      "type": "function"
    },
    {
      "inputs": [],
      "name": "getCarsForSale",
      "outputs": [
        {
          "components": [
            {
              "internalType": "uint32",
              "name": "id",
              "type": "uint32"
            },
            {
              "internalType": "uint32",
              "name": "chassisNumber",
              "type": "uint32"
            },
            {
              "internalType": "uint32",
              "name": "mileage",
              "type": "uint32"
            },
            {
              "internalType": "uint32",
              "name": "price",
              "type": "uint32"
            },
            {
              "internalType": "string",
              "name": "licensePlate",
              "type": "string"
            },
            {
              "internalType": "string",
              "name": "brand",
              "type": "string"
            },
            {
              "internalType": "string",
              "name": "carType",
              "type": "string"
            },
            {
              "internalType": "string",
              "name": "colour",
              "type": "string"
            },
            {
              "internalType": "string[]",
              "name": "pictures",
              "type": "string[]"
            },
            {
              "internalType": "bool",
              "name": "isForSale",
              "type": "bool"
            }
          ],
          "internalType": "struct CarDetails.Car[]",
          "name": "",
          "type": "tuple[]"
        }
      ],
      "stateMutability": "view",
      "type": "function"
    },
    {
      "inputs": [],
      "name": "isOwner",
      "outputs": [
        {
          "internalType": "bool",
          "name": "",
          "type": "bool"
        }
      ],
      "stateMutability": "view",
      "type": "function"
    },
    {
      "inputs": [],
      "name": "owner",
      "outputs": [
        {
          "internalType": "address",
          "name": "",
          "type": "address"
        }
      ],
      "stateMutability": "view",
      "type": "function"
    },
    {
      "inputs": [
        {
          "internalType": "uint256",
          "name": "_tokenId",
          "type": "uint256"
        }
      ],
      "name": "ownerOf",
      "outputs": [
        {
          "internalType": "address",
          "name": "",
          "type": "address"
        }
      ],
      "stateMutability": "view",
      "type": "function"
    },
    {
      "inputs": [],
      "name": "renounceOwnership",
      "outputs": [],
      "stateMutability": "nonpayable",
      "type": "function"
    },
    {
      "inputs": [
        {
          "internalType": "uint256",
          "name": "_carId",
          "type": "uint256"
        }
      ],
      "name": "toggleSaleState",
      "outputs": [],
      "stateMutability": "nonpayable",
      "type": "function"
    },
    {
      "inputs": [
        {
          "internalType": "address",
          "name": "_from",
          "type": "address"
        },
        {
          "internalType": "address",
          "name": "_to",
          "type": "address"
        },
        {
          "internalType": "uint256",
          "name": "_tokenId",
          "type": "uint256"
        }
      ],
      "name": "transferFrom",
      "outputs": [],
      "stateMutability": "payable",
      "type": "function"
    },
    {
      "inputs": [
        {
          "internalType": "address payable",
          "name": "_to",
          "type": "address"
        }
      ],
      "name": "transferFunds",
      "outputs": [],
      "stateMutability": "payable",
      "type": "function"
    },
    {
      "inputs": [
        {
          "internalType": "address",
          "name": "newOwner",
          "type": "address"
        }
      ],
      "name": "transferOwnership",
      "outputs": [],
      "stateMutability": "nonpayable",
      "type": "function"
    },
    {
      "inputs": [
        {
          "internalType": "uint256",
          "name": "_carId",
          "type": "uint256"
        },
        {
          "internalType": "uint32",
          "name": "_newMileage",
          "type": "uint32"
        }
      ],
      "name": "updateMileage",
      "outputs": [],
      "stateMutability": "nonpayable",
      "type": "function"
    },
    {
      "inputs": [
        {
          "internalType": "uint256",
          "name": "_carId",
          "type": "uint256"
        },
        {
          "internalType": "uint32",
          "name": "_newPrice",
          "type": "uint32"
        }
      ],
      "name": "updatePrice",
      "outputs": [],
      "stateMutability": "nonpayable",
      "type": "function"
    }
  ],
  "bytecode": "0x608060405234801561001057600080fd5b50336000806101000a81548173ffffffffffffffffffffffffffffffffffffffff021916908373ffffffffffffffffffffffffffffffffffffffff16021790555060008054906101000a900473ffffffffffffffffffffffffffffffffffffffff1673ffffffffffffffffffffffffffffffffffffffff16600073ffffffffffffffffffffffffffffffffffffffff167f8be0079c531659141344cd1fd0a4f28419497f9722a3daafe3b4186f6b6457e060405160405180910390a3613cb6806100db6000396000f3fe60806040526004361061011f5760003560e01c80637edffa53116100a0578063d4d942ec11610064578063d4d942ec146103dd578063e39ff19f14610406578063f2fde38b14610422578063f7746e361461044b578063f95fe25b146104905761011f565b80637edffa53146102f85780638da5cb5b146103215780638f32d59b1461034c57806391a2077614610377578063b275decc146103b45761011f565b8063628dd13e116100e7578063628dd13e146102135780636352211e1461023c57806370a0823114610279578063715018a6146102b657806376b4646d146102cd5761011f565b8063095ea7b3146101245780632286c0c11461014057806323b872dd1461017d57806339c98a1b146101995780635e8be190146101d6575b600080fd5b61013e60048036038101906101399190612a71565b6104b9565b005b34801561014c57600080fd5b5061016760048036038101906101629190612ab1565b610619565b6040516101749190612e22565b60405180910390f35b61019760048036038101906101929190612e44565b610b4b565b005b3480156101a557600080fd5b506101c060048036038101906101bb9190612ec3565b610d86565b6040516101cd9190612eff565b60405180910390f35b3480156101e257600080fd5b506101fd60048036038101906101f89190612f1a565b610dcf565b60405161020a919061303d565b60405180910390f35b34801561021f57600080fd5b5061023a60048036038101906102359190612f1a565b6111e0565b005b34801561024857600080fd5b50610263600480360381019061025e9190612f1a565b611264565b6040516102709190612eff565b60405180910390f35b34801561028557600080fd5b506102a0600480360381019061029b9190612ab1565b6112ad565b6040516102ad919061306e565b60405180910390f35b3480156102c257600080fd5b506102cb6112f6565b005b3480156102d957600080fd5b506102e26113c5565b6040516102ef9190612e22565b60405180910390f35b34801561030457600080fd5b5061031f600480360381019061031a9190613089565b611931565b005b34801561032d57600080fd5b50610336611a0d565b6040516103439190612eff565b60405180910390f35b34801561035857600080fd5b50610361611a36565b60405161036e91906130d8565b60405180910390f35b34801561038357600080fd5b5061039e60048036038101906103999190612ec3565b611a8d565b6040516103ab9190612eff565b60405180910390f35b3480156103c057600080fd5b506103db60048036038101906103d69190612ec3565b611ac0565b005b3480156103e957600080fd5b5061040460048036038101906103ff919061333a565b611cc4565b005b610420600480360381019061041b91906134ce565b611fc9565b005b34801561042e57600080fd5b5061044960048036038101906104449190612ab1565b612013565b005b34801561045757600080fd5b50610472600480360381019061046d9190612f1a565b612030565b60405161048799989796959493929190613554565b60405180910390f35b34801561049c57600080fd5b506104b760048036038101906104b29190613089565b6122fb565b005b80600260008263ffffffff1663ffffffff16815260200190815260200160002060009054906101000a900473ffffffffffffffffffffffffffffffffffffffff1673ffffffffffffffffffffffffffffffffffffffff163373ffffffffffffffffffffffffffffffffffffffff1614610567576040517f08c379a000000000000000000000000000000000000000000000000000000000815260040161055e90613649565b60405180910390fd5b826004600084815260200190815260200160002060006101000a81548173ffffffffffffffffffffffffffffffffffffffff021916908373ffffffffffffffffffffffffffffffffffffffff160217905550818373ffffffffffffffffffffffffffffffffffffffff163373ffffffffffffffffffffffffffffffffffffffff167f8c5be1e5ebec7d5bd14f71427d1e84f3dd0314c0f7b2291e5b200ac8c7c3b92560405160405180910390a4505050565b6060600061062683612354565b67ffffffffffffffff81111561063f5761063e6130fd565b5b60405190808252806020026020018201604052801561067857816020015b610665612861565b81526020019060019003908161065d5790505b5090506000805b600180549050811015610b40578473ffffffffffffffffffffffffffffffffffffffff16600260008363ffffffff1663ffffffff16815260200190815260200160002060009054906101000a900473ffffffffffffffffffffffffffffffffffffffff1673ffffffffffffffffffffffffffffffffffffffff1603610b2d576001818154811061071257610711613669565b5b9060005260206000209060070201604051806101400160405290816000820160009054906101000a900463ffffffff1663ffffffff1663ffffffff1681526020016000820160049054906101000a900463ffffffff1663ffffffff1663ffffffff1681526020016000820160089054906101000a900463ffffffff1663ffffffff1663ffffffff16815260200160008201600c9054906101000a900463ffffffff1663ffffffff1663ffffffff1681526020016001820180546107d4906136c7565b80601f0160208091040260200160405190810160405280929190818152602001828054610800906136c7565b801561084d5780601f106108225761010080835404028352916020019161084d565b820191906000526020600020905b81548152906001019060200180831161083057829003601f168201915b50505050508152602001600282018054610866906136c7565b80601f0160208091040260200160405190810160405280929190818152602001828054610892906136c7565b80156108df5780601f106108b4576101008083540402835291602001916108df565b820191906000526020600020905b8154815290600101906020018083116108c257829003601f168201915b505050505081526020016003820180546108f8906136c7565b80601f0160208091040260200160405190810160405280929190818152602001828054610924906136c7565b80156109715780601f1061094657610100808354040283529160200191610971565b820191906000526020600020905b81548152906001019060200180831161095457829003601f168201915b5050505050815260200160048201805461098a906136c7565b80601f01602080910402602001604051908101604052809291908181526020018280546109b6906136c7565b8015610a035780601f106109d857610100808354040283529160200191610a03565b820191906000526020600020905b8154815290600101906020018083116109e657829003601f168201915b5050505050815260200160058201805480602002602001604051908101604052809291908181526020016000905b82821015610add578382906000526020600020018054610a50906136c7565b80601f0160208091040260200160405190810160405280929190818152602001828054610a7c906136c7565b8015610ac95780601f10610a9e57610100808354040283529160200191610ac9565b820191906000526020600020905b815481529060010190602001808311610aac57829003601f168201915b505050505081526020019060010190610a31565b5050505081526020016006820160009054906101000a900460ff161515151581525050838381518110610b1357610b12613669565b5b60200260200101819052508180610b2990613727565b9250505b8080610b3890613727565b91505061067f565b508192505050919050565b60018181548110610b5f57610b5e613669565b5b906000526020600020906007020160060160009054906101000a900460ff16610bbd576040517f08c379a0000000000000000000000000000000000000000000000000000000008152600401610bb4906137bb565b60405180910390fd5b3373ffffffffffffffffffffffffffffffffffffffff16600260008363ffffffff1663ffffffff16815260200190815260200160002060009054906101000a900473ffffffffffffffffffffffffffffffffffffffff1673ffffffffffffffffffffffffffffffffffffffff1603610c6a576040517f08c379a0000000000000000000000000000000000000000000000000000000008152600401610c619061384d565b60405180910390fd5b600060018263ffffffff1681548110610c8657610c85613669565b5b9060005260206000209060070201600001600c9054906101000a900463ffffffff1663ffffffff1611610cee576040517f08c379a0000000000000000000000000000000000000000000000000000000008152600401610ce5906138b9565b60405180910390fd5b8273ffffffffffffffffffffffffffffffffffffffff166108fc60018363ffffffff1681548110610d2257610d21613669565b5b9060005260206000209060070201600001600c9054906101000a900463ffffffff1663ffffffff169081150290604051600060405180830381858888f19350505050158015610d75573d6000803e3d6000fd5b50610d8183838361243e565b505050565b6000600260008363ffffffff1663ffffffff16815260200190815260200160002060009054906101000a900473ffffffffffffffffffffffffffffffffffffffff169050919050565b610dd7612861565b60018281548110610deb57610dea613669565b5b9060005260206000209060070201604051806101400160405290816000820160009054906101000a900463ffffffff1663ffffffff1663ffffffff1681526020016000820160049054906101000a900463ffffffff1663ffffffff1663ffffffff1681526020016000820160089054906101000a900463ffffffff1663ffffffff1663ffffffff16815260200160008201600c9054906101000a900463ffffffff1663ffffffff1663ffffffff168152602001600182018054610ead906136c7565b80601f0160208091040260200160405190810160405280929190818152602001828054610ed9906136c7565b8015610f265780601f10610efb57610100808354040283529160200191610f26565b820191906000526020600020905b815481529060010190602001808311610f0957829003601f168201915b50505050508152602001600282018054610f3f906136c7565b80601f0160208091040260200160405190810160405280929190818152602001828054610f6b906136c7565b8015610fb85780601f10610f8d57610100808354040283529160200191610fb8565b820191906000526020600020905b815481529060010190602001808311610f9b57829003601f168201915b50505050508152602001600382018054610fd1906136c7565b80601f0160208091040260200160405190810160405280929190818152602001828054610ffd906136c7565b801561104a5780601f1061101f5761010080835404028352916020019161104a565b820191906000526020600020905b81548152906001019060200180831161102d57829003601f168201915b50505050508152602001600482018054611063906136c7565b80601f016020809104026020016040519081016040528092919081815260200182805461108f906136c7565b80156110dc5780601f106110b1576101008083540402835291602001916110dc565b820191906000526020600020905b8154815290600101906020018083116110bf57829003601f168201915b5050505050815260200160058201805480602002602001604051908101604052809291908181526020016000905b828210156111b6578382906000526020600020018054611129906136c7565b80601f0160208091040260200160405190810160405280929190818152602001828054611155906136c7565b80156111a25780601f10611177576101008083540402835291602001916111a2565b820191906000526020600020905b81548152906001019060200180831161118557829003601f168201915b50505050508152602001906001019061110a565b5050505081526020016006820160009054906101000a900460ff1615151515815250509050919050565b6111e8611a36565b6111f157600080fd5b6001818154811061120557611204613669565b5b906000526020600020906007020160060160009054906101000a900460ff16156001828154811061123957611238613669565b5b906000526020600020906007020160060160006101000a81548160ff02191690831515021790555050565b6000600260008363ffffffff1663ffffffff16815260200190815260200160002060009054906101000a900473ffffffffffffffffffffffffffffffffffffffff169050919050565b6000600360008373ffffffffffffffffffffffffffffffffffffffff1673ffffffffffffffffffffffffffffffffffffffff168152602001908152602001600020549050919050565b6112fe611a36565b61130757600080fd5b600073ffffffffffffffffffffffffffffffffffffffff1660008054906101000a900473ffffffffffffffffffffffffffffffffffffffff1673ffffffffffffffffffffffffffffffffffffffff167f8be0079c531659141344cd1fd0a4f28419497f9722a3daafe3b4186f6b6457e060405160405180910390a360008060006101000a81548173ffffffffffffffffffffffffffffffffffffffff021916908373ffffffffffffffffffffffffffffffffffffffff160217905550565b606060006113d1612628565b67ffffffffffffffff8111156113ea576113e96130fd565b5b60405190808252806020026020018201604052801561142357816020015b611410612861565b8152602001906001900390816114085790505b5090506000805b600180549050811015611928573373ffffffffffffffffffffffffffffffffffffffff16600260008363ffffffff1663ffffffff16815260200190815260200160002060009054906101000a900473ffffffffffffffffffffffffffffffffffffffff1673ffffffffffffffffffffffffffffffffffffffff16141580156114e15750600181815481106114c1576114c0613669565b5b906000526020600020906007020160060160009054906101000a900460ff165b1561191557600181815481106114fa576114f9613669565b5b9060005260206000209060070201604051806101400160405290816000820160009054906101000a900463ffffffff1663ffffffff1663ffffffff1681526020016000820160049054906101000a900463ffffffff1663ffffffff1663ffffffff1681526020016000820160089054906101000a900463ffffffff1663ffffffff1663ffffffff16815260200160008201600c9054906101000a900463ffffffff1663ffffffff1663ffffffff1681526020016001820180546115bc906136c7565b80601f01602080910402602001604051908101604052809291908181526020018280546115e8906136c7565b80156116355780601f1061160a57610100808354040283529160200191611635565b820191906000526020600020905b81548152906001019060200180831161161857829003601f168201915b5050505050815260200160028201805461164e906136c7565b80601f016020809104026020016040519081016040528092919081815260200182805461167a906136c7565b80156116c75780601f1061169c576101008083540402835291602001916116c7565b820191906000526020600020905b8154815290600101906020018083116116aa57829003601f168201915b505050505081526020016003820180546116e0906136c7565b80601f016020809104026020016040519081016040528092919081815260200182805461170c906136c7565b80156117595780601f1061172e57610100808354040283529160200191611759565b820191906000526020600020905b81548152906001019060200180831161173c57829003601f168201915b50505050508152602001600482018054611772906136c7565b80601f016020809104026020016040519081016040528092919081815260200182805461179e906136c7565b80156117eb5780601f106117c0576101008083540402835291602001916117eb565b820191906000526020600020905b8154815290600101906020018083116117ce57829003601f168201915b5050505050815260200160058201805480602002602001604051908101604052809291908181526020016000905b828210156118c5578382906000526020600020018054611838906136c7565b80601f0160208091040260200160405190810160405280929190818152602001828054611864906136c7565b80156118b15780601f10611886576101008083540402835291602001916118b1565b820191906000526020600020905b81548152906001019060200180831161189457829003601f168201915b505050505081526020019060010190611819565b5050505081526020016006820160009054906101000a900460ff1615151515815250508383815181106118fb576118fa613669565b5b6020026020010181905250818061191190613727565b9250505b808061192090613727565b91505061142a565b50819250505090565b611939611a36565b61194257600080fd5b6001828154811061195657611955613669565b5b906000526020600020906007020160000160089054906101000a900463ffffffff1663ffffffff168163ffffffff16116119c5576040517f08c379a00000000000000000000000000000000000000000000000000000000081526004016119bc9061394b565b60405180910390fd5b80600183815481106119da576119d9613669565b5b906000526020600020906007020160000160086101000a81548163ffffffff021916908363ffffffff1602179055505050565b60008060009054906101000a900473ffffffffffffffffffffffffffffffffffffffff16905090565b60008060009054906101000a900473ffffffffffffffffffffffffffffffffffffffff1673ffffffffffffffffffffffffffffffffffffffff163373ffffffffffffffffffffffffffffffffffffffff1614905090565b60026020528060005260406000206000915054906101000a900473ffffffffffffffffffffffffffffffffffffffff1681565b80600260008263ffffffff1663ffffffff16815260200190815260200160002060009054906101000a900473ffffffffffffffffffffffffffffffffffffffff1673ffffffffffffffffffffffffffffffffffffffff163373ffffffffffffffffffffffffffffffffffffffff1614611b6e576040517f08c379a0000000000000000000000000000000000000000000000000000000008152600401611b6590613649565b60405180910390fd5b60005b600180549050811015611cbf578263ffffffff1660018281548110611b9957611b98613669565b5b906000526020600020906007020160000160009054906101000a900463ffffffff1663ffffffff1603611cac5760018181548110611bda57611bd9613669565b5b9060005260206000209060070201600080820160006101000a81549063ffffffff02191690556000820160046101000a81549063ffffffff02191690556000820160086101000a81549063ffffffff021916905560008201600c6101000a81549063ffffffff0219169055600182016000611c5591906128ce565b600282016000611c6591906128ce565b600382016000611c7591906128ce565b600482016000611c8591906128ce565b600582016000611c95919061290e565b6006820160006101000a81549060ff021916905550505b8080611cb790613727565b915050611b71565b505050565b600060405180610140016040528060018054905063ffffffff1681526020018b63ffffffff1681526020018a63ffffffff1681526020018963ffffffff1681526020018881526020018781526020018681526020018581526020018481526020018315158152509050600181908060018154018082558091505060019003906000526020600020906007020160009091909190915060008201518160000160006101000a81548163ffffffff021916908363ffffffff16021790555060208201518160000160046101000a81548163ffffffff021916908363ffffffff16021790555060408201518160000160086101000a81548163ffffffff021916908363ffffffff160217905550606082015181600001600c6101000a81548163ffffffff021916908363ffffffff1602179055506080820151816001019081611e0a9190613b17565b5060a0820151816002019081611e209190613b17565b5060c0820151816003019081611e369190613b17565b5060e0820151816004019081611e4c9190613b17565b50610100820151816005019080519060200190611e6a92919061292f565b506101208201518160060160006101000a81548160ff02191690831515021790555050503360026000836000015163ffffffff1663ffffffff16815260200190815260200160002060006101000a81548173ffffffffffffffffffffffffffffffffffffffff021916908373ffffffffffffffffffffffffffffffffffffffff160217905550611f436001600360003373ffffffffffffffffffffffffffffffffffffffff1673ffffffffffffffffffffffffffffffffffffffff1681526020019081526020016000205461271890919063ffffffff16565b600360003373ffffffffffffffffffffffffffffffffffffffff1673ffffffffffffffffffffffffffffffffffffffff168152602001908152602001600020819055507f1a1d86e0f039b69dc75a6a99b30e291a372ccdcae3c35990cc416065bf72777881604051611fb5919061303d565b60405180910390a150505050505050505050565b8073ffffffffffffffffffffffffffffffffffffffff166108fc349081150290604051600060405180830381858888f1935050505015801561200f573d6000803e3d6000fd5b5050565b61201b611a36565b61202457600080fd5b61202d81612744565b50565b6001818154811061204057600080fd5b90600052602060002090600702016000915090508060000160009054906101000a900463ffffffff16908060000160049054906101000a900463ffffffff16908060000160089054906101000a900463ffffffff169080600001600c9054906101000a900463ffffffff16908060010180546120bb906136c7565b80601f01602080910402602001604051908101604052809291908181526020018280546120e7906136c7565b80156121345780601f1061210957610100808354040283529160200191612134565b820191906000526020600020905b81548152906001019060200180831161211757829003601f168201915b505050505090806002018054612149906136c7565b80601f0160208091040260200160405190810160405280929190818152602001828054612175906136c7565b80156121c25780601f10612197576101008083540402835291602001916121c2565b820191906000526020600020905b8154815290600101906020018083116121a557829003601f168201915b5050505050908060030180546121d7906136c7565b80601f0160208091040260200160405190810160405280929190818152602001828054612203906136c7565b80156122505780601f1061222557610100808354040283529160200191612250565b820191906000526020600020905b81548152906001019060200180831161223357829003601f168201915b505050505090806004018054612265906136c7565b80601f0160208091040260200160405190810160405280929190818152602001828054612291906136c7565b80156122de5780601f106122b3576101008083540402835291602001916122de565b820191906000526020600020905b8154815290600101906020018083116122c157829003601f168201915b5050505050908060060160009054906101000a900460ff16905089565b612303611a36565b61230c57600080fd5b806001838154811061232157612320613669565b5b9060005260206000209060070201600001600c6101000a81548163ffffffff021916908363ffffffff1602179055505050565b6000806000905060005b600180549050811015612434578373ffffffffffffffffffffffffffffffffffffffff16600260006001848154811061239a57612399613669565b5b906000526020600020906007020160000160009054906101000a900463ffffffff1663ffffffff1663ffffffff16815260200190815260200160002060009054906101000a900473ffffffffffffffffffffffffffffffffffffffff1673ffffffffffffffffffffffffffffffffffffffff160361242157818061241d90613727565b9250505b808061242c90613727565b91505061235e565b5080915050919050565b6124916001600360008573ffffffffffffffffffffffffffffffffffffffff1673ffffffffffffffffffffffffffffffffffffffff1681526020019081526020016000205461271890919063ffffffff16565b600360008473ffffffffffffffffffffffffffffffffffffffff1673ffffffffffffffffffffffffffffffffffffffff168152602001908152602001600020819055506125276001600360003373ffffffffffffffffffffffffffffffffffffffff1673ffffffffffffffffffffffffffffffffffffffff1681526020019081526020016000205461283a90919063ffffffff16565b600360003373ffffffffffffffffffffffffffffffffffffffff1673ffffffffffffffffffffffffffffffffffffffff1681526020019081526020016000208190555081600260008363ffffffff1663ffffffff16815260200190815260200160002060006101000a81548173ffffffffffffffffffffffffffffffffffffffff021916908373ffffffffffffffffffffffffffffffffffffffff160217905550808273ffffffffffffffffffffffffffffffffffffffff168473ffffffffffffffffffffffffffffffffffffffff167fddf252ad1be2c89b69c2b068fc378daa952ba7f163c4a11628f55a4df523b3ef60405160405180910390a4505050565b6000806000905060005b600180549050811015612710573373ffffffffffffffffffffffffffffffffffffffff16600260008363ffffffff1663ffffffff16815260200190815260200160002060009054906101000a900473ffffffffffffffffffffffffffffffffffffffff1673ffffffffffffffffffffffffffffffffffffffff16141580156126e95750600181815481106126c9576126c8613669565b5b906000526020600020906007020160060160009054906101000a900460ff165b156126fd5781806126f990613727565b9250505b808061270890613727565b915050612632565b508091505090565b60008082846127279190613be9565b90508381101561273a57612739613c1d565b5b8091505092915050565b600073ffffffffffffffffffffffffffffffffffffffff168173ffffffffffffffffffffffffffffffffffffffff160361277d57600080fd5b8073ffffffffffffffffffffffffffffffffffffffff1660008054906101000a900473ffffffffffffffffffffffffffffffffffffffff1673ffffffffffffffffffffffffffffffffffffffff167f8be0079c531659141344cd1fd0a4f28419497f9722a3daafe3b4186f6b6457e060405160405180910390a3806000806101000a81548173ffffffffffffffffffffffffffffffffffffffff021916908373ffffffffffffffffffffffffffffffffffffffff16021790555050565b60008282111561284d5761284c613c1d565b5b81836128599190613c4c565b905092915050565b604051806101400160405280600063ffffffff168152602001600063ffffffff168152602001600063ffffffff168152602001600063ffffffff16815260200160608152602001606081526020016060815260200160608152602001606081526020016000151581525090565b5080546128da906136c7565b6000825580601f106128ec575061290b565b601f01602090049060005260206000209081019061290a9190612988565b5b50565b508054600082559060005260206000209081019061292c91906129a5565b50565b828054828255906000526020600020908101928215612977579160200282015b828111156129765782518290816129669190613b17565b509160200191906001019061294f565b5b50905061298491906129a5565b5090565b5b808211156129a1576000816000905550600101612989565b5090565b5b808211156129c557600081816129bc91906128ce565b506001016129a6565b5090565b6000604051905090565b600080fd5b600080fd5b600073ffffffffffffffffffffffffffffffffffffffff82169050919050565b6000612a08826129dd565b9050919050565b612a18816129fd565b8114612a2357600080fd5b50565b600081359050612a3581612a0f565b92915050565b6000819050919050565b612a4e81612a3b565b8114612a5957600080fd5b50565b600081359050612a6b81612a45565b92915050565b60008060408385031215612a8857612a876129d3565b5b6000612a9685828601612a26565b9250506020612aa785828601612a5c565b9150509250929050565b600060208284031215612ac757612ac66129d3565b5b6000612ad584828501612a26565b91505092915050565b600081519050919050565b600082825260208201905092915050565b6000819050602082019050919050565b600063ffffffff82169050919050565b612b2381612b0a565b82525050565b600081519050919050565b600082825260208201905092915050565b60005b83811015612b63578082015181840152602081019050612b48565b60008484015250505050565b6000601f19601f8301169050919050565b6000612b8b82612b29565b612b958185612b34565b9350612ba5818560208601612b45565b612bae81612b6f565b840191505092915050565b600081519050919050565b600082825260208201905092915050565b6000819050602082019050919050565b6000612bf18383612b80565b905092915050565b6000602082019050919050565b6000612c1182612bb9565b612c1b8185612bc4565b935083602082028501612c2d85612bd5565b8060005b85811015612c695784840389528151612c4a8582612be5565b9450612c5583612bf9565b925060208a01995050600181019050612c31565b50829750879550505050505092915050565b60008115159050919050565b612c9081612c7b565b82525050565b600061014083016000830151612caf6000860182612b1a565b506020830151612cc26020860182612b1a565b506040830151612cd56040860182612b1a565b506060830151612ce86060860182612b1a565b5060808301518482036080860152612d008282612b80565b91505060a083015184820360a0860152612d1a8282612b80565b91505060c083015184820360c0860152612d348282612b80565b91505060e083015184820360e0860152612d4e8282612b80565b915050610100830151848203610100860152612d6a8282612c06565b915050610120830151612d81610120860182612c87565b508091505092915050565b6000612d988383612c96565b905092915050565b6000602082019050919050565b6000612db882612ade565b612dc28185612ae9565b935083602082028501612dd485612afa565b8060005b85811015612e105784840389528151612df18582612d8c565b9450612dfc83612da0565b925060208a01995050600181019050612dd8565b50829750879550505050505092915050565b60006020820190508181036000830152612e3c8184612dad565b905092915050565b600080600060608486031215612e5d57612e5c6129d3565b5b6000612e6b86828701612a26565b9350506020612e7c86828701612a26565b9250506040612e8d86828701612a5c565b9150509250925092565b612ea081612b0a565b8114612eab57600080fd5b50565b600081359050612ebd81612e97565b92915050565b600060208284031215612ed957612ed86129d3565b5b6000612ee784828501612eae565b91505092915050565b612ef9816129fd565b82525050565b6000602082019050612f146000830184612ef0565b92915050565b600060208284031215612f3057612f2f6129d3565b5b6000612f3e84828501612a5c565b91505092915050565b600061014083016000830151612f606000860182612b1a565b506020830151612f736020860182612b1a565b506040830151612f866040860182612b1a565b506060830151612f996060860182612b1a565b5060808301518482036080860152612fb18282612b80565b91505060a083015184820360a0860152612fcb8282612b80565b91505060c083015184820360c0860152612fe58282612b80565b91505060e083015184820360e0860152612fff8282612b80565b91505061010083015184820361010086015261301b8282612c06565b915050610120830151613032610120860182612c87565b508091505092915050565b600060208201905081810360008301526130578184612f47565b905092915050565b61306881612a3b565b82525050565b6000602082019050613083600083018461305f565b92915050565b600080604083850312156130a05761309f6129d3565b5b60006130ae85828601612a5c565b92505060206130bf85828601612eae565b9150509250929050565b6130d281612c7b565b82525050565b60006020820190506130ed60008301846130c9565b92915050565b600080fd5b600080fd5b7f4e487b7100000000000000000000000000000000000000000000000000000000600052604160045260246000fd5b61313582612b6f565b810181811067ffffffffffffffff82111715613154576131536130fd565b5b80604052505050565b60006131676129c9565b9050613173828261312c565b919050565b600067ffffffffffffffff821115613193576131926130fd565b5b61319c82612b6f565b9050602081019050919050565b82818337600083830152505050565b60006131cb6131c684613178565b61315d565b9050828152602081018484840111156131e7576131e66130f8565b5b6131f28482856131a9565b509392505050565b600082601f83011261320f5761320e6130f3565b5b813561321f8482602086016131b8565b91505092915050565b600067ffffffffffffffff821115613243576132426130fd565b5b602082029050602081019050919050565b600080fd5b600061326c61326784613228565b61315d565b9050808382526020820190506020840283018581111561328f5761328e613254565b5b835b818110156132d657803567ffffffffffffffff8111156132b4576132b36130f3565b5b8086016132c189826131fa565b85526020850194505050602081019050613291565b5050509392505050565b600082601f8301126132f5576132f46130f3565b5b8135613305848260208601613259565b91505092915050565b61331781612c7b565b811461332257600080fd5b50565b6000813590506133348161330e565b92915050565b60008060008060008060008060006101208a8c03121561335d5761335c6129d3565b5b600061336b8c828d01612eae565b995050602061337c8c828d01612eae565b985050604061338d8c828d01612eae565b97505060608a013567ffffffffffffffff8111156133ae576133ad6129d8565b5b6133ba8c828d016131fa565b96505060808a013567ffffffffffffffff8111156133db576133da6129d8565b5b6133e78c828d016131fa565b95505060a08a013567ffffffffffffffff811115613408576134076129d8565b5b6134148c828d016131fa565b94505060c08a013567ffffffffffffffff811115613435576134346129d8565b5b6134418c828d016131fa565b93505060e08a013567ffffffffffffffff811115613462576134616129d8565b5b61346e8c828d016132e0565b9250506101006134808c828d01613325565b9150509295985092959850929598565b600061349b826129dd565b9050919050565b6134ab81613490565b81146134b657600080fd5b50565b6000813590506134c8816134a2565b92915050565b6000602082840312156134e4576134e36129d3565b5b60006134f2848285016134b9565b91505092915050565b61350481612b0a565b82525050565b600082825260208201905092915050565b600061352682612b29565b613530818561350a565b9350613540818560208601612b45565b61354981612b6f565b840191505092915050565b60006101208201905061356a600083018c6134fb565b613577602083018b6134fb565b613584604083018a6134fb565b61359160608301896134fb565b81810360808301526135a3818861351b565b905081810360a08301526135b7818761351b565b905081810360c08301526135cb818661351b565b905081810360e08301526135df818561351b565b90506135ef6101008301846130c9565b9a9950505050505050505050565b7f546861742773206e6f7420796f20636172000000000000000000000000000000600082015250565b600061363360118361350a565b915061363e826135fd565b602082019050919050565b6000602082019050818103600083015261366281613626565b9050919050565b7f4e487b7100000000000000000000000000000000000000000000000000000000600052603260045260246000fd5b7f4e487b7100000000000000000000000000000000000000000000000000000000600052602260045260246000fd5b600060028204905060018216806136df57607f821691505b6020821081036136f2576136f1613698565b5b50919050565b7f4e487b7100000000000000000000000000000000000000000000000000000000600052601160045260246000fd5b600061373282612a3b565b91507fffffffffffffffffffffffffffffffffffffffffffffffffffffffffffffffff8203613764576137636136f8565b5b600182019050919050565b7f5468697320636172206973206e6f7420666f722073616c650000000000000000600082015250565b60006137a560188361350a565b91506137b08261376f565b602082019050919050565b600060208201905081810360008301526137d481613798565b9050919050565b7f596f7520616c7265616479206f776e20746869732063617220736f20796f752060008201527f63616e206e6f7420627579206974000000000000000000000000000000000000602082015250565b6000613837602e8361350a565b9150613842826137db565b604082019050919050565b600060208201905081810360008301526138668161382a565b9050919050565b7f5072696365206d7573742062652067726561746572207468616e207a65726f00600082015250565b60006138a3601f8361350a565b91506138ae8261386d565b602082019050919050565b600060208201905081810360008301526138d281613896565b9050919050565b7f546865206e6577206d696c616765206d75737420626520686967686572204f5560008201527f4c45480000000000000000000000000000000000000000000000000000000000602082015250565b600061393560238361350a565b9150613940826138d9565b604082019050919050565b6000602082019050818103600083015261396481613928565b9050919050565b60008190508160005260206000209050919050565b60006020601f8301049050919050565b600082821b905092915050565b6000600883026139cd7fffffffffffffffffffffffffffffffffffffffffffffffffffffffffffffffff82613990565b6139d78683613990565b95508019841693508086168417925050509392505050565b6000819050919050565b6000613a14613a0f613a0a84612a3b565b6139ef565b612a3b565b9050919050565b6000819050919050565b613a2e836139f9565b613a42613a3a82613a1b565b84845461399d565b825550505050565b600090565b613a57613a4a565b613a62818484613a25565b505050565b5b81811015613a8657613a7b600082613a4f565b600181019050613a68565b5050565b601f821115613acb57613a9c8161396b565b613aa584613980565b81016020851015613ab4578190505b613ac8613ac085613980565b830182613a67565b50505b505050565b600082821c905092915050565b6000613aee60001984600802613ad0565b1980831691505092915050565b6000613b078383613add565b9150826002028217905092915050565b613b2082612b29565b67ffffffffffffffff811115613b3957613b386130fd565b5b613b4382546136c7565b613b4e828285613a8a565b600060209050601f831160018114613b815760008415613b6f578287015190505b613b798582613afb565b865550613be1565b601f198416613b8f8661396b565b60005b82811015613bb757848901518255600182019150602085019450602081019050613b92565b86831015613bd45784890151613bd0601f891682613add565b8355505b6001600288020188555050505b505050505050565b6000613bf482612a3b565b9150613bff83612a3b565b9250828201905080821115613c1757613c166136f8565b5b92915050565b7f4e487b7100000000000000000000000000000000000000000000000000000000600052600160045260246000fd5b6000613c5782612a3b565b9150613c6283612a3b565b9250828203905081811115613c7a57613c796136f8565b5b9291505056fea26469706673582212201c9ffbafe4d201063827f7647c4de1d160eceb9ac7bf8725d7138e4367263b6664736f6c63430008120033",
  "linkReferences": {},
  "deployedLinkReferences": {}
}