{
  "_format": "hh-sol-artifact-1",
  "contractName": "CarOwnership",
  "sourceName": "contracts/carownership.sol",
  "abi": [
    {
      "anonymous": false,
      "inputs": [
        {
          "indexed": true,
          "internalType": "address",
          "name": "_owner",
          "type": "address"
        },
        {
          "indexed": true,
          "internalType": "address",
          "name": "_approved",
          "type": "address"
        },
        {
          "indexed": true,
          "internalType": "uint256",
          "name": "_tokenId",
          "type": "uint256"
        }
      ],
      "name": "Approval",
      "type": "event"
    },
    {
      "anonymous": false,
      "inputs": [
        {
          "components": [
            {
              "internalType": "uint32",
              "name": "id",
              "type": "uint32"
            },
            {
              "internalType": "uint32",
              "name": "chassisNumber",
              "type": "uint32"
            },
            {
              "internalType": "uint32",
              "name": "mileage",
              "type": "uint32"
            },
            {
              "internalType": "uint32",
              "name": "price",
              "type": "uint32"
            },
            {
              "internalType": "string",
              "name": "licensePlate",
              "type": "string"
            },
            {
              "internalType": "string",
              "name": "brand",
              "type": "string"
            },
            {
              "internalType": "string",
              "name": "carType",
              "type": "string"
            },
            {
              "internalType": "string",
              "name": "colour",
              "type": "string"
            },
            {
              "internalType": "string[]",
              "name": "pictures",
              "type": "string[]"
            },
            {
              "internalType": "bool",
              "name": "isForSale",
              "type": "bool"
            }
          ],
          "indexed": false,
          "internalType": "struct CarDetails.Car",
          "name": "car",
          "type": "tuple"
        }
      ],
      "name": "NewCar",
      "type": "event"
    },
    {
      "anonymous": false,
      "inputs": [
        {
          "indexed": true,
          "internalType": "address",
          "name": "previousOwner",
          "type": "address"
        },
        {
          "indexed": true,
          "internalType": "address",
          "name": "newOwner",
          "type": "address"
        }
      ],
      "name": "OwnershipTransferred",
      "type": "event"
    },
    {
      "anonymous": false,
      "inputs": [
        {
          "indexed": true,
          "internalType": "address",
          "name": "_from",
          "type": "address"
        },
        {
          "indexed": true,
          "internalType": "address",
          "name": "_to",
          "type": "address"
        },
        {
          "indexed": true,
          "internalType": "uint256",
          "name": "_tokenId",
          "type": "uint256"
        }
      ],
      "name": "Transfer",
      "type": "event"
    },
    {
      "inputs": [],
      "name": "addEtherToYourWallet",
      "outputs": [],
      "stateMutability": "payable",
      "type": "function"
    },
    {
      "inputs": [
        {
          "internalType": "address",
          "name": "_approved",
          "type": "address"
        },
        {
          "internalType": "uint256",
          "name": "_tokenId",
          "type": "uint256"
        }
      ],
      "name": "approve",
      "outputs": [],
      "stateMutability": "payable",
      "type": "function"
    },
    {
      "inputs": [
        {
          "internalType": "address",
          "name": "_owner",
          "type": "address"
        }
      ],
      "name": "balanceOf",
      "outputs": [
        {
          "internalType": "uint256",
          "name": "",
          "type": "uint256"
        }
      ],
      "stateMutability": "view",
      "type": "function"
    },
    {
      "inputs": [
        {
          "internalType": "uint32",
          "name": "",
          "type": "uint32"
        }
      ],
      "name": "carToOwner",
      "outputs": [
        {
          "internalType": "address",
          "name": "",
          "type": "address"
        }
      ],
      "stateMutability": "view",
      "type": "function"
    },
    {
      "inputs": [
        {
          "internalType": "uint256",
          "name": "",
          "type": "uint256"
        }
      ],
      "name": "cars",
      "outputs": [
        {
          "internalType": "uint32",
          "name": "id",
          "type": "uint32"
        },
        {
          "internalType": "uint32",
          "name": "chassisNumber",
          "type": "uint32"
        },
        {
          "internalType": "uint32",
          "name": "mileage",
          "type": "uint32"
        },
        {
          "internalType": "uint32",
          "name": "price",
          "type": "uint32"
        },
        {
          "internalType": "string",
          "name": "licensePlate",
          "type": "string"
        },
        {
          "internalType": "string",
          "name": "brand",
          "type": "string"
        },
        {
          "internalType": "string",
          "name": "carType",
          "type": "string"
        },
        {
          "internalType": "string",
          "name": "colour",
          "type": "string"
        },
        {
          "internalType": "bool",
          "name": "isForSale",
          "type": "bool"
        }
      ],
      "stateMutability": "view",
      "type": "function"
    },
    {
      "inputs": [
        {
          "internalType": "uint32",
          "name": "_chassisNumber",
          "type": "uint32"
        },
        {
          "internalType": "uint32",
          "name": "_mileage",
          "type": "uint32"
        },
        {
          "internalType": "uint32",
          "name": "_price",
          "type": "uint32"
        },
        {
          "internalType": "string",
          "name": "_licensePlate",
          "type": "string"
        },
        {
          "internalType": "string",
          "name": "_brand",
          "type": "string"
        },
        {
          "internalType": "string",
          "name": "_carType",
          "type": "string"
        },
        {
          "internalType": "string",
          "name": "_colour",
          "type": "string"
        },
        {
          "internalType": "string[]",
          "name": "_pictures",
          "type": "string[]"
        },
        {
          "internalType": "bool",
          "name": "_isForSale",
          "type": "bool"
        }
      ],
      "name": "createCar",
      "outputs": [],
      "stateMutability": "nonpayable",
      "type": "function"
    },
    {
      "inputs": [
        {
          "internalType": "uint32",
          "name": "_carId",
          "type": "uint32"
        }
      ],
      "name": "deleteCar",
      "outputs": [],
      "stateMutability": "nonpayable",
      "type": "function"
    },
    {
      "inputs": [
        {
          "internalType": "address",
          "name": "_owner",
          "type": "address"
        }
      ],
      "name": "getAllCarsForOwner",
      "outputs": [
        {
          "components": [
            {
              "internalType": "uint32",
              "name": "id",
              "type": "uint32"
            },
            {
              "internalType": "uint32",
              "name": "chassisNumber",
              "type": "uint32"
            },
            {
              "internalType": "uint32",
              "name": "mileage",
              "type": "uint32"
            },
            {
              "internalType": "uint32",
              "name": "price",
              "type": "uint32"
            },
            {
              "internalType": "string",
              "name": "licensePlate",
              "type": "string"
            },
            {
              "internalType": "string",
              "name": "brand",
              "type": "string"
            },
            {
              "internalType": "string",
              "name": "carType",
              "type": "string"
            },
            {
              "internalType": "string",
              "name": "colour",
              "type": "string"
            },
            {
              "internalType": "string[]",
              "name": "pictures",
              "type": "string[]"
            },
            {
              "internalType": "bool",
              "name": "isForSale",
              "type": "bool"
            }
          ],
          "internalType": "struct CarDetails.Car[]",
          "name": "",
          "type": "tuple[]"
        }
      ],
      "stateMutability": "view",
      "type": "function"
    },
    {
      "inputs": [
        {
          "internalType": "uint256",
          "name": "_carId",
          "type": "uint256"
        }
      ],
      "name": "getCar",
      "outputs": [
        {
          "components": [
            {
              "internalType": "uint32",
              "name": "id",
              "type": "uint32"
            },
            {
              "internalType": "uint32",
              "name": "chassisNumber",
              "type": "uint32"
            },
            {
              "internalType": "uint32",
              "name": "mileage",
              "type": "uint32"
            },
            {
              "internalType": "uint32",
              "name": "price",
              "type": "uint32"
            },
            {
              "internalType": "string",
              "name": "licensePlate",
              "type": "string"
            },
            {
              "internalType": "string",
              "name": "brand",
              "type": "string"
            },
            {
              "internalType": "string",
              "name": "carType",
              "type": "string"
            },
            {
              "internalType": "string",
              "name": "colour",
              "type": "string"
            },
            {
              "internalType": "string[]",
              "name": "pictures",
              "type": "string[]"
            },
            {
              "internalType": "bool",
              "name": "isForSale",
              "type": "bool"
            }
          ],
          "internalType": "struct CarDetails.Car",
          "name": "",
          "type": "tuple"
        }
      ],
      "stateMutability": "view",
      "type": "function"
    },
    {
      "inputs": [
        {
          "internalType": "uint32",
          "name": "_carId",
          "type": "uint32"
        }
      ],
      "name": "getCarOwner",
      "outputs": [
        {
          "internalType": "address",
          "name": "ownerAddress",
          "type": "address"
        }
      ],
      "stateMutability": "view",
      "type": "function"
    },
    {
      "inputs": [
        {
          "internalType": "address",
          "name": "_buyer",
          "type": "address"
        }
      ],
      "name": "getCarsForSale",
      "outputs": [
        {
          "components": [
            {
              "internalType": "uint32",
              "name": "id",
              "type": "uint32"
            },
            {
              "internalType": "uint32",
              "name": "chassisNumber",
              "type": "uint32"
            },
            {
              "internalType": "uint32",
              "name": "mileage",
              "type": "uint32"
            },
            {
              "internalType": "uint32",
              "name": "price",
              "type": "uint32"
            },
            {
              "internalType": "string",
              "name": "licensePlate",
              "type": "string"
            },
            {
              "internalType": "string",
              "name": "brand",
              "type": "string"
            },
            {
              "internalType": "string",
              "name": "carType",
              "type": "string"
            },
            {
              "internalType": "string",
              "name": "colour",
              "type": "string"
            },
            {
              "internalType": "string[]",
              "name": "pictures",
              "type": "string[]"
            },
            {
              "internalType": "bool",
              "name": "isForSale",
              "type": "bool"
            }
          ],
          "internalType": "struct CarDetails.Car[]",
          "name": "",
          "type": "tuple[]"
        }
      ],
      "stateMutability": "view",
      "type": "function"
    },
    {
      "inputs": [
        {
          "internalType": "address",
          "name": "_address",
          "type": "address"
        }
      ],
      "name": "getWalletBalance",
      "outputs": [
        {
          "internalType": "uint32",
          "name": "",
          "type": "uint32"
        }
      ],
      "stateMutability": "view",
      "type": "function"
    },
    {
      "inputs": [],
      "name": "isOwner",
      "outputs": [
        {
          "internalType": "bool",
          "name": "",
          "type": "bool"
        }
      ],
      "stateMutability": "view",
      "type": "function"
    },
    {
      "inputs": [],
      "name": "owner",
      "outputs": [
        {
          "internalType": "address",
          "name": "",
          "type": "address"
        }
      ],
      "stateMutability": "view",
      "type": "function"
    },
    {
      "inputs": [
        {
          "internalType": "uint256",
          "name": "_tokenId",
          "type": "uint256"
        }
      ],
      "name": "ownerOf",
      "outputs": [
        {
          "internalType": "address",
          "name": "",
          "type": "address"
        }
      ],
      "stateMutability": "view",
      "type": "function"
    },
    {
      "inputs": [],
      "name": "renounceOwnership",
      "outputs": [],
      "stateMutability": "nonpayable",
      "type": "function"
    },
    {
      "inputs": [
        {
          "internalType": "uint256",
          "name": "_carId",
          "type": "uint256"
        }
      ],
      "name": "toggleSaleState",
      "outputs": [],
      "stateMutability": "nonpayable",
      "type": "function"
    },
    {
      "inputs": [
        {
          "internalType": "address",
          "name": "_from",
          "type": "address"
        },
        {
          "internalType": "address",
          "name": "_to",
          "type": "address"
        },
        {
          "internalType": "uint256",
          "name": "_tokenId",
          "type": "uint256"
        }
      ],
      "name": "transferFrom",
      "outputs": [],
      "stateMutability": "payable",
      "type": "function"
    },
    {
      "inputs": [
        {
          "internalType": "address",
          "name": "newOwner",
          "type": "address"
        }
      ],
      "name": "transferOwnership",
      "outputs": [],
      "stateMutability": "nonpayable",
      "type": "function"
    },
    {
      "inputs": [
        {
          "internalType": "uint256",
          "name": "_carId",
          "type": "uint256"
        },
        {
          "internalType": "uint32",
          "name": "_newMileage",
          "type": "uint32"
        }
      ],
      "name": "updateMileage",
      "outputs": [],
      "stateMutability": "nonpayable",
      "type": "function"
    },
    {
      "inputs": [
        {
          "internalType": "uint256",
          "name": "_carId",
          "type": "uint256"
        },
        {
          "internalType": "uint32",
          "name": "_newPrice",
          "type": "uint32"
        }
      ],
      "name": "updatePrice",
      "outputs": [],
      "stateMutability": "nonpayable",
      "type": "function"
    },
    {
      "inputs": [],
      "name": "withdrawEtherFromWallet",
      "outputs": [],
      "stateMutability": "payable",
      "type": "function"
    }
  ],
  "bytecode": "0x608060405234801561001057600080fd5b50336000806101000a81548173ffffffffffffffffffffffffffffffffffffffff021916908373ffffffffffffffffffffffffffffffffffffffff16021790555060008054906101000a900473ffffffffffffffffffffffffffffffffffffffff1673ffffffffffffffffffffffffffffffffffffffff16600073ffffffffffffffffffffffffffffffffffffffff167f8be0079c531659141344cd1fd0a4f28419497f9722a3daafe3b4186f6b6457e060405160405180910390a361446c806100db6000396000f3fe6080604052600436106101355760003560e01c80638da5cb5b116100ab578063b275decc1161006f578063b275decc146103f0578063d4d942ec14610419578063ed8ec19414610442578063f2fde38b1461047f578063f7746e36146104a8578063f95fe25b146104ed57610135565b80638da5cb5b146103165780638f32d59b1461034157806391a207761461036c5780639ab656aa146103a9578063adb71f51146103e657610135565b8063628dd13e116100fd578063628dd13e146102295780636352211e146102525780636ed2630e1461028f57806370a0823114610299578063715018a6146102d65780637edffa53146102ed57610135565b8063095ea7b31461013a5780632286c0c11461015657806323b872dd1461019357806339c98a1b146101af5780635e8be190146101ec575b600080fd5b610154600480360381019061014f9190612f9a565b610516565b005b34801561016257600080fd5b5061017d60048036038101906101789190612fda565b610676565b60405161018a919061334b565b60405180910390f35b6101ad60048036038101906101a8919061336d565b610ba8565b005b3480156101bb57600080fd5b506101d660048036038101906101d191906133ec565b610f0f565b6040516101e39190613428565b60405180910390f35b3480156101f857600080fd5b50610213600480360381019061020e9190613443565b610f58565b6040516102209190613566565b60405180910390f35b34801561023557600080fd5b50610250600480360381019061024b9190613443565b611369565b005b34801561025e57600080fd5b5061027960048036038101906102749190613443565b6113ed565b6040516102869190613428565b60405180910390f35b610297611436565b005b3480156102a557600080fd5b506102c060048036038101906102bb9190612fda565b6115e8565b6040516102cd9190613597565b60405180910390f35b3480156102e257600080fd5b506102eb611631565b005b3480156102f957600080fd5b50610314600480360381019061030f91906135b2565b611700565b005b34801561032257600080fd5b5061032b6117dc565b6040516103389190613428565b60405180910390f35b34801561034d57600080fd5b50610356611805565b6040516103639190613601565b60405180910390f35b34801561037857600080fd5b50610393600480360381019061038e91906133ec565b61185c565b6040516103a09190613428565b60405180910390f35b3480156103b557600080fd5b506103d060048036038101906103cb9190612fda565b61188f565b6040516103dd919061334b565b60405180910390f35b6103ee611dfe565b005b3480156103fc57600080fd5b50610417600480360381019061041291906133ec565b611ec5565b005b34801561042557600080fd5b50610440600480360381019061043b9190613863565b6120c9565b005b34801561044e57600080fd5b5061046960048036038101906104649190612fda565b612476565b60405161047691906139c8565b60405180910390f35b34801561048b57600080fd5b506104a660048036038101906104a19190612fda565b6124cf565b005b3480156104b457600080fd5b506104cf60048036038101906104ca9190613443565b6124ec565b6040516104e499989796959493929190613a2d565b60405180910390f35b3480156104f957600080fd5b50610514600480360381019061050f91906135b2565b6127b7565b005b80600260008263ffffffff1663ffffffff16815260200190815260200160002060009054906101000a900473ffffffffffffffffffffffffffffffffffffffff1673ffffffffffffffffffffffffffffffffffffffff163373ffffffffffffffffffffffffffffffffffffffff16146105c4576040517f08c379a00000000000000000000000000000000000000000000000000000000081526004016105bb90613b22565b60405180910390fd5b826004600084815260200190815260200160002060006101000a81548173ffffffffffffffffffffffffffffffffffffffff021916908373ffffffffffffffffffffffffffffffffffffffff160217905550818373ffffffffffffffffffffffffffffffffffffffff163373ffffffffffffffffffffffffffffffffffffffff167f8c5be1e5ebec7d5bd14f71427d1e84f3dd0314c0f7b2291e5b200ac8c7c3b92560405160405180910390a4505050565b6060600061068383612810565b67ffffffffffffffff81111561069c5761069b613626565b5b6040519080825280602002602001820160405280156106d557816020015b6106c2612d8a565b8152602001906001900390816106ba5790505b5090506000805b600180549050811015610b9d578473ffffffffffffffffffffffffffffffffffffffff16600260008363ffffffff1663ffffffff16815260200190815260200160002060009054906101000a900473ffffffffffffffffffffffffffffffffffffffff1673ffffffffffffffffffffffffffffffffffffffff1603610b8a576001818154811061076f5761076e613b42565b5b9060005260206000209060070201604051806101400160405290816000820160009054906101000a900463ffffffff1663ffffffff1663ffffffff1681526020016000820160049054906101000a900463ffffffff1663ffffffff1663ffffffff1681526020016000820160089054906101000a900463ffffffff1663ffffffff1663ffffffff16815260200160008201600c9054906101000a900463ffffffff1663ffffffff1663ffffffff16815260200160018201805461083190613ba0565b80601f016020809104026020016040519081016040528092919081815260200182805461085d90613ba0565b80156108aa5780601f1061087f576101008083540402835291602001916108aa565b820191906000526020600020905b81548152906001019060200180831161088d57829003601f168201915b505050505081526020016002820180546108c390613ba0565b80601f01602080910402602001604051908101604052809291908181526020018280546108ef90613ba0565b801561093c5780601f106109115761010080835404028352916020019161093c565b820191906000526020600020905b81548152906001019060200180831161091f57829003601f168201915b5050505050815260200160038201805461095590613ba0565b80601f016020809104026020016040519081016040528092919081815260200182805461098190613ba0565b80156109ce5780601f106109a3576101008083540402835291602001916109ce565b820191906000526020600020905b8154815290600101906020018083116109b157829003601f168201915b505050505081526020016004820180546109e790613ba0565b80601f0160208091040260200160405190810160405280929190818152602001828054610a1390613ba0565b8015610a605780601f10610a3557610100808354040283529160200191610a60565b820191906000526020600020905b815481529060010190602001808311610a4357829003601f168201915b5050505050815260200160058201805480602002602001604051908101604052809291908181526020016000905b82821015610b3a578382906000526020600020018054610aad90613ba0565b80601f0160208091040260200160405190810160405280929190818152602001828054610ad990613ba0565b8015610b265780601f10610afb57610100808354040283529160200191610b26565b820191906000526020600020905b815481529060010190602001808311610b0957829003601f168201915b505050505081526020019060010190610a8e565b5050505081526020016006820160009054906101000a900460ff161515151581525050838381518110610b7057610b6f613b42565b5b60200260200101819052508180610b8690613c00565b9250505b8080610b9590613c00565b9150506106dc565b508192505050919050565b60018181548110610bbc57610bbb613b42565b5b906000526020600020906007020160060160009054906101000a900460ff16610c1a576040517f08c379a0000000000000000000000000000000000000000000000000000000008152600401610c1190613c94565b60405180910390fd5b3373ffffffffffffffffffffffffffffffffffffffff16600260008363ffffffff1663ffffffff16815260200190815260200160002060009054906101000a900473ffffffffffffffffffffffffffffffffffffffff1673ffffffffffffffffffffffffffffffffffffffff1603610cc7576040517f08c379a0000000000000000000000000000000000000000000000000000000008152600401610cbe90613d26565b60405180910390fd5b600060018263ffffffff1681548110610ce357610ce2613b42565b5b9060005260206000209060070201600001600c9054906101000a900463ffffffff16905060008163ffffffff1611610d50576040517f08c379a0000000000000000000000000000000000000000000000000000000008152600401610d4790613d92565b60405180910390fd5b60008473ffffffffffffffffffffffffffffffffffffffff16670de0b6b3a76400008363ffffffff16610d839190613dc6565b67ffffffffffffffff16604051610d9990613e34565b60006040518083038185875af1925050503d8060008114610dd6576040519150601f19603f3d011682016040523d82523d6000602084013e610ddb565b606091505b5050905080610e1f576040517f08c379a0000000000000000000000000000000000000000000000000000000008152600401610e1690613e95565b60405180910390fd5b610ea0670de0b6b3a76400008363ffffffff16610e3c9190613dc6565b600560003373ffffffffffffffffffffffffffffffffffffffff1673ffffffffffffffffffffffffffffffffffffffff16815260200190815260200160002060009054906101000a900463ffffffff1663ffffffff166128fa90919063ffffffff16565b600560003373ffffffffffffffffffffffffffffffffffffffff1673ffffffffffffffffffffffffffffffffffffffff16815260200190815260200160002060006101000a81548163ffffffff021916908363ffffffff160217905550610f0885858561292d565b5050505050565b6000600260008363ffffffff1663ffffffff16815260200190815260200160002060009054906101000a900473ffffffffffffffffffffffffffffffffffffffff169050919050565b610f60612d8a565b60018281548110610f7457610f73613b42565b5b9060005260206000209060070201604051806101400160405290816000820160009054906101000a900463ffffffff1663ffffffff1663ffffffff1681526020016000820160049054906101000a900463ffffffff1663ffffffff1663ffffffff1681526020016000820160089054906101000a900463ffffffff1663ffffffff1663ffffffff16815260200160008201600c9054906101000a900463ffffffff1663ffffffff1663ffffffff16815260200160018201805461103690613ba0565b80601f016020809104026020016040519081016040528092919081815260200182805461106290613ba0565b80156110af5780601f10611084576101008083540402835291602001916110af565b820191906000526020600020905b81548152906001019060200180831161109257829003601f168201915b505050505081526020016002820180546110c890613ba0565b80601f01602080910402602001604051908101604052809291908181526020018280546110f490613ba0565b80156111415780601f1061111657610100808354040283529160200191611141565b820191906000526020600020905b81548152906001019060200180831161112457829003601f168201915b5050505050815260200160038201805461115a90613ba0565b80601f016020809104026020016040519081016040528092919081815260200182805461118690613ba0565b80156111d35780601f106111a8576101008083540402835291602001916111d3565b820191906000526020600020905b8154815290600101906020018083116111b657829003601f168201915b505050505081526020016004820180546111ec90613ba0565b80601f016020809104026020016040519081016040528092919081815260200182805461121890613ba0565b80156112655780601f1061123a57610100808354040283529160200191611265565b820191906000526020600020905b81548152906001019060200180831161124857829003601f168201915b5050505050815260200160058201805480602002602001604051908101604052809291908181526020016000905b8282101561133f5783829060005260206000200180546112b290613ba0565b80601f01602080910402602001604051908101604052809291908181526020018280546112de90613ba0565b801561132b5780601f106113005761010080835404028352916020019161132b565b820191906000526020600020905b81548152906001019060200180831161130e57829003601f168201915b505050505081526020019060010190611293565b5050505081526020016006820160009054906101000a900460ff1615151515815250509050919050565b611371611805565b61137a57600080fd5b6001818154811061138e5761138d613b42565b5b906000526020600020906007020160060160009054906101000a900460ff1615600182815481106113c2576113c1613b42565b5b906000526020600020906007020160060160006101000a81548160ff02191690831515021790555050565b6000600260008363ffffffff1663ffffffff16815260200190815260200160002060009054906101000a900473ffffffffffffffffffffffffffffffffffffffff169050919050565b6000600560003373ffffffffffffffffffffffffffffffffffffffff1673ffffffffffffffffffffffffffffffffffffffff16815260200190815260200160002060009054906101000a900463ffffffff16905060008163ffffffff16116114d3576040517f08c379a00000000000000000000000000000000000000000000000000000000081526004016114ca90613f01565b60405180910390fd5b6000600560003373ffffffffffffffffffffffffffffffffffffffff1673ffffffffffffffffffffffffffffffffffffffff16815260200190815260200160002060006101000a81548163ffffffff021916908363ffffffff16021790555060003373ffffffffffffffffffffffffffffffffffffffff168263ffffffff1660405161155e90613e34565b60006040518083038185875af1925050503d806000811461159b576040519150601f19603f3d011682016040523d82523d6000602084013e6115a0565b606091505b50509050806115e4576040517f08c379a00000000000000000000000000000000000000000000000000000000081526004016115db90613f6d565b60405180910390fd5b5050565b6000600360008373ffffffffffffffffffffffffffffffffffffffff1673ffffffffffffffffffffffffffffffffffffffff168152602001908152602001600020549050919050565b611639611805565b61164257600080fd5b600073ffffffffffffffffffffffffffffffffffffffff1660008054906101000a900473ffffffffffffffffffffffffffffffffffffffff1673ffffffffffffffffffffffffffffffffffffffff167f8be0079c531659141344cd1fd0a4f28419497f9722a3daafe3b4186f6b6457e060405160405180910390a360008060006101000a81548173ffffffffffffffffffffffffffffffffffffffff021916908373ffffffffffffffffffffffffffffffffffffffff160217905550565b611708611805565b61171157600080fd5b6001828154811061172557611724613b42565b5b906000526020600020906007020160000160089054906101000a900463ffffffff1663ffffffff168163ffffffff1611611794576040517f08c379a000000000000000000000000000000000000000000000000000000000815260040161178b90613fff565b60405180910390fd5b80600183815481106117a9576117a8613b42565b5b906000526020600020906007020160000160086101000a81548163ffffffff021916908363ffffffff1602179055505050565b60008060009054906101000a900473ffffffffffffffffffffffffffffffffffffffff16905090565b60008060009054906101000a900473ffffffffffffffffffffffffffffffffffffffff1673ffffffffffffffffffffffffffffffffffffffff163373ffffffffffffffffffffffffffffffffffffffff1614905090565b60026020528060005260406000206000915054906101000a900473ffffffffffffffffffffffffffffffffffffffff1681565b6060600061189c83612b17565b67ffffffffffffffff8111156118b5576118b4613626565b5b6040519080825280602002602001820160405280156118ee57816020015b6118db612d8a565b8152602001906001900390816118d35790505b5090506000805b600180549050811015611df3578473ffffffffffffffffffffffffffffffffffffffff16600260008363ffffffff1663ffffffff16815260200190815260200160002060009054906101000a900473ffffffffffffffffffffffffffffffffffffffff1673ffffffffffffffffffffffffffffffffffffffff16141580156119ac57506001818154811061198c5761198b613b42565b5b906000526020600020906007020160060160009054906101000a900460ff165b15611de057600181815481106119c5576119c4613b42565b5b9060005260206000209060070201604051806101400160405290816000820160009054906101000a900463ffffffff1663ffffffff1663ffffffff1681526020016000820160049054906101000a900463ffffffff1663ffffffff1663ffffffff1681526020016000820160089054906101000a900463ffffffff1663ffffffff1663ffffffff16815260200160008201600c9054906101000a900463ffffffff1663ffffffff1663ffffffff168152602001600182018054611a8790613ba0565b80601f0160208091040260200160405190810160405280929190818152602001828054611ab390613ba0565b8015611b005780601f10611ad557610100808354040283529160200191611b00565b820191906000526020600020905b815481529060010190602001808311611ae357829003601f168201915b50505050508152602001600282018054611b1990613ba0565b80601f0160208091040260200160405190810160405280929190818152602001828054611b4590613ba0565b8015611b925780601f10611b6757610100808354040283529160200191611b92565b820191906000526020600020905b815481529060010190602001808311611b7557829003601f168201915b50505050508152602001600382018054611bab90613ba0565b80601f0160208091040260200160405190810160405280929190818152602001828054611bd790613ba0565b8015611c245780601f10611bf957610100808354040283529160200191611c24565b820191906000526020600020905b815481529060010190602001808311611c0757829003601f168201915b50505050508152602001600482018054611c3d90613ba0565b80601f0160208091040260200160405190810160405280929190818152602001828054611c6990613ba0565b8015611cb65780601f10611c8b57610100808354040283529160200191611cb6565b820191906000526020600020905b815481529060010190602001808311611c9957829003601f168201915b5050505050815260200160058201805480602002602001604051908101604052809291908181526020016000905b82821015611d90578382906000526020600020018054611d0390613ba0565b80601f0160208091040260200160405190810160405280929190818152602001828054611d2f90613ba0565b8015611d7c5780601f10611d5157610100808354040283529160200191611d7c565b820191906000526020600020905b815481529060010190602001808311611d5f57829003601f168201915b505050505081526020019060010190611ce4565b5050505081526020016006820160009054906101000a900460ff161515151581525050838381518110611dc657611dc5613b42565b5b60200260200101819052508180611ddc90613c00565b9250505b8080611deb90613c00565b9150506118f5565b508192505050919050565b611e6634600560003373ffffffffffffffffffffffffffffffffffffffff1673ffffffffffffffffffffffffffffffffffffffff16815260200190815260200160002060009054906101000a900463ffffffff1663ffffffff16612c0990919063ffffffff16565b600560003373ffffffffffffffffffffffffffffffffffffffff1673ffffffffffffffffffffffffffffffffffffffff16815260200190815260200160002060006101000a81548163ffffffff021916908363ffffffff160217905550565b80600260008263ffffffff1663ffffffff16815260200190815260200160002060009054906101000a900473ffffffffffffffffffffffffffffffffffffffff1673ffffffffffffffffffffffffffffffffffffffff163373ffffffffffffffffffffffffffffffffffffffff1614611f73576040517f08c379a0000000000000000000000000000000000000000000000000000000008152600401611f6a90613b22565b60405180910390fd5b60005b6001805490508110156120c4578263ffffffff1660018281548110611f9e57611f9d613b42565b5b906000526020600020906007020160000160009054906101000a900463ffffffff1663ffffffff16036120b15760018181548110611fdf57611fde613b42565b5b9060005260206000209060070201600080820160006101000a81549063ffffffff02191690556000820160046101000a81549063ffffffff02191690556000820160086101000a81549063ffffffff021916905560008201600c6101000a81549063ffffffff021916905560018201600061205a9190612df7565b60028201600061206a9190612df7565b60038201600061207a9190612df7565b60048201600061208a9190612df7565b60058201600061209a9190612e37565b6006820160006101000a81549060ff021916905550505b80806120bc90613c00565b915050611f76565b505050565b600060405180610140016040528060018054905063ffffffff1681526020018b63ffffffff1681526020018a63ffffffff1681526020018963ffffffff168152602001888152602001878152602001868152602001858152602001848152602001831515815250905060008a63ffffffff1614158015612150575060008963ffffffff1614155b8015612163575060008863ffffffff1614155b801561217157506000875114155b801561217f57506000865114155b801561218d57506000855114155b801561219b57506000845114155b6121da576040517f08c379a00000000000000000000000000000000000000000000000000000000081526004016121d190614091565b60405180910390fd5b600181908060018154018082558091505060019003906000526020600020906007020160009091909190915060008201518160000160006101000a81548163ffffffff021916908363ffffffff16021790555060208201518160000160046101000a81548163ffffffff021916908363ffffffff16021790555060408201518160000160086101000a81548163ffffffff021916908363ffffffff160217905550606082015181600001600c6101000a81548163ffffffff021916908363ffffffff16021790555060808201518160010190816122b7919061425d565b5060a08201518160020190816122cd919061425d565b5060c08201518160030190816122e3919061425d565b5060e08201518160040190816122f9919061425d565b50610100820151816005019080519060200190612317929190612e58565b506101208201518160060160006101000a81548160ff02191690831515021790555050503360026000836000015163ffffffff1663ffffffff16815260200190815260200160002060006101000a81548173ffffffffffffffffffffffffffffffffffffffff021916908373ffffffffffffffffffffffffffffffffffffffff1602179055506123f06001600360003373ffffffffffffffffffffffffffffffffffffffff1673ffffffffffffffffffffffffffffffffffffffff16815260200190815260200160002054612c4190919063ffffffff16565b600360003373ffffffffffffffffffffffffffffffffffffffff1673ffffffffffffffffffffffffffffffffffffffff168152602001908152602001600020819055507f1a1d86e0f039b69dc75a6a99b30e291a372ccdcae3c35990cc416065bf727778816040516124629190613566565b60405180910390a150505050505050505050565b6000600560008373ffffffffffffffffffffffffffffffffffffffff1673ffffffffffffffffffffffffffffffffffffffff16815260200190815260200160002060009054906101000a900463ffffffff169050919050565b6124d7611805565b6124e057600080fd5b6124e981612c6d565b50565b600181815481106124fc57600080fd5b90600052602060002090600702016000915090508060000160009054906101000a900463ffffffff16908060000160049054906101000a900463ffffffff16908060000160089054906101000a900463ffffffff169080600001600c9054906101000a900463ffffffff169080600101805461257790613ba0565b80601f01602080910402602001604051908101604052809291908181526020018280546125a390613ba0565b80156125f05780601f106125c5576101008083540402835291602001916125f0565b820191906000526020600020905b8154815290600101906020018083116125d357829003601f168201915b50505050509080600201805461260590613ba0565b80601f016020809104026020016040519081016040528092919081815260200182805461263190613ba0565b801561267e5780601f106126535761010080835404028352916020019161267e565b820191906000526020600020905b81548152906001019060200180831161266157829003601f168201915b50505050509080600301805461269390613ba0565b80601f01602080910402602001604051908101604052809291908181526020018280546126bf90613ba0565b801561270c5780601f106126e15761010080835404028352916020019161270c565b820191906000526020600020905b8154815290600101906020018083116126ef57829003601f168201915b50505050509080600401805461272190613ba0565b80601f016020809104026020016040519081016040528092919081815260200182805461274d90613ba0565b801561279a5780601f1061276f5761010080835404028352916020019161279a565b820191906000526020600020905b81548152906001019060200180831161277d57829003601f168201915b5050505050908060060160009054906101000a900460ff16905089565b6127bf611805565b6127c857600080fd5b80600183815481106127dd576127dc613b42565b5b9060005260206000209060070201600001600c6101000a81548163ffffffff021916908363ffffffff1602179055505050565b6000806000905060005b6001805490508110156128f0578373ffffffffffffffffffffffffffffffffffffffff16600260006001848154811061285657612855613b42565b5b906000526020600020906007020160000160009054906101000a900463ffffffff1663ffffffff1663ffffffff16815260200190815260200160002060009054906101000a900473ffffffffffffffffffffffffffffffffffffffff1673ffffffffffffffffffffffffffffffffffffffff16036128dd5781806128d990613c00565b9250505b80806128e890613c00565b91505061281a565b5080915050919050565b60008263ffffffff168263ffffffff1611156129195761291861432f565b5b8183612925919061435e565b905092915050565b6129806001600360008573ffffffffffffffffffffffffffffffffffffffff1673ffffffffffffffffffffffffffffffffffffffff16815260200190815260200160002054612c4190919063ffffffff16565b600360008473ffffffffffffffffffffffffffffffffffffffff1673ffffffffffffffffffffffffffffffffffffffff16815260200190815260200160002081905550612a166001600360003373ffffffffffffffffffffffffffffffffffffffff1673ffffffffffffffffffffffffffffffffffffffff16815260200190815260200160002054612d6390919063ffffffff16565b600360003373ffffffffffffffffffffffffffffffffffffffff1673ffffffffffffffffffffffffffffffffffffffff1681526020019081526020016000208190555081600260008363ffffffff1663ffffffff16815260200190815260200160002060006101000a81548173ffffffffffffffffffffffffffffffffffffffff021916908373ffffffffffffffffffffffffffffffffffffffff160217905550808273ffffffffffffffffffffffffffffffffffffffff168473ffffffffffffffffffffffffffffffffffffffff167fddf252ad1be2c89b69c2b068fc378daa952ba7f163c4a11628f55a4df523b3ef60405160405180910390a4505050565b6000806000905060005b600180549050811015612bff578373ffffffffffffffffffffffffffffffffffffffff16600260008363ffffffff1663ffffffff16815260200190815260200160002060009054906101000a900473ffffffffffffffffffffffffffffffffffffffff1673ffffffffffffffffffffffffffffffffffffffff1614158015612bd8575060018181548110612bb857612bb7613b42565b5b906000526020600020906007020160060160009054906101000a900460ff165b15612bec578180612be890613c00565b9250505b8080612bf790613c00565b915050612b21565b5080915050919050565b6000808284612c189190614396565b90508363ffffffff168163ffffffff161015612c3757612c3661432f565b5b8091505092915050565b6000808284612c5091906143ce565b905083811015612c6357612c6261432f565b5b8091505092915050565b600073ffffffffffffffffffffffffffffffffffffffff168173ffffffffffffffffffffffffffffffffffffffff1603612ca657600080fd5b8073ffffffffffffffffffffffffffffffffffffffff1660008054906101000a900473ffffffffffffffffffffffffffffffffffffffff1673ffffffffffffffffffffffffffffffffffffffff167f8be0079c531659141344cd1fd0a4f28419497f9722a3daafe3b4186f6b6457e060405160405180910390a3806000806101000a81548173ffffffffffffffffffffffffffffffffffffffff021916908373ffffffffffffffffffffffffffffffffffffffff16021790555050565b600082821115612d7657612d7561432f565b5b8183612d829190614402565b905092915050565b604051806101400160405280600063ffffffff168152602001600063ffffffff168152602001600063ffffffff168152602001600063ffffffff16815260200160608152602001606081526020016060815260200160608152602001606081526020016000151581525090565b508054612e0390613ba0565b6000825580601f10612e155750612e34565b601f016020900490600052602060002090810190612e339190612eb1565b5b50565b5080546000825590600052602060002090810190612e559190612ece565b50565b828054828255906000526020600020908101928215612ea0579160200282015b82811115612e9f578251829081612e8f919061425d565b5091602001919060010190612e78565b5b509050612ead9190612ece565b5090565b5b80821115612eca576000816000905550600101612eb2565b5090565b5b80821115612eee5760008181612ee59190612df7565b50600101612ecf565b5090565b6000604051905090565b600080fd5b600080fd5b600073ffffffffffffffffffffffffffffffffffffffff82169050919050565b6000612f3182612f06565b9050919050565b612f4181612f26565b8114612f4c57600080fd5b50565b600081359050612f5e81612f38565b92915050565b6000819050919050565b612f7781612f64565b8114612f8257600080fd5b50565b600081359050612f9481612f6e565b92915050565b60008060408385031215612fb157612fb0612efc565b5b6000612fbf85828601612f4f565b9250506020612fd085828601612f85565b9150509250929050565b600060208284031215612ff057612fef612efc565b5b6000612ffe84828501612f4f565b91505092915050565b600081519050919050565b600082825260208201905092915050565b6000819050602082019050919050565b600063ffffffff82169050919050565b61304c81613033565b82525050565b600081519050919050565b600082825260208201905092915050565b60005b8381101561308c578082015181840152602081019050613071565b60008484015250505050565b6000601f19601f8301169050919050565b60006130b482613052565b6130be818561305d565b93506130ce81856020860161306e565b6130d781613098565b840191505092915050565b600081519050919050565b600082825260208201905092915050565b6000819050602082019050919050565b600061311a83836130a9565b905092915050565b6000602082019050919050565b600061313a826130e2565b61314481856130ed565b935083602082028501613156856130fe565b8060005b858110156131925784840389528151613173858261310e565b945061317e83613122565b925060208a0199505060018101905061315a565b50829750879550505050505092915050565b60008115159050919050565b6131b9816131a4565b82525050565b6000610140830160008301516131d86000860182613043565b5060208301516131eb6020860182613043565b5060408301516131fe6040860182613043565b5060608301516132116060860182613043565b506080830151848203608086015261322982826130a9565b91505060a083015184820360a086015261324382826130a9565b91505060c083015184820360c086015261325d82826130a9565b91505060e083015184820360e086015261327782826130a9565b915050610100830151848203610100860152613293828261312f565b9150506101208301516132aa6101208601826131b0565b508091505092915050565b60006132c183836131bf565b905092915050565b6000602082019050919050565b60006132e182613007565b6132eb8185613012565b9350836020820285016132fd85613023565b8060005b85811015613339578484038952815161331a85826132b5565b9450613325836132c9565b925060208a01995050600181019050613301565b50829750879550505050505092915050565b6000602082019050818103600083015261336581846132d6565b905092915050565b60008060006060848603121561338657613385612efc565b5b600061339486828701612f4f565b93505060206133a586828701612f4f565b92505060406133b686828701612f85565b9150509250925092565b6133c981613033565b81146133d457600080fd5b50565b6000813590506133e6816133c0565b92915050565b60006020828403121561340257613401612efc565b5b6000613410848285016133d7565b91505092915050565b61342281612f26565b82525050565b600060208201905061343d6000830184613419565b92915050565b60006020828403121561345957613458612efc565b5b600061346784828501612f85565b91505092915050565b6000610140830160008301516134896000860182613043565b50602083015161349c6020860182613043565b5060408301516134af6040860182613043565b5060608301516134c26060860182613043565b50608083015184820360808601526134da82826130a9565b91505060a083015184820360a08601526134f482826130a9565b91505060c083015184820360c086015261350e82826130a9565b91505060e083015184820360e086015261352882826130a9565b915050610100830151848203610100860152613544828261312f565b91505061012083015161355b6101208601826131b0565b508091505092915050565b600060208201905081810360008301526135808184613470565b905092915050565b61359181612f64565b82525050565b60006020820190506135ac6000830184613588565b92915050565b600080604083850312156135c9576135c8612efc565b5b60006135d785828601612f85565b92505060206135e8858286016133d7565b9150509250929050565b6135fb816131a4565b82525050565b600060208201905061361660008301846135f2565b92915050565b600080fd5b600080fd5b7f4e487b7100000000000000000000000000000000000000000000000000000000600052604160045260246000fd5b61365e82613098565b810181811067ffffffffffffffff8211171561367d5761367c613626565b5b80604052505050565b6000613690612ef2565b905061369c8282613655565b919050565b600067ffffffffffffffff8211156136bc576136bb613626565b5b6136c582613098565b9050602081019050919050565b82818337600083830152505050565b60006136f46136ef846136a1565b613686565b9050828152602081018484840111156137105761370f613621565b5b61371b8482856136d2565b509392505050565b600082601f8301126137385761373761361c565b5b81356137488482602086016136e1565b91505092915050565b600067ffffffffffffffff82111561376c5761376b613626565b5b602082029050602081019050919050565b600080fd5b600061379561379084613751565b613686565b905080838252602082019050602084028301858111156137b8576137b761377d565b5b835b818110156137ff57803567ffffffffffffffff8111156137dd576137dc61361c565b5b8086016137ea8982613723565b855260208501945050506020810190506137ba565b5050509392505050565b600082601f83011261381e5761381d61361c565b5b813561382e848260208601613782565b91505092915050565b613840816131a4565b811461384b57600080fd5b50565b60008135905061385d81613837565b92915050565b60008060008060008060008060006101208a8c03121561388657613885612efc565b5b60006138948c828d016133d7565b99505060206138a58c828d016133d7565b98505060406138b68c828d016133d7565b97505060608a013567ffffffffffffffff8111156138d7576138d6612f01565b5b6138e38c828d01613723565b96505060808a013567ffffffffffffffff81111561390457613903612f01565b5b6139108c828d01613723565b95505060a08a013567ffffffffffffffff81111561393157613930612f01565b5b61393d8c828d01613723565b94505060c08a013567ffffffffffffffff81111561395e5761395d612f01565b5b61396a8c828d01613723565b93505060e08a013567ffffffffffffffff81111561398b5761398a612f01565b5b6139978c828d01613809565b9250506101006139a98c828d0161384e565b9150509295985092959850929598565b6139c281613033565b82525050565b60006020820190506139dd60008301846139b9565b92915050565b600082825260208201905092915050565b60006139ff82613052565b613a0981856139e3565b9350613a1981856020860161306e565b613a2281613098565b840191505092915050565b600061012082019050613a43600083018c6139b9565b613a50602083018b6139b9565b613a5d604083018a6139b9565b613a6a60608301896139b9565b8181036080830152613a7c81886139f4565b905081810360a0830152613a9081876139f4565b905081810360c0830152613aa481866139f4565b905081810360e0830152613ab881856139f4565b9050613ac86101008301846135f2565b9a9950505050505050505050565b7f546861742773206e6f7420796f20636172000000000000000000000000000000600082015250565b6000613b0c6011836139e3565b9150613b1782613ad6565b602082019050919050565b60006020820190508181036000830152613b3b81613aff565b9050919050565b7f4e487b7100000000000000000000000000000000000000000000000000000000600052603260045260246000fd5b7f4e487b7100000000000000000000000000000000000000000000000000000000600052602260045260246000fd5b60006002820490506001821680613bb857607f821691505b602082108103613bcb57613bca613b71565b5b50919050565b7f4e487b7100000000000000000000000000000000000000000000000000000000600052601160045260246000fd5b6000613c0b82612f64565b91507fffffffffffffffffffffffffffffffffffffffffffffffffffffffffffffffff8203613c3d57613c3c613bd1565b5b600182019050919050565b7f5468697320636172206973206e6f7420666f722073616c650000000000000000600082015250565b6000613c7e6018836139e3565b9150613c8982613c48565b602082019050919050565b60006020820190508181036000830152613cad81613c71565b9050919050565b7f596f7520616c7265616479206f776e20746869732063617220736f20796f752060008201527f63616e206e6f7420627579206974000000000000000000000000000000000000602082015250565b6000613d10602e836139e3565b9150613d1b82613cb4565b604082019050919050565b60006020820190508181036000830152613d3f81613d03565b9050919050565b7f5072696365206d7573742062652067726561746572207468616e207a65726f00600082015250565b6000613d7c601f836139e3565b9150613d8782613d46565b602082019050919050565b60006020820190508181036000830152613dab81613d6f565b9050919050565b600067ffffffffffffffff82169050919050565b6000613dd182613db2565b9150613ddc83613db2565b9250828202613dea81613db2565b9150808214613dfc57613dfb613bd1565b5b5092915050565b600081905092915050565b50565b6000613e1e600083613e03565b9150613e2982613e0e565b600082019050919050565b6000613e3f82613e11565b9150819050919050565b7f4574686572207472616e73666572206661696c65642e00000000000000000000600082015250565b6000613e7f6016836139e3565b9150613e8a82613e49565b602082019050919050565b60006020820190508181036000830152613eae81613e72565b9050919050565b7f596f752068617665206e6f206d756e6579000000000000000000000000000000600082015250565b6000613eeb6011836139e3565b9150613ef682613eb5565b602082019050919050565b60006020820190508181036000830152613f1a81613ede565b9050919050565b7f7769746864726177616c206661696c6564206f756c6568000000000000000000600082015250565b6000613f576017836139e3565b9150613f6282613f21565b602082019050919050565b60006020820190508181036000830152613f8681613f4a565b9050919050565b7f546865206e6577206d696c616765206d75737420626520686967686572204f5560008201527f4c45480000000000000000000000000000000000000000000000000000000000602082015250565b6000613fe96023836139e3565b9150613ff482613f8d565b604082019050919050565b6000602082019050818103600083015261401881613fdc565b9050919050565b7f536f6d65206669656c64732077657265206e6f7420636f72726563746c79206660008201527f696c6c656420696e2e0000000000000000000000000000000000000000000000602082015250565b600061407b6029836139e3565b91506140868261401f565b604082019050919050565b600060208201905081810360008301526140aa8161406e565b9050919050565b60008190508160005260206000209050919050565b60006020601f8301049050919050565b600082821b905092915050565b6000600883026141137fffffffffffffffffffffffffffffffffffffffffffffffffffffffffffffffff826140d6565b61411d86836140d6565b95508019841693508086168417925050509392505050565b6000819050919050565b600061415a61415561415084612f64565b614135565b612f64565b9050919050565b6000819050919050565b6141748361413f565b61418861418082614161565b8484546140e3565b825550505050565b600090565b61419d614190565b6141a881848461416b565b505050565b5b818110156141cc576141c1600082614195565b6001810190506141ae565b5050565b601f821115614211576141e2816140b1565b6141eb846140c6565b810160208510156141fa578190505b61420e614206856140c6565b8301826141ad565b50505b505050565b600082821c905092915050565b600061423460001984600802614216565b1980831691505092915050565b600061424d8383614223565b9150826002028217905092915050565b61426682613052565b67ffffffffffffffff81111561427f5761427e613626565b5b6142898254613ba0565b6142948282856141d0565b600060209050601f8311600181146142c757600084156142b5578287015190505b6142bf8582614241565b865550614327565b601f1984166142d5866140b1565b60005b828110156142fd578489015182556001820191506020850194506020810190506142d8565b8683101561431a5784890151614316601f891682614223565b8355505b6001600288020188555050505b505050505050565b7f4e487b7100000000000000000000000000000000000000000000000000000000600052600160045260246000fd5b600061436982613033565b915061437483613033565b9250828203905063ffffffff8111156143905761438f613bd1565b5b92915050565b60006143a182613033565b91506143ac83613033565b9250828201905063ffffffff8111156143c8576143c7613bd1565b5b92915050565b60006143d982612f64565b91506143e483612f64565b92508282019050808211156143fc576143fb613bd1565b5b92915050565b600061440d82612f64565b915061441883612f64565b92508282039050818111156144305761442f613bd1565b5b9291505056fea2646970667358221220f5de33a8423c5d676b9ad41d80a4b5953bd28f3c0d7474fc60c172b623376c4a64736f6c63430008120033",
  "linkReferences": {},
  "deployedLinkReferences": {}
}