{
  "_format": "hh-sol-artifact-1",
  "contractName": "CarOwnership",
  "sourceName": "contracts/carownership.sol",
  "abi": [
    {
      "anonymous": false,
      "inputs": [
        {
          "indexed": true,
          "internalType": "address",
          "name": "_owner",
          "type": "address"
        },
        {
          "indexed": true,
          "internalType": "address",
          "name": "_approved",
          "type": "address"
        },
        {
          "indexed": true,
          "internalType": "uint256",
          "name": "_tokenId",
          "type": "uint256"
        }
      ],
      "name": "Approval",
      "type": "event"
    },
    {
      "anonymous": false,
      "inputs": [
        {
          "components": [
            {
              "internalType": "uint32",
              "name": "id",
              "type": "uint32"
            },
            {
              "internalType": "uint32",
              "name": "chassisNumber",
              "type": "uint32"
            },
            {
              "internalType": "uint32",
              "name": "mileage",
              "type": "uint32"
            },
            {
              "internalType": "uint32",
              "name": "price",
              "type": "uint32"
            },
            {
              "internalType": "string",
              "name": "licensePlate",
              "type": "string"
            },
            {
              "internalType": "string",
              "name": "brand",
              "type": "string"
            },
            {
              "internalType": "string",
              "name": "carType",
              "type": "string"
            },
            {
              "internalType": "string",
              "name": "colour",
              "type": "string"
            },
            {
              "internalType": "string[]",
              "name": "pictures",
              "type": "string[]"
            },
            {
              "internalType": "bool",
              "name": "isForSale",
              "type": "bool"
            }
          ],
          "indexed": false,
          "internalType": "struct CarDetails.Car",
          "name": "car",
          "type": "tuple"
        }
      ],
      "name": "NewCar",
      "type": "event"
    },
    {
      "anonymous": false,
      "inputs": [
        {
          "indexed": true,
          "internalType": "address",
          "name": "previousOwner",
          "type": "address"
        },
        {
          "indexed": true,
          "internalType": "address",
          "name": "newOwner",
          "type": "address"
        }
      ],
      "name": "OwnershipTransferred",
      "type": "event"
    },
    {
      "anonymous": false,
      "inputs": [
        {
          "indexed": true,
          "internalType": "address",
          "name": "_from",
          "type": "address"
        },
        {
          "indexed": true,
          "internalType": "address",
          "name": "_to",
          "type": "address"
        },
        {
          "indexed": true,
          "internalType": "uint256",
          "name": "_tokenId",
          "type": "uint256"
        }
      ],
      "name": "Transfer",
      "type": "event"
    },
    {
      "inputs": [
        {
          "internalType": "address",
          "name": "_approved",
          "type": "address"
        },
        {
          "internalType": "uint256",
          "name": "_tokenId",
          "type": "uint256"
        }
      ],
      "name": "approve",
      "outputs": [],
      "stateMutability": "payable",
      "type": "function"
    },
    {
      "inputs": [
        {
          "internalType": "address",
          "name": "_owner",
          "type": "address"
        }
      ],
      "name": "balanceOf",
      "outputs": [
        {
          "internalType": "uint256",
          "name": "",
          "type": "uint256"
        }
      ],
      "stateMutability": "view",
      "type": "function"
    },
    {
      "inputs": [
        {
          "internalType": "uint32",
          "name": "",
          "type": "uint32"
        }
      ],
      "name": "carToOwner",
      "outputs": [
        {
          "internalType": "address",
          "name": "",
          "type": "address"
        }
      ],
      "stateMutability": "view",
      "type": "function"
    },
    {
      "inputs": [
        {
          "internalType": "uint256",
          "name": "",
          "type": "uint256"
        }
      ],
      "name": "cars",
      "outputs": [
        {
          "internalType": "uint32",
          "name": "id",
          "type": "uint32"
        },
        {
          "internalType": "uint32",
          "name": "chassisNumber",
          "type": "uint32"
        },
        {
          "internalType": "uint32",
          "name": "mileage",
          "type": "uint32"
        },
        {
          "internalType": "uint32",
          "name": "price",
          "type": "uint32"
        },
        {
          "internalType": "string",
          "name": "licensePlate",
          "type": "string"
        },
        {
          "internalType": "string",
          "name": "brand",
          "type": "string"
        },
        {
          "internalType": "string",
          "name": "carType",
          "type": "string"
        },
        {
          "internalType": "string",
          "name": "colour",
          "type": "string"
        },
        {
          "internalType": "bool",
          "name": "isForSale",
          "type": "bool"
        }
      ],
      "stateMutability": "view",
      "type": "function"
    },
    {
      "inputs": [
        {
          "internalType": "uint32",
          "name": "_chassisNumber",
          "type": "uint32"
        },
        {
          "internalType": "uint32",
          "name": "_mileage",
          "type": "uint32"
        },
        {
          "internalType": "uint32",
          "name": "_price",
          "type": "uint32"
        },
        {
          "internalType": "string",
          "name": "_licensePlate",
          "type": "string"
        },
        {
          "internalType": "string",
          "name": "_brand",
          "type": "string"
        },
        {
          "internalType": "string",
          "name": "_carType",
          "type": "string"
        },
        {
          "internalType": "string",
          "name": "_colour",
          "type": "string"
        },
        {
          "internalType": "string[]",
          "name": "_pictures",
          "type": "string[]"
        },
        {
          "internalType": "bool",
          "name": "_isForSale",
          "type": "bool"
        }
      ],
      "name": "createCar",
      "outputs": [],
      "stateMutability": "nonpayable",
      "type": "function"
    },
    {
      "inputs": [
        {
          "internalType": "uint32",
          "name": "_carId",
          "type": "uint32"
        }
      ],
      "name": "deleteCar",
      "outputs": [],
      "stateMutability": "nonpayable",
      "type": "function"
    },
    {
      "inputs": [
        {
          "internalType": "address",
          "name": "_owner",
          "type": "address"
        }
      ],
      "name": "getAllCarsForOwner",
      "outputs": [
        {
          "components": [
            {
              "internalType": "uint32",
              "name": "id",
              "type": "uint32"
            },
            {
              "internalType": "uint32",
              "name": "chassisNumber",
              "type": "uint32"
            },
            {
              "internalType": "uint32",
              "name": "mileage",
              "type": "uint32"
            },
            {
              "internalType": "uint32",
              "name": "price",
              "type": "uint32"
            },
            {
              "internalType": "string",
              "name": "licensePlate",
              "type": "string"
            },
            {
              "internalType": "string",
              "name": "brand",
              "type": "string"
            },
            {
              "internalType": "string",
              "name": "carType",
              "type": "string"
            },
            {
              "internalType": "string",
              "name": "colour",
              "type": "string"
            },
            {
              "internalType": "string[]",
              "name": "pictures",
              "type": "string[]"
            },
            {
              "internalType": "bool",
              "name": "isForSale",
              "type": "bool"
            }
          ],
          "internalType": "struct CarDetails.Car[]",
          "name": "",
          "type": "tuple[]"
        }
      ],
      "stateMutability": "view",
      "type": "function"
    },
    {
      "inputs": [
        {
          "internalType": "uint256",
          "name": "_carId",
          "type": "uint256"
        }
      ],
      "name": "getCar",
      "outputs": [
        {
          "components": [
            {
              "internalType": "uint32",
              "name": "id",
              "type": "uint32"
            },
            {
              "internalType": "uint32",
              "name": "chassisNumber",
              "type": "uint32"
            },
            {
              "internalType": "uint32",
              "name": "mileage",
              "type": "uint32"
            },
            {
              "internalType": "uint32",
              "name": "price",
              "type": "uint32"
            },
            {
              "internalType": "string",
              "name": "licensePlate",
              "type": "string"
            },
            {
              "internalType": "string",
              "name": "brand",
              "type": "string"
            },
            {
              "internalType": "string",
              "name": "carType",
              "type": "string"
            },
            {
              "internalType": "string",
              "name": "colour",
              "type": "string"
            },
            {
              "internalType": "string[]",
              "name": "pictures",
              "type": "string[]"
            },
            {
              "internalType": "bool",
              "name": "isForSale",
              "type": "bool"
            }
          ],
          "internalType": "struct CarDetails.Car",
          "name": "",
          "type": "tuple"
        }
      ],
      "stateMutability": "view",
      "type": "function"
    },
    {
      "inputs": [],
      "name": "isOwner",
      "outputs": [
        {
          "internalType": "bool",
          "name": "",
          "type": "bool"
        }
      ],
      "stateMutability": "view",
      "type": "function"
    },
    {
      "inputs": [],
      "name": "owner",
      "outputs": [
        {
          "internalType": "address",
          "name": "",
          "type": "address"
        }
      ],
      "stateMutability": "view",
      "type": "function"
    },
    {
      "inputs": [
        {
          "internalType": "uint256",
          "name": "_tokenId",
          "type": "uint256"
        }
      ],
      "name": "ownerOf",
      "outputs": [
        {
          "internalType": "address",
          "name": "",
          "type": "address"
        }
      ],
      "stateMutability": "view",
      "type": "function"
    },
    {
      "inputs": [],
      "name": "renounceOwnership",
      "outputs": [],
      "stateMutability": "nonpayable",
      "type": "function"
    },
    {
      "inputs": [
        {
          "internalType": "uint256",
          "name": "_carId",
          "type": "uint256"
        }
      ],
      "name": "toggleSaleState",
      "outputs": [],
      "stateMutability": "nonpayable",
      "type": "function"
    },
    {
      "inputs": [
        {
          "internalType": "address",
          "name": "_from",
          "type": "address"
        },
        {
          "internalType": "address",
          "name": "_to",
          "type": "address"
        },
        {
          "internalType": "uint256",
          "name": "_tokenId",
          "type": "uint256"
        }
      ],
      "name": "transferFrom",
      "outputs": [],
      "stateMutability": "payable",
      "type": "function"
    },
    {
      "inputs": [
        {
          "internalType": "address",
          "name": "newOwner",
          "type": "address"
        }
      ],
      "name": "transferOwnership",
      "outputs": [],
      "stateMutability": "nonpayable",
      "type": "function"
    },
    {
      "inputs": [
        {
          "internalType": "uint256",
          "name": "_carId",
          "type": "uint256"
        },
        {
          "internalType": "uint32",
          "name": "_newMileage",
          "type": "uint32"
        }
      ],
      "name": "updateMileage",
      "outputs": [],
      "stateMutability": "nonpayable",
      "type": "function"
    },
    {
      "inputs": [
        {
          "internalType": "uint256",
          "name": "_carId",
          "type": "uint256"
        },
        {
          "internalType": "uint32",
          "name": "_newPrice",
          "type": "uint32"
        }
      ],
      "name": "updatePrice",
      "outputs": [],
      "stateMutability": "nonpayable",
      "type": "function"
    }
  ],
  "bytecode": "0x608060405234801561001057600080fd5b50336000806101000a81548173ffffffffffffffffffffffffffffffffffffffff021916908373ffffffffffffffffffffffffffffffffffffffff16021790555060008054906101000a900473ffffffffffffffffffffffffffffffffffffffff1673ffffffffffffffffffffffffffffffffffffffff16600073ffffffffffffffffffffffffffffffffffffffff167f8be0079c531659141344cd1fd0a4f28419497f9722a3daafe3b4186f6b6457e060405160405180910390a361334d806100db6000396000f3fe6080604052600436106100fe5760003560e01c80637edffa5311610095578063b275decc11610064578063b275decc1461032b578063d4d942ec14610354578063f2fde38b1461037d578063f7746e36146103a6578063f95fe25b146103eb576100fe565b80637edffa531461026f5780638da5cb5b146102985780638f32d59b146102c357806391a20776146102ee576100fe565b8063628dd13e116100d1578063628dd13e146101b55780636352211e146101de57806370a082311461021b578063715018a614610258576100fe565b8063095ea7b3146101035780632286c0c11461011f57806323b872dd1461015c5780635e8be19014610178575b600080fd5b61011d600480360381019061011891906121df565b610414565b005b34801561012b57600080fd5b506101466004803603810190610141919061221f565b610574565b6040516101539190612590565b60405180910390f35b610176600480360381019061017191906125b2565b610add565b005b34801561018457600080fd5b5061019f600480360381019061019a9190612605565b610ccd565b6040516101ac9190612728565b60405180910390f35b3480156101c157600080fd5b506101dc60048036038101906101d79190612605565b6110de565b005b3480156101ea57600080fd5b5061020560048036038101906102009190612605565b611162565b6040516102129190612759565b60405180910390f35b34801561022757600080fd5b50610242600480360381019061023d919061221f565b6111ab565b60405161024f9190612783565b60405180910390f35b34801561026457600080fd5b5061026d6111f4565b005b34801561027b57600080fd5b50610296600480360381019061029191906127ca565b6112c3565b005b3480156102a457600080fd5b506102ad61139f565b6040516102ba9190612759565b60405180910390f35b3480156102cf57600080fd5b506102d86113c8565b6040516102e59190612819565b60405180910390f35b3480156102fa57600080fd5b5061031560048036038101906103109190612834565b61141f565b6040516103229190612759565b60405180910390f35b34801561033757600080fd5b50610352600480360381019061034d9190612834565b611452565b005b34801561036057600080fd5b5061037b60048036038101906103769190612aa8565b611656565b005b34801561038957600080fd5b506103a4600480360381019061039f919061221f565b61195b565b005b3480156103b257600080fd5b506103cd60048036038101906103c89190612605565b611978565b6040516103e299989796959493929190612c57565b60405180910390f35b3480156103f757600080fd5b50610412600480360381019061040d91906127ca565b611c43565b005b80600260008263ffffffff1663ffffffff16815260200190815260200160002060009054906101000a900473ffffffffffffffffffffffffffffffffffffffff1673ffffffffffffffffffffffffffffffffffffffff163373ffffffffffffffffffffffffffffffffffffffff16146104c2576040517f08c379a00000000000000000000000000000000000000000000000000000000081526004016104b990612d4c565b60405180910390fd5b826004600084815260200190815260200160002060006101000a81548173ffffffffffffffffffffffffffffffffffffffff021916908373ffffffffffffffffffffffffffffffffffffffff160217905550818373ffffffffffffffffffffffffffffffffffffffff163373ffffffffffffffffffffffffffffffffffffffff167f8c5be1e5ebec7d5bd14f71427d1e84f3dd0314c0f7b2291e5b200ac8c7c3b92560405160405180910390a4505050565b60606000600360008473ffffffffffffffffffffffffffffffffffffffff1673ffffffffffffffffffffffffffffffffffffffff1681526020019081526020016000205467ffffffffffffffff8111156105d1576105d061286b565b5b60405190808252806020026020018201604052801561060a57816020015b6105f7611fcf565b8152602001906001900390816105ef5790505b5090506000805b600180549050811015610ad2578473ffffffffffffffffffffffffffffffffffffffff16600260008363ffffffff1663ffffffff16815260200190815260200160002060009054906101000a900473ffffffffffffffffffffffffffffffffffffffff1673ffffffffffffffffffffffffffffffffffffffff1603610abf57600181815481106106a4576106a3612d6c565b5b9060005260206000209060070201604051806101400160405290816000820160009054906101000a900463ffffffff1663ffffffff1663ffffffff1681526020016000820160049054906101000a900463ffffffff1663ffffffff1663ffffffff1681526020016000820160089054906101000a900463ffffffff1663ffffffff1663ffffffff16815260200160008201600c9054906101000a900463ffffffff1663ffffffff1663ffffffff16815260200160018201805461076690612dca565b80601f016020809104026020016040519081016040528092919081815260200182805461079290612dca565b80156107df5780601f106107b4576101008083540402835291602001916107df565b820191906000526020600020905b8154815290600101906020018083116107c257829003601f168201915b505050505081526020016002820180546107f890612dca565b80601f016020809104026020016040519081016040528092919081815260200182805461082490612dca565b80156108715780601f1061084657610100808354040283529160200191610871565b820191906000526020600020905b81548152906001019060200180831161085457829003601f168201915b5050505050815260200160038201805461088a90612dca565b80601f01602080910402602001604051908101604052809291908181526020018280546108b690612dca565b80156109035780601f106108d857610100808354040283529160200191610903565b820191906000526020600020905b8154815290600101906020018083116108e657829003601f168201915b5050505050815260200160048201805461091c90612dca565b80601f016020809104026020016040519081016040528092919081815260200182805461094890612dca565b80156109955780601f1061096a57610100808354040283529160200191610995565b820191906000526020600020905b81548152906001019060200180831161097857829003601f168201915b5050505050815260200160058201805480602002602001604051908101604052809291908181526020016000905b82821015610a6f5783829060005260206000200180546109e290612dca565b80601f0160208091040260200160405190810160405280929190818152602001828054610a0e90612dca565b8015610a5b5780601f10610a3057610100808354040283529160200191610a5b565b820191906000526020600020905b815481529060010190602001808311610a3e57829003601f168201915b5050505050815260200190600101906109c3565b5050505081526020016006820160009054906101000a900460ff161515151581525050838381518110610aa557610aa4612d6c565b5b60200260200101819052508180610abb90612e2a565b9250505b8080610aca90612e2a565b915050610611565b508192505050919050565b60018181548110610af157610af0612d6c565b5b906000526020600020906007020160060160009054906101000a900460ff16610b4f576040517f08c379a0000000000000000000000000000000000000000000000000000000008152600401610b4690612ebe565b60405180910390fd5b3373ffffffffffffffffffffffffffffffffffffffff16600260008363ffffffff1663ffffffff16815260200190815260200160002060009054906101000a900473ffffffffffffffffffffffffffffffffffffffff1673ffffffffffffffffffffffffffffffffffffffff1603610bfc576040517f08c379a0000000000000000000000000000000000000000000000000000000008152600401610bf390612f50565b60405180910390fd5b600260008263ffffffff1663ffffffff16815260200190815260200160002060009054906101000a900473ffffffffffffffffffffffffffffffffffffffff1673ffffffffffffffffffffffffffffffffffffffff166108fc60018381548110610c6957610c68612d6c565b5b9060005260206000209060070201600001600c9054906101000a900463ffffffff1663ffffffff169081150290604051600060405180830381858888f19350505050158015610cbc573d6000803e3d6000fd5b50610cc8838383611c9c565b505050565b610cd5611fcf565b60018281548110610ce957610ce8612d6c565b5b9060005260206000209060070201604051806101400160405290816000820160009054906101000a900463ffffffff1663ffffffff1663ffffffff1681526020016000820160049054906101000a900463ffffffff1663ffffffff1663ffffffff1681526020016000820160089054906101000a900463ffffffff1663ffffffff1663ffffffff16815260200160008201600c9054906101000a900463ffffffff1663ffffffff1663ffffffff168152602001600182018054610dab90612dca565b80601f0160208091040260200160405190810160405280929190818152602001828054610dd790612dca565b8015610e245780601f10610df957610100808354040283529160200191610e24565b820191906000526020600020905b815481529060010190602001808311610e0757829003601f168201915b50505050508152602001600282018054610e3d90612dca565b80601f0160208091040260200160405190810160405280929190818152602001828054610e6990612dca565b8015610eb65780601f10610e8b57610100808354040283529160200191610eb6565b820191906000526020600020905b815481529060010190602001808311610e9957829003601f168201915b50505050508152602001600382018054610ecf90612dca565b80601f0160208091040260200160405190810160405280929190818152602001828054610efb90612dca565b8015610f485780601f10610f1d57610100808354040283529160200191610f48565b820191906000526020600020905b815481529060010190602001808311610f2b57829003601f168201915b50505050508152602001600482018054610f6190612dca565b80601f0160208091040260200160405190810160405280929190818152602001828054610f8d90612dca565b8015610fda5780601f10610faf57610100808354040283529160200191610fda565b820191906000526020600020905b815481529060010190602001808311610fbd57829003601f168201915b5050505050815260200160058201805480602002602001604051908101604052809291908181526020016000905b828210156110b457838290600052602060002001805461102790612dca565b80601f016020809104026020016040519081016040528092919081815260200182805461105390612dca565b80156110a05780601f10611075576101008083540402835291602001916110a0565b820191906000526020600020905b81548152906001019060200180831161108357829003601f168201915b505050505081526020019060010190611008565b5050505081526020016006820160009054906101000a900460ff1615151515815250509050919050565b6110e66113c8565b6110ef57600080fd5b6001818154811061110357611102612d6c565b5b906000526020600020906007020160060160009054906101000a900460ff16156001828154811061113757611136612d6c565b5b906000526020600020906007020160060160006101000a81548160ff02191690831515021790555050565b6000600260008363ffffffff1663ffffffff16815260200190815260200160002060009054906101000a900473ffffffffffffffffffffffffffffffffffffffff169050919050565b6000600360008373ffffffffffffffffffffffffffffffffffffffff1673ffffffffffffffffffffffffffffffffffffffff168152602001908152602001600020549050919050565b6111fc6113c8565b61120557600080fd5b600073ffffffffffffffffffffffffffffffffffffffff1660008054906101000a900473ffffffffffffffffffffffffffffffffffffffff1673ffffffffffffffffffffffffffffffffffffffff167f8be0079c531659141344cd1fd0a4f28419497f9722a3daafe3b4186f6b6457e060405160405180910390a360008060006101000a81548173ffffffffffffffffffffffffffffffffffffffff021916908373ffffffffffffffffffffffffffffffffffffffff160217905550565b6112cb6113c8565b6112d457600080fd5b600182815481106112e8576112e7612d6c565b5b906000526020600020906007020160000160089054906101000a900463ffffffff1663ffffffff168163ffffffff1611611357576040517f08c379a000000000000000000000000000000000000000000000000000000000815260040161134e90612fe2565b60405180910390fd5b806001838154811061136c5761136b612d6c565b5b906000526020600020906007020160000160086101000a81548163ffffffff021916908363ffffffff1602179055505050565b60008060009054906101000a900473ffffffffffffffffffffffffffffffffffffffff16905090565b60008060009054906101000a900473ffffffffffffffffffffffffffffffffffffffff1673ffffffffffffffffffffffffffffffffffffffff163373ffffffffffffffffffffffffffffffffffffffff1614905090565b60026020528060005260406000206000915054906101000a900473ffffffffffffffffffffffffffffffffffffffff1681565b80600260008263ffffffff1663ffffffff16815260200190815260200160002060009054906101000a900473ffffffffffffffffffffffffffffffffffffffff1673ffffffffffffffffffffffffffffffffffffffff163373ffffffffffffffffffffffffffffffffffffffff1614611500576040517f08c379a00000000000000000000000000000000000000000000000000000000081526004016114f790612d4c565b60405180910390fd5b60005b600180549050811015611651578263ffffffff166001828154811061152b5761152a612d6c565b5b906000526020600020906007020160000160009054906101000a900463ffffffff1663ffffffff160361163e576001818154811061156c5761156b612d6c565b5b9060005260206000209060070201600080820160006101000a81549063ffffffff02191690556000820160046101000a81549063ffffffff02191690556000820160086101000a81549063ffffffff021916905560008201600c6101000a81549063ffffffff02191690556001820160006115e7919061203c565b6002820160006115f7919061203c565b600382016000611607919061203c565b600482016000611617919061203c565b600582016000611627919061207c565b6006820160006101000a81549060ff021916905550505b808061164990612e2a565b915050611503565b505050565b600060405180610140016040528060018054905063ffffffff1681526020018b63ffffffff1681526020018a63ffffffff1681526020018963ffffffff1681526020018881526020018781526020018681526020018581526020018481526020018315158152509050600181908060018154018082558091505060019003906000526020600020906007020160009091909190915060008201518160000160006101000a81548163ffffffff021916908363ffffffff16021790555060208201518160000160046101000a81548163ffffffff021916908363ffffffff16021790555060408201518160000160086101000a81548163ffffffff021916908363ffffffff160217905550606082015181600001600c6101000a81548163ffffffff021916908363ffffffff160217905550608082015181600101908161179c91906131ae565b5060a08201518160020190816117b291906131ae565b5060c08201518160030190816117c891906131ae565b5060e08201518160040190816117de91906131ae565b506101008201518160050190805190602001906117fc92919061209d565b506101208201518160060160006101000a81548160ff02191690831515021790555050503360026000836000015163ffffffff1663ffffffff16815260200190815260200160002060006101000a81548173ffffffffffffffffffffffffffffffffffffffff021916908373ffffffffffffffffffffffffffffffffffffffff1602179055506118d56001600360003373ffffffffffffffffffffffffffffffffffffffff1673ffffffffffffffffffffffffffffffffffffffff16815260200190815260200160002054611e8690919063ffffffff16565b600360003373ffffffffffffffffffffffffffffffffffffffff1673ffffffffffffffffffffffffffffffffffffffff168152602001908152602001600020819055507f1a1d86e0f039b69dc75a6a99b30e291a372ccdcae3c35990cc416065bf727778816040516119479190612728565b60405180910390a150505050505050505050565b6119636113c8565b61196c57600080fd5b61197581611eb2565b50565b6001818154811061198857600080fd5b90600052602060002090600702016000915090508060000160009054906101000a900463ffffffff16908060000160049054906101000a900463ffffffff16908060000160089054906101000a900463ffffffff169080600001600c9054906101000a900463ffffffff1690806001018054611a0390612dca565b80601f0160208091040260200160405190810160405280929190818152602001828054611a2f90612dca565b8015611a7c5780601f10611a5157610100808354040283529160200191611a7c565b820191906000526020600020905b815481529060010190602001808311611a5f57829003601f168201915b505050505090806002018054611a9190612dca565b80601f0160208091040260200160405190810160405280929190818152602001828054611abd90612dca565b8015611b0a5780601f10611adf57610100808354040283529160200191611b0a565b820191906000526020600020905b815481529060010190602001808311611aed57829003601f168201915b505050505090806003018054611b1f90612dca565b80601f0160208091040260200160405190810160405280929190818152602001828054611b4b90612dca565b8015611b985780601f10611b6d57610100808354040283529160200191611b98565b820191906000526020600020905b815481529060010190602001808311611b7b57829003601f168201915b505050505090806004018054611bad90612dca565b80601f0160208091040260200160405190810160405280929190818152602001828054611bd990612dca565b8015611c265780601f10611bfb57610100808354040283529160200191611c26565b820191906000526020600020905b815481529060010190602001808311611c0957829003601f168201915b5050505050908060060160009054906101000a900460ff16905089565b611c4b6113c8565b611c5457600080fd5b8060018381548110611c6957611c68612d6c565b5b9060005260206000209060070201600001600c6101000a81548163ffffffff021916908363ffffffff1602179055505050565b611cef6001600360008573ffffffffffffffffffffffffffffffffffffffff1673ffffffffffffffffffffffffffffffffffffffff16815260200190815260200160002054611e8690919063ffffffff16565b600360008473ffffffffffffffffffffffffffffffffffffffff1673ffffffffffffffffffffffffffffffffffffffff16815260200190815260200160002081905550611d856001600360003373ffffffffffffffffffffffffffffffffffffffff1673ffffffffffffffffffffffffffffffffffffffff16815260200190815260200160002054611fa890919063ffffffff16565b600360003373ffffffffffffffffffffffffffffffffffffffff1673ffffffffffffffffffffffffffffffffffffffff1681526020019081526020016000208190555081600260008363ffffffff1663ffffffff16815260200190815260200160002060006101000a81548173ffffffffffffffffffffffffffffffffffffffff021916908373ffffffffffffffffffffffffffffffffffffffff160217905550808273ffffffffffffffffffffffffffffffffffffffff168473ffffffffffffffffffffffffffffffffffffffff167fddf252ad1be2c89b69c2b068fc378daa952ba7f163c4a11628f55a4df523b3ef60405160405180910390a4505050565b6000808284611e959190613280565b905083811015611ea857611ea76132b4565b5b8091505092915050565b600073ffffffffffffffffffffffffffffffffffffffff168173ffffffffffffffffffffffffffffffffffffffff1603611eeb57600080fd5b8073ffffffffffffffffffffffffffffffffffffffff1660008054906101000a900473ffffffffffffffffffffffffffffffffffffffff1673ffffffffffffffffffffffffffffffffffffffff167f8be0079c531659141344cd1fd0a4f28419497f9722a3daafe3b4186f6b6457e060405160405180910390a3806000806101000a81548173ffffffffffffffffffffffffffffffffffffffff021916908373ffffffffffffffffffffffffffffffffffffffff16021790555050565b600082821115611fbb57611fba6132b4565b5b8183611fc791906132e3565b905092915050565b604051806101400160405280600063ffffffff168152602001600063ffffffff168152602001600063ffffffff168152602001600063ffffffff16815260200160608152602001606081526020016060815260200160608152602001606081526020016000151581525090565b50805461204890612dca565b6000825580601f1061205a5750612079565b601f01602090049060005260206000209081019061207891906120f6565b5b50565b508054600082559060005260206000209081019061209a9190612113565b50565b8280548282559060005260206000209081019282156120e5579160200282015b828111156120e45782518290816120d491906131ae565b50916020019190600101906120bd565b5b5090506120f29190612113565b5090565b5b8082111561210f5760008160009055506001016120f7565b5090565b5b80821115612133576000818161212a919061203c565b50600101612114565b5090565b6000604051905090565b600080fd5b600080fd5b600073ffffffffffffffffffffffffffffffffffffffff82169050919050565b60006121768261214b565b9050919050565b6121868161216b565b811461219157600080fd5b50565b6000813590506121a38161217d565b92915050565b6000819050919050565b6121bc816121a9565b81146121c757600080fd5b50565b6000813590506121d9816121b3565b92915050565b600080604083850312156121f6576121f5612141565b5b600061220485828601612194565b9250506020612215858286016121ca565b9150509250929050565b60006020828403121561223557612234612141565b5b600061224384828501612194565b91505092915050565b600081519050919050565b600082825260208201905092915050565b6000819050602082019050919050565b600063ffffffff82169050919050565b61229181612278565b82525050565b600081519050919050565b600082825260208201905092915050565b60005b838110156122d15780820151818401526020810190506122b6565b60008484015250505050565b6000601f19601f8301169050919050565b60006122f982612297565b61230381856122a2565b93506123138185602086016122b3565b61231c816122dd565b840191505092915050565b600081519050919050565b600082825260208201905092915050565b6000819050602082019050919050565b600061235f83836122ee565b905092915050565b6000602082019050919050565b600061237f82612327565b6123898185612332565b93508360208202850161239b85612343565b8060005b858110156123d757848403895281516123b88582612353565b94506123c383612367565b925060208a0199505060018101905061239f565b50829750879550505050505092915050565b60008115159050919050565b6123fe816123e9565b82525050565b60006101408301600083015161241d6000860182612288565b5060208301516124306020860182612288565b5060408301516124436040860182612288565b5060608301516124566060860182612288565b506080830151848203608086015261246e82826122ee565b91505060a083015184820360a086015261248882826122ee565b91505060c083015184820360c08601526124a282826122ee565b91505060e083015184820360e08601526124bc82826122ee565b9150506101008301518482036101008601526124d88282612374565b9150506101208301516124ef6101208601826123f5565b508091505092915050565b60006125068383612404565b905092915050565b6000602082019050919050565b60006125268261224c565b6125308185612257565b93508360208202850161254285612268565b8060005b8581101561257e578484038952815161255f85826124fa565b945061256a8361250e565b925060208a01995050600181019050612546565b50829750879550505050505092915050565b600060208201905081810360008301526125aa818461251b565b905092915050565b6000806000606084860312156125cb576125ca612141565b5b60006125d986828701612194565b93505060206125ea86828701612194565b92505060406125fb868287016121ca565b9150509250925092565b60006020828403121561261b5761261a612141565b5b6000612629848285016121ca565b91505092915050565b60006101408301600083015161264b6000860182612288565b50602083015161265e6020860182612288565b5060408301516126716040860182612288565b5060608301516126846060860182612288565b506080830151848203608086015261269c82826122ee565b91505060a083015184820360a08601526126b682826122ee565b91505060c083015184820360c08601526126d082826122ee565b91505060e083015184820360e08601526126ea82826122ee565b9150506101008301518482036101008601526127068282612374565b91505061012083015161271d6101208601826123f5565b508091505092915050565b600060208201905081810360008301526127428184612632565b905092915050565b6127538161216b565b82525050565b600060208201905061276e600083018461274a565b92915050565b61277d816121a9565b82525050565b60006020820190506127986000830184612774565b92915050565b6127a781612278565b81146127b257600080fd5b50565b6000813590506127c48161279e565b92915050565b600080604083850312156127e1576127e0612141565b5b60006127ef858286016121ca565b9250506020612800858286016127b5565b9150509250929050565b612813816123e9565b82525050565b600060208201905061282e600083018461280a565b92915050565b60006020828403121561284a57612849612141565b5b6000612858848285016127b5565b91505092915050565b600080fd5b600080fd5b7f4e487b7100000000000000000000000000000000000000000000000000000000600052604160045260246000fd5b6128a3826122dd565b810181811067ffffffffffffffff821117156128c2576128c161286b565b5b80604052505050565b60006128d5612137565b90506128e1828261289a565b919050565b600067ffffffffffffffff8211156129015761290061286b565b5b61290a826122dd565b9050602081019050919050565b82818337600083830152505050565b6000612939612934846128e6565b6128cb565b90508281526020810184848401111561295557612954612866565b5b612960848285612917565b509392505050565b600082601f83011261297d5761297c612861565b5b813561298d848260208601612926565b91505092915050565b600067ffffffffffffffff8211156129b1576129b061286b565b5b602082029050602081019050919050565b600080fd5b60006129da6129d584612996565b6128cb565b905080838252602082019050602084028301858111156129fd576129fc6129c2565b5b835b81811015612a4457803567ffffffffffffffff811115612a2257612a21612861565b5b808601612a2f8982612968565b855260208501945050506020810190506129ff565b5050509392505050565b600082601f830112612a6357612a62612861565b5b8135612a738482602086016129c7565b91505092915050565b612a85816123e9565b8114612a9057600080fd5b50565b600081359050612aa281612a7c565b92915050565b60008060008060008060008060006101208a8c031215612acb57612aca612141565b5b6000612ad98c828d016127b5565b9950506020612aea8c828d016127b5565b9850506040612afb8c828d016127b5565b97505060608a013567ffffffffffffffff811115612b1c57612b1b612146565b5b612b288c828d01612968565b96505060808a013567ffffffffffffffff811115612b4957612b48612146565b5b612b558c828d01612968565b95505060a08a013567ffffffffffffffff811115612b7657612b75612146565b5b612b828c828d01612968565b94505060c08a013567ffffffffffffffff811115612ba357612ba2612146565b5b612baf8c828d01612968565b93505060e08a013567ffffffffffffffff811115612bd057612bcf612146565b5b612bdc8c828d01612a4e565b925050610100612bee8c828d01612a93565b9150509295985092959850929598565b612c0781612278565b82525050565b600082825260208201905092915050565b6000612c2982612297565b612c338185612c0d565b9350612c438185602086016122b3565b612c4c816122dd565b840191505092915050565b600061012082019050612c6d600083018c612bfe565b612c7a602083018b612bfe565b612c87604083018a612bfe565b612c946060830189612bfe565b8181036080830152612ca68188612c1e565b905081810360a0830152612cba8187612c1e565b905081810360c0830152612cce8186612c1e565b905081810360e0830152612ce28185612c1e565b9050612cf261010083018461280a565b9a9950505050505050505050565b7f546861742773206e6f7420796f20636172000000000000000000000000000000600082015250565b6000612d36601183612c0d565b9150612d4182612d00565b602082019050919050565b60006020820190508181036000830152612d6581612d29565b9050919050565b7f4e487b7100000000000000000000000000000000000000000000000000000000600052603260045260246000fd5b7f4e487b7100000000000000000000000000000000000000000000000000000000600052602260045260246000fd5b60006002820490506001821680612de257607f821691505b602082108103612df557612df4612d9b565b5b50919050565b7f4e487b7100000000000000000000000000000000000000000000000000000000600052601160045260246000fd5b6000612e35826121a9565b91507fffffffffffffffffffffffffffffffffffffffffffffffffffffffffffffffff8203612e6757612e66612dfb565b5b600182019050919050565b7f5468697320636172206973206e6f7420666f722073616c650000000000000000600082015250565b6000612ea8601883612c0d565b9150612eb382612e72565b602082019050919050565b60006020820190508181036000830152612ed781612e9b565b9050919050565b7f596f7520616c7265616479206f776e20746869732063617220736f20796f752060008201527f63616e206e6f7420627579206974000000000000000000000000000000000000602082015250565b6000612f3a602e83612c0d565b9150612f4582612ede565b604082019050919050565b60006020820190508181036000830152612f6981612f2d565b9050919050565b7f546865206e6577206d696c616765206d75737420626520686967686572204f5560008201527f4c45480000000000000000000000000000000000000000000000000000000000602082015250565b6000612fcc602383612c0d565b9150612fd782612f70565b604082019050919050565b60006020820190508181036000830152612ffb81612fbf565b9050919050565b60008190508160005260206000209050919050565b60006020601f8301049050919050565b600082821b905092915050565b6000600883026130647fffffffffffffffffffffffffffffffffffffffffffffffffffffffffffffffff82613027565b61306e8683613027565b95508019841693508086168417925050509392505050565b6000819050919050565b60006130ab6130a66130a1846121a9565b613086565b6121a9565b9050919050565b6000819050919050565b6130c583613090565b6130d96130d1826130b2565b848454613034565b825550505050565b600090565b6130ee6130e1565b6130f98184846130bc565b505050565b5b8181101561311d576131126000826130e6565b6001810190506130ff565b5050565b601f8211156131625761313381613002565b61313c84613017565b8101602085101561314b578190505b61315f61315785613017565b8301826130fe565b50505b505050565b600082821c905092915050565b600061318560001984600802613167565b1980831691505092915050565b600061319e8383613174565b9150826002028217905092915050565b6131b782612297565b67ffffffffffffffff8111156131d0576131cf61286b565b5b6131da8254612dca565b6131e5828285613121565b600060209050601f8311600181146132185760008415613206578287015190505b6132108582613192565b865550613278565b601f19841661322686613002565b60005b8281101561324e57848901518255600182019150602085019450602081019050613229565b8683101561326b5784890151613267601f891682613174565b8355505b6001600288020188555050505b505050505050565b600061328b826121a9565b9150613296836121a9565b92508282019050808211156132ae576132ad612dfb565b5b92915050565b7f4e487b7100000000000000000000000000000000000000000000000000000000600052600160045260246000fd5b60006132ee826121a9565b91506132f9836121a9565b925082820390508181111561331157613310612dfb565b5b9291505056fea26469706673582212203885141d2a5ad58163a2afa8c3ccf847476ec290e5b4c32cc79f044ba2e92f4c64736f6c63430008110033",
  "linkReferences": {},
  "deployedLinkReferences": {}
}