{
  "_format": "hh-sol-artifact-1",
  "contractName": "CarOwnership",
  "sourceName": "contracts/carownership.sol",
  "abi": [
    {
      "anonymous": false,
      "inputs": [
        {
          "indexed": true,
          "internalType": "address",
          "name": "_owner",
          "type": "address"
        },
        {
          "indexed": true,
          "internalType": "address",
          "name": "_approved",
          "type": "address"
        },
        {
          "indexed": true,
          "internalType": "uint256",
          "name": "_tokenId",
          "type": "uint256"
        }
      ],
      "name": "Approval",
      "type": "event"
    },
    {
      "anonymous": false,
      "inputs": [
        {
          "components": [
            {
              "internalType": "uint32",
              "name": "id",
              "type": "uint32"
            },
            {
              "internalType": "uint32",
              "name": "chassisNumber",
              "type": "uint32"
            },
            {
              "internalType": "uint32",
              "name": "mileage",
              "type": "uint32"
            },
            {
              "internalType": "uint32",
              "name": "price",
              "type": "uint32"
            },
            {
              "internalType": "string",
              "name": "licensePlate",
              "type": "string"
            },
            {
              "internalType": "string",
              "name": "brand",
              "type": "string"
            },
            {
              "internalType": "string",
              "name": "carType",
              "type": "string"
            },
            {
              "internalType": "string",
              "name": "colour",
              "type": "string"
            },
            {
              "internalType": "string[]",
              "name": "pictures",
              "type": "string[]"
            },
            {
              "internalType": "bool",
              "name": "isForSale",
              "type": "bool"
            }
          ],
          "indexed": false,
          "internalType": "struct CarDetails.Car",
          "name": "car",
          "type": "tuple"
        }
      ],
      "name": "NewCar",
      "type": "event"
    },
    {
      "anonymous": false,
      "inputs": [
        {
          "indexed": true,
          "internalType": "address",
          "name": "previousOwner",
          "type": "address"
        },
        {
          "indexed": true,
          "internalType": "address",
          "name": "newOwner",
          "type": "address"
        }
      ],
      "name": "OwnershipTransferred",
      "type": "event"
    },
    {
      "anonymous": false,
      "inputs": [
        {
          "indexed": true,
          "internalType": "address",
          "name": "_from",
          "type": "address"
        },
        {
          "indexed": true,
          "internalType": "address",
          "name": "_to",
          "type": "address"
        },
        {
          "indexed": true,
          "internalType": "uint256",
          "name": "_tokenId",
          "type": "uint256"
        }
      ],
      "name": "Transfer",
      "type": "event"
    },
    {
      "inputs": [
        {
          "internalType": "address",
          "name": "_approved",
          "type": "address"
        },
        {
          "internalType": "uint256",
          "name": "_tokenId",
          "type": "uint256"
        }
      ],
      "name": "approve",
      "outputs": [],
      "stateMutability": "payable",
      "type": "function"
    },
    {
      "inputs": [
        {
          "internalType": "address",
          "name": "_owner",
          "type": "address"
        }
      ],
      "name": "balanceOf",
      "outputs": [
        {
          "internalType": "uint256",
          "name": "",
          "type": "uint256"
        }
      ],
      "stateMutability": "view",
      "type": "function"
    },
    {
      "inputs": [
        {
          "internalType": "uint32",
          "name": "",
          "type": "uint32"
        }
      ],
      "name": "carToOwner",
      "outputs": [
        {
          "internalType": "address",
          "name": "",
          "type": "address"
        }
      ],
      "stateMutability": "view",
      "type": "function"
    },
    {
      "inputs": [
        {
          "internalType": "uint256",
          "name": "",
          "type": "uint256"
        }
      ],
      "name": "cars",
      "outputs": [
        {
          "internalType": "uint32",
          "name": "id",
          "type": "uint32"
        },
        {
          "internalType": "uint32",
          "name": "chassisNumber",
          "type": "uint32"
        },
        {
          "internalType": "uint32",
          "name": "mileage",
          "type": "uint32"
        },
        {
          "internalType": "uint32",
          "name": "price",
          "type": "uint32"
        },
        {
          "internalType": "string",
          "name": "licensePlate",
          "type": "string"
        },
        {
          "internalType": "string",
          "name": "brand",
          "type": "string"
        },
        {
          "internalType": "string",
          "name": "carType",
          "type": "string"
        },
        {
          "internalType": "string",
          "name": "colour",
          "type": "string"
        },
        {
          "internalType": "bool",
          "name": "isForSale",
          "type": "bool"
        }
      ],
      "stateMutability": "view",
      "type": "function"
    },
    {
      "inputs": [
        {
          "internalType": "uint32",
          "name": "_chassisNumber",
          "type": "uint32"
        },
        {
          "internalType": "uint32",
          "name": "_mileage",
          "type": "uint32"
        },
        {
          "internalType": "uint32",
          "name": "_price",
          "type": "uint32"
        },
        {
          "internalType": "string",
          "name": "_licensePlate",
          "type": "string"
        },
        {
          "internalType": "string",
          "name": "_brand",
          "type": "string"
        },
        {
          "internalType": "string",
          "name": "_carType",
          "type": "string"
        },
        {
          "internalType": "string",
          "name": "_colour",
          "type": "string"
        },
        {
          "internalType": "string[]",
          "name": "_pictures",
          "type": "string[]"
        },
        {
          "internalType": "bool",
          "name": "_isForSale",
          "type": "bool"
        }
      ],
      "name": "createCar",
      "outputs": [],
      "stateMutability": "nonpayable",
      "type": "function"
    },
    {
      "inputs": [
        {
          "internalType": "uint32",
          "name": "_carId",
          "type": "uint32"
        }
      ],
      "name": "deleteCar",
      "outputs": [],
      "stateMutability": "nonpayable",
      "type": "function"
    },
    {
      "inputs": [
        {
          "internalType": "address",
          "name": "_owner",
          "type": "address"
        }
      ],
      "name": "getAllCarsForOwner",
      "outputs": [
        {
          "components": [
            {
              "internalType": "uint32",
              "name": "id",
              "type": "uint32"
            },
            {
              "internalType": "uint32",
              "name": "chassisNumber",
              "type": "uint32"
            },
            {
              "internalType": "uint32",
              "name": "mileage",
              "type": "uint32"
            },
            {
              "internalType": "uint32",
              "name": "price",
              "type": "uint32"
            },
            {
              "internalType": "string",
              "name": "licensePlate",
              "type": "string"
            },
            {
              "internalType": "string",
              "name": "brand",
              "type": "string"
            },
            {
              "internalType": "string",
              "name": "carType",
              "type": "string"
            },
            {
              "internalType": "string",
              "name": "colour",
              "type": "string"
            },
            {
              "internalType": "string[]",
              "name": "pictures",
              "type": "string[]"
            },
            {
              "internalType": "bool",
              "name": "isForSale",
              "type": "bool"
            }
          ],
          "internalType": "struct CarDetails.Car[]",
          "name": "",
          "type": "tuple[]"
        }
      ],
      "stateMutability": "view",
      "type": "function"
    },
    {
      "inputs": [
        {
          "internalType": "uint256",
          "name": "_carId",
          "type": "uint256"
        }
      ],
      "name": "getCar",
      "outputs": [
        {
          "components": [
            {
              "internalType": "uint32",
              "name": "id",
              "type": "uint32"
            },
            {
              "internalType": "uint32",
              "name": "chassisNumber",
              "type": "uint32"
            },
            {
              "internalType": "uint32",
              "name": "mileage",
              "type": "uint32"
            },
            {
              "internalType": "uint32",
              "name": "price",
              "type": "uint32"
            },
            {
              "internalType": "string",
              "name": "licensePlate",
              "type": "string"
            },
            {
              "internalType": "string",
              "name": "brand",
              "type": "string"
            },
            {
              "internalType": "string",
              "name": "carType",
              "type": "string"
            },
            {
              "internalType": "string",
              "name": "colour",
              "type": "string"
            },
            {
              "internalType": "string[]",
              "name": "pictures",
              "type": "string[]"
            },
            {
              "internalType": "bool",
              "name": "isForSale",
              "type": "bool"
            }
          ],
          "internalType": "struct CarDetails.Car",
          "name": "",
          "type": "tuple"
        }
      ],
      "stateMutability": "view",
      "type": "function"
    },
    {
      "inputs": [
        {
          "internalType": "uint32",
          "name": "_carId",
          "type": "uint32"
        }
      ],
      "name": "getCarOwner",
      "outputs": [
        {
          "internalType": "address",
          "name": "ownerAddress",
          "type": "address"
        }
      ],
      "stateMutability": "view",
      "type": "function"
    },
    {
      "inputs": [],
      "name": "getCarsForSale",
      "outputs": [
        {
          "components": [
            {
              "internalType": "uint32",
              "name": "id",
              "type": "uint32"
            },
            {
              "internalType": "uint32",
              "name": "chassisNumber",
              "type": "uint32"
            },
            {
              "internalType": "uint32",
              "name": "mileage",
              "type": "uint32"
            },
            {
              "internalType": "uint32",
              "name": "price",
              "type": "uint32"
            },
            {
              "internalType": "string",
              "name": "licensePlate",
              "type": "string"
            },
            {
              "internalType": "string",
              "name": "brand",
              "type": "string"
            },
            {
              "internalType": "string",
              "name": "carType",
              "type": "string"
            },
            {
              "internalType": "string",
              "name": "colour",
              "type": "string"
            },
            {
              "internalType": "string[]",
              "name": "pictures",
              "type": "string[]"
            },
            {
              "internalType": "bool",
              "name": "isForSale",
              "type": "bool"
            }
          ],
          "internalType": "struct CarDetails.Car[]",
          "name": "",
          "type": "tuple[]"
        }
      ],
      "stateMutability": "view",
      "type": "function"
    },
    {
      "inputs": [],
      "name": "isOwner",
      "outputs": [
        {
          "internalType": "bool",
          "name": "",
          "type": "bool"
        }
      ],
      "stateMutability": "view",
      "type": "function"
    },
    {
      "inputs": [],
      "name": "owner",
      "outputs": [
        {
          "internalType": "address",
          "name": "",
          "type": "address"
        }
      ],
      "stateMutability": "view",
      "type": "function"
    },
    {
      "inputs": [
        {
          "internalType": "uint256",
          "name": "_tokenId",
          "type": "uint256"
        }
      ],
      "name": "ownerOf",
      "outputs": [
        {
          "internalType": "address",
          "name": "",
          "type": "address"
        }
      ],
      "stateMutability": "view",
      "type": "function"
    },
    {
      "inputs": [],
      "name": "renounceOwnership",
      "outputs": [],
      "stateMutability": "nonpayable",
      "type": "function"
    },
    {
      "inputs": [
        {
          "internalType": "uint256",
          "name": "_carId",
          "type": "uint256"
        }
      ],
      "name": "toggleSaleState",
      "outputs": [],
      "stateMutability": "nonpayable",
      "type": "function"
    },
    {
      "inputs": [
        {
          "internalType": "address",
          "name": "_from",
          "type": "address"
        },
        {
          "internalType": "address",
          "name": "_to",
          "type": "address"
        },
        {
          "internalType": "uint256",
          "name": "_tokenId",
          "type": "uint256"
        }
      ],
      "name": "transferFrom",
      "outputs": [],
      "stateMutability": "payable",
      "type": "function"
    },
    {
      "inputs": [
        {
          "internalType": "address",
          "name": "newOwner",
          "type": "address"
        }
      ],
      "name": "transferOwnership",
      "outputs": [],
      "stateMutability": "nonpayable",
      "type": "function"
    },
    {
      "inputs": [
        {
          "internalType": "uint256",
          "name": "_carId",
          "type": "uint256"
        },
        {
          "internalType": "uint32",
          "name": "_newMileage",
          "type": "uint32"
        }
      ],
      "name": "updateMileage",
      "outputs": [],
      "stateMutability": "nonpayable",
      "type": "function"
    },
    {
      "inputs": [
        {
          "internalType": "uint256",
          "name": "_carId",
          "type": "uint256"
        },
        {
          "internalType": "uint32",
          "name": "_newPrice",
          "type": "uint32"
        }
      ],
      "name": "updatePrice",
      "outputs": [],
      "stateMutability": "nonpayable",
      "type": "function"
    }
  ],
  "bytecode": "0x608060405234801561001057600080fd5b50336000806101000a81548173ffffffffffffffffffffffffffffffffffffffff021916908373ffffffffffffffffffffffffffffffffffffffff16021790555060008054906101000a900473ffffffffffffffffffffffffffffffffffffffff1673ffffffffffffffffffffffffffffffffffffffff16600073ffffffffffffffffffffffffffffffffffffffff167f8be0079c531659141344cd1fd0a4f28419497f9722a3daafe3b4186f6b6457e060405160405180910390a3613b97806100db6000396000f3fe6080604052600436106101145760003560e01c806376b4646d116100a0578063b275decc11610064578063b275decc146103a9578063d4d942ec146103d2578063f2fde38b146103fb578063f7746e3614610424578063f95fe25b1461046957610114565b806376b4646d146102c25780637edffa53146102ed5780638da5cb5b146103165780638f32d59b1461034157806391a207761461036c57610114565b80635e8be190116100e75780635e8be190146101cb578063628dd13e146102085780636352211e1461023157806370a082311461026e578063715018a6146102ab57610114565b8063095ea7b3146101195780632286c0c11461013557806323b872dd1461017257806339c98a1b1461018e575b600080fd5b610133600480360381019061012e91906129f9565b610492565b005b34801561014157600080fd5b5061015c60048036038101906101579190612a39565b6105f2565b6040516101699190612daa565b60405180910390f35b61018c60048036038101906101879190612dcc565b610b64565b005b34801561019a57600080fd5b506101b560048036038101906101b09190612e4b565b610c93565b6040516101c29190612e87565b60405180910390f35b3480156101d757600080fd5b506101f260048036038101906101ed9190612ea2565b610cdc565b6040516101ff9190612fc5565b60405180910390f35b34801561021457600080fd5b5061022f600480360381019061022a9190612ea2565b6110ed565b005b34801561023d57600080fd5b5061025860048036038101906102539190612ea2565b611171565b6040516102659190612e87565b60405180910390f35b34801561027a57600080fd5b5061029560048036038101906102909190612a39565b6111ba565b6040516102a29190612ff6565b60405180910390f35b3480156102b757600080fd5b506102c0611203565b005b3480156102ce57600080fd5b506102d76112d2565b6040516102e49190612daa565b60405180910390f35b3480156102f957600080fd5b50610314600480360381019061030f9190613011565b61183e565b005b34801561032257600080fd5b5061032b61191a565b6040516103389190612e87565b60405180910390f35b34801561034d57600080fd5b50610356611943565b6040516103639190613060565b60405180910390f35b34801561037857600080fd5b50610393600480360381019061038e9190612e4b565b61199a565b6040516103a09190612e87565b60405180910390f35b3480156103b557600080fd5b506103d060048036038101906103cb9190612e4b565b6119cd565b005b3480156103de57600080fd5b506103f960048036038101906103f491906132c2565b611bd1565b005b34801561040757600080fd5b50610422600480360381019061041d9190612a39565b611ed6565b005b34801561043057600080fd5b5061044b60048036038101906104469190612ea2565b611ef3565b60405161046099989796959493929190613471565b60405180910390f35b34801561047557600080fd5b50610490600480360381019061048b9190613011565b6121be565b005b80600260008263ffffffff1663ffffffff16815260200190815260200160002060009054906101000a900473ffffffffffffffffffffffffffffffffffffffff1673ffffffffffffffffffffffffffffffffffffffff163373ffffffffffffffffffffffffffffffffffffffff1614610540576040517f08c379a000000000000000000000000000000000000000000000000000000000815260040161053790613566565b60405180910390fd5b826004600084815260200190815260200160002060006101000a81548173ffffffffffffffffffffffffffffffffffffffff021916908373ffffffffffffffffffffffffffffffffffffffff160217905550818373ffffffffffffffffffffffffffffffffffffffff163373ffffffffffffffffffffffffffffffffffffffff167f8c5be1e5ebec7d5bd14f71427d1e84f3dd0314c0f7b2291e5b200ac8c7c3b92560405160405180910390a4505050565b606060006105ff83612217565b67ffffffffffffffff81111561061857610617613085565b5b60405190808252806020026020018201604052801561065157816020015b61063e6127e9565b8152602001906001900390816106365790505b5090506000805b600180549050811015610b19578473ffffffffffffffffffffffffffffffffffffffff16600260008363ffffffff1663ffffffff16815260200190815260200160002060009054906101000a900473ffffffffffffffffffffffffffffffffffffffff1673ffffffffffffffffffffffffffffffffffffffff1603610b0657600181815481106106eb576106ea613586565b5b9060005260206000209060070201604051806101400160405290816000820160009054906101000a900463ffffffff1663ffffffff1663ffffffff1681526020016000820160049054906101000a900463ffffffff1663ffffffff1663ffffffff1681526020016000820160089054906101000a900463ffffffff1663ffffffff1663ffffffff16815260200160008201600c9054906101000a900463ffffffff1663ffffffff1663ffffffff1681526020016001820180546107ad906135e4565b80601f01602080910402602001604051908101604052809291908181526020018280546107d9906135e4565b80156108265780601f106107fb57610100808354040283529160200191610826565b820191906000526020600020905b81548152906001019060200180831161080957829003601f168201915b5050505050815260200160028201805461083f906135e4565b80601f016020809104026020016040519081016040528092919081815260200182805461086b906135e4565b80156108b85780601f1061088d576101008083540402835291602001916108b8565b820191906000526020600020905b81548152906001019060200180831161089b57829003601f168201915b505050505081526020016003820180546108d1906135e4565b80601f01602080910402602001604051908101604052809291908181526020018280546108fd906135e4565b801561094a5780601f1061091f5761010080835404028352916020019161094a565b820191906000526020600020905b81548152906001019060200180831161092d57829003601f168201915b50505050508152602001600482018054610963906135e4565b80601f016020809104026020016040519081016040528092919081815260200182805461098f906135e4565b80156109dc5780601f106109b1576101008083540402835291602001916109dc565b820191906000526020600020905b8154815290600101906020018083116109bf57829003601f168201915b5050505050815260200160058201805480602002602001604051908101604052809291908181526020016000905b82821015610ab6578382906000526020600020018054610a29906135e4565b80601f0160208091040260200160405190810160405280929190818152602001828054610a55906135e4565b8015610aa25780601f10610a7757610100808354040283529160200191610aa2565b820191906000526020600020905b815481529060010190602001808311610a8557829003601f168201915b505050505081526020019060010190610a0a565b5050505081526020016006820160009054906101000a900460ff161515151581525050838381518110610aec57610aeb613586565b5b60200260200101819052508180610b0290613644565b9250505b8080610b1190613644565b915050610658565b50610b5a6040518060400160405280600f81526020017f726573756c74206c656e6774683a2000000000000000000000000000000000008152508351612301565b8192505050919050565b60018181548110610b7857610b77613586565b5b906000526020600020906007020160060160009054906101000a900460ff16610bd6576040517f08c379a0000000000000000000000000000000000000000000000000000000008152600401610bcd906136d8565b60405180910390fd5b3373ffffffffffffffffffffffffffffffffffffffff16600260008363ffffffff1663ffffffff16815260200190815260200160002060009054906101000a900473ffffffffffffffffffffffffffffffffffffffff1673ffffffffffffffffffffffffffffffffffffffff1603610c83576040517f08c379a0000000000000000000000000000000000000000000000000000000008152600401610c7a9061376a565b60405180910390fd5b610c8e83838361239d565b505050565b6000600260008363ffffffff1663ffffffff16815260200190815260200160002060009054906101000a900473ffffffffffffffffffffffffffffffffffffffff169050919050565b610ce46127e9565b60018281548110610cf857610cf7613586565b5b9060005260206000209060070201604051806101400160405290816000820160009054906101000a900463ffffffff1663ffffffff1663ffffffff1681526020016000820160049054906101000a900463ffffffff1663ffffffff1663ffffffff1681526020016000820160089054906101000a900463ffffffff1663ffffffff1663ffffffff16815260200160008201600c9054906101000a900463ffffffff1663ffffffff1663ffffffff168152602001600182018054610dba906135e4565b80601f0160208091040260200160405190810160405280929190818152602001828054610de6906135e4565b8015610e335780601f10610e0857610100808354040283529160200191610e33565b820191906000526020600020905b815481529060010190602001808311610e1657829003601f168201915b50505050508152602001600282018054610e4c906135e4565b80601f0160208091040260200160405190810160405280929190818152602001828054610e78906135e4565b8015610ec55780601f10610e9a57610100808354040283529160200191610ec5565b820191906000526020600020905b815481529060010190602001808311610ea857829003601f168201915b50505050508152602001600382018054610ede906135e4565b80601f0160208091040260200160405190810160405280929190818152602001828054610f0a906135e4565b8015610f575780601f10610f2c57610100808354040283529160200191610f57565b820191906000526020600020905b815481529060010190602001808311610f3a57829003601f168201915b50505050508152602001600482018054610f70906135e4565b80601f0160208091040260200160405190810160405280929190818152602001828054610f9c906135e4565b8015610fe95780601f10610fbe57610100808354040283529160200191610fe9565b820191906000526020600020905b815481529060010190602001808311610fcc57829003601f168201915b5050505050815260200160058201805480602002602001604051908101604052809291908181526020016000905b828210156110c3578382906000526020600020018054611036906135e4565b80601f0160208091040260200160405190810160405280929190818152602001828054611062906135e4565b80156110af5780601f10611084576101008083540402835291602001916110af565b820191906000526020600020905b81548152906001019060200180831161109257829003601f168201915b505050505081526020019060010190611017565b5050505081526020016006820160009054906101000a900460ff1615151515815250509050919050565b6110f5611943565b6110fe57600080fd5b6001818154811061111257611111613586565b5b906000526020600020906007020160060160009054906101000a900460ff16156001828154811061114657611145613586565b5b906000526020600020906007020160060160006101000a81548160ff02191690831515021790555050565b6000600260008363ffffffff1663ffffffff16815260200190815260200160002060009054906101000a900473ffffffffffffffffffffffffffffffffffffffff169050919050565b6000600360008373ffffffffffffffffffffffffffffffffffffffff1673ffffffffffffffffffffffffffffffffffffffff168152602001908152602001600020549050919050565b61120b611943565b61121457600080fd5b600073ffffffffffffffffffffffffffffffffffffffff1660008054906101000a900473ffffffffffffffffffffffffffffffffffffffff1673ffffffffffffffffffffffffffffffffffffffff167f8be0079c531659141344cd1fd0a4f28419497f9722a3daafe3b4186f6b6457e060405160405180910390a360008060006101000a81548173ffffffffffffffffffffffffffffffffffffffff021916908373ffffffffffffffffffffffffffffffffffffffff160217905550565b606060006112de612587565b67ffffffffffffffff8111156112f7576112f6613085565b5b60405190808252806020026020018201604052801561133057816020015b61131d6127e9565b8152602001906001900390816113155790505b5090506000805b600180549050811015611835573373ffffffffffffffffffffffffffffffffffffffff16600260008363ffffffff1663ffffffff16815260200190815260200160002060009054906101000a900473ffffffffffffffffffffffffffffffffffffffff1673ffffffffffffffffffffffffffffffffffffffff16141580156113ee5750600181815481106113ce576113cd613586565b5b906000526020600020906007020160060160009054906101000a900460ff165b15611822576001818154811061140757611406613586565b5b9060005260206000209060070201604051806101400160405290816000820160009054906101000a900463ffffffff1663ffffffff1663ffffffff1681526020016000820160049054906101000a900463ffffffff1663ffffffff1663ffffffff1681526020016000820160089054906101000a900463ffffffff1663ffffffff1663ffffffff16815260200160008201600c9054906101000a900463ffffffff1663ffffffff1663ffffffff1681526020016001820180546114c9906135e4565b80601f01602080910402602001604051908101604052809291908181526020018280546114f5906135e4565b80156115425780601f1061151757610100808354040283529160200191611542565b820191906000526020600020905b81548152906001019060200180831161152557829003601f168201915b5050505050815260200160028201805461155b906135e4565b80601f0160208091040260200160405190810160405280929190818152602001828054611587906135e4565b80156115d45780601f106115a9576101008083540402835291602001916115d4565b820191906000526020600020905b8154815290600101906020018083116115b757829003601f168201915b505050505081526020016003820180546115ed906135e4565b80601f0160208091040260200160405190810160405280929190818152602001828054611619906135e4565b80156116665780601f1061163b57610100808354040283529160200191611666565b820191906000526020600020905b81548152906001019060200180831161164957829003601f168201915b5050505050815260200160048201805461167f906135e4565b80601f01602080910402602001604051908101604052809291908181526020018280546116ab906135e4565b80156116f85780601f106116cd576101008083540402835291602001916116f8565b820191906000526020600020905b8154815290600101906020018083116116db57829003601f168201915b5050505050815260200160058201805480602002602001604051908101604052809291908181526020016000905b828210156117d2578382906000526020600020018054611745906135e4565b80601f0160208091040260200160405190810160405280929190818152602001828054611771906135e4565b80156117be5780601f10611793576101008083540402835291602001916117be565b820191906000526020600020905b8154815290600101906020018083116117a157829003601f168201915b505050505081526020019060010190611726565b5050505081526020016006820160009054906101000a900460ff16151515158152505083838151811061180857611807613586565b5b6020026020010181905250818061181e90613644565b9250505b808061182d90613644565b915050611337565b50819250505090565b611846611943565b61184f57600080fd5b6001828154811061186357611862613586565b5b906000526020600020906007020160000160089054906101000a900463ffffffff1663ffffffff168163ffffffff16116118d2576040517f08c379a00000000000000000000000000000000000000000000000000000000081526004016118c9906137fc565b60405180910390fd5b80600183815481106118e7576118e6613586565b5b906000526020600020906007020160000160086101000a81548163ffffffff021916908363ffffffff1602179055505050565b60008060009054906101000a900473ffffffffffffffffffffffffffffffffffffffff16905090565b60008060009054906101000a900473ffffffffffffffffffffffffffffffffffffffff1673ffffffffffffffffffffffffffffffffffffffff163373ffffffffffffffffffffffffffffffffffffffff1614905090565b60026020528060005260406000206000915054906101000a900473ffffffffffffffffffffffffffffffffffffffff1681565b80600260008263ffffffff1663ffffffff16815260200190815260200160002060009054906101000a900473ffffffffffffffffffffffffffffffffffffffff1673ffffffffffffffffffffffffffffffffffffffff163373ffffffffffffffffffffffffffffffffffffffff1614611a7b576040517f08c379a0000000000000000000000000000000000000000000000000000000008152600401611a7290613566565b60405180910390fd5b60005b600180549050811015611bcc578263ffffffff1660018281548110611aa657611aa5613586565b5b906000526020600020906007020160000160009054906101000a900463ffffffff1663ffffffff1603611bb95760018181548110611ae757611ae6613586565b5b9060005260206000209060070201600080820160006101000a81549063ffffffff02191690556000820160046101000a81549063ffffffff02191690556000820160086101000a81549063ffffffff021916905560008201600c6101000a81549063ffffffff0219169055600182016000611b629190612856565b600282016000611b729190612856565b600382016000611b829190612856565b600482016000611b929190612856565b600582016000611ba29190612896565b6006820160006101000a81549060ff021916905550505b8080611bc490613644565b915050611a7e565b505050565b600060405180610140016040528060018054905063ffffffff1681526020018b63ffffffff1681526020018a63ffffffff1681526020018963ffffffff1681526020018881526020018781526020018681526020018581526020018481526020018315158152509050600181908060018154018082558091505060019003906000526020600020906007020160009091909190915060008201518160000160006101000a81548163ffffffff021916908363ffffffff16021790555060208201518160000160046101000a81548163ffffffff021916908363ffffffff16021790555060408201518160000160086101000a81548163ffffffff021916908363ffffffff160217905550606082015181600001600c6101000a81548163ffffffff021916908363ffffffff1602179055506080820151816001019081611d1791906139c8565b5060a0820151816002019081611d2d91906139c8565b5060c0820151816003019081611d4391906139c8565b5060e0820151816004019081611d5991906139c8565b50610100820151816005019080519060200190611d779291906128b7565b506101208201518160060160006101000a81548160ff02191690831515021790555050503360026000836000015163ffffffff1663ffffffff16815260200190815260200160002060006101000a81548173ffffffffffffffffffffffffffffffffffffffff021916908373ffffffffffffffffffffffffffffffffffffffff160217905550611e506001600360003373ffffffffffffffffffffffffffffffffffffffff1673ffffffffffffffffffffffffffffffffffffffff1681526020019081526020016000205461267790919063ffffffff16565b600360003373ffffffffffffffffffffffffffffffffffffffff1673ffffffffffffffffffffffffffffffffffffffff168152602001908152602001600020819055507f1a1d86e0f039b69dc75a6a99b30e291a372ccdcae3c35990cc416065bf72777881604051611ec29190612fc5565b60405180910390a150505050505050505050565b611ede611943565b611ee757600080fd5b611ef0816126a3565b50565b60018181548110611f0357600080fd5b90600052602060002090600702016000915090508060000160009054906101000a900463ffffffff16908060000160049054906101000a900463ffffffff16908060000160089054906101000a900463ffffffff169080600001600c9054906101000a900463ffffffff1690806001018054611f7e906135e4565b80601f0160208091040260200160405190810160405280929190818152602001828054611faa906135e4565b8015611ff75780601f10611fcc57610100808354040283529160200191611ff7565b820191906000526020600020905b815481529060010190602001808311611fda57829003601f168201915b50505050509080600201805461200c906135e4565b80601f0160208091040260200160405190810160405280929190818152602001828054612038906135e4565b80156120855780601f1061205a57610100808354040283529160200191612085565b820191906000526020600020905b81548152906001019060200180831161206857829003601f168201915b50505050509080600301805461209a906135e4565b80601f01602080910402602001604051908101604052809291908181526020018280546120c6906135e4565b80156121135780601f106120e857610100808354040283529160200191612113565b820191906000526020600020905b8154815290600101906020018083116120f657829003601f168201915b505050505090806004018054612128906135e4565b80601f0160208091040260200160405190810160405280929190818152602001828054612154906135e4565b80156121a15780601f10612176576101008083540402835291602001916121a1565b820191906000526020600020905b81548152906001019060200180831161218457829003601f168201915b5050505050908060060160009054906101000a900460ff16905089565b6121c6611943565b6121cf57600080fd5b80600183815481106121e4576121e3613586565b5b9060005260206000209060070201600001600c6101000a81548163ffffffff021916908363ffffffff1602179055505050565b6000806000905060005b6001805490508110156122f7578373ffffffffffffffffffffffffffffffffffffffff16600260006001848154811061225d5761225c613586565b5b906000526020600020906007020160000160009054906101000a900463ffffffff1663ffffffff1663ffffffff16815260200190815260200160002060009054906101000a900473ffffffffffffffffffffffffffffffffffffffff1673ffffffffffffffffffffffffffffffffffffffff16036122e45781806122e090613644565b9250505b80806122ef90613644565b915050612221565b5080915050919050565b6123998282604051602401612317929190613a9a565b6040516020818303038152906040527fb60e72cc000000000000000000000000000000000000000000000000000000007bffffffffffffffffffffffffffffffffffffffffffffffffffffffff19166020820180517bffffffffffffffffffffffffffffffffffffffffffffffffffffffff8381831617835250505050612799565b5050565b6123f06001600360008573ffffffffffffffffffffffffffffffffffffffff1673ffffffffffffffffffffffffffffffffffffffff1681526020019081526020016000205461267790919063ffffffff16565b600360008473ffffffffffffffffffffffffffffffffffffffff1673ffffffffffffffffffffffffffffffffffffffff168152602001908152602001600020819055506124866001600360003373ffffffffffffffffffffffffffffffffffffffff1673ffffffffffffffffffffffffffffffffffffffff168152602001908152602001600020546127c290919063ffffffff16565b600360003373ffffffffffffffffffffffffffffffffffffffff1673ffffffffffffffffffffffffffffffffffffffff1681526020019081526020016000208190555081600260008363ffffffff1663ffffffff16815260200190815260200160002060006101000a81548173ffffffffffffffffffffffffffffffffffffffff021916908373ffffffffffffffffffffffffffffffffffffffff160217905550808273ffffffffffffffffffffffffffffffffffffffff168473ffffffffffffffffffffffffffffffffffffffff167fddf252ad1be2c89b69c2b068fc378daa952ba7f163c4a11628f55a4df523b3ef60405160405180910390a4505050565b6000806000905060005b60018054905081101561266f573373ffffffffffffffffffffffffffffffffffffffff16600260008363ffffffff1663ffffffff16815260200190815260200160002060009054906101000a900473ffffffffffffffffffffffffffffffffffffffff1673ffffffffffffffffffffffffffffffffffffffff161415801561264857506001818154811061262857612627613586565b5b906000526020600020906007020160060160009054906101000a900460ff165b1561265c57818061265890613644565b9250505b808061266790613644565b915050612591565b508091505090565b60008082846126869190613aca565b90508381101561269957612698613afe565b5b8091505092915050565b600073ffffffffffffffffffffffffffffffffffffffff168173ffffffffffffffffffffffffffffffffffffffff16036126dc57600080fd5b8073ffffffffffffffffffffffffffffffffffffffff1660008054906101000a900473ffffffffffffffffffffffffffffffffffffffff1673ffffffffffffffffffffffffffffffffffffffff167f8be0079c531659141344cd1fd0a4f28419497f9722a3daafe3b4186f6b6457e060405160405180910390a3806000806101000a81548173ffffffffffffffffffffffffffffffffffffffff021916908373ffffffffffffffffffffffffffffffffffffffff16021790555050565b60008151905060006a636f6e736f6c652e6c6f679050602083016000808483855afa5050505050565b6000828211156127d5576127d4613afe565b5b81836127e19190613b2d565b905092915050565b604051806101400160405280600063ffffffff168152602001600063ffffffff168152602001600063ffffffff168152602001600063ffffffff16815260200160608152602001606081526020016060815260200160608152602001606081526020016000151581525090565b508054612862906135e4565b6000825580601f106128745750612893565b601f0160209004906000526020600020908101906128929190612910565b5b50565b50805460008255906000526020600020908101906128b4919061292d565b50565b8280548282559060005260206000209081019282156128ff579160200282015b828111156128fe5782518290816128ee91906139c8565b50916020019190600101906128d7565b5b50905061290c919061292d565b5090565b5b80821115612929576000816000905550600101612911565b5090565b5b8082111561294d57600081816129449190612856565b5060010161292e565b5090565b6000604051905090565b600080fd5b600080fd5b600073ffffffffffffffffffffffffffffffffffffffff82169050919050565b600061299082612965565b9050919050565b6129a081612985565b81146129ab57600080fd5b50565b6000813590506129bd81612997565b92915050565b6000819050919050565b6129d6816129c3565b81146129e157600080fd5b50565b6000813590506129f3816129cd565b92915050565b60008060408385031215612a1057612a0f61295b565b5b6000612a1e858286016129ae565b9250506020612a2f858286016129e4565b9150509250929050565b600060208284031215612a4f57612a4e61295b565b5b6000612a5d848285016129ae565b91505092915050565b600081519050919050565b600082825260208201905092915050565b6000819050602082019050919050565b600063ffffffff82169050919050565b612aab81612a92565b82525050565b600081519050919050565b600082825260208201905092915050565b60005b83811015612aeb578082015181840152602081019050612ad0565b60008484015250505050565b6000601f19601f8301169050919050565b6000612b1382612ab1565b612b1d8185612abc565b9350612b2d818560208601612acd565b612b3681612af7565b840191505092915050565b600081519050919050565b600082825260208201905092915050565b6000819050602082019050919050565b6000612b798383612b08565b905092915050565b6000602082019050919050565b6000612b9982612b41565b612ba38185612b4c565b935083602082028501612bb585612b5d565b8060005b85811015612bf15784840389528151612bd28582612b6d565b9450612bdd83612b81565b925060208a01995050600181019050612bb9565b50829750879550505050505092915050565b60008115159050919050565b612c1881612c03565b82525050565b600061014083016000830151612c376000860182612aa2565b506020830151612c4a6020860182612aa2565b506040830151612c5d6040860182612aa2565b506060830151612c706060860182612aa2565b5060808301518482036080860152612c888282612b08565b91505060a083015184820360a0860152612ca28282612b08565b91505060c083015184820360c0860152612cbc8282612b08565b91505060e083015184820360e0860152612cd68282612b08565b915050610100830151848203610100860152612cf28282612b8e565b915050610120830151612d09610120860182612c0f565b508091505092915050565b6000612d208383612c1e565b905092915050565b6000602082019050919050565b6000612d4082612a66565b612d4a8185612a71565b935083602082028501612d5c85612a82565b8060005b85811015612d985784840389528151612d798582612d14565b9450612d8483612d28565b925060208a01995050600181019050612d60565b50829750879550505050505092915050565b60006020820190508181036000830152612dc48184612d35565b905092915050565b600080600060608486031215612de557612de461295b565b5b6000612df3868287016129ae565b9350506020612e04868287016129ae565b9250506040612e15868287016129e4565b9150509250925092565b612e2881612a92565b8114612e3357600080fd5b50565b600081359050612e4581612e1f565b92915050565b600060208284031215612e6157612e6061295b565b5b6000612e6f84828501612e36565b91505092915050565b612e8181612985565b82525050565b6000602082019050612e9c6000830184612e78565b92915050565b600060208284031215612eb857612eb761295b565b5b6000612ec6848285016129e4565b91505092915050565b600061014083016000830151612ee86000860182612aa2565b506020830151612efb6020860182612aa2565b506040830151612f0e6040860182612aa2565b506060830151612f216060860182612aa2565b5060808301518482036080860152612f398282612b08565b91505060a083015184820360a0860152612f538282612b08565b91505060c083015184820360c0860152612f6d8282612b08565b91505060e083015184820360e0860152612f878282612b08565b915050610100830151848203610100860152612fa38282612b8e565b915050610120830151612fba610120860182612c0f565b508091505092915050565b60006020820190508181036000830152612fdf8184612ecf565b905092915050565b612ff0816129c3565b82525050565b600060208201905061300b6000830184612fe7565b92915050565b600080604083850312156130285761302761295b565b5b6000613036858286016129e4565b925050602061304785828601612e36565b9150509250929050565b61305a81612c03565b82525050565b60006020820190506130756000830184613051565b92915050565b600080fd5b600080fd5b7f4e487b7100000000000000000000000000000000000000000000000000000000600052604160045260246000fd5b6130bd82612af7565b810181811067ffffffffffffffff821117156130dc576130db613085565b5b80604052505050565b60006130ef612951565b90506130fb82826130b4565b919050565b600067ffffffffffffffff82111561311b5761311a613085565b5b61312482612af7565b9050602081019050919050565b82818337600083830152505050565b600061315361314e84613100565b6130e5565b90508281526020810184848401111561316f5761316e613080565b5b61317a848285613131565b509392505050565b600082601f8301126131975761319661307b565b5b81356131a7848260208601613140565b91505092915050565b600067ffffffffffffffff8211156131cb576131ca613085565b5b602082029050602081019050919050565b600080fd5b60006131f46131ef846131b0565b6130e5565b90508083825260208201905060208402830185811115613217576132166131dc565b5b835b8181101561325e57803567ffffffffffffffff81111561323c5761323b61307b565b5b8086016132498982613182565b85526020850194505050602081019050613219565b5050509392505050565b600082601f83011261327d5761327c61307b565b5b813561328d8482602086016131e1565b91505092915050565b61329f81612c03565b81146132aa57600080fd5b50565b6000813590506132bc81613296565b92915050565b60008060008060008060008060006101208a8c0312156132e5576132e461295b565b5b60006132f38c828d01612e36565b99505060206133048c828d01612e36565b98505060406133158c828d01612e36565b97505060608a013567ffffffffffffffff81111561333657613335612960565b5b6133428c828d01613182565b96505060808a013567ffffffffffffffff81111561336357613362612960565b5b61336f8c828d01613182565b95505060a08a013567ffffffffffffffff8111156133905761338f612960565b5b61339c8c828d01613182565b94505060c08a013567ffffffffffffffff8111156133bd576133bc612960565b5b6133c98c828d01613182565b93505060e08a013567ffffffffffffffff8111156133ea576133e9612960565b5b6133f68c828d01613268565b9250506101006134088c828d016132ad565b9150509295985092959850929598565b61342181612a92565b82525050565b600082825260208201905092915050565b600061344382612ab1565b61344d8185613427565b935061345d818560208601612acd565b61346681612af7565b840191505092915050565b600061012082019050613487600083018c613418565b613494602083018b613418565b6134a1604083018a613418565b6134ae6060830189613418565b81810360808301526134c08188613438565b905081810360a08301526134d48187613438565b905081810360c08301526134e88186613438565b905081810360e08301526134fc8185613438565b905061350c610100830184613051565b9a9950505050505050505050565b7f546861742773206e6f7420796f20636172000000000000000000000000000000600082015250565b6000613550601183613427565b915061355b8261351a565b602082019050919050565b6000602082019050818103600083015261357f81613543565b9050919050565b7f4e487b7100000000000000000000000000000000000000000000000000000000600052603260045260246000fd5b7f4e487b7100000000000000000000000000000000000000000000000000000000600052602260045260246000fd5b600060028204905060018216806135fc57607f821691505b60208210810361360f5761360e6135b5565b5b50919050565b7f4e487b7100000000000000000000000000000000000000000000000000000000600052601160045260246000fd5b600061364f826129c3565b91507fffffffffffffffffffffffffffffffffffffffffffffffffffffffffffffffff820361368157613680613615565b5b600182019050919050565b7f5468697320636172206973206e6f7420666f722073616c650000000000000000600082015250565b60006136c2601883613427565b91506136cd8261368c565b602082019050919050565b600060208201905081810360008301526136f1816136b5565b9050919050565b7f596f7520616c7265616479206f776e20746869732063617220736f20796f752060008201527f63616e206e6f7420627579206974000000000000000000000000000000000000602082015250565b6000613754602e83613427565b915061375f826136f8565b604082019050919050565b6000602082019050818103600083015261378381613747565b9050919050565b7f546865206e6577206d696c616765206d75737420626520686967686572204f5560008201527f4c45480000000000000000000000000000000000000000000000000000000000602082015250565b60006137e6602383613427565b91506137f18261378a565b604082019050919050565b60006020820190508181036000830152613815816137d9565b9050919050565b60008190508160005260206000209050919050565b60006020601f8301049050919050565b600082821b905092915050565b60006008830261387e7fffffffffffffffffffffffffffffffffffffffffffffffffffffffffffffffff82613841565b6138888683613841565b95508019841693508086168417925050509392505050565b6000819050919050565b60006138c56138c06138bb846129c3565b6138a0565b6129c3565b9050919050565b6000819050919050565b6138df836138aa565b6138f36138eb826138cc565b84845461384e565b825550505050565b600090565b6139086138fb565b6139138184846138d6565b505050565b5b818110156139375761392c600082613900565b600181019050613919565b5050565b601f82111561397c5761394d8161381c565b61395684613831565b81016020851015613965578190505b61397961397185613831565b830182613918565b50505b505050565b600082821c905092915050565b600061399f60001984600802613981565b1980831691505092915050565b60006139b8838361398e565b9150826002028217905092915050565b6139d182612ab1565b67ffffffffffffffff8111156139ea576139e9613085565b5b6139f482546135e4565b6139ff82828561393b565b600060209050601f831160018114613a325760008415613a20578287015190505b613a2a85826139ac565b865550613a92565b601f198416613a408661381c565b60005b82811015613a6857848901518255600182019150602085019450602081019050613a43565b86831015613a855784890151613a81601f89168261398e565b8355505b6001600288020188555050505b505050505050565b60006040820190508181036000830152613ab48185613438565b9050613ac36020830184612fe7565b9392505050565b6000613ad5826129c3565b9150613ae0836129c3565b9250828201905080821115613af857613af7613615565b5b92915050565b7f4e487b7100000000000000000000000000000000000000000000000000000000600052600160045260246000fd5b6000613b38826129c3565b9150613b43836129c3565b9250828203905081811115613b5b57613b5a613615565b5b9291505056fea264697066735822122023c9013f10b073a79e904bc783788d1fe42de39be00f6fba2f1dd5285f5327ef64736f6c63430008120033",
  "linkReferences": {},
  "deployedLinkReferences": {}
}