{
  "_format": "hh-sol-artifact-1",
  "contractName": "CarOwnership",
  "sourceName": "contracts/carownership.sol",
  "abi": [
    {
      "anonymous": false,
      "inputs": [
        {
          "indexed": true,
          "internalType": "address",
          "name": "_owner",
          "type": "address"
        },
        {
          "indexed": true,
          "internalType": "address",
          "name": "_approved",
          "type": "address"
        },
        {
          "indexed": true,
          "internalType": "uint256",
          "name": "_tokenId",
          "type": "uint256"
        }
      ],
      "name": "Approval",
      "type": "event"
    },
    {
      "anonymous": false,
      "inputs": [
        {
          "components": [
            {
              "internalType": "uint32",
              "name": "chassisNumber",
              "type": "uint32"
            },
            {
              "internalType": "uint32",
              "name": "mileage",
              "type": "uint32"
            },
            {
              "internalType": "uint32",
              "name": "price",
              "type": "uint32"
            },
            {
              "internalType": "string",
              "name": "licensePlate",
              "type": "string"
            },
            {
              "internalType": "string",
              "name": "brand",
              "type": "string"
            },
            {
              "internalType": "string",
              "name": "carType",
              "type": "string"
            },
            {
              "internalType": "string",
              "name": "colour",
              "type": "string"
            },
            {
              "internalType": "string[]",
              "name": "pictures",
              "type": "string[]"
            },
            {
              "internalType": "bool",
              "name": "isForSale",
              "type": "bool"
            }
          ],
          "indexed": false,
          "internalType": "struct CarDetails.Car",
          "name": "car",
          "type": "tuple"
        }
      ],
      "name": "NewCar",
      "type": "event"
    },
    {
      "anonymous": false,
      "inputs": [
        {
          "indexed": true,
          "internalType": "address",
          "name": "previousOwner",
          "type": "address"
        },
        {
          "indexed": true,
          "internalType": "address",
          "name": "newOwner",
          "type": "address"
        }
      ],
      "name": "OwnershipTransferred",
      "type": "event"
    },
    {
      "anonymous": false,
      "inputs": [
        {
          "indexed": true,
          "internalType": "address",
          "name": "_from",
          "type": "address"
        },
        {
          "indexed": true,
          "internalType": "address",
          "name": "_to",
          "type": "address"
        },
        {
          "indexed": true,
          "internalType": "uint256",
          "name": "_tokenId",
          "type": "uint256"
        }
      ],
      "name": "Transfer",
      "type": "event"
    },
    {
      "inputs": [
        {
          "internalType": "address",
          "name": "_approved",
          "type": "address"
        },
        {
          "internalType": "uint256",
          "name": "_tokenId",
          "type": "uint256"
        }
      ],
      "name": "approve",
      "outputs": [],
      "stateMutability": "payable",
      "type": "function"
    },
    {
      "inputs": [
        {
          "internalType": "address",
          "name": "_owner",
          "type": "address"
        }
      ],
      "name": "balanceOf",
      "outputs": [
        {
          "internalType": "uint256",
          "name": "",
          "type": "uint256"
        }
      ],
      "stateMutability": "view",
      "type": "function"
    },
    {
      "inputs": [
        {
          "internalType": "uint256",
          "name": "",
          "type": "uint256"
        }
      ],
      "name": "carToOwner",
      "outputs": [
        {
          "internalType": "address",
          "name": "",
          "type": "address"
        }
      ],
      "stateMutability": "view",
      "type": "function"
    },
    {
      "inputs": [
        {
          "internalType": "uint256",
          "name": "",
          "type": "uint256"
        }
      ],
      "name": "cars",
      "outputs": [
        {
          "internalType": "uint32",
          "name": "chassisNumber",
          "type": "uint32"
        },
        {
          "internalType": "uint32",
          "name": "mileage",
          "type": "uint32"
        },
        {
          "internalType": "uint32",
          "name": "price",
          "type": "uint32"
        },
        {
          "internalType": "string",
          "name": "licensePlate",
          "type": "string"
        },
        {
          "internalType": "string",
          "name": "brand",
          "type": "string"
        },
        {
          "internalType": "string",
          "name": "carType",
          "type": "string"
        },
        {
          "internalType": "string",
          "name": "colour",
          "type": "string"
        },
        {
          "internalType": "bool",
          "name": "isForSale",
          "type": "bool"
        }
      ],
      "stateMutability": "view",
      "type": "function"
    },
    {
      "inputs": [
        {
          "internalType": "uint32",
          "name": "_chassisNumber",
          "type": "uint32"
        },
        {
          "internalType": "uint32",
          "name": "_mileage",
          "type": "uint32"
        },
        {
          "internalType": "uint32",
          "name": "_price",
          "type": "uint32"
        },
        {
          "internalType": "string",
          "name": "_licensePlate",
          "type": "string"
        },
        {
          "internalType": "string",
          "name": "_brand",
          "type": "string"
        },
        {
          "internalType": "string",
          "name": "_carType",
          "type": "string"
        },
        {
          "internalType": "string",
          "name": "_colour",
          "type": "string"
        },
        {
          "internalType": "string[]",
          "name": "_pictures",
          "type": "string[]"
        },
        {
          "internalType": "bool",
          "name": "_isForSale",
          "type": "bool"
        }
      ],
      "name": "createCar",
      "outputs": [],
      "stateMutability": "nonpayable",
      "type": "function"
    },
    {
      "inputs": [
        {
          "internalType": "address",
          "name": "_owner",
          "type": "address"
        }
      ],
      "name": "getAllCarsForOwner",
      "outputs": [
        {
          "components": [
            {
              "internalType": "uint32",
              "name": "chassisNumber",
              "type": "uint32"
            },
            {
              "internalType": "uint32",
              "name": "mileage",
              "type": "uint32"
            },
            {
              "internalType": "uint32",
              "name": "price",
              "type": "uint32"
            },
            {
              "internalType": "string",
              "name": "licensePlate",
              "type": "string"
            },
            {
              "internalType": "string",
              "name": "brand",
              "type": "string"
            },
            {
              "internalType": "string",
              "name": "carType",
              "type": "string"
            },
            {
              "internalType": "string",
              "name": "colour",
              "type": "string"
            },
            {
              "internalType": "string[]",
              "name": "pictures",
              "type": "string[]"
            },
            {
              "internalType": "bool",
              "name": "isForSale",
              "type": "bool"
            }
          ],
          "internalType": "struct CarDetails.Car[]",
          "name": "",
          "type": "tuple[]"
        }
      ],
      "stateMutability": "view",
      "type": "function"
    },
    {
      "inputs": [
        {
          "internalType": "uint256",
          "name": "_carId",
          "type": "uint256"
        }
      ],
      "name": "getCar",
      "outputs": [
        {
          "components": [
            {
              "internalType": "uint32",
              "name": "chassisNumber",
              "type": "uint32"
            },
            {
              "internalType": "uint32",
              "name": "mileage",
              "type": "uint32"
            },
            {
              "internalType": "uint32",
              "name": "price",
              "type": "uint32"
            },
            {
              "internalType": "string",
              "name": "licensePlate",
              "type": "string"
            },
            {
              "internalType": "string",
              "name": "brand",
              "type": "string"
            },
            {
              "internalType": "string",
              "name": "carType",
              "type": "string"
            },
            {
              "internalType": "string",
              "name": "colour",
              "type": "string"
            },
            {
              "internalType": "string[]",
              "name": "pictures",
              "type": "string[]"
            },
            {
              "internalType": "bool",
              "name": "isForSale",
              "type": "bool"
            }
          ],
          "internalType": "struct CarDetails.Car",
          "name": "",
          "type": "tuple"
        }
      ],
      "stateMutability": "view",
      "type": "function"
    },
    {
      "inputs": [],
      "name": "isOwner",
      "outputs": [
        {
          "internalType": "bool",
          "name": "",
          "type": "bool"
        }
      ],
      "stateMutability": "view",
      "type": "function"
    },
    {
      "inputs": [],
      "name": "owner",
      "outputs": [
        {
          "internalType": "address",
          "name": "",
          "type": "address"
        }
      ],
      "stateMutability": "view",
      "type": "function"
    },
    {
      "inputs": [
        {
          "internalType": "uint256",
          "name": "_tokenId",
          "type": "uint256"
        }
      ],
      "name": "ownerOf",
      "outputs": [
        {
          "internalType": "address",
          "name": "",
          "type": "address"
        }
      ],
      "stateMutability": "view",
      "type": "function"
    },
    {
      "inputs": [],
      "name": "renounceOwnership",
      "outputs": [],
      "stateMutability": "nonpayable",
      "type": "function"
    },
    {
      "inputs": [
        {
          "internalType": "uint256",
          "name": "_carId",
          "type": "uint256"
        }
      ],
      "name": "toggleSaleState",
      "outputs": [],
      "stateMutability": "nonpayable",
      "type": "function"
    },
    {
      "inputs": [
        {
          "internalType": "address",
          "name": "_from",
          "type": "address"
        },
        {
          "internalType": "address",
          "name": "_to",
          "type": "address"
        },
        {
          "internalType": "uint256",
          "name": "_tokenId",
          "type": "uint256"
        }
      ],
      "name": "transferFrom",
      "outputs": [],
      "stateMutability": "payable",
      "type": "function"
    },
    {
      "inputs": [
        {
          "internalType": "address",
          "name": "newOwner",
          "type": "address"
        }
      ],
      "name": "transferOwnership",
      "outputs": [],
      "stateMutability": "nonpayable",
      "type": "function"
    },
    {
      "inputs": [
        {
          "internalType": "uint256",
          "name": "_carId",
          "type": "uint256"
        },
        {
          "internalType": "uint32",
          "name": "_newMileage",
          "type": "uint32"
        }
      ],
      "name": "updateMileage",
      "outputs": [],
      "stateMutability": "nonpayable",
      "type": "function"
    },
    {
      "inputs": [
        {
          "internalType": "uint256",
          "name": "_carId",
          "type": "uint256"
        },
        {
          "internalType": "uint32",
          "name": "_newPrice",
          "type": "uint32"
        }
      ],
      "name": "updatePrice",
      "outputs": [],
      "stateMutability": "nonpayable",
      "type": "function"
    }
  ],
  "bytecode": "0x608060405234801561001057600080fd5b50336000806101000a81548173ffffffffffffffffffffffffffffffffffffffff021916908373ffffffffffffffffffffffffffffffffffffffff16021790555060008054906101000a900473ffffffffffffffffffffffffffffffffffffffff1673ffffffffffffffffffffffffffffffffffffffff16600073ffffffffffffffffffffffffffffffffffffffff167f8be0079c531659141344cd1fd0a4f28419497f9722a3daafe3b4186f6b6457e060405160405180910390a3612fa3806100db6000396000f3fe6080604052600436106100f35760003560e01c8063715018a61161008a578063d4d942ec11610059578063d4d942ec14610320578063f2fde38b14610349578063f7746e3614610372578063f95fe25b146103b6576100f3565b8063715018a61461028a5780637edffa53146102a15780638da5cb5b146102ca5780638f32d59b146102f5576100f3565b80635e8be190116100c65780635e8be190146101aa578063628dd13e146101e75780636352211e1461021057806370a082311461024d576100f3565b8063095ea7b3146100f85780632286c0c11461011457806323b872dd1461015157806333ca504b1461016d575b600080fd5b610112600480360381019061010d9190611e9b565b6103df565b005b34801561012057600080fd5b5061013b60048036038101906101369190611edb565b610533565b6040516101489190612237565b60405180910390f35b61016b60048036038101906101669190612259565b610a6a565b005b34801561017957600080fd5b50610194600480360381019061018f91906122ac565b610c42565b6040516101a191906122e8565b60405180910390f35b3480156101b657600080fd5b506101d160048036038101906101cc91906122ac565b610c75565b6040516101de91906123e4565b60405180910390f35b3480156101f357600080fd5b5061020e600480360381019061020991906122ac565b611060565b005b34801561021c57600080fd5b50610237600480360381019061023291906122ac565b6110e4565b60405161024491906122e8565b60405180910390f35b34801561025957600080fd5b50610274600480360381019061026f9190611edb565b611121565b6040516102819190612415565b60405180910390f35b34801561029657600080fd5b5061029f61116a565b005b3480156102ad57600080fd5b506102c860048036038101906102c3919061245c565b611239565b005b3480156102d657600080fd5b506102df611315565b6040516102ec91906122e8565b60405180910390f35b34801561030157600080fd5b5061030a61133e565b60405161031791906124ab565b60405180910390f35b34801561032c57600080fd5b506103476004803603810190610342919061270d565b611395565b005b34801561035557600080fd5b50610370600480360381019061036b9190611edb565b611667565b005b34801561037e57600080fd5b50610399600480360381019061039491906122ac565b611684565b6040516103ad9897969594939291906128bc565b60405180910390f35b3480156103c257600080fd5b506103dd60048036038101906103d8919061245c565b611939565b005b806002600082815260200190815260200160002060009054906101000a900473ffffffffffffffffffffffffffffffffffffffff1673ffffffffffffffffffffffffffffffffffffffff163373ffffffffffffffffffffffffffffffffffffffff1614610481576040517f08c379a0000000000000000000000000000000000000000000000000000000008152600401610478906129a2565b60405180910390fd5b826004600084815260200190815260200160002060006101000a81548173ffffffffffffffffffffffffffffffffffffffff021916908373ffffffffffffffffffffffffffffffffffffffff160217905550818373ffffffffffffffffffffffffffffffffffffffff163373ffffffffffffffffffffffffffffffffffffffff167f8c5be1e5ebec7d5bd14f71427d1e84f3dd0314c0f7b2291e5b200ac8c7c3b92560405160405180910390a4505050565b60606000600360008473ffffffffffffffffffffffffffffffffffffffff1673ffffffffffffffffffffffffffffffffffffffff1681526020019081526020016000205467ffffffffffffffff8111156105905761058f6124d0565b5b6040519080825280602002602001820160405280156105c957816020015b6105b6611cb9565b8152602001906001900390816105ae5790505b5090506000805b600180549050811015610a5f578473ffffffffffffffffffffffffffffffffffffffff166002600083815260200190815260200160002060009054906101000a900473ffffffffffffffffffffffffffffffffffffffff1673ffffffffffffffffffffffffffffffffffffffff1603610a4c5760018181548110610657576106566129c2565b5b9060005260206000209060070201604051806101200160405290816000820160009054906101000a900463ffffffff1663ffffffff1663ffffffff1681526020016000820160049054906101000a900463ffffffff1663ffffffff1663ffffffff1681526020016000820160089054906101000a900463ffffffff1663ffffffff1663ffffffff1681526020016001820180546106f390612a20565b80601f016020809104026020016040519081016040528092919081815260200182805461071f90612a20565b801561076c5780601f106107415761010080835404028352916020019161076c565b820191906000526020600020905b81548152906001019060200180831161074f57829003601f168201915b5050505050815260200160028201805461078590612a20565b80601f01602080910402602001604051908101604052809291908181526020018280546107b190612a20565b80156107fe5780601f106107d3576101008083540402835291602001916107fe565b820191906000526020600020905b8154815290600101906020018083116107e157829003601f168201915b5050505050815260200160038201805461081790612a20565b80601f016020809104026020016040519081016040528092919081815260200182805461084390612a20565b80156108905780601f1061086557610100808354040283529160200191610890565b820191906000526020600020905b81548152906001019060200180831161087357829003601f168201915b505050505081526020016004820180546108a990612a20565b80601f01602080910402602001604051908101604052809291908181526020018280546108d590612a20565b80156109225780601f106108f757610100808354040283529160200191610922565b820191906000526020600020905b81548152906001019060200180831161090557829003601f168201915b5050505050815260200160058201805480602002602001604051908101604052809291908181526020016000905b828210156109fc57838290600052602060002001805461096f90612a20565b80601f016020809104026020016040519081016040528092919081815260200182805461099b90612a20565b80156109e85780601f106109bd576101008083540402835291602001916109e8565b820191906000526020600020905b8154815290600101906020018083116109cb57829003601f168201915b505050505081526020019060010190610950565b5050505081526020016006820160009054906101000a900460ff161515151581525050838381518110610a3257610a316129c2565b5b60200260200101819052508180610a4890612a80565b9250505b8080610a5790612a80565b9150506105d0565b508192505050919050565b60018181548110610a7e57610a7d6129c2565b5b906000526020600020906007020160060160009054906101000a900460ff16610adc576040517f08c379a0000000000000000000000000000000000000000000000000000000008152600401610ad390612b14565b60405180910390fd5b3373ffffffffffffffffffffffffffffffffffffffff166002600083815260200190815260200160002060009054906101000a900473ffffffffffffffffffffffffffffffffffffffff1673ffffffffffffffffffffffffffffffffffffffff1603610b7d576040517f08c379a0000000000000000000000000000000000000000000000000000000008152600401610b7490612ba6565b60405180910390fd5b6002600082815260200190815260200160002060009054906101000a900473ffffffffffffffffffffffffffffffffffffffff1673ffffffffffffffffffffffffffffffffffffffff166108fc60018381548110610bde57610bdd6129c2565b5b906000526020600020906007020160000160089054906101000a900463ffffffff1663ffffffff169081150290604051600060405180830381858888f19350505050158015610c31573d6000803e3d6000fd5b50610c3d838383611992565b505050565b60026020528060005260406000206000915054906101000a900473ffffffffffffffffffffffffffffffffffffffff1681565b610c7d611cb9565b60018281548110610c9157610c906129c2565b5b9060005260206000209060070201604051806101200160405290816000820160009054906101000a900463ffffffff1663ffffffff1663ffffffff1681526020016000820160049054906101000a900463ffffffff1663ffffffff1663ffffffff1681526020016000820160089054906101000a900463ffffffff1663ffffffff1663ffffffff168152602001600182018054610d2d90612a20565b80601f0160208091040260200160405190810160405280929190818152602001828054610d5990612a20565b8015610da65780601f10610d7b57610100808354040283529160200191610da6565b820191906000526020600020905b815481529060010190602001808311610d8957829003601f168201915b50505050508152602001600282018054610dbf90612a20565b80601f0160208091040260200160405190810160405280929190818152602001828054610deb90612a20565b8015610e385780601f10610e0d57610100808354040283529160200191610e38565b820191906000526020600020905b815481529060010190602001808311610e1b57829003601f168201915b50505050508152602001600382018054610e5190612a20565b80601f0160208091040260200160405190810160405280929190818152602001828054610e7d90612a20565b8015610eca5780601f10610e9f57610100808354040283529160200191610eca565b820191906000526020600020905b815481529060010190602001808311610ead57829003601f168201915b50505050508152602001600482018054610ee390612a20565b80601f0160208091040260200160405190810160405280929190818152602001828054610f0f90612a20565b8015610f5c5780601f10610f3157610100808354040283529160200191610f5c565b820191906000526020600020905b815481529060010190602001808311610f3f57829003601f168201915b5050505050815260200160058201805480602002602001604051908101604052809291908181526020016000905b82821015611036578382906000526020600020018054610fa990612a20565b80601f0160208091040260200160405190810160405280929190818152602001828054610fd590612a20565b80156110225780601f10610ff757610100808354040283529160200191611022565b820191906000526020600020905b81548152906001019060200180831161100557829003601f168201915b505050505081526020019060010190610f8a565b5050505081526020016006820160009054906101000a900460ff1615151515815250509050919050565b61106861133e565b61107157600080fd5b60018181548110611085576110846129c2565b5b906000526020600020906007020160060160009054906101000a900460ff1615600182815481106110b9576110b86129c2565b5b906000526020600020906007020160060160006101000a81548160ff02191690831515021790555050565b60006002600083815260200190815260200160002060009054906101000a900473ffffffffffffffffffffffffffffffffffffffff169050919050565b6000600360008373ffffffffffffffffffffffffffffffffffffffff1673ffffffffffffffffffffffffffffffffffffffff168152602001908152602001600020549050919050565b61117261133e565b61117b57600080fd5b600073ffffffffffffffffffffffffffffffffffffffff1660008054906101000a900473ffffffffffffffffffffffffffffffffffffffff1673ffffffffffffffffffffffffffffffffffffffff167f8be0079c531659141344cd1fd0a4f28419497f9722a3daafe3b4186f6b6457e060405160405180910390a360008060006101000a81548173ffffffffffffffffffffffffffffffffffffffff021916908373ffffffffffffffffffffffffffffffffffffffff160217905550565b61124161133e565b61124a57600080fd5b6001828154811061125e5761125d6129c2565b5b906000526020600020906007020160000160049054906101000a900463ffffffff1663ffffffff168163ffffffff16116112cd576040517f08c379a00000000000000000000000000000000000000000000000000000000081526004016112c490612c38565b60405180910390fd5b80600183815481106112e2576112e16129c2565b5b906000526020600020906007020160000160046101000a81548163ffffffff021916908363ffffffff1602179055505050565b60008060009054906101000a900473ffffffffffffffffffffffffffffffffffffffff16905090565b60008060009054906101000a900473ffffffffffffffffffffffffffffffffffffffff1673ffffffffffffffffffffffffffffffffffffffff163373ffffffffffffffffffffffffffffffffffffffff1614905090565b60006040518061012001604052808b63ffffffff1681526020018a63ffffffff1681526020018963ffffffff1681526020018881526020018781526020018681526020018581526020018481526020018315158152509050600181908060018154018082558091505060019003906000526020600020906007020160009091909190915060008201518160000160006101000a81548163ffffffff021916908363ffffffff16021790555060208201518160000160046101000a81548163ffffffff021916908363ffffffff16021790555060408201518160000160086101000a81548163ffffffff021916908363ffffffff16021790555060608201518160010190816114a39190612e04565b5060808201518160020190816114b99190612e04565b5060a08201518160030190816114cf9190612e04565b5060c08201518160040190816114e59190612e04565b5060e0820151816005019080519060200190611502929190611d19565b506101008201518160060160006101000a81548160ff02191690831515021790555050506000600180805490506115399190612ed6565b9050336002600083815260200190815260200160002060006101000a81548173ffffffffffffffffffffffffffffffffffffffff021916908373ffffffffffffffffffffffffffffffffffffffff1602179055506115e06001600360003373ffffffffffffffffffffffffffffffffffffffff1673ffffffffffffffffffffffffffffffffffffffff16815260200190815260200160002054611b7090919063ffffffff16565b600360003373ffffffffffffffffffffffffffffffffffffffff1673ffffffffffffffffffffffffffffffffffffffff168152602001908152602001600020819055507f9fa933a4314619d734428b1038f1dd61e63dd0b19328ee6e7338a2d5d18475348260405161165291906123e4565b60405180910390a15050505050505050505050565b61166f61133e565b61167857600080fd5b61168181611b9c565b50565b6001818154811061169457600080fd5b90600052602060002090600702016000915090508060000160009054906101000a900463ffffffff16908060000160049054906101000a900463ffffffff16908060000160089054906101000a900463ffffffff16908060010180546116f990612a20565b80601f016020809104026020016040519081016040528092919081815260200182805461172590612a20565b80156117725780601f1061174757610100808354040283529160200191611772565b820191906000526020600020905b81548152906001019060200180831161175557829003601f168201915b50505050509080600201805461178790612a20565b80601f01602080910402602001604051908101604052809291908181526020018280546117b390612a20565b80156118005780601f106117d557610100808354040283529160200191611800565b820191906000526020600020905b8154815290600101906020018083116117e357829003601f168201915b50505050509080600301805461181590612a20565b80601f016020809104026020016040519081016040528092919081815260200182805461184190612a20565b801561188e5780601f106118635761010080835404028352916020019161188e565b820191906000526020600020905b81548152906001019060200180831161187157829003601f168201915b5050505050908060040180546118a390612a20565b80601f01602080910402602001604051908101604052809291908181526020018280546118cf90612a20565b801561191c5780601f106118f15761010080835404028352916020019161191c565b820191906000526020600020905b8154815290600101906020018083116118ff57829003601f168201915b5050505050908060060160009054906101000a900460ff16905088565b61194161133e565b61194a57600080fd5b806001838154811061195f5761195e6129c2565b5b906000526020600020906007020160000160086101000a81548163ffffffff021916908363ffffffff1602179055505050565b6119e56001600360008573ffffffffffffffffffffffffffffffffffffffff1673ffffffffffffffffffffffffffffffffffffffff16815260200190815260200160002054611b7090919063ffffffff16565b600360008473ffffffffffffffffffffffffffffffffffffffff1673ffffffffffffffffffffffffffffffffffffffff16815260200190815260200160002081905550611a7b6001600360003373ffffffffffffffffffffffffffffffffffffffff1673ffffffffffffffffffffffffffffffffffffffff16815260200190815260200160002054611c9290919063ffffffff16565b600360003373ffffffffffffffffffffffffffffffffffffffff1673ffffffffffffffffffffffffffffffffffffffff16815260200190815260200160002081905550816002600083815260200190815260200160002060006101000a81548173ffffffffffffffffffffffffffffffffffffffff021916908373ffffffffffffffffffffffffffffffffffffffff160217905550808273ffffffffffffffffffffffffffffffffffffffff168473ffffffffffffffffffffffffffffffffffffffff167fddf252ad1be2c89b69c2b068fc378daa952ba7f163c4a11628f55a4df523b3ef60405160405180910390a4505050565b6000808284611b7f9190612f0a565b905083811015611b9257611b91612f3e565b5b8091505092915050565b600073ffffffffffffffffffffffffffffffffffffffff168173ffffffffffffffffffffffffffffffffffffffff1603611bd557600080fd5b8073ffffffffffffffffffffffffffffffffffffffff1660008054906101000a900473ffffffffffffffffffffffffffffffffffffffff1673ffffffffffffffffffffffffffffffffffffffff167f8be0079c531659141344cd1fd0a4f28419497f9722a3daafe3b4186f6b6457e060405160405180910390a3806000806101000a81548173ffffffffffffffffffffffffffffffffffffffff021916908373ffffffffffffffffffffffffffffffffffffffff16021790555050565b600082821115611ca557611ca4612f3e565b5b8183611cb19190612ed6565b905092915050565b604051806101200160405280600063ffffffff168152602001600063ffffffff168152602001600063ffffffff16815260200160608152602001606081526020016060815260200160608152602001606081526020016000151581525090565b828054828255906000526020600020908101928215611d61579160200282015b82811115611d60578251829081611d509190612e04565b5091602001919060010190611d39565b5b509050611d6e9190611d72565b5090565b5b80821115611d925760008181611d899190611d96565b50600101611d73565b5090565b508054611da290612a20565b6000825580601f10611db45750611dd3565b601f016020900490600052602060002090810190611dd29190611dd6565b5b50565b5b80821115611def576000816000905550600101611dd7565b5090565b6000604051905090565b600080fd5b600080fd5b600073ffffffffffffffffffffffffffffffffffffffff82169050919050565b6000611e3282611e07565b9050919050565b611e4281611e27565b8114611e4d57600080fd5b50565b600081359050611e5f81611e39565b92915050565b6000819050919050565b611e7881611e65565b8114611e8357600080fd5b50565b600081359050611e9581611e6f565b92915050565b60008060408385031215611eb257611eb1611dfd565b5b6000611ec085828601611e50565b9250506020611ed185828601611e86565b9150509250929050565b600060208284031215611ef157611ef0611dfd565b5b6000611eff84828501611e50565b91505092915050565b600081519050919050565b600082825260208201905092915050565b6000819050602082019050919050565b600063ffffffff82169050919050565b611f4d81611f34565b82525050565b600081519050919050565b600082825260208201905092915050565b60005b83811015611f8d578082015181840152602081019050611f72565b60008484015250505050565b6000601f19601f8301169050919050565b6000611fb582611f53565b611fbf8185611f5e565b9350611fcf818560208601611f6f565b611fd881611f99565b840191505092915050565b600081519050919050565b600082825260208201905092915050565b6000819050602082019050919050565b600061201b8383611faa565b905092915050565b6000602082019050919050565b600061203b82611fe3565b6120458185611fee565b93508360208202850161205785611fff565b8060005b858110156120935784840389528151612074858261200f565b945061207f83612023565b925060208a0199505060018101905061205b565b50829750879550505050505092915050565b60008115159050919050565b6120ba816120a5565b82525050565b6000610120830160008301516120d96000860182611f44565b5060208301516120ec6020860182611f44565b5060408301516120ff6040860182611f44565b50606083015184820360608601526121178282611faa565b915050608083015184820360808601526121318282611faa565b91505060a083015184820360a086015261214b8282611faa565b91505060c083015184820360c08601526121658282611faa565b91505060e083015184820360e086015261217f8282612030565b9150506101008301516121966101008601826120b1565b508091505092915050565b60006121ad83836120c0565b905092915050565b6000602082019050919050565b60006121cd82611f08565b6121d78185611f13565b9350836020820285016121e985611f24565b8060005b85811015612225578484038952815161220685826121a1565b9450612211836121b5565b925060208a019950506001810190506121ed565b50829750879550505050505092915050565b6000602082019050818103600083015261225181846121c2565b905092915050565b60008060006060848603121561227257612271611dfd565b5b600061228086828701611e50565b935050602061229186828701611e50565b92505060406122a286828701611e86565b9150509250925092565b6000602082840312156122c2576122c1611dfd565b5b60006122d084828501611e86565b91505092915050565b6122e281611e27565b82525050565b60006020820190506122fd60008301846122d9565b92915050565b60006101208301600083015161231c6000860182611f44565b50602083015161232f6020860182611f44565b5060408301516123426040860182611f44565b506060830151848203606086015261235a8282611faa565b915050608083015184820360808601526123748282611faa565b91505060a083015184820360a086015261238e8282611faa565b91505060c083015184820360c08601526123a88282611faa565b91505060e083015184820360e08601526123c28282612030565b9150506101008301516123d96101008601826120b1565b508091505092915050565b600060208201905081810360008301526123fe8184612303565b905092915050565b61240f81611e65565b82525050565b600060208201905061242a6000830184612406565b92915050565b61243981611f34565b811461244457600080fd5b50565b60008135905061245681612430565b92915050565b6000806040838503121561247357612472611dfd565b5b600061248185828601611e86565b925050602061249285828601612447565b9150509250929050565b6124a5816120a5565b82525050565b60006020820190506124c0600083018461249c565b92915050565b600080fd5b600080fd5b7f4e487b7100000000000000000000000000000000000000000000000000000000600052604160045260246000fd5b61250882611f99565b810181811067ffffffffffffffff82111715612527576125266124d0565b5b80604052505050565b600061253a611df3565b905061254682826124ff565b919050565b600067ffffffffffffffff821115612566576125656124d0565b5b61256f82611f99565b9050602081019050919050565b82818337600083830152505050565b600061259e6125998461254b565b612530565b9050828152602081018484840111156125ba576125b96124cb565b5b6125c584828561257c565b509392505050565b600082601f8301126125e2576125e16124c6565b5b81356125f284826020860161258b565b91505092915050565b600067ffffffffffffffff821115612616576126156124d0565b5b602082029050602081019050919050565b600080fd5b600061263f61263a846125fb565b612530565b9050808382526020820190506020840283018581111561266257612661612627565b5b835b818110156126a957803567ffffffffffffffff811115612687576126866124c6565b5b80860161269489826125cd565b85526020850194505050602081019050612664565b5050509392505050565b600082601f8301126126c8576126c76124c6565b5b81356126d884826020860161262c565b91505092915050565b6126ea816120a5565b81146126f557600080fd5b50565b600081359050612707816126e1565b92915050565b60008060008060008060008060006101208a8c0312156127305761272f611dfd565b5b600061273e8c828d01612447565b995050602061274f8c828d01612447565b98505060406127608c828d01612447565b97505060608a013567ffffffffffffffff81111561278157612780611e02565b5b61278d8c828d016125cd565b96505060808a013567ffffffffffffffff8111156127ae576127ad611e02565b5b6127ba8c828d016125cd565b95505060a08a013567ffffffffffffffff8111156127db576127da611e02565b5b6127e78c828d016125cd565b94505060c08a013567ffffffffffffffff81111561280857612807611e02565b5b6128148c828d016125cd565b93505060e08a013567ffffffffffffffff81111561283557612834611e02565b5b6128418c828d016126b3565b9250506101006128538c828d016126f8565b9150509295985092959850929598565b61286c81611f34565b82525050565b600082825260208201905092915050565b600061288e82611f53565b6128988185612872565b93506128a8818560208601611f6f565b6128b181611f99565b840191505092915050565b6000610100820190506128d2600083018b612863565b6128df602083018a612863565b6128ec6040830189612863565b81810360608301526128fe8188612883565b905081810360808301526129128187612883565b905081810360a08301526129268186612883565b905081810360c083015261293a8185612883565b905061294960e083018461249c565b9998505050505050505050565b7f546861742773206e6f7420796f20636172000000000000000000000000000000600082015250565b600061298c601183612872565b915061299782612956565b602082019050919050565b600060208201905081810360008301526129bb8161297f565b9050919050565b7f4e487b7100000000000000000000000000000000000000000000000000000000600052603260045260246000fd5b7f4e487b7100000000000000000000000000000000000000000000000000000000600052602260045260246000fd5b60006002820490506001821680612a3857607f821691505b602082108103612a4b57612a4a6129f1565b5b50919050565b7f4e487b7100000000000000000000000000000000000000000000000000000000600052601160045260246000fd5b6000612a8b82611e65565b91507fffffffffffffffffffffffffffffffffffffffffffffffffffffffffffffffff8203612abd57612abc612a51565b5b600182019050919050565b7f5468697320636172206973206e6f7420666f722073616c650000000000000000600082015250565b6000612afe601883612872565b9150612b0982612ac8565b602082019050919050565b60006020820190508181036000830152612b2d81612af1565b9050919050565b7f596f7520616c7265616479206f776e20746869732063617220736f20796f752060008201527f63616e206e6f7420627579206974000000000000000000000000000000000000602082015250565b6000612b90602e83612872565b9150612b9b82612b34565b604082019050919050565b60006020820190508181036000830152612bbf81612b83565b9050919050565b7f546865206e6577206d696c616765206d75737420626520686967686572204f5560008201527f4c45480000000000000000000000000000000000000000000000000000000000602082015250565b6000612c22602383612872565b9150612c2d82612bc6565b604082019050919050565b60006020820190508181036000830152612c5181612c15565b9050919050565b60008190508160005260206000209050919050565b60006020601f8301049050919050565b600082821b905092915050565b600060088302612cba7fffffffffffffffffffffffffffffffffffffffffffffffffffffffffffffffff82612c7d565b612cc48683612c7d565b95508019841693508086168417925050509392505050565b6000819050919050565b6000612d01612cfc612cf784611e65565b612cdc565b611e65565b9050919050565b6000819050919050565b612d1b83612ce6565b612d2f612d2782612d08565b848454612c8a565b825550505050565b600090565b612d44612d37565b612d4f818484612d12565b505050565b5b81811015612d7357612d68600082612d3c565b600181019050612d55565b5050565b601f821115612db857612d8981612c58565b612d9284612c6d565b81016020851015612da1578190505b612db5612dad85612c6d565b830182612d54565b50505b505050565b600082821c905092915050565b6000612ddb60001984600802612dbd565b1980831691505092915050565b6000612df48383612dca565b9150826002028217905092915050565b612e0d82611f53565b67ffffffffffffffff811115612e2657612e256124d0565b5b612e308254612a20565b612e3b828285612d77565b600060209050601f831160018114612e6e5760008415612e5c578287015190505b612e668582612de8565b865550612ece565b601f198416612e7c86612c58565b60005b82811015612ea457848901518255600182019150602085019450602081019050612e7f565b86831015612ec15784890151612ebd601f891682612dca565b8355505b6001600288020188555050505b505050505050565b6000612ee182611e65565b9150612eec83611e65565b9250828203905081811115612f0457612f03612a51565b5b92915050565b6000612f1582611e65565b9150612f2083611e65565b9250828201905080821115612f3857612f37612a51565b5b92915050565b7f4e487b7100000000000000000000000000000000000000000000000000000000600052600160045260246000fdfea264697066735822122034a6ec29f942e42c9a4d7abf0c4613380584a08b3440c77726f9cf8c2b96dea964736f6c63430008110033",
  "linkReferences": {},
  "deployedLinkReferences": {}
}