{
  "_format": "hh-sol-artifact-1",
  "contractName": "CarOwnership",
  "sourceName": "contracts/carownership.sol",
  "abi": [
    {
      "anonymous": false,
      "inputs": [
        {
          "indexed": true,
          "internalType": "address",
          "name": "_owner",
          "type": "address"
        },
        {
          "indexed": true,
          "internalType": "address",
          "name": "_approved",
          "type": "address"
        },
        {
          "indexed": true,
          "internalType": "uint256",
          "name": "_tokenId",
          "type": "uint256"
        }
      ],
      "name": "Approval",
      "type": "event"
    },
    {
      "anonymous": false,
      "inputs": [
        {
          "components": [
            {
              "internalType": "uint256",
              "name": "chassisNumber",
              "type": "uint256"
            },
            {
              "internalType": "uint32",
              "name": "mileage",
              "type": "uint32"
            },
            {
              "internalType": "uint32",
              "name": "price",
              "type": "uint32"
            },
            {
              "internalType": "string",
              "name": "licensePlate",
              "type": "string"
            },
            {
              "internalType": "string",
              "name": "brand",
              "type": "string"
            },
            {
              "internalType": "string",
              "name": "carType",
              "type": "string"
            },
            {
              "internalType": "string",
              "name": "colour",
              "type": "string"
            },
            {
              "internalType": "string[]",
              "name": "pictures",
              "type": "string[]"
            },
            {
              "internalType": "bool",
              "name": "isForSale",
              "type": "bool"
            }
          ],
          "indexed": false,
          "internalType": "struct CarDetails.Car",
          "name": "car",
          "type": "tuple"
        }
      ],
      "name": "NewCar",
      "type": "event"
    },
    {
      "anonymous": false,
      "inputs": [
        {
          "indexed": true,
          "internalType": "address",
          "name": "previousOwner",
          "type": "address"
        },
        {
          "indexed": true,
          "internalType": "address",
          "name": "newOwner",
          "type": "address"
        }
      ],
      "name": "OwnershipTransferred",
      "type": "event"
    },
    {
      "anonymous": false,
      "inputs": [
        {
          "indexed": true,
          "internalType": "address",
          "name": "_from",
          "type": "address"
        },
        {
          "indexed": true,
          "internalType": "address",
          "name": "_to",
          "type": "address"
        },
        {
          "indexed": true,
          "internalType": "uint256",
          "name": "_tokenId",
          "type": "uint256"
        }
      ],
      "name": "Transfer",
      "type": "event"
    },
    {
      "inputs": [
        {
          "internalType": "address",
          "name": "_approved",
          "type": "address"
        },
        {
          "internalType": "uint256",
          "name": "_tokenId",
          "type": "uint256"
        }
      ],
      "name": "approve",
      "outputs": [],
      "stateMutability": "payable",
      "type": "function"
    },
    {
      "inputs": [
        {
          "internalType": "address",
          "name": "_owner",
          "type": "address"
        }
      ],
      "name": "balanceOf",
      "outputs": [
        {
          "internalType": "uint256",
          "name": "",
          "type": "uint256"
        }
      ],
      "stateMutability": "view",
      "type": "function"
    },
    {
      "inputs": [
        {
          "internalType": "uint256",
          "name": "",
          "type": "uint256"
        }
      ],
      "name": "carToOwner",
      "outputs": [
        {
          "internalType": "address",
          "name": "",
          "type": "address"
        }
      ],
      "stateMutability": "view",
      "type": "function"
    },
    {
      "inputs": [
        {
          "internalType": "uint256",
          "name": "",
          "type": "uint256"
        }
      ],
      "name": "cars",
      "outputs": [
        {
          "internalType": "uint256",
          "name": "chassisNumber",
          "type": "uint256"
        },
        {
          "internalType": "uint32",
          "name": "mileage",
          "type": "uint32"
        },
        {
          "internalType": "uint32",
          "name": "price",
          "type": "uint32"
        },
        {
          "internalType": "string",
          "name": "licensePlate",
          "type": "string"
        },
        {
          "internalType": "string",
          "name": "brand",
          "type": "string"
        },
        {
          "internalType": "string",
          "name": "carType",
          "type": "string"
        },
        {
          "internalType": "string",
          "name": "colour",
          "type": "string"
        },
        {
          "internalType": "bool",
          "name": "isForSale",
          "type": "bool"
        }
      ],
      "stateMutability": "view",
      "type": "function"
    },
    {
      "inputs": [
        {
          "internalType": "uint256",
          "name": "_chassisNumber",
          "type": "uint256"
        },
        {
          "internalType": "uint32",
          "name": "_mileage",
          "type": "uint32"
        },
        {
          "internalType": "uint32",
          "name": "_price",
          "type": "uint32"
        },
        {
          "internalType": "string",
          "name": "_licensePlate",
          "type": "string"
        },
        {
          "internalType": "string",
          "name": "_brand",
          "type": "string"
        },
        {
          "internalType": "string",
          "name": "_carType",
          "type": "string"
        },
        {
          "internalType": "string",
          "name": "_colour",
          "type": "string"
        },
        {
          "internalType": "string[]",
          "name": "_pictures",
          "type": "string[]"
        },
        {
          "internalType": "bool",
          "name": "_isForSale",
          "type": "bool"
        }
      ],
      "name": "createCar",
      "outputs": [],
      "stateMutability": "nonpayable",
      "type": "function"
    },
    {
      "inputs": [
        {
          "internalType": "address",
          "name": "_owner",
          "type": "address"
        }
      ],
      "name": "getAllCarsForOwner",
      "outputs": [
        {
          "components": [
            {
              "internalType": "uint256",
              "name": "chassisNumber",
              "type": "uint256"
            },
            {
              "internalType": "uint32",
              "name": "mileage",
              "type": "uint32"
            },
            {
              "internalType": "uint32",
              "name": "price",
              "type": "uint32"
            },
            {
              "internalType": "string",
              "name": "licensePlate",
              "type": "string"
            },
            {
              "internalType": "string",
              "name": "brand",
              "type": "string"
            },
            {
              "internalType": "string",
              "name": "carType",
              "type": "string"
            },
            {
              "internalType": "string",
              "name": "colour",
              "type": "string"
            },
            {
              "internalType": "string[]",
              "name": "pictures",
              "type": "string[]"
            },
            {
              "internalType": "bool",
              "name": "isForSale",
              "type": "bool"
            }
          ],
          "internalType": "struct CarDetails.Car[]",
          "name": "",
          "type": "tuple[]"
        }
      ],
      "stateMutability": "view",
      "type": "function"
    },
    {
      "inputs": [
        {
          "internalType": "uint256",
          "name": "_carId",
          "type": "uint256"
        }
      ],
      "name": "getCar",
      "outputs": [
        {
          "components": [
            {
              "internalType": "uint256",
              "name": "chassisNumber",
              "type": "uint256"
            },
            {
              "internalType": "uint32",
              "name": "mileage",
              "type": "uint32"
            },
            {
              "internalType": "uint32",
              "name": "price",
              "type": "uint32"
            },
            {
              "internalType": "string",
              "name": "licensePlate",
              "type": "string"
            },
            {
              "internalType": "string",
              "name": "brand",
              "type": "string"
            },
            {
              "internalType": "string",
              "name": "carType",
              "type": "string"
            },
            {
              "internalType": "string",
              "name": "colour",
              "type": "string"
            },
            {
              "internalType": "string[]",
              "name": "pictures",
              "type": "string[]"
            },
            {
              "internalType": "bool",
              "name": "isForSale",
              "type": "bool"
            }
          ],
          "internalType": "struct CarDetails.Car",
          "name": "",
          "type": "tuple"
        }
      ],
      "stateMutability": "view",
      "type": "function"
    },
    {
      "inputs": [],
      "name": "isOwner",
      "outputs": [
        {
          "internalType": "bool",
          "name": "",
          "type": "bool"
        }
      ],
      "stateMutability": "view",
      "type": "function"
    },
    {
      "inputs": [],
      "name": "owner",
      "outputs": [
        {
          "internalType": "address",
          "name": "",
          "type": "address"
        }
      ],
      "stateMutability": "view",
      "type": "function"
    },
    {
      "inputs": [
        {
          "internalType": "uint256",
          "name": "_tokenId",
          "type": "uint256"
        }
      ],
      "name": "ownerOf",
      "outputs": [
        {
          "internalType": "address",
          "name": "",
          "type": "address"
        }
      ],
      "stateMutability": "view",
      "type": "function"
    },
    {
      "inputs": [],
      "name": "renounceOwnership",
      "outputs": [],
      "stateMutability": "nonpayable",
      "type": "function"
    },
    {
      "inputs": [
        {
          "internalType": "uint256",
          "name": "_carId",
          "type": "uint256"
        }
      ],
      "name": "toggleSaleState",
      "outputs": [],
      "stateMutability": "nonpayable",
      "type": "function"
    },
    {
      "inputs": [
        {
          "internalType": "address",
          "name": "_from",
          "type": "address"
        },
        {
          "internalType": "address",
          "name": "_to",
          "type": "address"
        },
        {
          "internalType": "uint256",
          "name": "_tokenId",
          "type": "uint256"
        }
      ],
      "name": "transferFrom",
      "outputs": [],
      "stateMutability": "payable",
      "type": "function"
    },
    {
      "inputs": [
        {
          "internalType": "address",
          "name": "newOwner",
          "type": "address"
        }
      ],
      "name": "transferOwnership",
      "outputs": [],
      "stateMutability": "nonpayable",
      "type": "function"
    },
    {
      "inputs": [
        {
          "internalType": "uint256",
          "name": "_carId",
          "type": "uint256"
        },
        {
          "internalType": "uint32",
          "name": "_newMileage",
          "type": "uint32"
        }
      ],
      "name": "updateMileage",
      "outputs": [],
      "stateMutability": "nonpayable",
      "type": "function"
    },
    {
      "inputs": [
        {
          "internalType": "uint256",
          "name": "_carId",
          "type": "uint256"
        },
        {
          "internalType": "uint32",
          "name": "_newPrice",
          "type": "uint32"
        }
      ],
      "name": "updatePrice",
      "outputs": [],
      "stateMutability": "nonpayable",
      "type": "function"
    }
  ],
  "bytecode": "0x608060405234801561001057600080fd5b50336000806101000a81548173ffffffffffffffffffffffffffffffffffffffff021916908373ffffffffffffffffffffffffffffffffffffffff16021790555060008054906101000a900473ffffffffffffffffffffffffffffffffffffffff1673ffffffffffffffffffffffffffffffffffffffff16600073ffffffffffffffffffffffffffffffffffffffff167f8be0079c531659141344cd1fd0a4f28419497f9722a3daafe3b4186f6b6457e060405160405180910390a3612f41806100db6000396000f3fe6080604052600436106100f35760003560e01c8063715018a61161008a5780638f32d59b116100595780638f32d59b1461031e578063f2fde38b14610349578063f7746e3614610372578063f95fe25b146103b6576100f3565b8063715018a61461028a57806374f84af7146102a15780637edffa53146102ca5780638da5cb5b146102f3576100f3565b80635e8be190116100c65780635e8be190146101aa578063628dd13e146101e75780636352211e1461021057806370a082311461024d576100f3565b8063095ea7b3146100f85780632286c0c11461011457806323b872dd1461015157806333ca504b1461016d575b600080fd5b610112600480360381019061010d9190611e2a565b6103df565b005b34801561012057600080fd5b5061013b60048036038101906101369190611e6a565b610533565b60405161014891906121d5565b60405180910390f35b61016b600480360381019061016691906121f7565b610a4e565b005b34801561017957600080fd5b50610194600480360381019061018f919061224a565b610c26565b6040516101a19190612286565b60405180910390f35b3480156101b657600080fd5b506101d160048036038101906101cc919061224a565b610c59565b6040516101de9190612382565b60405180910390f35b3480156101f357600080fd5b5061020e6004803603810190610209919061224a565b611028565b005b34801561021c57600080fd5b506102376004803603810190610232919061224a565b6110ac565b6040516102449190612286565b60405180910390f35b34801561025957600080fd5b50610274600480360381019061026f9190611e6a565b6110e9565b60405161028191906123b3565b60405180910390f35b34801561029657600080fd5b5061029f611132565b005b3480156102ad57600080fd5b506102c860048036038101906102c39190612641565b611201565b005b3480156102d657600080fd5b506102f160048036038101906102ec9190612797565b6114b0565b005b3480156102ff57600080fd5b5061030861158c565b6040516103159190612286565b60405180910390f35b34801561032a57600080fd5b506103336115b5565b60405161034091906127e6565b60405180910390f35b34801561035557600080fd5b50610370600480360381019061036b9190611e6a565b61160c565b005b34801561037e57600080fd5b506103996004803603810190610394919061224a565b611629565b6040516103ad98979695949392919061285a565b60405180910390f35b3480156103c257600080fd5b506103dd60048036038101906103d89190612797565b6118ce565b005b806002600082815260200190815260200160002060009054906101000a900473ffffffffffffffffffffffffffffffffffffffff1673ffffffffffffffffffffffffffffffffffffffff163373ffffffffffffffffffffffffffffffffffffffff1614610481576040517f08c379a000000000000000000000000000000000000000000000000000000000815260040161047890612940565b60405180910390fd5b826004600084815260200190815260200160002060006101000a81548173ffffffffffffffffffffffffffffffffffffffff021916908373ffffffffffffffffffffffffffffffffffffffff160217905550818373ffffffffffffffffffffffffffffffffffffffff163373ffffffffffffffffffffffffffffffffffffffff167f8c5be1e5ebec7d5bd14f71427d1e84f3dd0314c0f7b2291e5b200ac8c7c3b92560405160405180910390a4505050565b60606000600360008473ffffffffffffffffffffffffffffffffffffffff1673ffffffffffffffffffffffffffffffffffffffff1681526020019081526020016000205467ffffffffffffffff8111156105905761058f612404565b5b6040519080825280602002602001820160405280156105c957816020015b6105b6611c4e565b8152602001906001900390816105ae5790505b5090506000805b600180549050811015610a43578473ffffffffffffffffffffffffffffffffffffffff166002600083815260200190815260200160002060009054906101000a900473ffffffffffffffffffffffffffffffffffffffff1673ffffffffffffffffffffffffffffffffffffffff1603610a30576001818154811061065757610656612960565b5b906000526020600020906008020160405180610120016040529081600082015481526020016001820160009054906101000a900463ffffffff1663ffffffff1663ffffffff1681526020016001820160049054906101000a900463ffffffff1663ffffffff1663ffffffff1681526020016002820180546106d7906129be565b80601f0160208091040260200160405190810160405280929190818152602001828054610703906129be565b80156107505780601f1061072557610100808354040283529160200191610750565b820191906000526020600020905b81548152906001019060200180831161073357829003601f168201915b50505050508152602001600382018054610769906129be565b80601f0160208091040260200160405190810160405280929190818152602001828054610795906129be565b80156107e25780601f106107b7576101008083540402835291602001916107e2565b820191906000526020600020905b8154815290600101906020018083116107c557829003601f168201915b505050505081526020016004820180546107fb906129be565b80601f0160208091040260200160405190810160405280929190818152602001828054610827906129be565b80156108745780601f1061084957610100808354040283529160200191610874565b820191906000526020600020905b81548152906001019060200180831161085757829003601f168201915b5050505050815260200160058201805461088d906129be565b80601f01602080910402602001604051908101604052809291908181526020018280546108b9906129be565b80156109065780601f106108db57610100808354040283529160200191610906565b820191906000526020600020905b8154815290600101906020018083116108e957829003601f168201915b5050505050815260200160068201805480602002602001604051908101604052809291908181526020016000905b828210156109e0578382906000526020600020018054610953906129be565b80601f016020809104026020016040519081016040528092919081815260200182805461097f906129be565b80156109cc5780601f106109a1576101008083540402835291602001916109cc565b820191906000526020600020905b8154815290600101906020018083116109af57829003601f168201915b505050505081526020019060010190610934565b5050505081526020016007820160009054906101000a900460ff161515151581525050838381518110610a1657610a15612960565b5b60200260200101819052508180610a2c90612a1e565b9250505b8080610a3b90612a1e565b9150506105d0565b508192505050919050565b60018181548110610a6257610a61612960565b5b906000526020600020906008020160070160009054906101000a900460ff16610ac0576040517f08c379a0000000000000000000000000000000000000000000000000000000008152600401610ab790612ab2565b60405180910390fd5b3373ffffffffffffffffffffffffffffffffffffffff166002600083815260200190815260200160002060009054906101000a900473ffffffffffffffffffffffffffffffffffffffff1673ffffffffffffffffffffffffffffffffffffffff1603610b61576040517f08c379a0000000000000000000000000000000000000000000000000000000008152600401610b5890612b44565b60405180910390fd5b6002600082815260200190815260200160002060009054906101000a900473ffffffffffffffffffffffffffffffffffffffff1673ffffffffffffffffffffffffffffffffffffffff166108fc60018381548110610bc257610bc1612960565b5b906000526020600020906008020160010160049054906101000a900463ffffffff1663ffffffff169081150290604051600060405180830381858888f19350505050158015610c15573d6000803e3d6000fd5b50610c21838383611927565b505050565b60026020528060005260406000206000915054906101000a900473ffffffffffffffffffffffffffffffffffffffff1681565b610c61611c4e565b60018281548110610c7557610c74612960565b5b906000526020600020906008020160405180610120016040529081600082015481526020016001820160009054906101000a900463ffffffff1663ffffffff1663ffffffff1681526020016001820160049054906101000a900463ffffffff1663ffffffff1663ffffffff168152602001600282018054610cf5906129be565b80601f0160208091040260200160405190810160405280929190818152602001828054610d21906129be565b8015610d6e5780601f10610d4357610100808354040283529160200191610d6e565b820191906000526020600020905b815481529060010190602001808311610d5157829003601f168201915b50505050508152602001600382018054610d87906129be565b80601f0160208091040260200160405190810160405280929190818152602001828054610db3906129be565b8015610e005780601f10610dd557610100808354040283529160200191610e00565b820191906000526020600020905b815481529060010190602001808311610de357829003601f168201915b50505050508152602001600482018054610e19906129be565b80601f0160208091040260200160405190810160405280929190818152602001828054610e45906129be565b8015610e925780601f10610e6757610100808354040283529160200191610e92565b820191906000526020600020905b815481529060010190602001808311610e7557829003601f168201915b50505050508152602001600582018054610eab906129be565b80601f0160208091040260200160405190810160405280929190818152602001828054610ed7906129be565b8015610f245780601f10610ef957610100808354040283529160200191610f24565b820191906000526020600020905b815481529060010190602001808311610f0757829003601f168201915b5050505050815260200160068201805480602002602001604051908101604052809291908181526020016000905b82821015610ffe578382906000526020600020018054610f71906129be565b80601f0160208091040260200160405190810160405280929190818152602001828054610f9d906129be565b8015610fea5780601f10610fbf57610100808354040283529160200191610fea565b820191906000526020600020905b815481529060010190602001808311610fcd57829003601f168201915b505050505081526020019060010190610f52565b5050505081526020016007820160009054906101000a900460ff1615151515815250509050919050565b6110306115b5565b61103957600080fd5b6001818154811061104d5761104c612960565b5b906000526020600020906008020160070160009054906101000a900460ff16156001828154811061108157611080612960565b5b906000526020600020906008020160070160006101000a81548160ff02191690831515021790555050565b60006002600083815260200190815260200160002060009054906101000a900473ffffffffffffffffffffffffffffffffffffffff169050919050565b6000600360008373ffffffffffffffffffffffffffffffffffffffff1673ffffffffffffffffffffffffffffffffffffffff168152602001908152602001600020549050919050565b61113a6115b5565b61114357600080fd5b600073ffffffffffffffffffffffffffffffffffffffff1660008054906101000a900473ffffffffffffffffffffffffffffffffffffffff1673ffffffffffffffffffffffffffffffffffffffff167f8be0079c531659141344cd1fd0a4f28419497f9722a3daafe3b4186f6b6457e060405160405180910390a360008060006101000a81548173ffffffffffffffffffffffffffffffffffffffff021916908373ffffffffffffffffffffffffffffffffffffffff160217905550565b60006040518061012001604052808b81526020018a63ffffffff1681526020018963ffffffff168152602001888152602001878152602001868152602001858152602001848152602001831515815250905060018190806001815401808255809150506001900390600052602060002090600802016000909190919091506000820151816000015560208201518160010160006101000a81548163ffffffff021916908363ffffffff16021790555060408201518160010160046101000a81548163ffffffff021916908363ffffffff16021790555060608201518160020190816112ec9190612d10565b5060808201518160030190816113029190612d10565b5060a08201518160040190816113189190612d10565b5060c082015181600501908161132e9190612d10565b5060e082015181600601908051906020019061134b929190611ca8565b506101008201518160070160006101000a81548160ff02191690831515021790555050506000600180805490506113829190612de2565b9050336002600083815260200190815260200160002060006101000a81548173ffffffffffffffffffffffffffffffffffffffff021916908373ffffffffffffffffffffffffffffffffffffffff1602179055506114296001600360003373ffffffffffffffffffffffffffffffffffffffff1673ffffffffffffffffffffffffffffffffffffffff16815260200190815260200160002054611b0590919063ffffffff16565b600360003373ffffffffffffffffffffffffffffffffffffffff1673ffffffffffffffffffffffffffffffffffffffff168152602001908152602001600020819055507fdc83e501905cdc81b60bf2202ce003605089e4d952e4c6bca0831ca72f1776da8260405161149b9190612382565b60405180910390a15050505050505050505050565b6114b86115b5565b6114c157600080fd5b600182815481106114d5576114d4612960565b5b906000526020600020906008020160010160009054906101000a900463ffffffff1663ffffffff168163ffffffff1611611544576040517f08c379a000000000000000000000000000000000000000000000000000000000815260040161153b90612e88565b60405180910390fd5b806001838154811061155957611558612960565b5b906000526020600020906008020160010160006101000a81548163ffffffff021916908363ffffffff1602179055505050565b60008060009054906101000a900473ffffffffffffffffffffffffffffffffffffffff16905090565b60008060009054906101000a900473ffffffffffffffffffffffffffffffffffffffff1673ffffffffffffffffffffffffffffffffffffffff163373ffffffffffffffffffffffffffffffffffffffff1614905090565b6116146115b5565b61161d57600080fd5b61162681611b31565b50565b6001818154811061163957600080fd5b90600052602060002090600802016000915090508060000154908060010160009054906101000a900463ffffffff16908060010160049054906101000a900463ffffffff169080600201805461168e906129be565b80601f01602080910402602001604051908101604052809291908181526020018280546116ba906129be565b80156117075780601f106116dc57610100808354040283529160200191611707565b820191906000526020600020905b8154815290600101906020018083116116ea57829003601f168201915b50505050509080600301805461171c906129be565b80601f0160208091040260200160405190810160405280929190818152602001828054611748906129be565b80156117955780601f1061176a57610100808354040283529160200191611795565b820191906000526020600020905b81548152906001019060200180831161177857829003601f168201915b5050505050908060040180546117aa906129be565b80601f01602080910402602001604051908101604052809291908181526020018280546117d6906129be565b80156118235780601f106117f857610100808354040283529160200191611823565b820191906000526020600020905b81548152906001019060200180831161180657829003601f168201915b505050505090806005018054611838906129be565b80601f0160208091040260200160405190810160405280929190818152602001828054611864906129be565b80156118b15780601f10611886576101008083540402835291602001916118b1565b820191906000526020600020905b81548152906001019060200180831161189457829003601f168201915b5050505050908060070160009054906101000a900460ff16905088565b6118d66115b5565b6118df57600080fd5b80600183815481106118f4576118f3612960565b5b906000526020600020906008020160010160046101000a81548163ffffffff021916908363ffffffff1602179055505050565b61197a6001600360008573ffffffffffffffffffffffffffffffffffffffff1673ffffffffffffffffffffffffffffffffffffffff16815260200190815260200160002054611b0590919063ffffffff16565b600360008473ffffffffffffffffffffffffffffffffffffffff1673ffffffffffffffffffffffffffffffffffffffff16815260200190815260200160002081905550611a106001600360003373ffffffffffffffffffffffffffffffffffffffff1673ffffffffffffffffffffffffffffffffffffffff16815260200190815260200160002054611c2790919063ffffffff16565b600360003373ffffffffffffffffffffffffffffffffffffffff1673ffffffffffffffffffffffffffffffffffffffff16815260200190815260200160002081905550816002600083815260200190815260200160002060006101000a81548173ffffffffffffffffffffffffffffffffffffffff021916908373ffffffffffffffffffffffffffffffffffffffff160217905550808273ffffffffffffffffffffffffffffffffffffffff168473ffffffffffffffffffffffffffffffffffffffff167fddf252ad1be2c89b69c2b068fc378daa952ba7f163c4a11628f55a4df523b3ef60405160405180910390a4505050565b6000808284611b149190612ea8565b905083811015611b2757611b26612edc565b5b8091505092915050565b600073ffffffffffffffffffffffffffffffffffffffff168173ffffffffffffffffffffffffffffffffffffffff1603611b6a57600080fd5b8073ffffffffffffffffffffffffffffffffffffffff1660008054906101000a900473ffffffffffffffffffffffffffffffffffffffff1673ffffffffffffffffffffffffffffffffffffffff167f8be0079c531659141344cd1fd0a4f28419497f9722a3daafe3b4186f6b6457e060405160405180910390a3806000806101000a81548173ffffffffffffffffffffffffffffffffffffffff021916908373ffffffffffffffffffffffffffffffffffffffff16021790555050565b600082821115611c3a57611c39612edc565b5b8183611c469190612de2565b905092915050565b60405180610120016040528060008152602001600063ffffffff168152602001600063ffffffff16815260200160608152602001606081526020016060815260200160608152602001606081526020016000151581525090565b828054828255906000526020600020908101928215611cf0579160200282015b82811115611cef578251829081611cdf9190612d10565b5091602001919060010190611cc8565b5b509050611cfd9190611d01565b5090565b5b80821115611d215760008181611d189190611d25565b50600101611d02565b5090565b508054611d31906129be565b6000825580601f10611d435750611d62565b601f016020900490600052602060002090810190611d619190611d65565b5b50565b5b80821115611d7e576000816000905550600101611d66565b5090565b6000604051905090565b600080fd5b600080fd5b600073ffffffffffffffffffffffffffffffffffffffff82169050919050565b6000611dc182611d96565b9050919050565b611dd181611db6565b8114611ddc57600080fd5b50565b600081359050611dee81611dc8565b92915050565b6000819050919050565b611e0781611df4565b8114611e1257600080fd5b50565b600081359050611e2481611dfe565b92915050565b60008060408385031215611e4157611e40611d8c565b5b6000611e4f85828601611ddf565b9250506020611e6085828601611e15565b9150509250929050565b600060208284031215611e8057611e7f611d8c565b5b6000611e8e84828501611ddf565b91505092915050565b600081519050919050565b600082825260208201905092915050565b6000819050602082019050919050565b611ecc81611df4565b82525050565b600063ffffffff82169050919050565b611eeb81611ed2565b82525050565b600081519050919050565b600082825260208201905092915050565b60005b83811015611f2b578082015181840152602081019050611f10565b60008484015250505050565b6000601f19601f8301169050919050565b6000611f5382611ef1565b611f5d8185611efc565b9350611f6d818560208601611f0d565b611f7681611f37565b840191505092915050565b600081519050919050565b600082825260208201905092915050565b6000819050602082019050919050565b6000611fb98383611f48565b905092915050565b6000602082019050919050565b6000611fd982611f81565b611fe38185611f8c565b935083602082028501611ff585611f9d565b8060005b8581101561203157848403895281516120128582611fad565b945061201d83611fc1565b925060208a01995050600181019050611ff9565b50829750879550505050505092915050565b60008115159050919050565b61205881612043565b82525050565b6000610120830160008301516120776000860182611ec3565b50602083015161208a6020860182611ee2565b50604083015161209d6040860182611ee2565b50606083015184820360608601526120b58282611f48565b915050608083015184820360808601526120cf8282611f48565b91505060a083015184820360a08601526120e98282611f48565b91505060c083015184820360c08601526121038282611f48565b91505060e083015184820360e086015261211d8282611fce565b91505061010083015161213461010086018261204f565b508091505092915050565b600061214b838361205e565b905092915050565b6000602082019050919050565b600061216b82611e97565b6121758185611ea2565b93508360208202850161218785611eb3565b8060005b858110156121c357848403895281516121a4858261213f565b94506121af83612153565b925060208a0199505060018101905061218b565b50829750879550505050505092915050565b600060208201905081810360008301526121ef8184612160565b905092915050565b6000806000606084860312156122105761220f611d8c565b5b600061221e86828701611ddf565b935050602061222f86828701611ddf565b925050604061224086828701611e15565b9150509250925092565b6000602082840312156122605761225f611d8c565b5b600061226e84828501611e15565b91505092915050565b61228081611db6565b82525050565b600060208201905061229b6000830184612277565b92915050565b6000610120830160008301516122ba6000860182611ec3565b5060208301516122cd6020860182611ee2565b5060408301516122e06040860182611ee2565b50606083015184820360608601526122f88282611f48565b915050608083015184820360808601526123128282611f48565b91505060a083015184820360a086015261232c8282611f48565b91505060c083015184820360c08601526123468282611f48565b91505060e083015184820360e08601526123608282611fce565b91505061010083015161237761010086018261204f565b508091505092915050565b6000602082019050818103600083015261239c81846122a1565b905092915050565b6123ad81611df4565b82525050565b60006020820190506123c860008301846123a4565b92915050565b6123d781611ed2565b81146123e257600080fd5b50565b6000813590506123f4816123ce565b92915050565b600080fd5b600080fd5b7f4e487b7100000000000000000000000000000000000000000000000000000000600052604160045260246000fd5b61243c82611f37565b810181811067ffffffffffffffff8211171561245b5761245a612404565b5b80604052505050565b600061246e611d82565b905061247a8282612433565b919050565b600067ffffffffffffffff82111561249a57612499612404565b5b6124a382611f37565b9050602081019050919050565b82818337600083830152505050565b60006124d26124cd8461247f565b612464565b9050828152602081018484840111156124ee576124ed6123ff565b5b6124f98482856124b0565b509392505050565b600082601f830112612516576125156123fa565b5b81356125268482602086016124bf565b91505092915050565b600067ffffffffffffffff82111561254a57612549612404565b5b602082029050602081019050919050565b600080fd5b600061257361256e8461252f565b612464565b905080838252602082019050602084028301858111156125965761259561255b565b5b835b818110156125dd57803567ffffffffffffffff8111156125bb576125ba6123fa565b5b8086016125c88982612501565b85526020850194505050602081019050612598565b5050509392505050565b600082601f8301126125fc576125fb6123fa565b5b813561260c848260208601612560565b91505092915050565b61261e81612043565b811461262957600080fd5b50565b60008135905061263b81612615565b92915050565b60008060008060008060008060006101208a8c03121561266457612663611d8c565b5b60006126728c828d01611e15565b99505060206126838c828d016123e5565b98505060406126948c828d016123e5565b97505060608a013567ffffffffffffffff8111156126b5576126b4611d91565b5b6126c18c828d01612501565b96505060808a013567ffffffffffffffff8111156126e2576126e1611d91565b5b6126ee8c828d01612501565b95505060a08a013567ffffffffffffffff81111561270f5761270e611d91565b5b61271b8c828d01612501565b94505060c08a013567ffffffffffffffff81111561273c5761273b611d91565b5b6127488c828d01612501565b93505060e08a013567ffffffffffffffff81111561276957612768611d91565b5b6127758c828d016125e7565b9250506101006127878c828d0161262c565b9150509295985092959850929598565b600080604083850312156127ae576127ad611d8c565b5b60006127bc85828601611e15565b92505060206127cd858286016123e5565b9150509250929050565b6127e081612043565b82525050565b60006020820190506127fb60008301846127d7565b92915050565b61280a81611ed2565b82525050565b600082825260208201905092915050565b600061282c82611ef1565b6128368185612810565b9350612846818560208601611f0d565b61284f81611f37565b840191505092915050565b600061010082019050612870600083018b6123a4565b61287d602083018a612801565b61288a6040830189612801565b818103606083015261289c8188612821565b905081810360808301526128b08187612821565b905081810360a08301526128c48186612821565b905081810360c08301526128d88185612821565b90506128e760e08301846127d7565b9998505050505050505050565b7f546861742773206e6f7420796f20636172000000000000000000000000000000600082015250565b600061292a601183612810565b9150612935826128f4565b602082019050919050565b600060208201905081810360008301526129598161291d565b9050919050565b7f4e487b7100000000000000000000000000000000000000000000000000000000600052603260045260246000fd5b7f4e487b7100000000000000000000000000000000000000000000000000000000600052602260045260246000fd5b600060028204905060018216806129d657607f821691505b6020821081036129e9576129e861298f565b5b50919050565b7f4e487b7100000000000000000000000000000000000000000000000000000000600052601160045260246000fd5b6000612a2982611df4565b91507fffffffffffffffffffffffffffffffffffffffffffffffffffffffffffffffff8203612a5b57612a5a6129ef565b5b600182019050919050565b7f5468697320636172206973206e6f7420666f722073616c650000000000000000600082015250565b6000612a9c601883612810565b9150612aa782612a66565b602082019050919050565b60006020820190508181036000830152612acb81612a8f565b9050919050565b7f596f7520616c7265616479206f776e20746869732063617220736f20796f752060008201527f63616e206e6f7420627579206974000000000000000000000000000000000000602082015250565b6000612b2e602e83612810565b9150612b3982612ad2565b604082019050919050565b60006020820190508181036000830152612b5d81612b21565b9050919050565b60008190508160005260206000209050919050565b60006020601f8301049050919050565b600082821b905092915050565b600060088302612bc67fffffffffffffffffffffffffffffffffffffffffffffffffffffffffffffffff82612b89565b612bd08683612b89565b95508019841693508086168417925050509392505050565b6000819050919050565b6000612c0d612c08612c0384611df4565b612be8565b611df4565b9050919050565b6000819050919050565b612c2783612bf2565b612c3b612c3382612c14565b848454612b96565b825550505050565b600090565b612c50612c43565b612c5b818484612c1e565b505050565b5b81811015612c7f57612c74600082612c48565b600181019050612c61565b5050565b601f821115612cc457612c9581612b64565b612c9e84612b79565b81016020851015612cad578190505b612cc1612cb985612b79565b830182612c60565b50505b505050565b600082821c905092915050565b6000612ce760001984600802612cc9565b1980831691505092915050565b6000612d008383612cd6565b9150826002028217905092915050565b612d1982611ef1565b67ffffffffffffffff811115612d3257612d31612404565b5b612d3c82546129be565b612d47828285612c83565b600060209050601f831160018114612d7a5760008415612d68578287015190505b612d728582612cf4565b865550612dda565b601f198416612d8886612b64565b60005b82811015612db057848901518255600182019150602085019450602081019050612d8b565b86831015612dcd5784890151612dc9601f891682612cd6565b8355505b6001600288020188555050505b505050505050565b6000612ded82611df4565b9150612df883611df4565b9250828203905081811115612e1057612e0f6129ef565b5b92915050565b7f546865206e6577206d696c616765206d75737420626520686967686572204f5560008201527f4c45480000000000000000000000000000000000000000000000000000000000602082015250565b6000612e72602383612810565b9150612e7d82612e16565b604082019050919050565b60006020820190508181036000830152612ea181612e65565b9050919050565b6000612eb382611df4565b9150612ebe83611df4565b9250828201905080821115612ed657612ed56129ef565b5b92915050565b7f4e487b7100000000000000000000000000000000000000000000000000000000600052600160045260246000fdfea2646970667358221220309a32f3d9105d743ed0232c222b6b15c5fa51a73f9cff72a20c260ec4537a8464736f6c63430008110033",
  "linkReferences": {},
  "deployedLinkReferences": {}
}