{
  "_format": "hh-sol-artifact-1",
  "contractName": "CarOwnership",
  "sourceName": "contracts/carownership.sol",
  "abi": [
    {
      "anonymous": false,
      "inputs": [
        {
          "indexed": true,
          "internalType": "address",
          "name": "_owner",
          "type": "address"
        },
        {
          "indexed": true,
          "internalType": "address",
          "name": "_approved",
          "type": "address"
        },
        {
          "indexed": true,
          "internalType": "uint256",
          "name": "_tokenId",
          "type": "uint256"
        }
      ],
      "name": "Approval",
      "type": "event"
    },
    {
      "anonymous": false,
      "inputs": [
        {
          "components": [
            {
              "internalType": "uint256",
              "name": "chassisNumber",
              "type": "uint256"
            },
            {
              "internalType": "uint32",
              "name": "mileage",
              "type": "uint32"
            },
            {
              "internalType": "uint32",
              "name": "price",
              "type": "uint32"
            },
            {
              "internalType": "string",
              "name": "licensePlate",
              "type": "string"
            },
            {
              "internalType": "string",
              "name": "brand",
              "type": "string"
            },
            {
              "internalType": "string",
              "name": "carType",
              "type": "string"
            },
            {
              "internalType": "string",
              "name": "colour",
              "type": "string"
            },
            {
              "internalType": "string[]",
              "name": "pictures",
              "type": "string[]"
            },
            {
              "internalType": "bool",
              "name": "isForSale",
              "type": "bool"
            }
          ],
          "indexed": false,
          "internalType": "struct CarDetails.Car",
          "name": "car",
          "type": "tuple"
        }
      ],
      "name": "NewCar",
      "type": "event"
    },
    {
      "anonymous": false,
      "inputs": [
        {
          "indexed": true,
          "internalType": "address",
          "name": "previousOwner",
          "type": "address"
        },
        {
          "indexed": true,
          "internalType": "address",
          "name": "newOwner",
          "type": "address"
        }
      ],
      "name": "OwnershipTransferred",
      "type": "event"
    },
    {
      "anonymous": false,
      "inputs": [
        {
          "indexed": true,
          "internalType": "address",
          "name": "_from",
          "type": "address"
        },
        {
          "indexed": true,
          "internalType": "address",
          "name": "_to",
          "type": "address"
        },
        {
          "indexed": true,
          "internalType": "uint256",
          "name": "_tokenId",
          "type": "uint256"
        }
      ],
      "name": "Transfer",
      "type": "event"
    },
    {
      "inputs": [
        {
          "internalType": "address",
          "name": "_approved",
          "type": "address"
        },
        {
          "internalType": "uint256",
          "name": "_tokenId",
          "type": "uint256"
        }
      ],
      "name": "approve",
      "outputs": [],
      "stateMutability": "payable",
      "type": "function"
    },
    {
      "inputs": [
        {
          "internalType": "address",
          "name": "_owner",
          "type": "address"
        }
      ],
      "name": "balanceOf",
      "outputs": [
        {
          "internalType": "uint256",
          "name": "",
          "type": "uint256"
        }
      ],
      "stateMutability": "view",
      "type": "function"
    },
    {
      "inputs": [
        {
          "internalType": "uint256",
          "name": "",
          "type": "uint256"
        }
      ],
      "name": "carToOwner",
      "outputs": [
        {
          "internalType": "address",
          "name": "",
          "type": "address"
        }
      ],
      "stateMutability": "view",
      "type": "function"
    },
    {
      "inputs": [
        {
          "internalType": "uint256",
          "name": "",
          "type": "uint256"
        }
      ],
      "name": "cars",
      "outputs": [
        {
          "internalType": "uint256",
          "name": "chassisNumber",
          "type": "uint256"
        },
        {
          "internalType": "uint32",
          "name": "mileage",
          "type": "uint32"
        },
        {
          "internalType": "uint32",
          "name": "price",
          "type": "uint32"
        },
        {
          "internalType": "string",
          "name": "licensePlate",
          "type": "string"
        },
        {
          "internalType": "string",
          "name": "brand",
          "type": "string"
        },
        {
          "internalType": "string",
          "name": "carType",
          "type": "string"
        },
        {
          "internalType": "string",
          "name": "colour",
          "type": "string"
        },
        {
          "internalType": "bool",
          "name": "isForSale",
          "type": "bool"
        }
      ],
      "stateMutability": "view",
      "type": "function"
    },
    {
      "inputs": [
        {
          "internalType": "uint256",
          "name": "_chassisNumber",
          "type": "uint256"
        },
        {
          "internalType": "uint32",
          "name": "_mileage",
          "type": "uint32"
        },
        {
          "internalType": "uint32",
          "name": "_price",
          "type": "uint32"
        },
        {
          "internalType": "string",
          "name": "_licensePlate",
          "type": "string"
        },
        {
          "internalType": "string",
          "name": "_brand",
          "type": "string"
        },
        {
          "internalType": "string",
          "name": "_carType",
          "type": "string"
        },
        {
          "internalType": "string",
          "name": "_colour",
          "type": "string"
        },
        {
          "internalType": "string[]",
          "name": "_pictures",
          "type": "string[]"
        },
        {
          "internalType": "bool",
          "name": "_isForSale",
          "type": "bool"
        }
      ],
      "name": "createCar",
      "outputs": [],
      "stateMutability": "nonpayable",
      "type": "function"
    },
    {
      "inputs": [
        {
          "internalType": "uint256",
          "name": "_carId",
          "type": "uint256"
        }
      ],
      "name": "getCar",
      "outputs": [
        {
          "components": [
            {
              "internalType": "uint256",
              "name": "chassisNumber",
              "type": "uint256"
            },
            {
              "internalType": "uint32",
              "name": "mileage",
              "type": "uint32"
            },
            {
              "internalType": "uint32",
              "name": "price",
              "type": "uint32"
            },
            {
              "internalType": "string",
              "name": "licensePlate",
              "type": "string"
            },
            {
              "internalType": "string",
              "name": "brand",
              "type": "string"
            },
            {
              "internalType": "string",
              "name": "carType",
              "type": "string"
            },
            {
              "internalType": "string",
              "name": "colour",
              "type": "string"
            },
            {
              "internalType": "string[]",
              "name": "pictures",
              "type": "string[]"
            },
            {
              "internalType": "bool",
              "name": "isForSale",
              "type": "bool"
            }
          ],
          "internalType": "struct CarDetails.Car",
          "name": "",
          "type": "tuple"
        }
      ],
      "stateMutability": "view",
      "type": "function"
    },
    {
      "inputs": [],
      "name": "isOwner",
      "outputs": [
        {
          "internalType": "bool",
          "name": "",
          "type": "bool"
        }
      ],
      "stateMutability": "view",
      "type": "function"
    },
    {
      "inputs": [],
      "name": "owner",
      "outputs": [
        {
          "internalType": "address",
          "name": "",
          "type": "address"
        }
      ],
      "stateMutability": "view",
      "type": "function"
    },
    {
      "inputs": [
        {
          "internalType": "uint256",
          "name": "_tokenId",
          "type": "uint256"
        }
      ],
      "name": "ownerOf",
      "outputs": [
        {
          "internalType": "address",
          "name": "",
          "type": "address"
        }
      ],
      "stateMutability": "view",
      "type": "function"
    },
    {
      "inputs": [
        {
          "internalType": "uint256",
          "name": "_carId",
          "type": "uint256"
        }
      ],
      "name": "payCar",
      "outputs": [],
      "stateMutability": "payable",
      "type": "function"
    },
    {
      "inputs": [],
      "name": "renounceOwnership",
      "outputs": [],
      "stateMutability": "nonpayable",
      "type": "function"
    },
    {
      "inputs": [
        {
          "internalType": "uint256",
          "name": "_carId",
          "type": "uint256"
        }
      ],
      "name": "toggleSaleState",
      "outputs": [],
      "stateMutability": "nonpayable",
      "type": "function"
    },
    {
      "inputs": [
        {
          "internalType": "address",
          "name": "_from",
          "type": "address"
        },
        {
          "internalType": "address",
          "name": "_to",
          "type": "address"
        },
        {
          "internalType": "uint256",
          "name": "_tokenId",
          "type": "uint256"
        }
      ],
      "name": "transferFrom",
      "outputs": [],
      "stateMutability": "payable",
      "type": "function"
    },
    {
      "inputs": [
        {
          "internalType": "address",
          "name": "newOwner",
          "type": "address"
        }
      ],
      "name": "transferOwnership",
      "outputs": [],
      "stateMutability": "nonpayable",
      "type": "function"
    },
    {
      "inputs": [
        {
          "internalType": "uint256",
          "name": "_carId",
          "type": "uint256"
        },
        {
          "internalType": "uint32",
          "name": "_newMileage",
          "type": "uint32"
        }
      ],
      "name": "updateMileage",
      "outputs": [],
      "stateMutability": "nonpayable",
      "type": "function"
    },
    {
      "inputs": [
        {
          "internalType": "uint256",
          "name": "_carId",
          "type": "uint256"
        },
        {
          "internalType": "uint32",
          "name": "_newPrice",
          "type": "uint32"
        }
      ],
      "name": "updatePrice",
      "outputs": [],
      "stateMutability": "nonpayable",
      "type": "function"
    }
  ],
  "bytecode": "0x608060405234801561001057600080fd5b50336000806101000a81548173ffffffffffffffffffffffffffffffffffffffff021916908373ffffffffffffffffffffffffffffffffffffffff16021790555060008054906101000a900473ffffffffffffffffffffffffffffffffffffffff1673ffffffffffffffffffffffffffffffffffffffff16600073ffffffffffffffffffffffffffffffffffffffff167f8be0079c531659141344cd1fd0a4f28419497f9722a3daafe3b4186f6b6457e060405160405180910390a3612759806100db6000396000f3fe6080604052600436106100f35760003560e01c806374f84af71161008a5780638fafe87e116100595780638fafe87e1461030c578063f2fde38b14610328578063f7746e3614610351578063f95fe25b14610395576100f3565b806374f84af7146102645780637edffa531461028d5780638da5cb5b146102b65780638f32d59b146102e1576100f3565b8063628dd13e116100c6578063628dd13e146101aa5780636352211e146101d357806370a0823114610210578063715018a61461024d576100f3565b8063095ea7b3146100f857806323b872dd1461011457806333ca504b146101305780635e8be1901461016d575b600080fd5b610112600480360381019061010d91906118bb565b6103be565b005b61012e600480360381019061012991906118fb565b610512565b005b34801561013c57600080fd5b506101576004803603810190610152919061194e565b61062c565b604051610164919061198a565b60405180910390f35b34801561017957600080fd5b50610194600480360381019061018f919061194e565b61065f565b6040516101a19190611c21565b60405180910390f35b3480156101b657600080fd5b506101d160048036038101906101cc919061194e565b610a2e565b005b3480156101df57600080fd5b506101fa60048036038101906101f5919061194e565b610ab2565b604051610207919061198a565b60405180910390f35b34801561021c57600080fd5b5061023760048036038101906102329190611c43565b610aef565b6040516102449190611c7f565b60405180910390f35b34801561025957600080fd5b50610262610b38565b005b34801561027057600080fd5b5061028b60048036038101906102869190611f0d565b610c07565b005b34801561029957600080fd5b506102b460048036038101906102af9190612063565b610eb6565b005b3480156102c257600080fd5b506102cb610f92565b6040516102d8919061198a565b60405180910390f35b3480156102ed57600080fd5b506102f6610fbb565b60405161030391906120b2565b60405180910390f35b6103266004803603810190610321919061194e565b611012565b005b34801561033457600080fd5b5061034f600480360381019061034a9190611c43565b61109d565b005b34801561035d57600080fd5b506103786004803603810190610373919061194e565b6110ba565b60405161038c989796959493929190612126565b60405180910390f35b3480156103a157600080fd5b506103bc60048036038101906103b79190612063565b61135f565b005b806002600082815260200190815260200160002060009054906101000a900473ffffffffffffffffffffffffffffffffffffffff1673ffffffffffffffffffffffffffffffffffffffff163373ffffffffffffffffffffffffffffffffffffffff1614610460576040517f08c379a00000000000000000000000000000000000000000000000000000000081526004016104579061220c565b60405180910390fd5b826004600084815260200190815260200160002060006101000a81548173ffffffffffffffffffffffffffffffffffffffff021916908373ffffffffffffffffffffffffffffffffffffffff160217905550818373ffffffffffffffffffffffffffffffffffffffff163373ffffffffffffffffffffffffffffffffffffffff167f8c5be1e5ebec7d5bd14f71427d1e84f3dd0314c0f7b2291e5b200ac8c7c3b92560405160405180910390a4505050565b3373ffffffffffffffffffffffffffffffffffffffff166002600083815260200190815260200160002060009054906101000a900473ffffffffffffffffffffffffffffffffffffffff1673ffffffffffffffffffffffffffffffffffffffff1614806105dd57503373ffffffffffffffffffffffffffffffffffffffff166004600083815260200190815260200160002060009054906101000a900473ffffffffffffffffffffffffffffffffffffffff1673ffffffffffffffffffffffffffffffffffffffff16145b61061c576040517f08c379a00000000000000000000000000000000000000000000000000000000081526004016106139061229e565b60405180910390fd5b6106278383836113b8565b505050565b60026020528060005260406000206000915054906101000a900473ffffffffffffffffffffffffffffffffffffffff1681565b6106676116df565b6001828154811061067b5761067a6122be565b5b906000526020600020906008020160405180610120016040529081600082015481526020016001820160009054906101000a900463ffffffff1663ffffffff1663ffffffff1681526020016001820160049054906101000a900463ffffffff1663ffffffff1663ffffffff1681526020016002820180546106fb9061231c565b80601f01602080910402602001604051908101604052809291908181526020018280546107279061231c565b80156107745780601f1061074957610100808354040283529160200191610774565b820191906000526020600020905b81548152906001019060200180831161075757829003601f168201915b5050505050815260200160038201805461078d9061231c565b80601f01602080910402602001604051908101604052809291908181526020018280546107b99061231c565b80156108065780601f106107db57610100808354040283529160200191610806565b820191906000526020600020905b8154815290600101906020018083116107e957829003601f168201915b5050505050815260200160048201805461081f9061231c565b80601f016020809104026020016040519081016040528092919081815260200182805461084b9061231c565b80156108985780601f1061086d57610100808354040283529160200191610898565b820191906000526020600020905b81548152906001019060200180831161087b57829003601f168201915b505050505081526020016005820180546108b19061231c565b80601f01602080910402602001604051908101604052809291908181526020018280546108dd9061231c565b801561092a5780601f106108ff5761010080835404028352916020019161092a565b820191906000526020600020905b81548152906001019060200180831161090d57829003601f168201915b5050505050815260200160068201805480602002602001604051908101604052809291908181526020016000905b82821015610a045783829060005260206000200180546109779061231c565b80601f01602080910402602001604051908101604052809291908181526020018280546109a39061231c565b80156109f05780601f106109c5576101008083540402835291602001916109f0565b820191906000526020600020905b8154815290600101906020018083116109d357829003601f168201915b505050505081526020019060010190610958565b5050505081526020016007820160009054906101000a900460ff1615151515815250509050919050565b610a36610fbb565b610a3f57600080fd5b60018181548110610a5357610a526122be565b5b906000526020600020906008020160070160009054906101000a900460ff161560018281548110610a8757610a866122be565b5b906000526020600020906008020160070160006101000a81548160ff02191690831515021790555050565b60006002600083815260200190815260200160002060009054906101000a900473ffffffffffffffffffffffffffffffffffffffff169050919050565b6000600360008373ffffffffffffffffffffffffffffffffffffffff1673ffffffffffffffffffffffffffffffffffffffff168152602001908152602001600020549050919050565b610b40610fbb565b610b4957600080fd5b600073ffffffffffffffffffffffffffffffffffffffff1660008054906101000a900473ffffffffffffffffffffffffffffffffffffffff1673ffffffffffffffffffffffffffffffffffffffff167f8be0079c531659141344cd1fd0a4f28419497f9722a3daafe3b4186f6b6457e060405160405180910390a360008060006101000a81548173ffffffffffffffffffffffffffffffffffffffff021916908373ffffffffffffffffffffffffffffffffffffffff160217905550565b60006040518061012001604052808b81526020018a63ffffffff1681526020018963ffffffff168152602001888152602001878152602001868152602001858152602001848152602001831515815250905060018190806001815401808255809150506001900390600052602060002090600802016000909190919091506000820151816000015560208201518160010160006101000a81548163ffffffff021916908363ffffffff16021790555060408201518160010160046101000a81548163ffffffff021916908363ffffffff1602179055506060820151816002019081610cf291906124f9565b506080820151816003019081610d0891906124f9565b5060a0820151816004019081610d1e91906124f9565b5060c0820151816005019081610d3491906124f9565b5060e0820151816006019080519060200190610d51929190611739565b506101008201518160070160006101000a81548160ff0219169083151502179055505050600060018080549050610d8891906125fa565b9050336002600083815260200190815260200160002060006101000a81548173ffffffffffffffffffffffffffffffffffffffff021916908373ffffffffffffffffffffffffffffffffffffffff160217905550610e2f6001600360003373ffffffffffffffffffffffffffffffffffffffff1673ffffffffffffffffffffffffffffffffffffffff1681526020019081526020016000205461159690919063ffffffff16565b600360003373ffffffffffffffffffffffffffffffffffffffff1673ffffffffffffffffffffffffffffffffffffffff168152602001908152602001600020819055507fdc83e501905cdc81b60bf2202ce003605089e4d952e4c6bca0831ca72f1776da82604051610ea19190611c21565b60405180910390a15050505050505050505050565b610ebe610fbb565b610ec757600080fd5b60018281548110610edb57610eda6122be565b5b906000526020600020906008020160010160009054906101000a900463ffffffff1663ffffffff168163ffffffff1611610f4a576040517f08c379a0000000000000000000000000000000000000000000000000000000008152600401610f41906126a0565b60405180910390fd5b8060018381548110610f5f57610f5e6122be565b5b906000526020600020906008020160010160006101000a81548163ffffffff021916908363ffffffff1602179055505050565b60008060009054906101000a900473ffffffffffffffffffffffffffffffffffffffff16905090565b60008060009054906101000a900473ffffffffffffffffffffffffffffffffffffffff1673ffffffffffffffffffffffffffffffffffffffff163373ffffffffffffffffffffffffffffffffffffffff1614905090565b600060018281548110611028576110276122be565b5b906000526020600020906008020160010160049054906101000a900463ffffffff1663ffffffff1690503373ffffffffffffffffffffffffffffffffffffffff166108fc829081150290604051600060405180830381858888f19350505050158015611098573d6000803e3d6000fd5b505050565b6110a5610fbb565b6110ae57600080fd5b6110b7816115c2565b50565b600181815481106110ca57600080fd5b90600052602060002090600802016000915090508060000154908060010160009054906101000a900463ffffffff16908060010160049054906101000a900463ffffffff169080600201805461111f9061231c565b80601f016020809104026020016040519081016040528092919081815260200182805461114b9061231c565b80156111985780601f1061116d57610100808354040283529160200191611198565b820191906000526020600020905b81548152906001019060200180831161117b57829003601f168201915b5050505050908060030180546111ad9061231c565b80601f01602080910402602001604051908101604052809291908181526020018280546111d99061231c565b80156112265780601f106111fb57610100808354040283529160200191611226565b820191906000526020600020905b81548152906001019060200180831161120957829003601f168201915b50505050509080600401805461123b9061231c565b80601f01602080910402602001604051908101604052809291908181526020018280546112679061231c565b80156112b45780601f10611289576101008083540402835291602001916112b4565b820191906000526020600020905b81548152906001019060200180831161129757829003601f168201915b5050505050908060050180546112c99061231c565b80601f01602080910402602001604051908101604052809291908181526020018280546112f59061231c565b80156113425780601f1061131757610100808354040283529160200191611342565b820191906000526020600020905b81548152906001019060200180831161132557829003601f168201915b5050505050908060070160009054906101000a900460ff16905088565b611367610fbb565b61137057600080fd5b8060018381548110611385576113846122be565b5b906000526020600020906008020160010160046101000a81548163ffffffff021916908363ffffffff1602179055505050565b61140b6001600360008573ffffffffffffffffffffffffffffffffffffffff1673ffffffffffffffffffffffffffffffffffffffff1681526020019081526020016000205461159690919063ffffffff16565b600360008473ffffffffffffffffffffffffffffffffffffffff1673ffffffffffffffffffffffffffffffffffffffff168152602001908152602001600020819055506114a16001600360003373ffffffffffffffffffffffffffffffffffffffff1673ffffffffffffffffffffffffffffffffffffffff168152602001908152602001600020546116b890919063ffffffff16565b600360003373ffffffffffffffffffffffffffffffffffffffff1673ffffffffffffffffffffffffffffffffffffffff16815260200190815260200160002081905550816002600083815260200190815260200160002060006101000a81548173ffffffffffffffffffffffffffffffffffffffff021916908373ffffffffffffffffffffffffffffffffffffffff160217905550808273ffffffffffffffffffffffffffffffffffffffff168473ffffffffffffffffffffffffffffffffffffffff167fddf252ad1be2c89b69c2b068fc378daa952ba7f163c4a11628f55a4df523b3ef60405160405180910390a4505050565b60008082846115a591906126c0565b9050838110156115b8576115b76126f4565b5b8091505092915050565b600073ffffffffffffffffffffffffffffffffffffffff168173ffffffffffffffffffffffffffffffffffffffff16036115fb57600080fd5b8073ffffffffffffffffffffffffffffffffffffffff1660008054906101000a900473ffffffffffffffffffffffffffffffffffffffff1673ffffffffffffffffffffffffffffffffffffffff167f8be0079c531659141344cd1fd0a4f28419497f9722a3daafe3b4186f6b6457e060405160405180910390a3806000806101000a81548173ffffffffffffffffffffffffffffffffffffffff021916908373ffffffffffffffffffffffffffffffffffffffff16021790555050565b6000828211156116cb576116ca6126f4565b5b81836116d791906125fa565b905092915050565b60405180610120016040528060008152602001600063ffffffff168152602001600063ffffffff16815260200160608152602001606081526020016060815260200160608152602001606081526020016000151581525090565b828054828255906000526020600020908101928215611781579160200282015b8281111561178057825182908161177091906124f9565b5091602001919060010190611759565b5b50905061178e9190611792565b5090565b5b808211156117b257600081816117a991906117b6565b50600101611793565b5090565b5080546117c29061231c565b6000825580601f106117d457506117f3565b601f0160209004906000526020600020908101906117f291906117f6565b5b50565b5b8082111561180f5760008160009055506001016117f7565b5090565b6000604051905090565b600080fd5b600080fd5b600073ffffffffffffffffffffffffffffffffffffffff82169050919050565b600061185282611827565b9050919050565b61186281611847565b811461186d57600080fd5b50565b60008135905061187f81611859565b92915050565b6000819050919050565b61189881611885565b81146118a357600080fd5b50565b6000813590506118b58161188f565b92915050565b600080604083850312156118d2576118d161181d565b5b60006118e085828601611870565b92505060206118f1858286016118a6565b9150509250929050565b6000806000606084860312156119145761191361181d565b5b600061192286828701611870565b935050602061193386828701611870565b9250506040611944868287016118a6565b9150509250925092565b6000602082840312156119645761196361181d565b5b6000611972848285016118a6565b91505092915050565b61198481611847565b82525050565b600060208201905061199f600083018461197b565b92915050565b6119ae81611885565b82525050565b600063ffffffff82169050919050565b6119cd816119b4565b82525050565b600081519050919050565b600082825260208201905092915050565b60005b83811015611a0d5780820151818401526020810190506119f2565b60008484015250505050565b6000601f19601f8301169050919050565b6000611a35826119d3565b611a3f81856119de565b9350611a4f8185602086016119ef565b611a5881611a19565b840191505092915050565b600081519050919050565b600082825260208201905092915050565b6000819050602082019050919050565b6000611a9b8383611a2a565b905092915050565b6000602082019050919050565b6000611abb82611a63565b611ac58185611a6e565b935083602082028501611ad785611a7f565b8060005b85811015611b135784840389528151611af48582611a8f565b9450611aff83611aa3565b925060208a01995050600181019050611adb565b50829750879550505050505092915050565b60008115159050919050565b611b3a81611b25565b82525050565b600061012083016000830151611b5960008601826119a5565b506020830151611b6c60208601826119c4565b506040830151611b7f60408601826119c4565b5060608301518482036060860152611b978282611a2a565b91505060808301518482036080860152611bb18282611a2a565b91505060a083015184820360a0860152611bcb8282611a2a565b91505060c083015184820360c0860152611be58282611a2a565b91505060e083015184820360e0860152611bff8282611ab0565b915050610100830151611c16610100860182611b31565b508091505092915050565b60006020820190508181036000830152611c3b8184611b40565b905092915050565b600060208284031215611c5957611c5861181d565b5b6000611c6784828501611870565b91505092915050565b611c7981611885565b82525050565b6000602082019050611c946000830184611c70565b92915050565b611ca3816119b4565b8114611cae57600080fd5b50565b600081359050611cc081611c9a565b92915050565b600080fd5b600080fd5b7f4e487b7100000000000000000000000000000000000000000000000000000000600052604160045260246000fd5b611d0882611a19565b810181811067ffffffffffffffff82111715611d2757611d26611cd0565b5b80604052505050565b6000611d3a611813565b9050611d468282611cff565b919050565b600067ffffffffffffffff821115611d6657611d65611cd0565b5b611d6f82611a19565b9050602081019050919050565b82818337600083830152505050565b6000611d9e611d9984611d4b565b611d30565b905082815260208101848484011115611dba57611db9611ccb565b5b611dc5848285611d7c565b509392505050565b600082601f830112611de257611de1611cc6565b5b8135611df2848260208601611d8b565b91505092915050565b600067ffffffffffffffff821115611e1657611e15611cd0565b5b602082029050602081019050919050565b600080fd5b6000611e3f611e3a84611dfb565b611d30565b90508083825260208201905060208402830185811115611e6257611e61611e27565b5b835b81811015611ea957803567ffffffffffffffff811115611e8757611e86611cc6565b5b808601611e948982611dcd565b85526020850194505050602081019050611e64565b5050509392505050565b600082601f830112611ec857611ec7611cc6565b5b8135611ed8848260208601611e2c565b91505092915050565b611eea81611b25565b8114611ef557600080fd5b50565b600081359050611f0781611ee1565b92915050565b60008060008060008060008060006101208a8c031215611f3057611f2f61181d565b5b6000611f3e8c828d016118a6565b9950506020611f4f8c828d01611cb1565b9850506040611f608c828d01611cb1565b97505060608a013567ffffffffffffffff811115611f8157611f80611822565b5b611f8d8c828d01611dcd565b96505060808a013567ffffffffffffffff811115611fae57611fad611822565b5b611fba8c828d01611dcd565b95505060a08a013567ffffffffffffffff811115611fdb57611fda611822565b5b611fe78c828d01611dcd565b94505060c08a013567ffffffffffffffff81111561200857612007611822565b5b6120148c828d01611dcd565b93505060e08a013567ffffffffffffffff81111561203557612034611822565b5b6120418c828d01611eb3565b9250506101006120538c828d01611ef8565b9150509295985092959850929598565b6000806040838503121561207a5761207961181d565b5b6000612088858286016118a6565b925050602061209985828601611cb1565b9150509250929050565b6120ac81611b25565b82525050565b60006020820190506120c760008301846120a3565b92915050565b6120d6816119b4565b82525050565b600082825260208201905092915050565b60006120f8826119d3565b61210281856120dc565b93506121128185602086016119ef565b61211b81611a19565b840191505092915050565b60006101008201905061213c600083018b611c70565b612149602083018a6120cd565b61215660408301896120cd565b818103606083015261216881886120ed565b9050818103608083015261217c81876120ed565b905081810360a083015261219081866120ed565b905081810360c08301526121a481856120ed565b90506121b360e08301846120a3565b9998505050505050505050565b7f546861742773206e6f7420796f20636172000000000000000000000000000000600082015250565b60006121f66011836120dc565b9150612201826121c0565b602082019050919050565b60006020820190508181036000830152612225816121e9565b9050919050565b7f596f7520617265206e6f7420616c6c6f77656420746f207472616e736665722060008201527f7468697320636172000000000000000000000000000000000000000000000000602082015250565b60006122886028836120dc565b91506122938261222c565b604082019050919050565b600060208201905081810360008301526122b78161227b565b9050919050565b7f4e487b7100000000000000000000000000000000000000000000000000000000600052603260045260246000fd5b7f4e487b7100000000000000000000000000000000000000000000000000000000600052602260045260246000fd5b6000600282049050600182168061233457607f821691505b602082108103612347576123466122ed565b5b50919050565b60008190508160005260206000209050919050565b60006020601f8301049050919050565b600082821b905092915050565b6000600883026123af7fffffffffffffffffffffffffffffffffffffffffffffffffffffffffffffffff82612372565b6123b98683612372565b95508019841693508086168417925050509392505050565b6000819050919050565b60006123f66123f16123ec84611885565b6123d1565b611885565b9050919050565b6000819050919050565b612410836123db565b61242461241c826123fd565b84845461237f565b825550505050565b600090565b61243961242c565b612444818484612407565b505050565b5b818110156124685761245d600082612431565b60018101905061244a565b5050565b601f8211156124ad5761247e8161234d565b61248784612362565b81016020851015612496578190505b6124aa6124a285612362565b830182612449565b50505b505050565b600082821c905092915050565b60006124d0600019846008026124b2565b1980831691505092915050565b60006124e983836124bf565b9150826002028217905092915050565b612502826119d3565b67ffffffffffffffff81111561251b5761251a611cd0565b5b612525825461231c565b61253082828561246c565b600060209050601f8311600181146125635760008415612551578287015190505b61255b85826124dd565b8655506125c3565b601f1984166125718661234d565b60005b8281101561259957848901518255600182019150602085019450602081019050612574565b868310156125b657848901516125b2601f8916826124bf565b8355505b6001600288020188555050505b505050505050565b7f4e487b7100000000000000000000000000000000000000000000000000000000600052601160045260246000fd5b600061260582611885565b915061261083611885565b9250828203905081811115612628576126276125cb565b5b92915050565b7f546865206e6577206d696c616765206d75737420626520686967686572204f5560008201527f4c45480000000000000000000000000000000000000000000000000000000000602082015250565b600061268a6023836120dc565b91506126958261262e565b604082019050919050565b600060208201905081810360008301526126b98161267d565b9050919050565b60006126cb82611885565b91506126d683611885565b92508282019050808211156126ee576126ed6125cb565b5b92915050565b7f4e487b7100000000000000000000000000000000000000000000000000000000600052600160045260246000fdfea264697066735822122032b9569dc079b941210911eb8a60d62dd8bb019ba08c80bd60b8eb5d735bda3d64736f6c63430008110033",
  "linkReferences": {},
  "deployedLinkReferences": {}
}