{
  "_format": "hh-sol-artifact-1",
  "contractName": "CarOwnership",
  "sourceName": "contracts/carownership.sol",
  "abi": [
    {
      "anonymous": false,
      "inputs": [
        {
          "indexed": true,
          "internalType": "address",
          "name": "_owner",
          "type": "address"
        },
        {
          "indexed": true,
          "internalType": "address",
          "name": "_approved",
          "type": "address"
        },
        {
          "indexed": true,
          "internalType": "uint256",
          "name": "_tokenId",
          "type": "uint256"
        }
      ],
      "name": "Approval",
      "type": "event"
    },
    {
      "anonymous": false,
      "inputs": [
        {
          "components": [
            {
              "internalType": "uint32",
              "name": "id",
              "type": "uint32"
            },
            {
              "internalType": "uint32",
              "name": "chassisNumber",
              "type": "uint32"
            },
            {
              "internalType": "uint32",
              "name": "mileage",
              "type": "uint32"
            },
            {
              "internalType": "uint32",
              "name": "price",
              "type": "uint32"
            },
            {
              "internalType": "string",
              "name": "licensePlate",
              "type": "string"
            },
            {
              "internalType": "string",
              "name": "brand",
              "type": "string"
            },
            {
              "internalType": "string",
              "name": "carType",
              "type": "string"
            },
            {
              "internalType": "string",
              "name": "colour",
              "type": "string"
            },
            {
              "internalType": "string[]",
              "name": "pictures",
              "type": "string[]"
            },
            {
              "internalType": "bool",
              "name": "isForSale",
              "type": "bool"
            }
          ],
          "indexed": false,
          "internalType": "struct CarDetails.Car",
          "name": "car",
          "type": "tuple"
        }
      ],
      "name": "NewCar",
      "type": "event"
    },
    {
      "anonymous": false,
      "inputs": [
        {
          "indexed": true,
          "internalType": "address",
          "name": "previousOwner",
          "type": "address"
        },
        {
          "indexed": true,
          "internalType": "address",
          "name": "newOwner",
          "type": "address"
        }
      ],
      "name": "OwnershipTransferred",
      "type": "event"
    },
    {
      "anonymous": false,
      "inputs": [
        {
          "indexed": true,
          "internalType": "address",
          "name": "_from",
          "type": "address"
        },
        {
          "indexed": true,
          "internalType": "address",
          "name": "_to",
          "type": "address"
        },
        {
          "indexed": true,
          "internalType": "uint256",
          "name": "_tokenId",
          "type": "uint256"
        }
      ],
      "name": "Transfer",
      "type": "event"
    },
    {
      "inputs": [
        {
          "internalType": "address",
          "name": "_approved",
          "type": "address"
        },
        {
          "internalType": "uint256",
          "name": "_tokenId",
          "type": "uint256"
        }
      ],
      "name": "approve",
      "outputs": [],
      "stateMutability": "payable",
      "type": "function"
    },
    {
      "inputs": [
        {
          "internalType": "address",
          "name": "_owner",
          "type": "address"
        }
      ],
      "name": "balanceOf",
      "outputs": [
        {
          "internalType": "uint256",
          "name": "",
          "type": "uint256"
        }
      ],
      "stateMutability": "view",
      "type": "function"
    },
    {
      "inputs": [
        {
          "internalType": "uint32",
          "name": "",
          "type": "uint32"
        }
      ],
      "name": "carToOwner",
      "outputs": [
        {
          "internalType": "address",
          "name": "",
          "type": "address"
        }
      ],
      "stateMutability": "view",
      "type": "function"
    },
    {
      "inputs": [
        {
          "internalType": "uint256",
          "name": "",
          "type": "uint256"
        }
      ],
      "name": "cars",
      "outputs": [
        {
          "internalType": "uint32",
          "name": "id",
          "type": "uint32"
        },
        {
          "internalType": "uint32",
          "name": "chassisNumber",
          "type": "uint32"
        },
        {
          "internalType": "uint32",
          "name": "mileage",
          "type": "uint32"
        },
        {
          "internalType": "uint32",
          "name": "price",
          "type": "uint32"
        },
        {
          "internalType": "string",
          "name": "licensePlate",
          "type": "string"
        },
        {
          "internalType": "string",
          "name": "brand",
          "type": "string"
        },
        {
          "internalType": "string",
          "name": "carType",
          "type": "string"
        },
        {
          "internalType": "string",
          "name": "colour",
          "type": "string"
        },
        {
          "internalType": "bool",
          "name": "isForSale",
          "type": "bool"
        }
      ],
      "stateMutability": "view",
      "type": "function"
    },
    {
      "inputs": [
        {
          "internalType": "uint32",
          "name": "_chassisNumber",
          "type": "uint32"
        },
        {
          "internalType": "uint32",
          "name": "_mileage",
          "type": "uint32"
        },
        {
          "internalType": "uint32",
          "name": "_price",
          "type": "uint32"
        },
        {
          "internalType": "string",
          "name": "_licensePlate",
          "type": "string"
        },
        {
          "internalType": "string",
          "name": "_brand",
          "type": "string"
        },
        {
          "internalType": "string",
          "name": "_carType",
          "type": "string"
        },
        {
          "internalType": "string",
          "name": "_colour",
          "type": "string"
        },
        {
          "internalType": "string[]",
          "name": "_pictures",
          "type": "string[]"
        },
        {
          "internalType": "bool",
          "name": "_isForSale",
          "type": "bool"
        }
      ],
      "name": "createCar",
      "outputs": [],
      "stateMutability": "nonpayable",
      "type": "function"
    },
    {
      "inputs": [
        {
          "internalType": "uint32",
          "name": "_carId",
          "type": "uint32"
        }
      ],
      "name": "deleteCar",
      "outputs": [],
      "stateMutability": "nonpayable",
      "type": "function"
    },
    {
      "inputs": [
        {
          "internalType": "address",
          "name": "_owner",
          "type": "address"
        }
      ],
      "name": "getAllCarsForOwner",
      "outputs": [
        {
          "components": [
            {
              "internalType": "uint32",
              "name": "id",
              "type": "uint32"
            },
            {
              "internalType": "uint32",
              "name": "chassisNumber",
              "type": "uint32"
            },
            {
              "internalType": "uint32",
              "name": "mileage",
              "type": "uint32"
            },
            {
              "internalType": "uint32",
              "name": "price",
              "type": "uint32"
            },
            {
              "internalType": "string",
              "name": "licensePlate",
              "type": "string"
            },
            {
              "internalType": "string",
              "name": "brand",
              "type": "string"
            },
            {
              "internalType": "string",
              "name": "carType",
              "type": "string"
            },
            {
              "internalType": "string",
              "name": "colour",
              "type": "string"
            },
            {
              "internalType": "string[]",
              "name": "pictures",
              "type": "string[]"
            },
            {
              "internalType": "bool",
              "name": "isForSale",
              "type": "bool"
            }
          ],
          "internalType": "struct CarDetails.Car[]",
          "name": "",
          "type": "tuple[]"
        }
      ],
      "stateMutability": "view",
      "type": "function"
    },
    {
      "inputs": [
        {
          "internalType": "uint256",
          "name": "_carId",
          "type": "uint256"
        }
      ],
      "name": "getCar",
      "outputs": [
        {
          "components": [
            {
              "internalType": "uint32",
              "name": "id",
              "type": "uint32"
            },
            {
              "internalType": "uint32",
              "name": "chassisNumber",
              "type": "uint32"
            },
            {
              "internalType": "uint32",
              "name": "mileage",
              "type": "uint32"
            },
            {
              "internalType": "uint32",
              "name": "price",
              "type": "uint32"
            },
            {
              "internalType": "string",
              "name": "licensePlate",
              "type": "string"
            },
            {
              "internalType": "string",
              "name": "brand",
              "type": "string"
            },
            {
              "internalType": "string",
              "name": "carType",
              "type": "string"
            },
            {
              "internalType": "string",
              "name": "colour",
              "type": "string"
            },
            {
              "internalType": "string[]",
              "name": "pictures",
              "type": "string[]"
            },
            {
              "internalType": "bool",
              "name": "isForSale",
              "type": "bool"
            }
          ],
          "internalType": "struct CarDetails.Car",
          "name": "",
          "type": "tuple"
        }
      ],
      "stateMutability": "view",
      "type": "function"
    },
    {
      "inputs": [
        {
          "internalType": "uint32",
          "name": "_carId",
          "type": "uint32"
        }
      ],
      "name": "getCarOwner",
      "outputs": [
        {
          "internalType": "address",
          "name": "ownerAddress",
          "type": "address"
        }
      ],
      "stateMutability": "view",
      "type": "function"
    },
    {
      "inputs": [],
      "name": "getCarsForSale",
      "outputs": [
        {
          "components": [
            {
              "internalType": "uint32",
              "name": "id",
              "type": "uint32"
            },
            {
              "internalType": "uint32",
              "name": "chassisNumber",
              "type": "uint32"
            },
            {
              "internalType": "uint32",
              "name": "mileage",
              "type": "uint32"
            },
            {
              "internalType": "uint32",
              "name": "price",
              "type": "uint32"
            },
            {
              "internalType": "string",
              "name": "licensePlate",
              "type": "string"
            },
            {
              "internalType": "string",
              "name": "brand",
              "type": "string"
            },
            {
              "internalType": "string",
              "name": "carType",
              "type": "string"
            },
            {
              "internalType": "string",
              "name": "colour",
              "type": "string"
            },
            {
              "internalType": "string[]",
              "name": "pictures",
              "type": "string[]"
            },
            {
              "internalType": "bool",
              "name": "isForSale",
              "type": "bool"
            }
          ],
          "internalType": "struct CarDetails.Car[]",
          "name": "",
          "type": "tuple[]"
        }
      ],
      "stateMutability": "view",
      "type": "function"
    },
    {
      "inputs": [],
      "name": "isOwner",
      "outputs": [
        {
          "internalType": "bool",
          "name": "",
          "type": "bool"
        }
      ],
      "stateMutability": "view",
      "type": "function"
    },
    {
      "inputs": [],
      "name": "owner",
      "outputs": [
        {
          "internalType": "address",
          "name": "",
          "type": "address"
        }
      ],
      "stateMutability": "view",
      "type": "function"
    },
    {
      "inputs": [
        {
          "internalType": "uint256",
          "name": "_tokenId",
          "type": "uint256"
        }
      ],
      "name": "ownerOf",
      "outputs": [
        {
          "internalType": "address",
          "name": "",
          "type": "address"
        }
      ],
      "stateMutability": "view",
      "type": "function"
    },
    {
      "inputs": [],
      "name": "renounceOwnership",
      "outputs": [],
      "stateMutability": "nonpayable",
      "type": "function"
    },
    {
      "inputs": [
        {
          "internalType": "uint256",
          "name": "_carId",
          "type": "uint256"
        }
      ],
      "name": "toggleSaleState",
      "outputs": [],
      "stateMutability": "nonpayable",
      "type": "function"
    },
    {
      "inputs": [
        {
          "internalType": "address",
          "name": "_from",
          "type": "address"
        },
        {
          "internalType": "address",
          "name": "_to",
          "type": "address"
        },
        {
          "internalType": "uint256",
          "name": "_tokenId",
          "type": "uint256"
        }
      ],
      "name": "transferFrom",
      "outputs": [],
      "stateMutability": "payable",
      "type": "function"
    },
    {
      "inputs": [
        {
          "internalType": "address",
          "name": "newOwner",
          "type": "address"
        }
      ],
      "name": "transferOwnership",
      "outputs": [],
      "stateMutability": "nonpayable",
      "type": "function"
    },
    {
      "inputs": [
        {
          "internalType": "uint256",
          "name": "_carId",
          "type": "uint256"
        },
        {
          "internalType": "uint32",
          "name": "_newMileage",
          "type": "uint32"
        }
      ],
      "name": "updateMileage",
      "outputs": [],
      "stateMutability": "nonpayable",
      "type": "function"
    },
    {
      "inputs": [
        {
          "internalType": "uint256",
          "name": "_carId",
          "type": "uint256"
        },
        {
          "internalType": "uint32",
          "name": "_newPrice",
          "type": "uint32"
        }
      ],
      "name": "updatePrice",
      "outputs": [],
      "stateMutability": "nonpayable",
      "type": "function"
    }
  ],
  "bytecode": "0x608060405234801561001057600080fd5b50336000806101000a81548173ffffffffffffffffffffffffffffffffffffffff021916908373ffffffffffffffffffffffffffffffffffffffff16021790555060008054906101000a900473ffffffffffffffffffffffffffffffffffffffff1673ffffffffffffffffffffffffffffffffffffffff16600073ffffffffffffffffffffffffffffffffffffffff167f8be0079c531659141344cd1fd0a4f28419497f9722a3daafe3b4186f6b6457e060405160405180910390a3613c58806100db6000396000f3fe6080604052600436106101145760003560e01c806376b4646d116100a0578063b275decc11610064578063b275decc146103a9578063d4d942ec146103d2578063f2fde38b146103fb578063f7746e3614610424578063f95fe25b1461046957610114565b806376b4646d146102c25780637edffa53146102ed5780638da5cb5b146103165780638f32d59b1461034157806391a207761461036c57610114565b80635e8be190116100e75780635e8be190146101cb578063628dd13e146102085780636352211e1461023157806370a082311461026e578063715018a6146102ab57610114565b8063095ea7b3146101195780632286c0c11461013557806323b872dd1461017257806339c98a1b1461018e575b600080fd5b610133600480360381019061012e9190612aba565b610492565b005b34801561014157600080fd5b5061015c60048036038101906101579190612afa565b6105f2565b6040516101699190612e6b565b60405180910390f35b61018c60048036038101906101879190612e8d565b610b64565b005b34801561019a57600080fd5b506101b560048036038101906101b09190612f0c565b610d54565b6040516101c29190612f48565b60405180910390f35b3480156101d757600080fd5b506101f260048036038101906101ed9190612f63565b610d9d565b6040516101ff9190613086565b60405180910390f35b34801561021457600080fd5b5061022f600480360381019061022a9190612f63565b6111ae565b005b34801561023d57600080fd5b5061025860048036038101906102539190612f63565b611232565b6040516102659190612f48565b60405180910390f35b34801561027a57600080fd5b5061029560048036038101906102909190612afa565b61127b565b6040516102a291906130b7565b60405180910390f35b3480156102b757600080fd5b506102c06112c4565b005b3480156102ce57600080fd5b506102d7611393565b6040516102e49190612e6b565b60405180910390f35b3480156102f957600080fd5b50610314600480360381019061030f91906130d2565b6118ff565b005b34801561032257600080fd5b5061032b6119db565b6040516103389190612f48565b60405180910390f35b34801561034d57600080fd5b50610356611a04565b6040516103639190613121565b60405180910390f35b34801561037857600080fd5b50610393600480360381019061038e9190612f0c565b611a5b565b6040516103a09190612f48565b60405180910390f35b3480156103b557600080fd5b506103d060048036038101906103cb9190612f0c565b611a8e565b005b3480156103de57600080fd5b506103f960048036038101906103f49190613383565b611c92565b005b34801561040757600080fd5b50610422600480360381019061041d9190612afa565b611f97565b005b34801561043057600080fd5b5061044b60048036038101906104469190612f63565b611fb4565b60405161046099989796959493929190613532565b60405180910390f35b34801561047557600080fd5b50610490600480360381019061048b91906130d2565b61227f565b005b80600260008263ffffffff1663ffffffff16815260200190815260200160002060009054906101000a900473ffffffffffffffffffffffffffffffffffffffff1673ffffffffffffffffffffffffffffffffffffffff163373ffffffffffffffffffffffffffffffffffffffff1614610540576040517f08c379a000000000000000000000000000000000000000000000000000000000815260040161053790613627565b60405180910390fd5b826004600084815260200190815260200160002060006101000a81548173ffffffffffffffffffffffffffffffffffffffff021916908373ffffffffffffffffffffffffffffffffffffffff160217905550818373ffffffffffffffffffffffffffffffffffffffff163373ffffffffffffffffffffffffffffffffffffffff167f8c5be1e5ebec7d5bd14f71427d1e84f3dd0314c0f7b2291e5b200ac8c7c3b92560405160405180910390a4505050565b606060006105ff836122d8565b67ffffffffffffffff81111561061857610617613146565b5b60405190808252806020026020018201604052801561065157816020015b61063e6128aa565b8152602001906001900390816106365790505b5090506000805b600180549050811015610b19578473ffffffffffffffffffffffffffffffffffffffff16600260008363ffffffff1663ffffffff16815260200190815260200160002060009054906101000a900473ffffffffffffffffffffffffffffffffffffffff1673ffffffffffffffffffffffffffffffffffffffff1603610b0657600181815481106106eb576106ea613647565b5b9060005260206000209060070201604051806101400160405290816000820160009054906101000a900463ffffffff1663ffffffff1663ffffffff1681526020016000820160049054906101000a900463ffffffff1663ffffffff1663ffffffff1681526020016000820160089054906101000a900463ffffffff1663ffffffff1663ffffffff16815260200160008201600c9054906101000a900463ffffffff1663ffffffff1663ffffffff1681526020016001820180546107ad906136a5565b80601f01602080910402602001604051908101604052809291908181526020018280546107d9906136a5565b80156108265780601f106107fb57610100808354040283529160200191610826565b820191906000526020600020905b81548152906001019060200180831161080957829003601f168201915b5050505050815260200160028201805461083f906136a5565b80601f016020809104026020016040519081016040528092919081815260200182805461086b906136a5565b80156108b85780601f1061088d576101008083540402835291602001916108b8565b820191906000526020600020905b81548152906001019060200180831161089b57829003601f168201915b505050505081526020016003820180546108d1906136a5565b80601f01602080910402602001604051908101604052809291908181526020018280546108fd906136a5565b801561094a5780601f1061091f5761010080835404028352916020019161094a565b820191906000526020600020905b81548152906001019060200180831161092d57829003601f168201915b50505050508152602001600482018054610963906136a5565b80601f016020809104026020016040519081016040528092919081815260200182805461098f906136a5565b80156109dc5780601f106109b1576101008083540402835291602001916109dc565b820191906000526020600020905b8154815290600101906020018083116109bf57829003601f168201915b5050505050815260200160058201805480602002602001604051908101604052809291908181526020016000905b82821015610ab6578382906000526020600020018054610a29906136a5565b80601f0160208091040260200160405190810160405280929190818152602001828054610a55906136a5565b8015610aa25780601f10610a7757610100808354040283529160200191610aa2565b820191906000526020600020905b815481529060010190602001808311610a8557829003601f168201915b505050505081526020019060010190610a0a565b5050505081526020016006820160009054906101000a900460ff161515151581525050838381518110610aec57610aeb613647565b5b60200260200101819052508180610b0290613705565b9250505b8080610b1190613705565b915050610658565b50610b5a6040518060400160405280600f81526020017f726573756c74206c656e6774683a20000000000000000000000000000000000081525083516123c2565b8192505050919050565b60018181548110610b7857610b77613647565b5b906000526020600020906007020160060160009054906101000a900460ff16610bd6576040517f08c379a0000000000000000000000000000000000000000000000000000000008152600401610bcd90613799565b60405180910390fd5b3373ffffffffffffffffffffffffffffffffffffffff16600260008363ffffffff1663ffffffff16815260200190815260200160002060009054906101000a900473ffffffffffffffffffffffffffffffffffffffff1673ffffffffffffffffffffffffffffffffffffffff1603610c83576040517f08c379a0000000000000000000000000000000000000000000000000000000008152600401610c7a9061382b565b60405180910390fd5b600260008263ffffffff1663ffffffff16815260200190815260200160002060009054906101000a900473ffffffffffffffffffffffffffffffffffffffff1673ffffffffffffffffffffffffffffffffffffffff166108fc60018381548110610cf057610cef613647565b5b9060005260206000209060070201600001600c9054906101000a900463ffffffff1663ffffffff169081150290604051600060405180830381858888f19350505050158015610d43573d6000803e3d6000fd5b50610d4f83838361245e565b505050565b6000600260008363ffffffff1663ffffffff16815260200190815260200160002060009054906101000a900473ffffffffffffffffffffffffffffffffffffffff169050919050565b610da56128aa565b60018281548110610db957610db8613647565b5b9060005260206000209060070201604051806101400160405290816000820160009054906101000a900463ffffffff1663ffffffff1663ffffffff1681526020016000820160049054906101000a900463ffffffff1663ffffffff1663ffffffff1681526020016000820160089054906101000a900463ffffffff1663ffffffff1663ffffffff16815260200160008201600c9054906101000a900463ffffffff1663ffffffff1663ffffffff168152602001600182018054610e7b906136a5565b80601f0160208091040260200160405190810160405280929190818152602001828054610ea7906136a5565b8015610ef45780601f10610ec957610100808354040283529160200191610ef4565b820191906000526020600020905b815481529060010190602001808311610ed757829003601f168201915b50505050508152602001600282018054610f0d906136a5565b80601f0160208091040260200160405190810160405280929190818152602001828054610f39906136a5565b8015610f865780601f10610f5b57610100808354040283529160200191610f86565b820191906000526020600020905b815481529060010190602001808311610f6957829003601f168201915b50505050508152602001600382018054610f9f906136a5565b80601f0160208091040260200160405190810160405280929190818152602001828054610fcb906136a5565b80156110185780601f10610fed57610100808354040283529160200191611018565b820191906000526020600020905b815481529060010190602001808311610ffb57829003601f168201915b50505050508152602001600482018054611031906136a5565b80601f016020809104026020016040519081016040528092919081815260200182805461105d906136a5565b80156110aa5780601f1061107f576101008083540402835291602001916110aa565b820191906000526020600020905b81548152906001019060200180831161108d57829003601f168201915b5050505050815260200160058201805480602002602001604051908101604052809291908181526020016000905b828210156111845783829060005260206000200180546110f7906136a5565b80601f0160208091040260200160405190810160405280929190818152602001828054611123906136a5565b80156111705780601f1061114557610100808354040283529160200191611170565b820191906000526020600020905b81548152906001019060200180831161115357829003601f168201915b5050505050815260200190600101906110d8565b5050505081526020016006820160009054906101000a900460ff1615151515815250509050919050565b6111b6611a04565b6111bf57600080fd5b600181815481106111d3576111d2613647565b5b906000526020600020906007020160060160009054906101000a900460ff16156001828154811061120757611206613647565b5b906000526020600020906007020160060160006101000a81548160ff02191690831515021790555050565b6000600260008363ffffffff1663ffffffff16815260200190815260200160002060009054906101000a900473ffffffffffffffffffffffffffffffffffffffff169050919050565b6000600360008373ffffffffffffffffffffffffffffffffffffffff1673ffffffffffffffffffffffffffffffffffffffff168152602001908152602001600020549050919050565b6112cc611a04565b6112d557600080fd5b600073ffffffffffffffffffffffffffffffffffffffff1660008054906101000a900473ffffffffffffffffffffffffffffffffffffffff1673ffffffffffffffffffffffffffffffffffffffff167f8be0079c531659141344cd1fd0a4f28419497f9722a3daafe3b4186f6b6457e060405160405180910390a360008060006101000a81548173ffffffffffffffffffffffffffffffffffffffff021916908373ffffffffffffffffffffffffffffffffffffffff160217905550565b6060600061139f612648565b67ffffffffffffffff8111156113b8576113b7613146565b5b6040519080825280602002602001820160405280156113f157816020015b6113de6128aa565b8152602001906001900390816113d65790505b5090506000805b6001805490508110156118f6573373ffffffffffffffffffffffffffffffffffffffff16600260008363ffffffff1663ffffffff16815260200190815260200160002060009054906101000a900473ffffffffffffffffffffffffffffffffffffffff1673ffffffffffffffffffffffffffffffffffffffff16141580156114af57506001818154811061148f5761148e613647565b5b906000526020600020906007020160060160009054906101000a900460ff165b156118e357600181815481106114c8576114c7613647565b5b9060005260206000209060070201604051806101400160405290816000820160009054906101000a900463ffffffff1663ffffffff1663ffffffff1681526020016000820160049054906101000a900463ffffffff1663ffffffff1663ffffffff1681526020016000820160089054906101000a900463ffffffff1663ffffffff1663ffffffff16815260200160008201600c9054906101000a900463ffffffff1663ffffffff1663ffffffff16815260200160018201805461158a906136a5565b80601f01602080910402602001604051908101604052809291908181526020018280546115b6906136a5565b80156116035780601f106115d857610100808354040283529160200191611603565b820191906000526020600020905b8154815290600101906020018083116115e657829003601f168201915b5050505050815260200160028201805461161c906136a5565b80601f0160208091040260200160405190810160405280929190818152602001828054611648906136a5565b80156116955780601f1061166a57610100808354040283529160200191611695565b820191906000526020600020905b81548152906001019060200180831161167857829003601f168201915b505050505081526020016003820180546116ae906136a5565b80601f01602080910402602001604051908101604052809291908181526020018280546116da906136a5565b80156117275780601f106116fc57610100808354040283529160200191611727565b820191906000526020600020905b81548152906001019060200180831161170a57829003601f168201915b50505050508152602001600482018054611740906136a5565b80601f016020809104026020016040519081016040528092919081815260200182805461176c906136a5565b80156117b95780601f1061178e576101008083540402835291602001916117b9565b820191906000526020600020905b81548152906001019060200180831161179c57829003601f168201915b5050505050815260200160058201805480602002602001604051908101604052809291908181526020016000905b82821015611893578382906000526020600020018054611806906136a5565b80601f0160208091040260200160405190810160405280929190818152602001828054611832906136a5565b801561187f5780601f106118545761010080835404028352916020019161187f565b820191906000526020600020905b81548152906001019060200180831161186257829003601f168201915b5050505050815260200190600101906117e7565b5050505081526020016006820160009054906101000a900460ff1615151515815250508383815181106118c9576118c8613647565b5b602002602001018190525081806118df90613705565b9250505b80806118ee90613705565b9150506113f8565b50819250505090565b611907611a04565b61191057600080fd5b6001828154811061192457611923613647565b5b906000526020600020906007020160000160089054906101000a900463ffffffff1663ffffffff168163ffffffff1611611993576040517f08c379a000000000000000000000000000000000000000000000000000000000815260040161198a906138bd565b60405180910390fd5b80600183815481106119a8576119a7613647565b5b906000526020600020906007020160000160086101000a81548163ffffffff021916908363ffffffff1602179055505050565b60008060009054906101000a900473ffffffffffffffffffffffffffffffffffffffff16905090565b60008060009054906101000a900473ffffffffffffffffffffffffffffffffffffffff1673ffffffffffffffffffffffffffffffffffffffff163373ffffffffffffffffffffffffffffffffffffffff1614905090565b60026020528060005260406000206000915054906101000a900473ffffffffffffffffffffffffffffffffffffffff1681565b80600260008263ffffffff1663ffffffff16815260200190815260200160002060009054906101000a900473ffffffffffffffffffffffffffffffffffffffff1673ffffffffffffffffffffffffffffffffffffffff163373ffffffffffffffffffffffffffffffffffffffff1614611b3c576040517f08c379a0000000000000000000000000000000000000000000000000000000008152600401611b3390613627565b60405180910390fd5b60005b600180549050811015611c8d578263ffffffff1660018281548110611b6757611b66613647565b5b906000526020600020906007020160000160009054906101000a900463ffffffff1663ffffffff1603611c7a5760018181548110611ba857611ba7613647565b5b9060005260206000209060070201600080820160006101000a81549063ffffffff02191690556000820160046101000a81549063ffffffff02191690556000820160086101000a81549063ffffffff021916905560008201600c6101000a81549063ffffffff0219169055600182016000611c239190612917565b600282016000611c339190612917565b600382016000611c439190612917565b600482016000611c539190612917565b600582016000611c639190612957565b6006820160006101000a81549060ff021916905550505b8080611c8590613705565b915050611b3f565b505050565b600060405180610140016040528060018054905063ffffffff1681526020018b63ffffffff1681526020018a63ffffffff1681526020018963ffffffff1681526020018881526020018781526020018681526020018581526020018481526020018315158152509050600181908060018154018082558091505060019003906000526020600020906007020160009091909190915060008201518160000160006101000a81548163ffffffff021916908363ffffffff16021790555060208201518160000160046101000a81548163ffffffff021916908363ffffffff16021790555060408201518160000160086101000a81548163ffffffff021916908363ffffffff160217905550606082015181600001600c6101000a81548163ffffffff021916908363ffffffff1602179055506080820151816001019081611dd89190613a89565b5060a0820151816002019081611dee9190613a89565b5060c0820151816003019081611e049190613a89565b5060e0820151816004019081611e1a9190613a89565b50610100820151816005019080519060200190611e38929190612978565b506101208201518160060160006101000a81548160ff02191690831515021790555050503360026000836000015163ffffffff1663ffffffff16815260200190815260200160002060006101000a81548173ffffffffffffffffffffffffffffffffffffffff021916908373ffffffffffffffffffffffffffffffffffffffff160217905550611f116001600360003373ffffffffffffffffffffffffffffffffffffffff1673ffffffffffffffffffffffffffffffffffffffff1681526020019081526020016000205461273890919063ffffffff16565b600360003373ffffffffffffffffffffffffffffffffffffffff1673ffffffffffffffffffffffffffffffffffffffff168152602001908152602001600020819055507f1a1d86e0f039b69dc75a6a99b30e291a372ccdcae3c35990cc416065bf72777881604051611f839190613086565b60405180910390a150505050505050505050565b611f9f611a04565b611fa857600080fd5b611fb181612764565b50565b60018181548110611fc457600080fd5b90600052602060002090600702016000915090508060000160009054906101000a900463ffffffff16908060000160049054906101000a900463ffffffff16908060000160089054906101000a900463ffffffff169080600001600c9054906101000a900463ffffffff169080600101805461203f906136a5565b80601f016020809104026020016040519081016040528092919081815260200182805461206b906136a5565b80156120b85780601f1061208d576101008083540402835291602001916120b8565b820191906000526020600020905b81548152906001019060200180831161209b57829003601f168201915b5050505050908060020180546120cd906136a5565b80601f01602080910402602001604051908101604052809291908181526020018280546120f9906136a5565b80156121465780601f1061211b57610100808354040283529160200191612146565b820191906000526020600020905b81548152906001019060200180831161212957829003601f168201915b50505050509080600301805461215b906136a5565b80601f0160208091040260200160405190810160405280929190818152602001828054612187906136a5565b80156121d45780601f106121a9576101008083540402835291602001916121d4565b820191906000526020600020905b8154815290600101906020018083116121b757829003601f168201915b5050505050908060040180546121e9906136a5565b80601f0160208091040260200160405190810160405280929190818152602001828054612215906136a5565b80156122625780601f1061223757610100808354040283529160200191612262565b820191906000526020600020905b81548152906001019060200180831161224557829003601f168201915b5050505050908060060160009054906101000a900460ff16905089565b612287611a04565b61229057600080fd5b80600183815481106122a5576122a4613647565b5b9060005260206000209060070201600001600c6101000a81548163ffffffff021916908363ffffffff1602179055505050565b6000806000905060005b6001805490508110156123b8578373ffffffffffffffffffffffffffffffffffffffff16600260006001848154811061231e5761231d613647565b5b906000526020600020906007020160000160009054906101000a900463ffffffff1663ffffffff1663ffffffff16815260200190815260200160002060009054906101000a900473ffffffffffffffffffffffffffffffffffffffff1673ffffffffffffffffffffffffffffffffffffffff16036123a55781806123a190613705565b9250505b80806123b090613705565b9150506122e2565b5080915050919050565b61245a82826040516024016123d8929190613b5b565b6040516020818303038152906040527fb60e72cc000000000000000000000000000000000000000000000000000000007bffffffffffffffffffffffffffffffffffffffffffffffffffffffff19166020820180517bffffffffffffffffffffffffffffffffffffffffffffffffffffffff838183161783525050505061285a565b5050565b6124b16001600360008573ffffffffffffffffffffffffffffffffffffffff1673ffffffffffffffffffffffffffffffffffffffff1681526020019081526020016000205461273890919063ffffffff16565b600360008473ffffffffffffffffffffffffffffffffffffffff1673ffffffffffffffffffffffffffffffffffffffff168152602001908152602001600020819055506125476001600360003373ffffffffffffffffffffffffffffffffffffffff1673ffffffffffffffffffffffffffffffffffffffff1681526020019081526020016000205461288390919063ffffffff16565b600360003373ffffffffffffffffffffffffffffffffffffffff1673ffffffffffffffffffffffffffffffffffffffff1681526020019081526020016000208190555081600260008363ffffffff1663ffffffff16815260200190815260200160002060006101000a81548173ffffffffffffffffffffffffffffffffffffffff021916908373ffffffffffffffffffffffffffffffffffffffff160217905550808273ffffffffffffffffffffffffffffffffffffffff168473ffffffffffffffffffffffffffffffffffffffff167fddf252ad1be2c89b69c2b068fc378daa952ba7f163c4a11628f55a4df523b3ef60405160405180910390a4505050565b6000806000905060005b600180549050811015612730573373ffffffffffffffffffffffffffffffffffffffff16600260008363ffffffff1663ffffffff16815260200190815260200160002060009054906101000a900473ffffffffffffffffffffffffffffffffffffffff1673ffffffffffffffffffffffffffffffffffffffff16141580156127095750600181815481106126e9576126e8613647565b5b906000526020600020906007020160060160009054906101000a900460ff165b1561271d57818061271990613705565b9250505b808061272890613705565b915050612652565b508091505090565b60008082846127479190613b8b565b90508381101561275a57612759613bbf565b5b8091505092915050565b600073ffffffffffffffffffffffffffffffffffffffff168173ffffffffffffffffffffffffffffffffffffffff160361279d57600080fd5b8073ffffffffffffffffffffffffffffffffffffffff1660008054906101000a900473ffffffffffffffffffffffffffffffffffffffff1673ffffffffffffffffffffffffffffffffffffffff167f8be0079c531659141344cd1fd0a4f28419497f9722a3daafe3b4186f6b6457e060405160405180910390a3806000806101000a81548173ffffffffffffffffffffffffffffffffffffffff021916908373ffffffffffffffffffffffffffffffffffffffff16021790555050565b60008151905060006a636f6e736f6c652e6c6f679050602083016000808483855afa5050505050565b60008282111561289657612895613bbf565b5b81836128a29190613bee565b905092915050565b604051806101400160405280600063ffffffff168152602001600063ffffffff168152602001600063ffffffff168152602001600063ffffffff16815260200160608152602001606081526020016060815260200160608152602001606081526020016000151581525090565b508054612923906136a5565b6000825580601f106129355750612954565b601f01602090049060005260206000209081019061295391906129d1565b5b50565b508054600082559060005260206000209081019061297591906129ee565b50565b8280548282559060005260206000209081019282156129c0579160200282015b828111156129bf5782518290816129af9190613a89565b5091602001919060010190612998565b5b5090506129cd91906129ee565b5090565b5b808211156129ea5760008160009055506001016129d2565b5090565b5b80821115612a0e5760008181612a059190612917565b506001016129ef565b5090565b6000604051905090565b600080fd5b600080fd5b600073ffffffffffffffffffffffffffffffffffffffff82169050919050565b6000612a5182612a26565b9050919050565b612a6181612a46565b8114612a6c57600080fd5b50565b600081359050612a7e81612a58565b92915050565b6000819050919050565b612a9781612a84565b8114612aa257600080fd5b50565b600081359050612ab481612a8e565b92915050565b60008060408385031215612ad157612ad0612a1c565b5b6000612adf85828601612a6f565b9250506020612af085828601612aa5565b9150509250929050565b600060208284031215612b1057612b0f612a1c565b5b6000612b1e84828501612a6f565b91505092915050565b600081519050919050565b600082825260208201905092915050565b6000819050602082019050919050565b600063ffffffff82169050919050565b612b6c81612b53565b82525050565b600081519050919050565b600082825260208201905092915050565b60005b83811015612bac578082015181840152602081019050612b91565b60008484015250505050565b6000601f19601f8301169050919050565b6000612bd482612b72565b612bde8185612b7d565b9350612bee818560208601612b8e565b612bf781612bb8565b840191505092915050565b600081519050919050565b600082825260208201905092915050565b6000819050602082019050919050565b6000612c3a8383612bc9565b905092915050565b6000602082019050919050565b6000612c5a82612c02565b612c648185612c0d565b935083602082028501612c7685612c1e565b8060005b85811015612cb25784840389528151612c938582612c2e565b9450612c9e83612c42565b925060208a01995050600181019050612c7a565b50829750879550505050505092915050565b60008115159050919050565b612cd981612cc4565b82525050565b600061014083016000830151612cf86000860182612b63565b506020830151612d0b6020860182612b63565b506040830151612d1e6040860182612b63565b506060830151612d316060860182612b63565b5060808301518482036080860152612d498282612bc9565b91505060a083015184820360a0860152612d638282612bc9565b91505060c083015184820360c0860152612d7d8282612bc9565b91505060e083015184820360e0860152612d978282612bc9565b915050610100830151848203610100860152612db38282612c4f565b915050610120830151612dca610120860182612cd0565b508091505092915050565b6000612de18383612cdf565b905092915050565b6000602082019050919050565b6000612e0182612b27565b612e0b8185612b32565b935083602082028501612e1d85612b43565b8060005b85811015612e595784840389528151612e3a8582612dd5565b9450612e4583612de9565b925060208a01995050600181019050612e21565b50829750879550505050505092915050565b60006020820190508181036000830152612e858184612df6565b905092915050565b600080600060608486031215612ea657612ea5612a1c565b5b6000612eb486828701612a6f565b9350506020612ec586828701612a6f565b9250506040612ed686828701612aa5565b9150509250925092565b612ee981612b53565b8114612ef457600080fd5b50565b600081359050612f0681612ee0565b92915050565b600060208284031215612f2257612f21612a1c565b5b6000612f3084828501612ef7565b91505092915050565b612f4281612a46565b82525050565b6000602082019050612f5d6000830184612f39565b92915050565b600060208284031215612f7957612f78612a1c565b5b6000612f8784828501612aa5565b91505092915050565b600061014083016000830151612fa96000860182612b63565b506020830151612fbc6020860182612b63565b506040830151612fcf6040860182612b63565b506060830151612fe26060860182612b63565b5060808301518482036080860152612ffa8282612bc9565b91505060a083015184820360a08601526130148282612bc9565b91505060c083015184820360c086015261302e8282612bc9565b91505060e083015184820360e08601526130488282612bc9565b9150506101008301518482036101008601526130648282612c4f565b91505061012083015161307b610120860182612cd0565b508091505092915050565b600060208201905081810360008301526130a08184612f90565b905092915050565b6130b181612a84565b82525050565b60006020820190506130cc60008301846130a8565b92915050565b600080604083850312156130e9576130e8612a1c565b5b60006130f785828601612aa5565b925050602061310885828601612ef7565b9150509250929050565b61311b81612cc4565b82525050565b60006020820190506131366000830184613112565b92915050565b600080fd5b600080fd5b7f4e487b7100000000000000000000000000000000000000000000000000000000600052604160045260246000fd5b61317e82612bb8565b810181811067ffffffffffffffff8211171561319d5761319c613146565b5b80604052505050565b60006131b0612a12565b90506131bc8282613175565b919050565b600067ffffffffffffffff8211156131dc576131db613146565b5b6131e582612bb8565b9050602081019050919050565b82818337600083830152505050565b600061321461320f846131c1565b6131a6565b9050828152602081018484840111156132305761322f613141565b5b61323b8482856131f2565b509392505050565b600082601f8301126132585761325761313c565b5b8135613268848260208601613201565b91505092915050565b600067ffffffffffffffff82111561328c5761328b613146565b5b602082029050602081019050919050565b600080fd5b60006132b56132b084613271565b6131a6565b905080838252602082019050602084028301858111156132d8576132d761329d565b5b835b8181101561331f57803567ffffffffffffffff8111156132fd576132fc61313c565b5b80860161330a8982613243565b855260208501945050506020810190506132da565b5050509392505050565b600082601f83011261333e5761333d61313c565b5b813561334e8482602086016132a2565b91505092915050565b61336081612cc4565b811461336b57600080fd5b50565b60008135905061337d81613357565b92915050565b60008060008060008060008060006101208a8c0312156133a6576133a5612a1c565b5b60006133b48c828d01612ef7565b99505060206133c58c828d01612ef7565b98505060406133d68c828d01612ef7565b97505060608a013567ffffffffffffffff8111156133f7576133f6612a21565b5b6134038c828d01613243565b96505060808a013567ffffffffffffffff81111561342457613423612a21565b5b6134308c828d01613243565b95505060a08a013567ffffffffffffffff81111561345157613450612a21565b5b61345d8c828d01613243565b94505060c08a013567ffffffffffffffff81111561347e5761347d612a21565b5b61348a8c828d01613243565b93505060e08a013567ffffffffffffffff8111156134ab576134aa612a21565b5b6134b78c828d01613329565b9250506101006134c98c828d0161336e565b9150509295985092959850929598565b6134e281612b53565b82525050565b600082825260208201905092915050565b600061350482612b72565b61350e81856134e8565b935061351e818560208601612b8e565b61352781612bb8565b840191505092915050565b600061012082019050613548600083018c6134d9565b613555602083018b6134d9565b613562604083018a6134d9565b61356f60608301896134d9565b818103608083015261358181886134f9565b905081810360a083015261359581876134f9565b905081810360c08301526135a981866134f9565b905081810360e08301526135bd81856134f9565b90506135cd610100830184613112565b9a9950505050505050505050565b7f546861742773206e6f7420796f20636172000000000000000000000000000000600082015250565b60006136116011836134e8565b915061361c826135db565b602082019050919050565b6000602082019050818103600083015261364081613604565b9050919050565b7f4e487b7100000000000000000000000000000000000000000000000000000000600052603260045260246000fd5b7f4e487b7100000000000000000000000000000000000000000000000000000000600052602260045260246000fd5b600060028204905060018216806136bd57607f821691505b6020821081036136d0576136cf613676565b5b50919050565b7f4e487b7100000000000000000000000000000000000000000000000000000000600052601160045260246000fd5b600061371082612a84565b91507fffffffffffffffffffffffffffffffffffffffffffffffffffffffffffffffff8203613742576137416136d6565b5b600182019050919050565b7f5468697320636172206973206e6f7420666f722073616c650000000000000000600082015250565b60006137836018836134e8565b915061378e8261374d565b602082019050919050565b600060208201905081810360008301526137b281613776565b9050919050565b7f596f7520616c7265616479206f776e20746869732063617220736f20796f752060008201527f63616e206e6f7420627579206974000000000000000000000000000000000000602082015250565b6000613815602e836134e8565b9150613820826137b9565b604082019050919050565b6000602082019050818103600083015261384481613808565b9050919050565b7f546865206e6577206d696c616765206d75737420626520686967686572204f5560008201527f4c45480000000000000000000000000000000000000000000000000000000000602082015250565b60006138a76023836134e8565b91506138b28261384b565b604082019050919050565b600060208201905081810360008301526138d68161389a565b9050919050565b60008190508160005260206000209050919050565b60006020601f8301049050919050565b600082821b905092915050565b60006008830261393f7fffffffffffffffffffffffffffffffffffffffffffffffffffffffffffffffff82613902565b6139498683613902565b95508019841693508086168417925050509392505050565b6000819050919050565b600061398661398161397c84612a84565b613961565b612a84565b9050919050565b6000819050919050565b6139a08361396b565b6139b46139ac8261398d565b84845461390f565b825550505050565b600090565b6139c96139bc565b6139d4818484613997565b505050565b5b818110156139f8576139ed6000826139c1565b6001810190506139da565b5050565b601f821115613a3d57613a0e816138dd565b613a17846138f2565b81016020851015613a26578190505b613a3a613a32856138f2565b8301826139d9565b50505b505050565b600082821c905092915050565b6000613a6060001984600802613a42565b1980831691505092915050565b6000613a798383613a4f565b9150826002028217905092915050565b613a9282612b72565b67ffffffffffffffff811115613aab57613aaa613146565b5b613ab582546136a5565b613ac08282856139fc565b600060209050601f831160018114613af35760008415613ae1578287015190505b613aeb8582613a6d565b865550613b53565b601f198416613b01866138dd565b60005b82811015613b2957848901518255600182019150602085019450602081019050613b04565b86831015613b465784890151613b42601f891682613a4f565b8355505b6001600288020188555050505b505050505050565b60006040820190508181036000830152613b7581856134f9565b9050613b8460208301846130a8565b9392505050565b6000613b9682612a84565b9150613ba183612a84565b9250828201905080821115613bb957613bb86136d6565b5b92915050565b7f4e487b7100000000000000000000000000000000000000000000000000000000600052600160045260246000fd5b6000613bf982612a84565b9150613c0483612a84565b9250828203905081811115613c1c57613c1b6136d6565b5b9291505056fea2646970667358221220c136b07a8af7eef76772c870fe6c2762f5c967fa092a9125186aa13d8099fdfe64736f6c63430008120033",
  "linkReferences": {},
  "deployedLinkReferences": {}
}