{
  "_format": "hh-sol-artifact-1",
  "contractName": "CarOwnership",
  "sourceName": "contracts/carownership.sol",
  "abi": [
    {
      "anonymous": false,
      "inputs": [
        {
          "indexed": true,
          "internalType": "address",
          "name": "_owner",
          "type": "address"
        },
        {
          "indexed": true,
          "internalType": "address",
          "name": "_approved",
          "type": "address"
        },
        {
          "indexed": true,
          "internalType": "uint256",
          "name": "_tokenId",
          "type": "uint256"
        }
      ],
      "name": "Approval",
      "type": "event"
    },
    {
      "anonymous": false,
      "inputs": [
        {
          "components": [
            {
              "internalType": "uint32",
              "name": "id",
              "type": "uint32"
            },
            {
              "internalType": "uint32",
              "name": "chassisNumber",
              "type": "uint32"
            },
            {
              "internalType": "uint32",
              "name": "mileage",
              "type": "uint32"
            },
            {
              "internalType": "uint32",
              "name": "price",
              "type": "uint32"
            },
            {
              "internalType": "string",
              "name": "licensePlate",
              "type": "string"
            },
            {
              "internalType": "string",
              "name": "brand",
              "type": "string"
            },
            {
              "internalType": "string",
              "name": "carType",
              "type": "string"
            },
            {
              "internalType": "string",
              "name": "colour",
              "type": "string"
            },
            {
              "internalType": "string[]",
              "name": "pictures",
              "type": "string[]"
            },
            {
              "internalType": "bool",
              "name": "isForSale",
              "type": "bool"
            }
          ],
          "indexed": false,
          "internalType": "struct CarDetails.Car",
          "name": "car",
          "type": "tuple"
        }
      ],
      "name": "NewCar",
      "type": "event"
    },
    {
      "anonymous": false,
      "inputs": [
        {
          "indexed": true,
          "internalType": "address",
          "name": "previousOwner",
          "type": "address"
        },
        {
          "indexed": true,
          "internalType": "address",
          "name": "newOwner",
          "type": "address"
        }
      ],
      "name": "OwnershipTransferred",
      "type": "event"
    },
    {
      "anonymous": false,
      "inputs": [
        {
          "indexed": true,
          "internalType": "address",
          "name": "_from",
          "type": "address"
        },
        {
          "indexed": true,
          "internalType": "address",
          "name": "_to",
          "type": "address"
        },
        {
          "indexed": true,
          "internalType": "uint256",
          "name": "_tokenId",
          "type": "uint256"
        }
      ],
      "name": "Transfer",
      "type": "event"
    },
    {
      "inputs": [],
      "name": "addEtherToYourWallet",
      "outputs": [],
      "stateMutability": "payable",
      "type": "function"
    },
    {
      "inputs": [
        {
          "internalType": "address",
          "name": "_approved",
          "type": "address"
        },
        {
          "internalType": "uint256",
          "name": "_tokenId",
          "type": "uint256"
        }
      ],
      "name": "approve",
      "outputs": [],
      "stateMutability": "payable",
      "type": "function"
    },
    {
      "inputs": [
        {
          "internalType": "address",
          "name": "_owner",
          "type": "address"
        }
      ],
      "name": "balanceOf",
      "outputs": [
        {
          "internalType": "uint256",
          "name": "",
          "type": "uint256"
        }
      ],
      "stateMutability": "view",
      "type": "function"
    },
    {
      "inputs": [
        {
          "internalType": "uint32",
          "name": "",
          "type": "uint32"
        }
      ],
      "name": "carToOwner",
      "outputs": [
        {
          "internalType": "address",
          "name": "",
          "type": "address"
        }
      ],
      "stateMutability": "view",
      "type": "function"
    },
    {
      "inputs": [
        {
          "internalType": "uint256",
          "name": "",
          "type": "uint256"
        }
      ],
      "name": "cars",
      "outputs": [
        {
          "internalType": "uint32",
          "name": "id",
          "type": "uint32"
        },
        {
          "internalType": "uint32",
          "name": "chassisNumber",
          "type": "uint32"
        },
        {
          "internalType": "uint32",
          "name": "mileage",
          "type": "uint32"
        },
        {
          "internalType": "uint32",
          "name": "price",
          "type": "uint32"
        },
        {
          "internalType": "string",
          "name": "licensePlate",
          "type": "string"
        },
        {
          "internalType": "string",
          "name": "brand",
          "type": "string"
        },
        {
          "internalType": "string",
          "name": "carType",
          "type": "string"
        },
        {
          "internalType": "string",
          "name": "colour",
          "type": "string"
        },
        {
          "internalType": "bool",
          "name": "isForSale",
          "type": "bool"
        }
      ],
      "stateMutability": "view",
      "type": "function"
    },
    {
      "inputs": [
        {
          "internalType": "uint32",
          "name": "_chassisNumber",
          "type": "uint32"
        },
        {
          "internalType": "uint32",
          "name": "_mileage",
          "type": "uint32"
        },
        {
          "internalType": "uint32",
          "name": "_price",
          "type": "uint32"
        },
        {
          "internalType": "string",
          "name": "_licensePlate",
          "type": "string"
        },
        {
          "internalType": "string",
          "name": "_brand",
          "type": "string"
        },
        {
          "internalType": "string",
          "name": "_carType",
          "type": "string"
        },
        {
          "internalType": "string",
          "name": "_colour",
          "type": "string"
        },
        {
          "internalType": "string[]",
          "name": "_pictures",
          "type": "string[]"
        },
        {
          "internalType": "bool",
          "name": "_isForSale",
          "type": "bool"
        }
      ],
      "name": "createCar",
      "outputs": [],
      "stateMutability": "nonpayable",
      "type": "function"
    },
    {
      "inputs": [
        {
          "internalType": "uint32",
          "name": "_carId",
          "type": "uint32"
        }
      ],
      "name": "deleteCar",
      "outputs": [],
      "stateMutability": "nonpayable",
      "type": "function"
    },
    {
      "inputs": [
        {
          "internalType": "address",
          "name": "_owner",
          "type": "address"
        }
      ],
      "name": "getAllCarsForOwner",
      "outputs": [
        {
          "components": [
            {
              "internalType": "uint32",
              "name": "id",
              "type": "uint32"
            },
            {
              "internalType": "uint32",
              "name": "chassisNumber",
              "type": "uint32"
            },
            {
              "internalType": "uint32",
              "name": "mileage",
              "type": "uint32"
            },
            {
              "internalType": "uint32",
              "name": "price",
              "type": "uint32"
            },
            {
              "internalType": "string",
              "name": "licensePlate",
              "type": "string"
            },
            {
              "internalType": "string",
              "name": "brand",
              "type": "string"
            },
            {
              "internalType": "string",
              "name": "carType",
              "type": "string"
            },
            {
              "internalType": "string",
              "name": "colour",
              "type": "string"
            },
            {
              "internalType": "string[]",
              "name": "pictures",
              "type": "string[]"
            },
            {
              "internalType": "bool",
              "name": "isForSale",
              "type": "bool"
            }
          ],
          "internalType": "struct CarDetails.Car[]",
          "name": "",
          "type": "tuple[]"
        }
      ],
      "stateMutability": "view",
      "type": "function"
    },
    {
      "inputs": [
        {
          "internalType": "uint256",
          "name": "_carId",
          "type": "uint256"
        }
      ],
      "name": "getCar",
      "outputs": [
        {
          "components": [
            {
              "internalType": "uint32",
              "name": "id",
              "type": "uint32"
            },
            {
              "internalType": "uint32",
              "name": "chassisNumber",
              "type": "uint32"
            },
            {
              "internalType": "uint32",
              "name": "mileage",
              "type": "uint32"
            },
            {
              "internalType": "uint32",
              "name": "price",
              "type": "uint32"
            },
            {
              "internalType": "string",
              "name": "licensePlate",
              "type": "string"
            },
            {
              "internalType": "string",
              "name": "brand",
              "type": "string"
            },
            {
              "internalType": "string",
              "name": "carType",
              "type": "string"
            },
            {
              "internalType": "string",
              "name": "colour",
              "type": "string"
            },
            {
              "internalType": "string[]",
              "name": "pictures",
              "type": "string[]"
            },
            {
              "internalType": "bool",
              "name": "isForSale",
              "type": "bool"
            }
          ],
          "internalType": "struct CarDetails.Car",
          "name": "",
          "type": "tuple"
        }
      ],
      "stateMutability": "view",
      "type": "function"
    },
    {
      "inputs": [
        {
          "internalType": "uint32",
          "name": "_carId",
          "type": "uint32"
        }
      ],
      "name": "getCarOwner",
      "outputs": [
        {
          "internalType": "address",
          "name": "ownerAddress",
          "type": "address"
        }
      ],
      "stateMutability": "view",
      "type": "function"
    },
    {
      "inputs": [
        {
          "internalType": "address",
          "name": "_buyer",
          "type": "address"
        }
      ],
      "name": "getCarsForSale",
      "outputs": [
        {
          "components": [
            {
              "internalType": "uint32",
              "name": "id",
              "type": "uint32"
            },
            {
              "internalType": "uint32",
              "name": "chassisNumber",
              "type": "uint32"
            },
            {
              "internalType": "uint32",
              "name": "mileage",
              "type": "uint32"
            },
            {
              "internalType": "uint32",
              "name": "price",
              "type": "uint32"
            },
            {
              "internalType": "string",
              "name": "licensePlate",
              "type": "string"
            },
            {
              "internalType": "string",
              "name": "brand",
              "type": "string"
            },
            {
              "internalType": "string",
              "name": "carType",
              "type": "string"
            },
            {
              "internalType": "string",
              "name": "colour",
              "type": "string"
            },
            {
              "internalType": "string[]",
              "name": "pictures",
              "type": "string[]"
            },
            {
              "internalType": "bool",
              "name": "isForSale",
              "type": "bool"
            }
          ],
          "internalType": "struct CarDetails.Car[]",
          "name": "",
          "type": "tuple[]"
        }
      ],
      "stateMutability": "view",
      "type": "function"
    },
    {
      "inputs": [
        {
          "internalType": "address",
          "name": "_address",
          "type": "address"
        }
      ],
      "name": "getWalletBalance",
      "outputs": [
        {
          "internalType": "uint32",
          "name": "",
          "type": "uint32"
        }
      ],
      "stateMutability": "view",
      "type": "function"
    },
    {
      "inputs": [],
      "name": "isOwner",
      "outputs": [
        {
          "internalType": "bool",
          "name": "",
          "type": "bool"
        }
      ],
      "stateMutability": "view",
      "type": "function"
    },
    {
      "inputs": [],
      "name": "owner",
      "outputs": [
        {
          "internalType": "address",
          "name": "",
          "type": "address"
        }
      ],
      "stateMutability": "view",
      "type": "function"
    },
    {
      "inputs": [
        {
          "internalType": "uint256",
          "name": "_tokenId",
          "type": "uint256"
        }
      ],
      "name": "ownerOf",
      "outputs": [
        {
          "internalType": "address",
          "name": "",
          "type": "address"
        }
      ],
      "stateMutability": "view",
      "type": "function"
    },
    {
      "inputs": [],
      "name": "renounceOwnership",
      "outputs": [],
      "stateMutability": "nonpayable",
      "type": "function"
    },
    {
      "inputs": [
        {
          "internalType": "uint256",
          "name": "_carId",
          "type": "uint256"
        }
      ],
      "name": "toggleSaleState",
      "outputs": [],
      "stateMutability": "nonpayable",
      "type": "function"
    },
    {
      "inputs": [
        {
          "internalType": "address",
          "name": "_from",
          "type": "address"
        },
        {
          "internalType": "address",
          "name": "_to",
          "type": "address"
        },
        {
          "internalType": "uint256",
          "name": "_tokenId",
          "type": "uint256"
        }
      ],
      "name": "transferFrom",
      "outputs": [],
      "stateMutability": "payable",
      "type": "function"
    },
    {
      "inputs": [
        {
          "internalType": "address",
          "name": "newOwner",
          "type": "address"
        }
      ],
      "name": "transferOwnership",
      "outputs": [],
      "stateMutability": "nonpayable",
      "type": "function"
    },
    {
      "inputs": [
        {
          "internalType": "uint32",
          "name": "_carId",
          "type": "uint32"
        },
        {
          "internalType": "uint32",
          "name": "_newMileage",
          "type": "uint32"
        }
      ],
      "name": "updateMileage",
      "outputs": [],
      "stateMutability": "nonpayable",
      "type": "function"
    },
    {
      "inputs": [
        {
          "internalType": "uint32",
          "name": "_carId",
          "type": "uint32"
        },
        {
          "internalType": "uint32",
          "name": "_newPrice",
          "type": "uint32"
        }
      ],
      "name": "updatePrice",
      "outputs": [],
      "stateMutability": "nonpayable",
      "type": "function"
    },
    {
      "inputs": [],
      "name": "withdrawEtherFromWallet",
      "outputs": [],
      "stateMutability": "payable",
      "type": "function"
    }
  ],
  "bytecode": "0x608060405234801561001057600080fd5b50336000806101000a81548173ffffffffffffffffffffffffffffffffffffffff021916908373ffffffffffffffffffffffffffffffffffffffff16021790555060008054906101000a900473ffffffffffffffffffffffffffffffffffffffff1673ffffffffffffffffffffffffffffffffffffffff16600073ffffffffffffffffffffffffffffffffffffffff167f8be0079c531659141344cd1fd0a4f28419497f9722a3daafe3b4186f6b6457e060405160405180910390a36145ba806100db6000396000f3fe6080604052600436106101355760003560e01c806372e3b7ed116100ab578063adb71f511161006f578063adb71f511461040f578063b275decc14610419578063d4d942ec14610442578063ed8ec1941461046b578063f2fde38b146104a8578063f7746e36146104d157610135565b806372e3b7ed146103165780638da5cb5b1461033f5780638f32d59b1461036a57806391a20776146103955780639ab656aa146103d257610135565b80635e8be190116100fd5780635e8be19014610215578063628dd13e146102525780636352211e1461027b5780636ed2630e146102b857806370a08231146102c2578063715018a6146102ff57610135565b8063095ea7b31461013a5780631f5005cb146101565780632286c0c11461017f57806323b872dd146101bc57806339c98a1b146101d8575b600080fd5b610154600480360381019061014f91906130e8565b610516565b005b34801561016257600080fd5b5061017d60048036038101906101789190613164565b610676565b005b34801561018b57600080fd5b506101a660048036038101906101a191906131a4565b6107fc565b6040516101b39190613505565b60405180910390f35b6101d660048036038101906101d19190613527565b610d2e565b005b3480156101e457600080fd5b506101ff60048036038101906101fa919061357a565b611095565b60405161020c91906135b6565b60405180910390f35b34801561022157600080fd5b5061023c600480360381019061023791906135d1565b6110de565b60405161024991906136f4565b60405180910390f35b34801561025e57600080fd5b50610279600480360381019061027491906135d1565b6114ef565b005b34801561028757600080fd5b506102a2600480360381019061029d91906135d1565b611573565b6040516102af91906135b6565b60405180910390f35b6102c06115bc565b005b3480156102ce57600080fd5b506102e960048036038101906102e491906131a4565b61176e565b6040516102f69190613725565b60405180910390f35b34801561030b57600080fd5b506103146117b7565b005b34801561032257600080fd5b5061033d60048036038101906103389190613164565b611886565b005b34801561034b57600080fd5b50610354611983565b60405161036191906135b6565b60405180910390f35b34801561037657600080fd5b5061037f6119ac565b60405161038c919061374f565b60405180910390f35b3480156103a157600080fd5b506103bc60048036038101906103b7919061357a565b611a03565b6040516103c991906135b6565b60405180910390f35b3480156103de57600080fd5b506103f960048036038101906103f491906131a4565b611a36565b6040516104069190613505565b60405180910390f35b610417611fa5565b005b34801561042557600080fd5b50610440600480360381019061043b919061357a565b61206c565b005b34801561044e57600080fd5b50610469600480360381019061046491906139b1565b612270565b005b34801561047757600080fd5b50610492600480360381019061048d91906131a4565b61261d565b60405161049f9190613b16565b60405180910390f35b3480156104b457600080fd5b506104cf60048036038101906104ca91906131a4565b612676565b005b3480156104dd57600080fd5b506104f860048036038101906104f391906135d1565b612693565b60405161050d99989796959493929190613b7b565b60405180910390f35b80600260008263ffffffff1663ffffffff16815260200190815260200160002060009054906101000a900473ffffffffffffffffffffffffffffffffffffffff1673ffffffffffffffffffffffffffffffffffffffff163373ffffffffffffffffffffffffffffffffffffffff16146105c4576040517f08c379a00000000000000000000000000000000000000000000000000000000081526004016105bb90613c70565b60405180910390fd5b826004600084815260200190815260200160002060006101000a81548173ffffffffffffffffffffffffffffffffffffffff021916908373ffffffffffffffffffffffffffffffffffffffff160217905550818373ffffffffffffffffffffffffffffffffffffffff163373ffffffffffffffffffffffffffffffffffffffff167f8c5be1e5ebec7d5bd14f71427d1e84f3dd0314c0f7b2291e5b200ac8c7c3b92560405160405180910390a4505050565b81600260008263ffffffff1663ffffffff16815260200190815260200160002060009054906101000a900473ffffffffffffffffffffffffffffffffffffffff1673ffffffffffffffffffffffffffffffffffffffff163373ffffffffffffffffffffffffffffffffffffffff1614610724576040517f08c379a000000000000000000000000000000000000000000000000000000000815260040161071b90613c70565b60405180910390fd5b60018363ffffffff168154811061073e5761073d613c90565b5b906000526020600020906007020160000160089054906101000a900463ffffffff1663ffffffff168263ffffffff16116107ad576040517f08c379a00000000000000000000000000000000000000000000000000000000081526004016107a490613d31565b60405180910390fd5b8160018463ffffffff16815481106107c8576107c7613c90565b5b906000526020600020906007020160000160086101000a81548163ffffffff021916908363ffffffff160217905550505050565b606060006108098361295e565b67ffffffffffffffff81111561082257610821613774565b5b60405190808252806020026020018201604052801561085b57816020015b610848612ed8565b8152602001906001900390816108405790505b5090506000805b600180549050811015610d23578473ffffffffffffffffffffffffffffffffffffffff16600260008363ffffffff1663ffffffff16815260200190815260200160002060009054906101000a900473ffffffffffffffffffffffffffffffffffffffff1673ffffffffffffffffffffffffffffffffffffffff1603610d1057600181815481106108f5576108f4613c90565b5b9060005260206000209060070201604051806101400160405290816000820160009054906101000a900463ffffffff1663ffffffff1663ffffffff1681526020016000820160049054906101000a900463ffffffff1663ffffffff1663ffffffff1681526020016000820160089054906101000a900463ffffffff1663ffffffff1663ffffffff16815260200160008201600c9054906101000a900463ffffffff1663ffffffff1663ffffffff1681526020016001820180546109b790613d80565b80601f01602080910402602001604051908101604052809291908181526020018280546109e390613d80565b8015610a305780601f10610a0557610100808354040283529160200191610a30565b820191906000526020600020905b815481529060010190602001808311610a1357829003601f168201915b50505050508152602001600282018054610a4990613d80565b80601f0160208091040260200160405190810160405280929190818152602001828054610a7590613d80565b8015610ac25780601f10610a9757610100808354040283529160200191610ac2565b820191906000526020600020905b815481529060010190602001808311610aa557829003601f168201915b50505050508152602001600382018054610adb90613d80565b80601f0160208091040260200160405190810160405280929190818152602001828054610b0790613d80565b8015610b545780601f10610b2957610100808354040283529160200191610b54565b820191906000526020600020905b815481529060010190602001808311610b3757829003601f168201915b50505050508152602001600482018054610b6d90613d80565b80601f0160208091040260200160405190810160405280929190818152602001828054610b9990613d80565b8015610be65780601f10610bbb57610100808354040283529160200191610be6565b820191906000526020600020905b815481529060010190602001808311610bc957829003601f168201915b5050505050815260200160058201805480602002602001604051908101604052809291908181526020016000905b82821015610cc0578382906000526020600020018054610c3390613d80565b80601f0160208091040260200160405190810160405280929190818152602001828054610c5f90613d80565b8015610cac5780601f10610c8157610100808354040283529160200191610cac565b820191906000526020600020905b815481529060010190602001808311610c8f57829003601f168201915b505050505081526020019060010190610c14565b5050505081526020016006820160009054906101000a900460ff161515151581525050838381518110610cf657610cf5613c90565b5b60200260200101819052508180610d0c90613de0565b9250505b8080610d1b90613de0565b915050610862565b508192505050919050565b60018181548110610d4257610d41613c90565b5b906000526020600020906007020160060160009054906101000a900460ff16610da0576040517f08c379a0000000000000000000000000000000000000000000000000000000008152600401610d9790613e74565b60405180910390fd5b3373ffffffffffffffffffffffffffffffffffffffff16600260008363ffffffff1663ffffffff16815260200190815260200160002060009054906101000a900473ffffffffffffffffffffffffffffffffffffffff1673ffffffffffffffffffffffffffffffffffffffff1603610e4d576040517f08c379a0000000000000000000000000000000000000000000000000000000008152600401610e4490613f06565b60405180910390fd5b600060018263ffffffff1681548110610e6957610e68613c90565b5b9060005260206000209060070201600001600c9054906101000a900463ffffffff16905060008163ffffffff1611610ed6576040517f08c379a0000000000000000000000000000000000000000000000000000000008152600401610ecd90613f72565b60405180910390fd5b60008473ffffffffffffffffffffffffffffffffffffffff16670de0b6b3a76400008363ffffffff16610f099190613fa6565b67ffffffffffffffff16604051610f1f90614014565b60006040518083038185875af1925050503d8060008114610f5c576040519150601f19603f3d011682016040523d82523d6000602084013e610f61565b606091505b5050905080610fa5576040517f08c379a0000000000000000000000000000000000000000000000000000000008152600401610f9c90614075565b60405180910390fd5b611026670de0b6b3a76400008363ffffffff16610fc29190613fa6565b600560003373ffffffffffffffffffffffffffffffffffffffff1673ffffffffffffffffffffffffffffffffffffffff16815260200190815260200160002060009054906101000a900463ffffffff1663ffffffff16612a4890919063ffffffff16565b600560003373ffffffffffffffffffffffffffffffffffffffff1673ffffffffffffffffffffffffffffffffffffffff16815260200190815260200160002060006101000a81548163ffffffff021916908363ffffffff16021790555061108e858585612a7b565b5050505050565b6000600260008363ffffffff1663ffffffff16815260200190815260200160002060009054906101000a900473ffffffffffffffffffffffffffffffffffffffff169050919050565b6110e6612ed8565b600182815481106110fa576110f9613c90565b5b9060005260206000209060070201604051806101400160405290816000820160009054906101000a900463ffffffff1663ffffffff1663ffffffff1681526020016000820160049054906101000a900463ffffffff1663ffffffff1663ffffffff1681526020016000820160089054906101000a900463ffffffff1663ffffffff1663ffffffff16815260200160008201600c9054906101000a900463ffffffff1663ffffffff1663ffffffff1681526020016001820180546111bc90613d80565b80601f01602080910402602001604051908101604052809291908181526020018280546111e890613d80565b80156112355780601f1061120a57610100808354040283529160200191611235565b820191906000526020600020905b81548152906001019060200180831161121857829003601f168201915b5050505050815260200160028201805461124e90613d80565b80601f016020809104026020016040519081016040528092919081815260200182805461127a90613d80565b80156112c75780601f1061129c576101008083540402835291602001916112c7565b820191906000526020600020905b8154815290600101906020018083116112aa57829003601f168201915b505050505081526020016003820180546112e090613d80565b80601f016020809104026020016040519081016040528092919081815260200182805461130c90613d80565b80156113595780601f1061132e57610100808354040283529160200191611359565b820191906000526020600020905b81548152906001019060200180831161133c57829003601f168201915b5050505050815260200160048201805461137290613d80565b80601f016020809104026020016040519081016040528092919081815260200182805461139e90613d80565b80156113eb5780601f106113c0576101008083540402835291602001916113eb565b820191906000526020600020905b8154815290600101906020018083116113ce57829003601f168201915b5050505050815260200160058201805480602002602001604051908101604052809291908181526020016000905b828210156114c557838290600052602060002001805461143890613d80565b80601f016020809104026020016040519081016040528092919081815260200182805461146490613d80565b80156114b15780601f10611486576101008083540402835291602001916114b1565b820191906000526020600020905b81548152906001019060200180831161149457829003601f168201915b505050505081526020019060010190611419565b5050505081526020016006820160009054906101000a900460ff1615151515815250509050919050565b6114f76119ac565b61150057600080fd5b6001818154811061151457611513613c90565b5b906000526020600020906007020160060160009054906101000a900460ff16156001828154811061154857611547613c90565b5b906000526020600020906007020160060160006101000a81548160ff02191690831515021790555050565b6000600260008363ffffffff1663ffffffff16815260200190815260200160002060009054906101000a900473ffffffffffffffffffffffffffffffffffffffff169050919050565b6000600560003373ffffffffffffffffffffffffffffffffffffffff1673ffffffffffffffffffffffffffffffffffffffff16815260200190815260200160002060009054906101000a900463ffffffff16905060008163ffffffff1611611659576040517f08c379a0000000000000000000000000000000000000000000000000000000008152600401611650906140e1565b60405180910390fd5b6000600560003373ffffffffffffffffffffffffffffffffffffffff1673ffffffffffffffffffffffffffffffffffffffff16815260200190815260200160002060006101000a81548163ffffffff021916908363ffffffff16021790555060003373ffffffffffffffffffffffffffffffffffffffff168263ffffffff166040516116e490614014565b60006040518083038185875af1925050503d8060008114611721576040519150601f19603f3d011682016040523d82523d6000602084013e611726565b606091505b505090508061176a576040517f08c379a00000000000000000000000000000000000000000000000000000000081526004016117619061414d565b60405180910390fd5b5050565b6000600360008373ffffffffffffffffffffffffffffffffffffffff1673ffffffffffffffffffffffffffffffffffffffff168152602001908152602001600020549050919050565b6117bf6119ac565b6117c857600080fd5b600073ffffffffffffffffffffffffffffffffffffffff1660008054906101000a900473ffffffffffffffffffffffffffffffffffffffff1673ffffffffffffffffffffffffffffffffffffffff167f8be0079c531659141344cd1fd0a4f28419497f9722a3daafe3b4186f6b6457e060405160405180910390a360008060006101000a81548173ffffffffffffffffffffffffffffffffffffffff021916908373ffffffffffffffffffffffffffffffffffffffff160217905550565b81600260008263ffffffff1663ffffffff16815260200190815260200160002060009054906101000a900473ffffffffffffffffffffffffffffffffffffffff1673ffffffffffffffffffffffffffffffffffffffff163373ffffffffffffffffffffffffffffffffffffffff1614611934576040517f08c379a000000000000000000000000000000000000000000000000000000000815260040161192b90613c70565b60405180910390fd5b8160018463ffffffff168154811061194f5761194e613c90565b5b9060005260206000209060070201600001600c6101000a81548163ffffffff021916908363ffffffff160217905550505050565b60008060009054906101000a900473ffffffffffffffffffffffffffffffffffffffff16905090565b60008060009054906101000a900473ffffffffffffffffffffffffffffffffffffffff1673ffffffffffffffffffffffffffffffffffffffff163373ffffffffffffffffffffffffffffffffffffffff1614905090565b60026020528060005260406000206000915054906101000a900473ffffffffffffffffffffffffffffffffffffffff1681565b60606000611a4383612c65565b67ffffffffffffffff811115611a5c57611a5b613774565b5b604051908082528060200260200182016040528015611a9557816020015b611a82612ed8565b815260200190600190039081611a7a5790505b5090506000805b600180549050811015611f9a578473ffffffffffffffffffffffffffffffffffffffff16600260008363ffffffff1663ffffffff16815260200190815260200160002060009054906101000a900473ffffffffffffffffffffffffffffffffffffffff1673ffffffffffffffffffffffffffffffffffffffff1614158015611b53575060018181548110611b3357611b32613c90565b5b906000526020600020906007020160060160009054906101000a900460ff165b15611f875760018181548110611b6c57611b6b613c90565b5b9060005260206000209060070201604051806101400160405290816000820160009054906101000a900463ffffffff1663ffffffff1663ffffffff1681526020016000820160049054906101000a900463ffffffff1663ffffffff1663ffffffff1681526020016000820160089054906101000a900463ffffffff1663ffffffff1663ffffffff16815260200160008201600c9054906101000a900463ffffffff1663ffffffff1663ffffffff168152602001600182018054611c2e90613d80565b80601f0160208091040260200160405190810160405280929190818152602001828054611c5a90613d80565b8015611ca75780601f10611c7c57610100808354040283529160200191611ca7565b820191906000526020600020905b815481529060010190602001808311611c8a57829003601f168201915b50505050508152602001600282018054611cc090613d80565b80601f0160208091040260200160405190810160405280929190818152602001828054611cec90613d80565b8015611d395780601f10611d0e57610100808354040283529160200191611d39565b820191906000526020600020905b815481529060010190602001808311611d1c57829003601f168201915b50505050508152602001600382018054611d5290613d80565b80601f0160208091040260200160405190810160405280929190818152602001828054611d7e90613d80565b8015611dcb5780601f10611da057610100808354040283529160200191611dcb565b820191906000526020600020905b815481529060010190602001808311611dae57829003601f168201915b50505050508152602001600482018054611de490613d80565b80601f0160208091040260200160405190810160405280929190818152602001828054611e1090613d80565b8015611e5d5780601f10611e3257610100808354040283529160200191611e5d565b820191906000526020600020905b815481529060010190602001808311611e4057829003601f168201915b5050505050815260200160058201805480602002602001604051908101604052809291908181526020016000905b82821015611f37578382906000526020600020018054611eaa90613d80565b80601f0160208091040260200160405190810160405280929190818152602001828054611ed690613d80565b8015611f235780601f10611ef857610100808354040283529160200191611f23565b820191906000526020600020905b815481529060010190602001808311611f0657829003601f168201915b505050505081526020019060010190611e8b565b5050505081526020016006820160009054906101000a900460ff161515151581525050838381518110611f6d57611f6c613c90565b5b60200260200101819052508180611f8390613de0565b9250505b8080611f9290613de0565b915050611a9c565b508192505050919050565b61200d34600560003373ffffffffffffffffffffffffffffffffffffffff1673ffffffffffffffffffffffffffffffffffffffff16815260200190815260200160002060009054906101000a900463ffffffff1663ffffffff16612d5790919063ffffffff16565b600560003373ffffffffffffffffffffffffffffffffffffffff1673ffffffffffffffffffffffffffffffffffffffff16815260200190815260200160002060006101000a81548163ffffffff021916908363ffffffff160217905550565b80600260008263ffffffff1663ffffffff16815260200190815260200160002060009054906101000a900473ffffffffffffffffffffffffffffffffffffffff1673ffffffffffffffffffffffffffffffffffffffff163373ffffffffffffffffffffffffffffffffffffffff161461211a576040517f08c379a000000000000000000000000000000000000000000000000000000000815260040161211190613c70565b60405180910390fd5b60005b60018054905081101561226b578263ffffffff166001828154811061214557612144613c90565b5b906000526020600020906007020160000160009054906101000a900463ffffffff1663ffffffff1603612258576001818154811061218657612185613c90565b5b9060005260206000209060070201600080820160006101000a81549063ffffffff02191690556000820160046101000a81549063ffffffff02191690556000820160086101000a81549063ffffffff021916905560008201600c6101000a81549063ffffffff02191690556001820160006122019190612f45565b6002820160006122119190612f45565b6003820160006122219190612f45565b6004820160006122319190612f45565b6005820160006122419190612f85565b6006820160006101000a81549060ff021916905550505b808061226390613de0565b91505061211d565b505050565b600060405180610140016040528060018054905063ffffffff1681526020018b63ffffffff1681526020018a63ffffffff1681526020018963ffffffff168152602001888152602001878152602001868152602001858152602001848152602001831515815250905060008a63ffffffff16141580156122f7575060008963ffffffff1614155b801561230a575060008863ffffffff1614155b801561231857506000875114155b801561232657506000865114155b801561233457506000855114155b801561234257506000845114155b612381576040517f08c379a0000000000000000000000000000000000000000000000000000000008152600401612378906141df565b60405180910390fd5b600181908060018154018082558091505060019003906000526020600020906007020160009091909190915060008201518160000160006101000a81548163ffffffff021916908363ffffffff16021790555060208201518160000160046101000a81548163ffffffff021916908363ffffffff16021790555060408201518160000160086101000a81548163ffffffff021916908363ffffffff160217905550606082015181600001600c6101000a81548163ffffffff021916908363ffffffff160217905550608082015181600101908161245e91906143ab565b5060a082015181600201908161247491906143ab565b5060c082015181600301908161248a91906143ab565b5060e08201518160040190816124a091906143ab565b506101008201518160050190805190602001906124be929190612fa6565b506101208201518160060160006101000a81548160ff02191690831515021790555050503360026000836000015163ffffffff1663ffffffff16815260200190815260200160002060006101000a81548173ffffffffffffffffffffffffffffffffffffffff021916908373ffffffffffffffffffffffffffffffffffffffff1602179055506125976001600360003373ffffffffffffffffffffffffffffffffffffffff1673ffffffffffffffffffffffffffffffffffffffff16815260200190815260200160002054612d8f90919063ffffffff16565b600360003373ffffffffffffffffffffffffffffffffffffffff1673ffffffffffffffffffffffffffffffffffffffff168152602001908152602001600020819055507f1a1d86e0f039b69dc75a6a99b30e291a372ccdcae3c35990cc416065bf7277788160405161260991906136f4565b60405180910390a150505050505050505050565b6000600560008373ffffffffffffffffffffffffffffffffffffffff1673ffffffffffffffffffffffffffffffffffffffff16815260200190815260200160002060009054906101000a900463ffffffff169050919050565b61267e6119ac565b61268757600080fd5b61269081612dbb565b50565b600181815481106126a357600080fd5b90600052602060002090600702016000915090508060000160009054906101000a900463ffffffff16908060000160049054906101000a900463ffffffff16908060000160089054906101000a900463ffffffff169080600001600c9054906101000a900463ffffffff169080600101805461271e90613d80565b80601f016020809104026020016040519081016040528092919081815260200182805461274a90613d80565b80156127975780601f1061276c57610100808354040283529160200191612797565b820191906000526020600020905b81548152906001019060200180831161277a57829003601f168201915b5050505050908060020180546127ac90613d80565b80601f01602080910402602001604051908101604052809291908181526020018280546127d890613d80565b80156128255780601f106127fa57610100808354040283529160200191612825565b820191906000526020600020905b81548152906001019060200180831161280857829003601f168201915b50505050509080600301805461283a90613d80565b80601f016020809104026020016040519081016040528092919081815260200182805461286690613d80565b80156128b35780601f10612888576101008083540402835291602001916128b3565b820191906000526020600020905b81548152906001019060200180831161289657829003601f168201915b5050505050908060040180546128c890613d80565b80601f01602080910402602001604051908101604052809291908181526020018280546128f490613d80565b80156129415780601f1061291657610100808354040283529160200191612941565b820191906000526020600020905b81548152906001019060200180831161292457829003601f168201915b5050505050908060060160009054906101000a900460ff16905089565b6000806000905060005b600180549050811015612a3e578373ffffffffffffffffffffffffffffffffffffffff1660026000600184815481106129a4576129a3613c90565b5b906000526020600020906007020160000160009054906101000a900463ffffffff1663ffffffff1663ffffffff16815260200190815260200160002060009054906101000a900473ffffffffffffffffffffffffffffffffffffffff1673ffffffffffffffffffffffffffffffffffffffff1603612a2b578180612a2790613de0565b9250505b8080612a3690613de0565b915050612968565b5080915050919050565b60008263ffffffff168263ffffffff161115612a6757612a6661447d565b5b8183612a7391906144ac565b905092915050565b612ace6001600360008573ffffffffffffffffffffffffffffffffffffffff1673ffffffffffffffffffffffffffffffffffffffff16815260200190815260200160002054612d8f90919063ffffffff16565b600360008473ffffffffffffffffffffffffffffffffffffffff1673ffffffffffffffffffffffffffffffffffffffff16815260200190815260200160002081905550612b646001600360003373ffffffffffffffffffffffffffffffffffffffff1673ffffffffffffffffffffffffffffffffffffffff16815260200190815260200160002054612eb190919063ffffffff16565b600360003373ffffffffffffffffffffffffffffffffffffffff1673ffffffffffffffffffffffffffffffffffffffff1681526020019081526020016000208190555081600260008363ffffffff1663ffffffff16815260200190815260200160002060006101000a81548173ffffffffffffffffffffffffffffffffffffffff021916908373ffffffffffffffffffffffffffffffffffffffff160217905550808273ffffffffffffffffffffffffffffffffffffffff168473ffffffffffffffffffffffffffffffffffffffff167fddf252ad1be2c89b69c2b068fc378daa952ba7f163c4a11628f55a4df523b3ef60405160405180910390a4505050565b6000806000905060005b600180549050811015612d4d578373ffffffffffffffffffffffffffffffffffffffff16600260008363ffffffff1663ffffffff16815260200190815260200160002060009054906101000a900473ffffffffffffffffffffffffffffffffffffffff1673ffffffffffffffffffffffffffffffffffffffff1614158015612d26575060018181548110612d0657612d05613c90565b5b906000526020600020906007020160060160009054906101000a900460ff165b15612d3a578180612d3690613de0565b9250505b8080612d4590613de0565b915050612c6f565b5080915050919050565b6000808284612d6691906144e4565b90508363ffffffff168163ffffffff161015612d8557612d8461447d565b5b8091505092915050565b6000808284612d9e919061451c565b905083811015612db157612db061447d565b5b8091505092915050565b600073ffffffffffffffffffffffffffffffffffffffff168173ffffffffffffffffffffffffffffffffffffffff1603612df457600080fd5b8073ffffffffffffffffffffffffffffffffffffffff1660008054906101000a900473ffffffffffffffffffffffffffffffffffffffff1673ffffffffffffffffffffffffffffffffffffffff167f8be0079c531659141344cd1fd0a4f28419497f9722a3daafe3b4186f6b6457e060405160405180910390a3806000806101000a81548173ffffffffffffffffffffffffffffffffffffffff021916908373ffffffffffffffffffffffffffffffffffffffff16021790555050565b600082821115612ec457612ec361447d565b5b8183612ed09190614550565b905092915050565b604051806101400160405280600063ffffffff168152602001600063ffffffff168152602001600063ffffffff168152602001600063ffffffff16815260200160608152602001606081526020016060815260200160608152602001606081526020016000151581525090565b508054612f5190613d80565b6000825580601f10612f635750612f82565b601f016020900490600052602060002090810190612f819190612fff565b5b50565b5080546000825590600052602060002090810190612fa3919061301c565b50565b828054828255906000526020600020908101928215612fee579160200282015b82811115612fed578251829081612fdd91906143ab565b5091602001919060010190612fc6565b5b509050612ffb919061301c565b5090565b5b80821115613018576000816000905550600101613000565b5090565b5b8082111561303c57600081816130339190612f45565b5060010161301d565b5090565b6000604051905090565b600080fd5b600080fd5b600073ffffffffffffffffffffffffffffffffffffffff82169050919050565b600061307f82613054565b9050919050565b61308f81613074565b811461309a57600080fd5b50565b6000813590506130ac81613086565b92915050565b6000819050919050565b6130c5816130b2565b81146130d057600080fd5b50565b6000813590506130e2816130bc565b92915050565b600080604083850312156130ff576130fe61304a565b5b600061310d8582860161309d565b925050602061311e858286016130d3565b9150509250929050565b600063ffffffff82169050919050565b61314181613128565b811461314c57600080fd5b50565b60008135905061315e81613138565b92915050565b6000806040838503121561317b5761317a61304a565b5b60006131898582860161314f565b925050602061319a8582860161314f565b9150509250929050565b6000602082840312156131ba576131b961304a565b5b60006131c88482850161309d565b91505092915050565b600081519050919050565b600082825260208201905092915050565b6000819050602082019050919050565b61320681613128565b82525050565b600081519050919050565b600082825260208201905092915050565b60005b8381101561324657808201518184015260208101905061322b565b60008484015250505050565b6000601f19601f8301169050919050565b600061326e8261320c565b6132788185613217565b9350613288818560208601613228565b61329181613252565b840191505092915050565b600081519050919050565b600082825260208201905092915050565b6000819050602082019050919050565b60006132d48383613263565b905092915050565b6000602082019050919050565b60006132f48261329c565b6132fe81856132a7565b935083602082028501613310856132b8565b8060005b8581101561334c578484038952815161332d85826132c8565b9450613338836132dc565b925060208a01995050600181019050613314565b50829750879550505050505092915050565b60008115159050919050565b6133738161335e565b82525050565b60006101408301600083015161339260008601826131fd565b5060208301516133a560208601826131fd565b5060408301516133b860408601826131fd565b5060608301516133cb60608601826131fd565b50608083015184820360808601526133e38282613263565b91505060a083015184820360a08601526133fd8282613263565b91505060c083015184820360c08601526134178282613263565b91505060e083015184820360e08601526134318282613263565b91505061010083015184820361010086015261344d82826132e9565b91505061012083015161346461012086018261336a565b508091505092915050565b600061347b8383613379565b905092915050565b6000602082019050919050565b600061349b826131d1565b6134a581856131dc565b9350836020820285016134b7856131ed565b8060005b858110156134f357848403895281516134d4858261346f565b94506134df83613483565b925060208a019950506001810190506134bb565b50829750879550505050505092915050565b6000602082019050818103600083015261351f8184613490565b905092915050565b6000806000606084860312156135405761353f61304a565b5b600061354e8682870161309d565b935050602061355f8682870161309d565b9250506040613570868287016130d3565b9150509250925092565b6000602082840312156135905761358f61304a565b5b600061359e8482850161314f565b91505092915050565b6135b081613074565b82525050565b60006020820190506135cb60008301846135a7565b92915050565b6000602082840312156135e7576135e661304a565b5b60006135f5848285016130d3565b91505092915050565b60006101408301600083015161361760008601826131fd565b50602083015161362a60208601826131fd565b50604083015161363d60408601826131fd565b50606083015161365060608601826131fd565b50608083015184820360808601526136688282613263565b91505060a083015184820360a08601526136828282613263565b91505060c083015184820360c086015261369c8282613263565b91505060e083015184820360e08601526136b68282613263565b9150506101008301518482036101008601526136d282826132e9565b9150506101208301516136e961012086018261336a565b508091505092915050565b6000602082019050818103600083015261370e81846135fe565b905092915050565b61371f816130b2565b82525050565b600060208201905061373a6000830184613716565b92915050565b6137498161335e565b82525050565b60006020820190506137646000830184613740565b92915050565b600080fd5b600080fd5b7f4e487b7100000000000000000000000000000000000000000000000000000000600052604160045260246000fd5b6137ac82613252565b810181811067ffffffffffffffff821117156137cb576137ca613774565b5b80604052505050565b60006137de613040565b90506137ea82826137a3565b919050565b600067ffffffffffffffff82111561380a57613809613774565b5b61381382613252565b9050602081019050919050565b82818337600083830152505050565b600061384261383d846137ef565b6137d4565b90508281526020810184848401111561385e5761385d61376f565b5b613869848285613820565b509392505050565b600082601f8301126138865761388561376a565b5b813561389684826020860161382f565b91505092915050565b600067ffffffffffffffff8211156138ba576138b9613774565b5b602082029050602081019050919050565b600080fd5b60006138e36138de8461389f565b6137d4565b90508083825260208201905060208402830185811115613906576139056138cb565b5b835b8181101561394d57803567ffffffffffffffff81111561392b5761392a61376a565b5b8086016139388982613871565b85526020850194505050602081019050613908565b5050509392505050565b600082601f83011261396c5761396b61376a565b5b813561397c8482602086016138d0565b91505092915050565b61398e8161335e565b811461399957600080fd5b50565b6000813590506139ab81613985565b92915050565b60008060008060008060008060006101208a8c0312156139d4576139d361304a565b5b60006139e28c828d0161314f565b99505060206139f38c828d0161314f565b9850506040613a048c828d0161314f565b97505060608a013567ffffffffffffffff811115613a2557613a2461304f565b5b613a318c828d01613871565b96505060808a013567ffffffffffffffff811115613a5257613a5161304f565b5b613a5e8c828d01613871565b95505060a08a013567ffffffffffffffff811115613a7f57613a7e61304f565b5b613a8b8c828d01613871565b94505060c08a013567ffffffffffffffff811115613aac57613aab61304f565b5b613ab88c828d01613871565b93505060e08a013567ffffffffffffffff811115613ad957613ad861304f565b5b613ae58c828d01613957565b925050610100613af78c828d0161399c565b9150509295985092959850929598565b613b1081613128565b82525050565b6000602082019050613b2b6000830184613b07565b92915050565b600082825260208201905092915050565b6000613b4d8261320c565b613b578185613b31565b9350613b67818560208601613228565b613b7081613252565b840191505092915050565b600061012082019050613b91600083018c613b07565b613b9e602083018b613b07565b613bab604083018a613b07565b613bb86060830189613b07565b8181036080830152613bca8188613b42565b905081810360a0830152613bde8187613b42565b905081810360c0830152613bf28186613b42565b905081810360e0830152613c068185613b42565b9050613c16610100830184613740565b9a9950505050505050505050565b7f546861742773206e6f7420796f20636172000000000000000000000000000000600082015250565b6000613c5a601183613b31565b9150613c6582613c24565b602082019050919050565b60006020820190508181036000830152613c8981613c4d565b9050919050565b7f4e487b7100000000000000000000000000000000000000000000000000000000600052603260045260246000fd5b7f546865206e6577206d696c616765206d75737420626520686967686572204f5560008201527f4c45480000000000000000000000000000000000000000000000000000000000602082015250565b6000613d1b602383613b31565b9150613d2682613cbf565b604082019050919050565b60006020820190508181036000830152613d4a81613d0e565b9050919050565b7f4e487b7100000000000000000000000000000000000000000000000000000000600052602260045260246000fd5b60006002820490506001821680613d9857607f821691505b602082108103613dab57613daa613d51565b5b50919050565b7f4e487b7100000000000000000000000000000000000000000000000000000000600052601160045260246000fd5b6000613deb826130b2565b91507fffffffffffffffffffffffffffffffffffffffffffffffffffffffffffffffff8203613e1d57613e1c613db1565b5b600182019050919050565b7f5468697320636172206973206e6f7420666f722073616c650000000000000000600082015250565b6000613e5e601883613b31565b9150613e6982613e28565b602082019050919050565b60006020820190508181036000830152613e8d81613e51565b9050919050565b7f596f7520616c7265616479206f776e20746869732063617220736f20796f752060008201527f63616e206e6f7420627579206974000000000000000000000000000000000000602082015250565b6000613ef0602e83613b31565b9150613efb82613e94565b604082019050919050565b60006020820190508181036000830152613f1f81613ee3565b9050919050565b7f5072696365206d7573742062652067726561746572207468616e207a65726f00600082015250565b6000613f5c601f83613b31565b9150613f6782613f26565b602082019050919050565b60006020820190508181036000830152613f8b81613f4f565b9050919050565b600067ffffffffffffffff82169050919050565b6000613fb182613f92565b9150613fbc83613f92565b9250828202613fca81613f92565b9150808214613fdc57613fdb613db1565b5b5092915050565b600081905092915050565b50565b6000613ffe600083613fe3565b915061400982613fee565b600082019050919050565b600061401f82613ff1565b9150819050919050565b7f4574686572207472616e73666572206661696c65642e00000000000000000000600082015250565b600061405f601683613b31565b915061406a82614029565b602082019050919050565b6000602082019050818103600083015261408e81614052565b9050919050565b7f596f752068617665206e6f206d756e6579000000000000000000000000000000600082015250565b60006140cb601183613b31565b91506140d682614095565b602082019050919050565b600060208201905081810360008301526140fa816140be565b9050919050565b7f7769746864726177616c206661696c6564206f756c6568000000000000000000600082015250565b6000614137601783613b31565b915061414282614101565b602082019050919050565b600060208201905081810360008301526141668161412a565b9050919050565b7f536f6d65206669656c64732077657265206e6f7420636f72726563746c79206660008201527f696c6c656420696e2e0000000000000000000000000000000000000000000000602082015250565b60006141c9602983613b31565b91506141d48261416d565b604082019050919050565b600060208201905081810360008301526141f8816141bc565b9050919050565b60008190508160005260206000209050919050565b60006020601f8301049050919050565b600082821b905092915050565b6000600883026142617fffffffffffffffffffffffffffffffffffffffffffffffffffffffffffffffff82614224565b61426b8683614224565b95508019841693508086168417925050509392505050565b6000819050919050565b60006142a86142a361429e846130b2565b614283565b6130b2565b9050919050565b6000819050919050565b6142c28361428d565b6142d66142ce826142af565b848454614231565b825550505050565b600090565b6142eb6142de565b6142f68184846142b9565b505050565b5b8181101561431a5761430f6000826142e3565b6001810190506142fc565b5050565b601f82111561435f57614330816141ff565b61433984614214565b81016020851015614348578190505b61435c61435485614214565b8301826142fb565b50505b505050565b600082821c905092915050565b600061438260001984600802614364565b1980831691505092915050565b600061439b8383614371565b9150826002028217905092915050565b6143b48261320c565b67ffffffffffffffff8111156143cd576143cc613774565b5b6143d78254613d80565b6143e282828561431e565b600060209050601f8311600181146144155760008415614403578287015190505b61440d858261438f565b865550614475565b601f198416614423866141ff565b60005b8281101561444b57848901518255600182019150602085019450602081019050614426565b868310156144685784890151614464601f891682614371565b8355505b6001600288020188555050505b505050505050565b7f4e487b7100000000000000000000000000000000000000000000000000000000600052600160045260246000fd5b60006144b782613128565b91506144c283613128565b9250828203905063ffffffff8111156144de576144dd613db1565b5b92915050565b60006144ef82613128565b91506144fa83613128565b9250828201905063ffffffff81111561451657614515613db1565b5b92915050565b6000614527826130b2565b9150614532836130b2565b925082820190508082111561454a57614549613db1565b5b92915050565b600061455b826130b2565b9150614566836130b2565b925082820390508181111561457e5761457d613db1565b5b9291505056fea26469706673582212208b0dd8938ecf26ee6883b8bb87f73b55ca46dd9e7b1d3e2119bc22df9f9a094264736f6c63430008120033",
  "linkReferences": {},
  "deployedLinkReferences": {}
}